:020000040800F2
:1000000000500020610F0008910E0008970E0008B4
:100010009D0E0008A30E0008A90E000800000000B5
:10002000000000000000000000000000AF0E00080B
:10003000BB0E000800000000C70E0008D30E000829
:10004000A90F0008A90F0008A90F0008A90F0008B0
:10005000A90F0008E30E0008A90F0008A90F000867
:10006000A90F0008A90F0008A90F0008F10E000849
:10007000050F0008A90F0008A90F0008A90F000824
:10008000A90F0008A90F0008A90F0008A90F000870
:10009000A90F0008A90F0008A90F0008A90F000860
:1000A000A90F0008A90F0008A90F0008A90F000850
:1000B000190F0008A90F0008A90F0008A90F0008D0
:1000C000A90F0008A90F0008A90F0008A90F000830
:1000D000A90F00082D0F0008A90F0008410F000804
:1000E000A90F0008A90F0008A90F000800000000D0
:1000F0000000000000000000000000000000000000
:0C01000000000000000000005FF808F1A3
:10010C0010B5054C237833B9044B13B10448AFF345
:10011C0000800123237010BD0C00002000000000A3
:10012C00FC41000808B5034B1BB103490348AFF36E
:10013C00008008BD0000000010000020FC410008F9
:10014C0080B500AF01224FF400510D4801F044FE80
:10015C0000F0FCFA00F07CFF03460A4A1360002012
:10016C0000F028FB1F2000F037FB4FF4FA7000F072
:10017C0065FB1E224FF6FF71042000F03FFBFEE7EB
:10018C00000C01403800002080B500AF00F008FFE3
:10019C0000F016F800F05AFA00F032FA00F06EF89F
:1001AC0000F02CF900F0D8F900F000FA00F054F946
:1001BC00024802F08DFCFFF7C3FFFEE7DC010020D4
:1001CC0080B594B000AF07F128032822002118460F
:1001DC0004F006F807F1140300221A605A609A60C2
:1001EC00DA601A613B1D00221A605A609A60DA606C
:1001FC000923BB624FF48033FB6200233B63012372
:10020C00BB6301233B6402237B644FF48033BB64E8
:10021C004FF4E013FB6407F12803184601F038FF94
:10022C000346002B01D000F08BFA0F237B610223D5
:10023C00BB610023FB614FF480633B6200237B6254
:10024C0007F114030221184602F0A2F90346002B11
:10025C0001D000F075FA02237B604FF40043FB6081
:10026C003B1D184602F02EFB0346002B01D000F07C
:10027C0067FA00BF5037BD4680BD000080B584B022
:10028C0000AF3B1D00221A605A609A60594B5A4AC3
:10029C001A60584B4FF480729A60564B01221A73B5
:1002AC00544B00221A75534B4FF46022DA61514BB8
:1002BC0000225A604F4B0A221A614E4800F0D2FEBF
:1002CC000346002B01D000F03BFA10237B60012386
:1002DC00BB600723FB603B1D1946464800F09AFFA4
:1002EC000346002B01D000F02BFA01237B60022384
:1002FC00BB600023FB603B1D19463E4800F08AFFA3
:10030C000346002B01D000F01BFA02237B60032371
:10031C00BB603B1D1946374800F07CFF0346002BA1
:10032C0001D000F00DFA03237B600423BB603B1D5E
:10033C001946304800F06EFF0346002B01D000F048
:10034C00FFF904237B600523BB603B1D194629483C
:10035C0000F060FF0346002B01D000F0F1F90523FB
:10036C007B600623BB603B1D1946224800F052FF00
:10037C000346002B01D000F0E3F906237B60072332
:10038C00BB603B1D19461B4800F044FF0346002B85
:10039C0001D000F0D5F907237B600823BB603B1D1F
:1003AC001946144800F036FF0346002B01D000F02C
:1003BC00C7F908237B600923BB603B1D19460D4818
:1003CC0000F028FF0346002B01D000F0B9F90923F7
:1003DC007B600A23BB603B1D1946064800F01AFFE0
:1003EC000346002B01D000F0ABF900BF1037BD461F
:1003FC0080BD00BF240100200024014080B500AF67
:10040C00124B134A1A60114B124A5A600F4B0022BE
:10041C009A600E4B0022DA600C4B4FF480421A614A
:10042C000A4B00225A61094B00229A61074B0022A9
:10043C00DA61064B00221A62044801F0E5FC03461F
:10044C00002B01D000F07CF900BF80BD80000020A3
:10045C0000540040801A060080B58EB000AF07F142
:10046C00280300221A605A609A60DA6007F12003B0
:10047C0000221A605A603B1D00221A605A609A6072
:10048C00DA601A615A619A61324B4FF080421A60FD
:10049C00304B40F219225A602E4B00229A602D4BA1
:1004AC00ED22DA602B4B00221A612A4B00229A6152
:1004BC00284802F0BDFA0346002B01D000F040F9A9
:1004CC004FF48053BB6207F128031946214802F010
:1004DC0061FE0346002B01D000F032F91D4802F0FA
:1004EC0041FB0346002B01D000F02AF900233B62AC
:1004FC0000237B6207F120031946164803F0E0F94C
:10050C000346002B01D000F01BF960237B60002315
:10051C00BB600023FB6000237B613B1D002219465E
:10052C000C4802F079FD0346002B01D000F008F9CD
:10053C003B1D04221946074802F06EFD0346002BB2
:10054C0001D000F0FDF8034800F07AFB00BF38370B
:10055C00BD4680BDDC01002080B500AF114B124AB6
:10056C001A60104B4FF4E1325A600E4B00229A6025
:10057C000C4B0022DA600B4B00221A61094B0C2247
:10058C005A61084B00229A61064B0022DA61054839
:10059C0003F006FA0346002B01D000F0D1F800BF9F
:1005AC0080BD00BF540100200038014080B500AF71
:1005BC00114B124A1A60104B4FF4E1325A600E4B39
:1005CC0000229A600C4B0022DA600B4B00221A615D
:1005DC00094B0C225A61084B00229A61064B0022EF
:1005EC00DA61054803F0DCF90346002B01D000F07A
:1005FC00A7F800BF80BD00BF3C00002000480040B1
:10060C0080B582B000AF104B5B690F4A43F0010319
:10061C0053610D4B5B6903F001037B607B68002227
:10062C0000210B2001F007F80B2001F020F800222C
:10063C0000210C2000F0FFFF0C2001F018F800BF87
:10064C000837BD4680BD00BF0010024080B588B0A1
:10065C0000AF07F1100300221A605A609A60DA604A
:10066C00344B9B69334A43F020039361314B9B69B4
:10067C0003F02003FB60FB682E4B9B692D4A43F073
:10068C00040393612B4B9B6903F00403BB60BB68B1
:10069C00284B9B69274A43F008039361254B9B69C0
:1006AC0003F008037B607B68002246F20421224899
:1006BC0001F092FB00224FF4C851204801F08CFB52
:1006CC0046F204233B6101237B610023BB610223BF
:1006DC00FB6107F110031946174801F0F9F949F2CB
:1006EC0030033B6100237B610023BB6107F11003E6
:1006FC001946114801F0ECF94FF4C8533B61012342
:10070C007B610023BB610223FB6107F110031946D7
:10071C000A4801F0DDF94FF480733B6103237B61E0
:10072C0007F110031946044801F0D2F900BF203735
:10073C00BD4680BD00100240000C01400008014085
:10074C0080B400AF72B600BFFEE7000080B500AF0A
:10075C00034802F06DF9024802F0BAF900BF80BDFF
:10076C00DC01002080B58AB000AF03463960FB7114
:10077C0007F10C031C220021184603F031FDFB7914
:10078C00002B01D1402300E06023FB60FB793B612F
:10079C0007F10C033A681946054802F0E5FB396885
:1007AC00034802F037FA00BF2837BD4680BD00BFB2
:1007BC00DC01002080B582B000AF0346FB71FB79F1
:1007CC00044AD35C04211846FFF7CCFF00BF08375E
:1007DC00BD4680BD2442000880B582B000AF034600
:1007EC00FB71FB79044AD35C00211846FFF7BAFF72
:1007FC0000BF0837BD4680BD2442000880B483B0DA
:10080C0000AF0346FB800B46BB8013467B80094A36
:10081C00FB8813807B881B041AB2B7F9043013438E
:10082C001BB29AB2044B1A8000BF0C37BD4680BC79
:10083C00704700BF2C0200202E02002080B582B031
:10084C0000AF7860064A7B68136001224FF4807118
:10085C00044801F0C1FA00BF0837BD4680BD00BF97
:10086C00240200200008014080B500AF5C4B1B68DF
:10087C00002B0CD05A4B1B68013B594A1360002BC0
:10088C0005D100224FF48071564801F0A5FA564B61
:10089C001B88002B44D0554B1B680133534A136003
:1008AC00524B1B68504A1288934239D34F4B00224B
:1008BC001A604F4B1B6801334D4A13604C4B1B683D
:1008CC004C4A12881214403293420FD3484B0022E8
:1008DC001A60484B1B88013B9AB2464B1A80454B19
:1008EC001B88002B02D1404B00221A80404B1B6806
:1008FC003F2B03D90020FFF75DFF1BE03C4B1B682F
:10090C001F2B06D93A4B1B68DBB2C3F13F03DBB29A
:10091C0002E0374B1B68DBB21846FFF74BFF09E0D0
:10092C00314B1B88002B05D1304B00221A60304B09
:10093C0000221A60304B1B88002B44D02F4B1B68B5
:10094C0001332E4A13602D4B1B682B4A128893429D
:10095C0039D32A4B00221A60294B1B680133284AD1
:10096C001360274B1B68274A12881214403293429B
:10097C000FD3234B00221A60224B1B88013B9AB2E7
:10098C00204B1A801F4B1B88002B02D11A4B0022C4
:10099C001A801B4B1B683F2B03D90020FFF71CFF51
:1009AC001CE0174B1B681F2B06D9154B1B68DBB2C1
:1009BC00C3F13F03DBB202E0114B1B68DBB21846FC
:1009CC00FFF70AFF0AE00C4B1B88002B06D10B4BE0
:1009DC0000221A600A4B00221A60FFE700BF80BD9C
:1009EC0024020020000801402A02002028000020D8
:1009FC002C000020280200202C02002030000020B7
:100A0C00340000202E02002080B584B000AF194BBA
:100A1C009B69184A43F001039361164B9B6903F0E1
:100A2C000103BB60BB68134BDB69124A43F0805374
:100A3C00D361104BDB6903F080537B607B68002231
:100A4C000021052000F0F7FD052000F010FE0A4BF8
:100A5C005B68FB60FB6823F0E063FB60FB6843F0C2
:100A6C000073FB60044AFB68536000BF1037BD463F
:100A7C0080BD00BF001002400000014080B58AB06C
:100A8C0000AF786007F1180300221A605A609A6070
:100A9C00DA607B681B68334A93425FD1324B9B69A7
:100AAC00314A43F4007393612F4B9B6903F4007339
:100ABC007B617B692C4B9B692B4A43F0040393614C
:100ACC00294B9B6903F004033B613B69264B9B69F3
:100ADC00254A43F008039361234B9B6903F00803F9
:100AEC00FB60FB68FE23BB610323FB6107F118036A
:100AFC0019461E4800F0ECFF0323BB610323FB6186
:100B0C0007F1180319461A4800F0E2FF194B1A4A6C
:100B1C001A60184B00225A60164B00229A60154B33
:100B2C008022DA60134B4FF400721A61114B4FF4B0
:100B3C0000625A610F4B20229A610E4B0022DA613F
:100B4C000C4800F0B5FD0346002B01D0FFF7F8FD73
:100B5C007B68084A1A62074A7B68536200BF2837D1
:100B6C00BD4680BD00240140001002400008014039
:100B7C00000C0140980100200800024080B588B0AC
:100B8C0000AF786007F1100300221A605A609A6077
:100B9C00DA607B681B68154A934223D1144B9B691E
:100BAC00134A43F008039361114B9B6903F008034C
:100BBC00FB60FB68C0233B6112237B610323FB6159
:100BCC0007F1100319460B4800F082FF084BDB6954
:100BDC00074A43F40013D361054BDB6903F400139C
:100BEC00BB60BB6800BF2037BD4680BD00540040D1
:100BFC0000100240000C014080B584B000AF78605A
:100C0C007B681B68B3F1804F13D10C4BDB690B4A2B
:100C1C0043F00103D361094BDB6903F00103FB6073
:100C2C00FB68002200211C2000F005FD1C2000F0B8
:100C3C001EFD00BF1037BD4680BD00BF0010024036
:100C4C0080B58AB000AF786007F1140300221A60F7
:100C5C005A609A60DA607B681B68B3F1804F42D1AE
:100C6C00234B9B69224A43F004039361204B9B69FD
:100C7C0003F004033B613B691D4B9B691C4A43F029
:100C8C00080393611A4B9B6903F00803FB60FB6834
:100C9C004FF400437B610223BB6102233B6207F1EB
:100CAC0014031946134800F013FF08237B61022339
:100CBC00BB6102233B6207F1140319460E4800F096
:100CCC0007FF0E4B5B687B627B6A23F440737B628D
:100CDC007B6A43F0E0637B627B6A43F480737B62E4
:100CEC00064A7B6A536000BF2837BD4680BD00BFF3
:100CFC000010024000080140000C014000000140BF
:100D0C0080B58AB000AF786007F1180300221A6032
:100D1C005A609A60DA607B681B68534A93423AD1F6
:100D2C00524B9B69514A43F4804393614F4B9B69EF
:100D3C0003F480437B617B694C4B9B694B4A43F0CA
:100D4C0004039361494B9B6903F004033B613B69CA
:100D5C004FF40073BB610223FB6103237B6207F139
:100D6C0018031946424800F0B3FE4FF48063BB6190
:100D7C000023FB6100233B6207F1180319463C4832
:100D8C0000F0A6FE00220021252000F054FC2520B6
:100D9C0000F06DFC64E07B681B68364A93425FD1BF
:100DAC00324BDB69314A43F48023D3612F4BDB692F
:100DBC0003F48023FB60FB682C4B9B692B4A43F0AC
:100DCC0008039361294B9B6903F00803BB60BB6864
:100DDC004FF48063BB610223FB6103237B6207F149
:100DEC0018031946244800F073FE4FF40063BB61EE
:100DFC000023FB6100233B6207F1180319461E48D0
:100E0C0000F066FE1D4B1E4A1A601C4B10225A60E5
:100E1C001A4B00229A60194B8022DA60174B002281
:100E2C001A61164B00225A61144B00229A61134B23
:100E3C000022DA61114800F03BFC0346002B01D084
:100E4C00FFF77EFC7B680D4A5A630C4A7B68536241
:100E5C0000220021272000F0EEFB272000F007FCE9
:100E6C0000BF2837BD4680BD00380140001002404D
:100E7C000008014000480040000C0140E000002048
:100E8C001C00024080B400AFFEE780B400AFFEE768
:100E9C0080B400AFFEE780B400AFFEE780B400AFD3
:100EAC00FEE780B400AF00BFBD4680BC704780B485
:100EBC0000AF00BFBD4680BC704780B400AF00BF20
:100ECC00BD4680BC704780B500AF00F0AFF800F0B5
:100EDC00E8FB00BF80BD80B400AF00BFBD4680BC46
:100EEC007047000080B500AF024800F0EBFC00BF7B
:100EFC0080BD00BF9801002080B500AF024800F013
:100F0C00E1FC00BF80BD00BFE000002080B500AF59
:100F1C00024801F021FF00BF80BD00BFDC010020B2
:100F2C0080B500AF024802F089FD00BF80BD00BF54
:100F3C005401002080B500AF024802F07FFD00BFD5
:100F4C0080BD00BF3C00002080B400AF00BFBD4698
:100F5C0080BC70470C480D490D4A002302E0D45860
:100F6C00C4500433C4188C42F9D30A4A0A4C0023E7
:100F7C0001E013600432A242FBD3FFF7E5FF03F05C
:100F8C000BF9FFF701F97047000000200C0000205E
:100F9C00644200080C00002034020020FEE7000030
:100FAC0080B500AF084B1B68074A43F01003136071
:100FBC00032000F035FB002000F008F8FFF724FDBB
:100FCC000023184680BD00BF0020024080B582B0CF
:100FDC0000AF7860124B1A68124B1B7819464FF40D
:100FEC007A73B3FBF1F3B2FBF3F3184600F04DFB4D
:100FFC000346002B01D001230EE07B680F2B0AD88F
:10100C00002279684FF0FF3000F015FB064A7B6830
:10101C001360002300E0012318460837BD4680BD4D
:10102C0000000020080000200400002080B400AF65
:10103C00054B1B781A46054B1B681344034A136077
:10104C0000BFBD4680BC7047080000203002002065
:10105C0080B400AF024B1B681846BD4680BC70477D
:10106C003002002080B586B000AF78600023FB759D
:10107C0000233B610023BB600023FB607B68002BDB
:10108C0001D10123BEE07B689B68002B7B689B6AC7
:10109C00002B09D17B680022DA627B68002283F87E
:1010AC0024207868FFF7EAFC786800F0ABF9034677
:1010BC00FB757B689B6A03F01003002B40F0998052
:1010CC00FB7D002B40F095807B689B6A23F4885352
:1010DC0023F0020343F002027B689A627B685A6831
:1010EC007B68DB691A437B681B7B5B001343BA6824
:1010FC001343BB607B689B68B3F5807F03D07B6830
:10110C009B68012B02D14FF4807300E000233A69F5
:10111C0013433B617B681B7D012B19D17B681B7BC7
:10112C00002B09D17B689B69013B5A033B69134334
:10113C0043F400633B610BE07B689B6A43F0200245
:10114C007B689A627B68DB6A43F001027B68DA6237
:10115C007B681B685B6823F469417B681B683A6990
:10116C000A435A607B681B689A68284B13407A685C
:10117C001268B9680B4393607B689B68B3F5807FFA
:10118C0003D07B689B68012B04D17B681B69013BF6
:10119C001B05FB607B681B68DB6A23F470017B68B2
:1011AC001B68FA680A43DA627B681B689A68184BFA
:1011BC001340BA689A420BD17B680022DA627B68D2
:1011CC009B6A23F0030343F001027B689A6218E0E8
:1011DC007B689B6A23F0120343F010027B689A62CF
:1011EC007B68DB6A43F001027B68DA620123FB75E2
:1011FC0007E07B689B6A43F010027B689A620123CC
:10120C00FB75FB7D18461837BD4680BDFDF7E1FF29
:10121C00FE0E1FFF80B485B000AF786039600023EC
:10122C00FB730023BB607B6893F82430012B01D146
:10123C000223DCE07B68012283F824203B685B6896
:10124C00062B1CD87B681B68596B3B685A68134685
:10125C009B001344053B1F2202FA03F3DB431940A6
:10126C003B6818683B685A6813469B001344053B5F
:10127C0000FA03F27B681B680A435A633CE03B6844
:10128C005B680C2B1CD87B681B68196B3B685A6815
:10129C0013469B001344233B1F2202FA03F3DB4348
:1012AC0019403B6818683B685A6813469B00134406
:1012BC00233B00FA03F27B681B680A431A631BE0AA
:1012CC007B681B68D96A3B685A6813469B001344B9
:1012DC00413B1F2202FA03F3DB4319403B681868B9
:1012EC003B685A6813469B001344413B00FA03F2D7
:1012FC007B681B680A43DA623B681B68092B1CD9A4
:10130C007B681B68D9683B681A6813465B001344FA
:10131C001E3B072202FA03F3DB4319403B68986833
:10132C003B681A6813465B0013441E3B00FA03F239
:10133C007B681B680A43DA6019E07B681B681969D3
:10134C003B681A6813465B001344072202FA03F346
:10135C00DB4319403B6898683B681A6813465B008E
:10136C00134400FA03F27B681B680A431A613B685A
:10137C001B68102B03D03B681B68112B32D17B6888
:10138C001B681D4A934225D17B681B689B6803F43C
:10139C000003002B26D17B681B689A687B681B684E
:1013AC0042F400029A603B681B68102B1AD1134B55
:1013BC001B68134AA2FB03239A0C13469B0013448D
:1013CC005B00BB6002E0BB68013BBB60BB68002BF1
:1013DC00F9D107E07B689B6A43F020027B689A6234
:1013EC000123FB737B68002283F82420FB7B1846C7
:1013FC001437BD4680BC704700240140000000201B
:10140C0083DE1B4380B584B000AF78600023FB60A3
:10141C007B681B689B6803F00103012B2ED17B6852
:10142C001B689A687B681B6822F001029A60FFF7C0
:10143C000FFEF8601BE0FFF70BFE0246FB68D31AA9
:10144C00022B14D97B681B689B6803F00103012BEA
:10145C000DD17B689B6A43F010027B689A627B68B3
:10146C00DB6A43F001027B68DA62012307E07B68E8
:10147C001B689B6803F00103012BDCD0002318468A
:10148C001037BD4680BD000080B485B000AF7860D9
:10149C007B6803F00703FB600C4BDB68BB60BA682E
:1014AC004FF6FF031340BB60FB681A02BB68134383
:1014BC0043F0BF6343F40033BB60044ABB68D360A2
:1014CC0000BF1437BD4680BC704700BF00ED00E084
:1014DC0080B400AF044BDB681B0A03F0070318460B
:1014EC00BD4680BC704700BF00ED00E080B483B007
:1014FC0000AF0346FB7197F90730002B0BDBFB7930
:10150C0003F01F02064997F907305B09012000FA26
:10151C0002F241F8232000BF0C37BD4680BC704757
:10152C0000E100E080B483B000AF03463960FB718A
:10153C0097F90730002B0ADB3B68DAB20C4997F9B4
:10154C0007301201D2B20B4483F800230AE03B6847
:10155C00DAB20849FB7903F00F03043B1201D2B253
:10156C000B441A7600BF0C37BD4680BC704700BFD9
:10157C0000E100E000ED00E080B489B000AFF8605D
:10158C00B9607A60FB6803F00703FB61FB69C3F188
:10159C000703042B28BF0423BB61FB690433062B10
:1015AC0002D9FB69033B00E000237B614FF0FF3263
:1015BC00BB6902FA03F3DA43BB681A407B699A40B1
:1015CC004FF0FF317B6901FA03F3D9437B680B4081
:1015DC00134318462437BD4680BC704780B582B093
:1015EC0000AF78607B68013BB3F1807F01D30123AE
:1015FC000FE00A4A7B68013B53600F214FF0FF302C
:10160C00FFF790FF054B00229A60044B07221A60EB
:10161C00002318460837BD4680BD00BF10E000E02F
:10162C0080B582B000AF78607868FFF72DFF00BFFF
:10163C000837BD4680BD80B586B000AF0346B960A3
:10164C007A60FB7300237B61FFF742FF78617A6855
:10165C00B9687869FFF790FF024697F90F30114689
:10166C001846FFF75FFF00BF1837BD4680BD80B539
:10167C0082B000AF0346FB7197F907301846FFF7AD
:10168C0035FF00BF0837BD4680BD80B582B000AFC6
:10169C0078607868FFF7A2FF034618460837BD4606
:1016AC0080BD80B500AFFFF7DFF800BF80BD000044
:1016BC0080B485B000AF78600023FB607B68002BA2
:1016CC0001D1012343E07B681B681A46224B13446B
:1016DC00224AA2FB03231B099A007B681A647B68CD
:1016EC001F4ADA637B68022283F821207B681B681F
:1016FC001B68FB60FB6823F47F5323F03003FB6013
:10170C007B685A687B689B681A437B68DB681A4362
:10171C007B681B691A437B685B691A437B689B690E
:10172C001A437B68DB691343FA681343FB607B68DD
:10173C001B68FA681A607B6800229A637B68012236
:10174C0083F821207B68002283F820200023184690
:10175C001437BD4680BC7047F8FFFDBFCDCCCCCC58
:10176C000000024080B485B000AF78600023FB73AA
:10177C007B6893F82130022B08D07B6804229A6393
:10178C007B68002283F82020012320E07B681B6803
:10179C001A687B681B6822F00E021A607B681B6853
:1017AC001A687B681B6822F001021A607B681A6C4D
:1017BC007B68DB6B012101FA02F25A607B68012223
:1017CC0083F821207B68002283F82020FB7B1846BD
:1017DC001437BD4680BC704780B584B000AF7860CC
:1017EC000023FB737B6893F82130022B05D07B68B8
:1017FC0004229A630123FB7351E07B681B681A680F
:10180C007B681B6822F00E021A607B681B681A68E2
:10181C007B681B6822F001021A607B681B68224AF5
:10182C00934229D07B681B68204A934222D07B6864
:10183C001B681F4A93421AD07B681B681D4A93424F
:10184C0012D07B681B681C4A93420AD07B681B68C9
:10185C001A4A934202D14FF480130EE04FF080737A
:10186C000BE04FF4803308E04FF4805305E04FF465
:10187C00807302E0102300E00123114A53607B685F
:10188C00012283F821207B68002283F820207B68CA
:10189C005B6B002B03D07B685B6B78689847FB7B9A
:1018AC0018461037BD4680BD080002401C0002409F
:1018BC003000024044000240580002406C000240DC
:1018CC000000024080B584B000AF78607B68DB6BB1
:1018DC001B68FB607B681B681B68BB607B681B6CB0
:1018EC0004229A40FB681340002B4FD0BB6803F0D6
:1018FC000403002B4AD07B681B681B6803F0200391
:10190C00002B07D17B681B681A687B681B6822F068
:10191C0004021A607B681B68664A934229D07B6874
:10192C001B68654A934222D07B681B68634A9342CA
:10193C001AD07B681B68624A934212D07B681B6882
:10194C00604A93420AD07B681B685F4A934202D17B
:10195C004FF480030EE04FF080630BE04FF48023D4
:10196C0008E04FF4804305E04FF4806302E040232D
:10197C0000E00423554A53607B68DB6A002B00F0BF
:10198C0094807B68DB6A786898478EE07B681B6C78
:10199C0002229A40FB681340002B56D0BB6803F020
:1019AC000203002B51D07B681B681B6803F02003DB
:1019BC00002B0BD17B681B681A687B681B6822F0B4
:1019CC000A021A607B68012283F821207B681B685D
:1019DC00384A934229D07B681B68374A934222D0FD
:1019EC007B681B68354A93421AD07B681B68344A63
:1019FC00934212D07B681B68324A93420AD07B68B0
:101A0C001B68314A934202D14FF400130EE04FF0A1
:101A1C0000730BE04FF4003308E04FF4005305E083
:101A2C004FF4007302E0202300E00223274A5360A6
:101A3C007B68002283F820207B689B6A002B34D0C3
:101A4C007B689B6A786898472FE07B681B6C082240
:101A5C009A40FB681340002B28D0BB6803F00803A6
:101A6C00002B23D07B681B681A687B681B6822F0EC
:101A7C000E021A607B681A6C7B68DB6B012101FA21
:101A8C0002F25A607B6801229A637B68012283F818
:101A9C0021207B68002283F820207B681B6B002BA5
:101AAC0004D07B681B6B7868984700BF00BF103769
:101ABC00BD4680BD080002401C00024030000240C0
:101ACC0044000240580002406C00024000000240FA
:101ADC0080B48BB000AF7860396000237B62002348
:101AEC003B6269E101227B6A02FA03F3FB613B680A
:101AFC001B68FA691340BB61BA69FB699A4240F0F2
:101B0C0058813B685B689A4A93425ED0984A9342EC
:101B1C0075D8984A934258D0964A93426FD8964AB1
:101B2C00934252D0944A934269D8944A93424CD0EF
:101B3C00924A934263D8924A934246D0904A934237
:101B4C005DD8122B2AD8122B59D801A252F823F0A7
:101B5C00D71B0008B11B0008C31B0008051C00089C
:101B6C000B1C00080B1C00080B1C00080B1C0008AD
:101B7C000B1C00080B1C00080B1C00080B1C00089D
:101B8C000B1C00080B1C00080B1C00080B1C00088D
:101B9C000B1C0008B91B0008CD1B0008794A9342A6
:101BAC0013D02CE03B68DB683B6229E03B68DB68C8
:101BBC0004333B6224E03B68DB6808333B621FE084
:101BCC003B68DB680C333B621AE03B689B68002B7C
:101BDC0002D104233B6213E03B689B68012B05D1C7
:101BEC0008233B627B68FA691A6109E008233B62AF
:101BFC007B68FA695A6103E000233B6200E000BF96
:101C0C00BB69FF2B01D87B6801E07B6804337B61E7
:101C1C00BB69FF2B02D87B6A9B0002E07B6A083B06
:101C2C009B003B617B691A680F213B6901FA03F346
:101C3C00DB431A40396A3B6901FA03F31A437B69A7
:101C4C001A603B685B6803F08053002B00F0B18096
:101C5C004D4B9B694C4A43F0010393614A4B9B6982
:101C6C0003F00103BB60BB68484A7B6A9B080233E4
:101C7C0052F82330FB607B6A03F003039B000F22B6
:101C8C0002FA03F3DB43FA681340FB607B68404ABB
:101C9C00934213D07B683F4A93420DD07B683E4AF7
:101CAC00934207D07B683D4A934201D1032306E05F
:101CBC00042304E0022302E0012300E000237A6AFB
:101CCC0002F0030292009340FA681343FB602F4921
:101CDC007B6A9B080233FA6841F823203B685B68F7
:101CEC0003F48033002B06D02D4B1A682C49BB69AA
:101CFC0013430B6006E02A4B1A68BB69DB43284987
:101D0C0013400B603B685B6803F40033002B06D078
:101D1C00234B5A682249BB6913434B6006E0204BA6
:101D2C005A68BB69DB431E4913404B603B685B68D8
:101D3C0003F48013002B06D0194B9A681849BB6921
:101D4C0013438B6006E0164B9A68BB69DB4314495E
:101D5C0013408B603B685B6803F40013002B21D0AD
:101D6C000F4BDA680E49BB691343CB6021E000BF0F
:101D7C000000321000003110000022100000211071
:101D8C000000121000001110001002400000014071
:101D9C0000080140000C01400010014000140140FB
:101DAC00000401400B4BDA68BB69DB430949134063
:101DBC00CB607B6A01337B623B681A687B6A22FAD0
:101DCC0003F3002B7FF48EAE00BF00BF2C37BD4653
:101DDC0080BC70470004014080B483B000AF7860D1
:101DEC000B467B8013467B707B78002B03D07A8864
:101DFC007B681A6103E07B881A047B681A6100BF58
:101E0C000C37BD4680BC704780B584B000AF78609D
:101E1C007B68002B01D101232BE17B6893F83D30CB
:101E2C00DBB2002B06D17B68002283F83C2078685B
:101E3C00FEF7A4FE7B68242283F83D207B681B6898
:101E4C001A687B681B6822F001021A607B681B68A9
:101E5C001A687B681B6842F400421A607B681B6836
:101E6C001A687B681B6822F400421A6000F0E4FCDC
:101E7C00F8607B685B68814A934207D8FB68804AAC
:101E8C00934294BF01230023DBB206E0FB687D4A3A
:101E9C00934294BF01230023DBB2002B01D001231A
:101EAC00E7E0FB68784AA2FB03239B0CBB607B68D2
:101EBC001B685B6823F03F017B681B68BA680A43A8
:101ECC005A607B681B681B6A23F03F017B685B6868
:101EDC006A4A934202D8BB68013309E0BB684FF4ED
:101EEC00967202FB03F3694AA2FB03239B0901339D
:101EFC007A6812680B4313627B681B68DB6923F4F6
:101F0C004F4222F0FF027B685B685C498B4219D818
:101F1C00FB68591E7B685B685B00B1FBF3F3591CD3
:101F2C0040F6FC730B40002B0AD0FB68591E7B68F3
:101F3C005B685B00B1FBF3F30133C3F30B0351E0BC
:101F4C0004234FE07B689B68002B11D1FB68581E63
:101F5C007B6859680B465B000B44B0FBF3F3013311
:101F6C00C3F30B03002B0CBF01230023DBB212E0E5
:101F7C00FB68581E7B6859680B469B000B44990004
:101F8C000B44B0FBF3F30133C3F30B03002B0CBF77
:101F9C0001230023DBB2002B01D0012322E07B685C
:101FAC009B68002B0ED1FB68581E7B6859680B464A
:101FBC005B000B44B0FBF3F30133C3F30B0343F4AB
:101FCC0000430FE0FB68581E7B6859680B469B006A
:101FDC000B4499000B44B0FBF3F30133C3F30B0335
:101FEC0043F44043796809681343CB617B681B68F1
:101FFC001B6823F0C0017B68DA697B681B6A1A4393
:10200C007B681B680A431A607B681B689B6823F417
:10201C00034323F0FF037A6811697A68D26811438D
:10202C007A6812680B4393607B681B68DB6823F04B
:10203C00FF017B685A697B689B691A437B681B6844
:10204C000A43DA607B681B681A687B681B6842F07D
:10205C0001021A607B6800221A647B68202283F8D4
:10206C003D207B6800221A637B68002283F83E20A7
:10207C00002318461037BD4680BD00BFA086010066
:10208C007F841E00FF083D0083DE1B43D34D62108E
:10209C0080B586B000AF78607B68002B01D101233E
:1020AC006CE27B681B6803F00103002B00F0878057
:1020BC00924B5B6803F00C03042B0CD08F4B5B68CA
:1020CC0003F00C03082B12D18C4B5B6803F48033A8
:1020DC00B3F5803F0BD1894B1B6803F40033002B05
:1020EC006CD07B685B68002B68D1012346E27B686F
:1020FC005B68B3F5803F06D1804B1B687F4A43F485
:10210C00803313602EE07B685B68002B0CD17B4B1B
:10211C001B687A4A23F480331360784B1B68774A28
:10212C0023F4802313601DE07B685B68B3F5A02F5C
:10213C000CD1724B1B68714A43F4802313606F4BB4
:10214C001B686E4A43F4803313600BE06B4B1B68C7
:10215C006A4A23F480331360684B1B68674A23F484
:10216C00802313607B685B68002B13D0FEF770FF35
:10217C00386108E0FEF76CFF02463B69D31A642B0A
:10218C0001D90323FAE15D4B1B6803F40033002BE8
:10219C00F0D014E0FEF75CFF386108E0FEF758FF62
:1021AC0002463B69D31A642B01D90323E6E1534B56
:1021BC001B6803F40033002BF0D100E000BF7B68F8
:1021CC001B6803F00203002B63D04C4B5B6803F0DD
:1021DC000C03002B0BD0494B5B6803F00C03082B52
:1021EC001CD1464B5B6803F48033002B16D1434B58
:1021FC001B6803F00203002B05D07B681B69012BC5
:10220C0001D00123BAE13D4B1B6823F0F8027B6837
:10221C005B69DB00394913430B603AE07B681B694F
:10222C00002B20D0364B01221A60FEF711FF3861CB
:10223C0008E0FEF70DFF02463B69D31A022B01D9C9
:10224C0003239BE12D4B1B6803F00203002BF0D002
:10225C002A4B1B6823F0F8027B685B69DB0027497B
:10226C0013430B6015E0264B00221A60FEF7F0FEBC
:10227C00386108E0FEF7ECFE02463B69D31A022BEC
:10228C0001D903237AE11D4B1B6803F00203002BD9
:10229C00F0D17B681B6803F00803002B3AD07B68F5
:1022AC009B69002B19D0174B01221A60FEF7D0FE48
:1022BC00386108E0FEF7CCFE02463B69D31A022BCC
:1022CC0001D903235AE10D4B5B6A03F00203002B87
:1022DC00F0D0012000F0D8FA1CE00A4B00221A6062
:1022EC00FEF7B6FE38610FE0FEF7B2FE02463B6920
:1022FC00D31A022B08D9032340E100BF001002407F
:10230C0000004242800442429E4B5B6A03F002038F
:10231C00002BE9D17B681B6803F00403002B00F051
:10232C00A6800023FB75974BDB6903F08053002BD1
:10233C000DD1944BDB69934A43F08053D361914B9D
:10234C00DB6903F08053BB60BB680123FB758E4BCC
:10235C001B6803F48073002B18D18B4B1B688A4AC3
:10236C0043F480731360FEF773FE386108E0FEF7E8
:10237C006FFE02463B69D31A642B01D90323FDE09F
:10238C00814B1B6803F48073002BF0D07B68DB68F7
:10239C00012B06D17B4B1B6A7A4A43F00103136273
:1023AC002DE07B68DB68002B0CD1764B1B6A754AE1
:1023BC0023F001031362734B1B6A724A23F004036C
:1023CC0013621CE07B68DB68052B0CD16D4B1B6A20
:1023DC006C4A43F0040313626A4B1B6A694A43F06C
:1023EC00010313620BE0674B1B6A664A23F001037F
:1023FC001362644B1B6A634A23F0040313627B6809
:10240C00DB68002B15D0FEF723FE38610AE0FEF7DF
:10241C001FFE02463B69D31A41F28832934201D91E
:10242C000323ABE0574B1B6A03F00203002BEED0E7
:10243C0014E0FEF70DFE38610AE0FEF709FE0246D5
:10244C003B69D31A41F28832934201D9032395E0B8
:10245C004C4B1B6A03F00203002BEED1FB7D012BCE
:10246C0005D1484BDB69474A23F08053D3617B6825
:10247C00DB69002B00F08180424B5B6803F00C039E
:10248C00082B61D07B68DB69022B46D13F4B0022C5
:10249C001A60FEF7DDFD386108E0FEF7D9FD024653
:1024AC003B69D31A022B01D9032367E0354B1B6818
:1024BC0003F00073002BF0D17B681B6AB3F5803FEF
:1024CC0008D1304B5B6823F400327B689B682D4944
:1024DC0013434B602B4B5B6823F474127B68196AB3
:1024EC007B685B6A0B43274913434B60274B0122E4
:1024FC001A60FEF7ADFD386108E0FEF7A9FD024653
:10250C003B69D31A022B01D9032337E01D4B1B68FF
:10251C0003F00073002BF0D02FE01C4B00221A604C
:10252C00FEF796FD386108E0FEF792FD02463B6926
:10253C00D31A022B01D9032320E0124B1B6803F0A2
:10254C000073002BF0D118E07B68DB69012B01D103
:10255C00012313E00B4B5B68FB60FB6803F48032D8
:10256C007B681B6A9A4206D1FB6803F470127B6885
:10257C005B6A9A4201D0012300E000231846183709
:10258C00BD4680BD00100240007000406000424219
:10259C0080B584B000AF786039607B68002B01D1C6
:1025AC000123D0E06A4B1B6803F007033A689A4298
:1025BC0010D9674B1B6823F0070265493B6813432E
:1025CC000B60634B1B6803F007033A689A4201D017
:1025DC000123B8E07B681B6803F00203002B20D0BA
:1025EC007B681B6803F00403002B05D0594B5B6818
:1025FC00584A43F4E06353607B681B6803F008039C
:10260C00002B05D0534B5B68524A43F46053536024
:10261C00504B5B6823F0F0027B689B684D49134379
:10262C004B607B681B6803F00103002B40D07B6878
:10263C005B68012B07D1474B1B6803F40033002B5D
:10264C0015D101237FE07B685B68022B07D1414BDE
:10265C001B6803F00073002B09D1012373E03D4B81
:10266C001B6803F00203002B01D101236BE0394BF3
:10267C005B6823F003027B685B68364913434B604D
:10268C00FEF7E6FCF8600AE0FEF7E2FC0246FB68A7
:10269C00D31A41F28832934201D9032353E02D4BD4
:1026AC005B6803F00C027B685B689B009A42EBD181
:1026BC00274B1B6803F007033A689A4210D2244B4D
:1026CC001B6823F0070222493B6813430B60204B25
:1026DC001B6803F007033A689A4201D0012332E0E9
:1026EC007B681B6803F00403002B08D0194B5B6854
:1026FC0023F4E0627B68DB68164913434B607B680C
:10270C001B6803F00803002B09D0124B5B6823F401
:10271C0060527B681B69DB000E4913434B6000F071
:10272C0021F802460B4B5B681B0903F00F030A49A7
:10273C00CB5C22FA03F3094A1360094B1B68184659
:10274C00FEF744FC002318461037BD4680BD00BF81
:10275C00002002400010024044420008000000200B
:10276C000400002090B48AB000AF2A4B3C1D0FCB64
:10277C0084E80F0040F201233B800023FB6100231F
:10278C00BB6100237B6200237B6100233B62224BF5
:10279C005B68FB61FB6903F00C03042B02D0082B74
:1027AC0003D02DE01D4B3B622DE0FB699B0C03F02D
:1027BC000F0307F12802134413F8243C7B61FB69D7
:1027CC0003F48033002B13D0134B5B685B0C03F0CA
:1027DC00010307F12802134413F8283CBB617B6901
:1027EC000E4A02FB03F2BB69B2FBF3F37B6204E01B
:1027FC007B690B4A02FB03F37B627B6A3B6202E060
:10280C00064B3B6200BF3B6A18462837BD4690BC5E
:10281C00704700BF144200080010024000127A00FA
:10282C0000093D0080B400AF024B1B681846BD4642
:10283C0080BC70470000002080B500AFFFF7F2FFAE
:10284C000246054B5B681B0A03F007030349CB5C8C
:10285C0022FA03F3184680BD0010024054420008CF
:10286C0080B500AFFFF7DEFF0246054B5B68DB0A65
:10287C0003F007030349CB5C22FA03F3184680BD2F
:10288C00001002405442000880B485B000AF78605C
:10289C000A4B1B680A4AA2FB03235B0A7A6802FBF9
:1028AC0003F3FB6000BFFB685A1EFA60002BF9D1E2
:1028BC0000BF00BF1437BD4680BC7047000000202D
:1028CC00D34D621080B586B000AF786000233B61B9
:1028DC000023FB607B681B6803F00103002B7DD099
:1028EC000023FB754F4BDB6903F08053002B0DD19C
:1028FC004C4BDB694B4A43F08053D361494BDB694A
:10290C0003F08053BB60BB680123FB75464B1B680F
:10291C0003F48073002B18D1434B1B68424A43F4D9
:10292C0080731360FEF794FB386108E0FEF790FBB0
:10293C0002463B69D31A642B01D903236DE03A4B51
:10294C001B6803F48073002BF0D0364B1B6A03F426
:10295C004073FB60FB68002B2ED07B685B6803F434
:10296C004073FA689A4227D02E4B1B6A23F44073AB
:10297C00FB602E4B01221A602C4B00221A60294A54
:10298C00FB681362FB6803F00103002B14D0FEF705
:10299C005FFB38610AE0FEF75BFB02463B69D31A2A
:1029AC0041F28832934201D9032336E01D4B1B6A56
:1029BC0003F00203002BEED01A4B1B6A23F4407277
:1029CC007B685B68174913430B62FB7D012B05D1B8
:1029DC00144BDB69134A23F08053D3617B681B686B
:1029EC0003F00203002B08D00E4B5B6823F440422B
:1029FC007B689B680B4913434B607B681B6803F037
:102A0C001003002B08D0074B5B6823F480027B6813
:102A1C00DB68044913434B60002318461837BD4646
:102A2C0080BD00BF001002400070004040044242D4
:102A3C0080B582B000AF78607B68002B01D1012398
:102A4C0041E07B6893F83D30DBB2002B06D17B680C
:102A5C00002283F83C207868FEF7CEF87B680222CF
:102A6C0083F83D207B681A687B680433194610464E
:102A7C0000F082FC7B68012283F846207B680122EF
:102A8C0083F83E207B68012283F83F207B6801227B
:102A9C0083F840207B68012283F841207B68012267
:102AAC0083F842207B68012283F843207B68012253
:102ABC0083F844207B68012283F845207B6801223F
:102ACC0083F83D20002318460837BD4680BD000022
:102ADC0080B485B000AF78607B6893F83D30DBB292
:102AEC00012B01D0012332E07B68022283F83D20C8
:102AFC007B681B68184A93420ED07B681B68B3F145
:102B0C00804F09D07B681B68144A934204D07B68C1
:102B1C001B68134A934211D17B681B689B6803F0B6
:102B2C000703FB60FB68062B10D07B681B681A68D8
:102B3C007B681B6842F001021A6007E07B681B6827
:102B4C001A687B681B6842F001021A600023184661
:102B5C001437BD4680BC7047002C01400004004077
:102B6C000008004080B582B000AF78607B68002B15
:102B7C0001D1012341E07B6893F83D30DBB2002B9F
:102B8C0006D17B68002283F83C20786800F039F885
:102B9C007B68022283F83D207B681A687B680433CB
:102BAC001946104600F0E8FB7B68012283F84620AA
:102BBC007B68012283F83E207B68012283F83F204A
:102BCC007B68012283F840207B68012283F8412036
:102BDC007B68012283F842207B68012283F8432022
:102BEC007B68012283F844207B68012283F845200E
:102BFC007B68012283F83D20002318460837BD4628
:102C0C0080BD80B483B000AF786000BF0C37BD4688
:102C1C0080BC704780B584B000AF786039603B6889
:102C2C00002B09D17B6893F83E30DBB2012B14BF2B
:102C3C0001230023DBB222E03B68042B09D17B6823
:102C4C0093F83F30DBB2012B14BF01230023DBB21E
:102C5C0015E03B68082B09D17B6893F84030DBB258
:102C6C00012B14BF01230023DBB208E07B6893F82F
:102C7C004130DBB2012B14BF01230023DBB2002B4C
:102C8C0001D001235EE03B68002B04D17B6802225B
:102C9C0083F83E2013E03B68042B04D17B680222AE
:102CAC0083F83F200BE03B68082B04D17B680222A1
:102CBC0083F8402003E07B68022283F841207B6884
:102CCC001B6801223968184600F0D6FD7B681B682A
:102CDC001E4A934207D17B681B685A6C7B681B6841
:102CEC0042F400425A647B681B68184A93420ED027
:102CFC007B681B68B3F1804F09D07B681B68144A52
:102D0C00934204D07B681B68124A934211D17B68B2
:102D1C001B689B6803F00703FB60FB68062B10D055
:102D2C007B681B681A687B681B6842F001021A609A
:102D3C0007E07B681B681A687B681B6842F001021D
:102D4C001A60002318461037BD4680BD002C014088
:102D5C00000400400008004080B582B000AF7860ED
:102D6C007B681B681B6903F00203022B22D17B6872
:102D7C001B68DB6803F00203022B1BD17B681B680A
:102D8C006FF002021A617B6801221A777B681B685C
:102D9C009B6903F00303002B03D0786800F0D0FA92
:102DAC0005E0786800F0C3FA786800F0D2FA7B6826
:102DBC0000221A777B681B681B6903F00403042B41
:102DCC0022D17B681B68DB6803F00403042B1BD146
:102DDC007B681B686FF004021A617B6802221A7709
:102DEC007B681B689B6903F44073002B03D07868E5
:102DFC0000F0A6FA05E0786800F099FA786800F01F
:102E0C00A8FA7B6800221A777B681B681B6903F0A1
:102E1C000803082B22D17B681B68DB6803F00803CE
:102E2C00082B1BD17B681B686FF008021A617B684A
:102E3C0004221A777B681B68DB6903F00303002B01
:102E4C0003D0786800F07CFA05E0786800F06FFA3F
:102E5C00786800F07EFA7B6800221A777B681B6822
:102E6C001B6903F01003102B22D17B681B68DB68F5
:102E7C0003F01003102B1BD17B681B686FF0100242
:102E8C001A617B6808221A777B681B68DB6903F47C
:102E9C004073002B03D0786800F052FA05E0786894
:102EAC0000F045FA786800F054FA7B6800221A7733
:102EBC007B681B681B6903F00103012B0ED17B6837
:102ECC001B68DB6803F00103012B07D17B681B68CF
:102EDC006FF001021A61786800F020FA7B681B68B9
:102EEC001B6903F08003802B0ED17B681B68DB68A9
:102EFC0003F08003802B07D17B681B686FF0800286
:102F0C001A61786800F043FD7B681B681B6903F04D
:102F1C004003402B0ED17B681B68DB6803F0400339
:102F2C00402B07D17B681B686FF040021A617868F0
:102F3C0000F018FA7B681B681B6903F02003202B38
:102F4C000ED17B681B68DB6803F02003202B07D1B4
:102F5C007B681B686FF020021A61786800F00EFD28
:102F6C0000BF0837BD4680BD80B584B000AFF860A7
:102F7C00B9607A60FB6893F83C30012B01D10223D5
:102F8C0046E0FB68012283F83C207B680C2B39D887
:102F9C0001A252F823F000BFD92F0008113000080D
:102FAC001130000811300008E72F0008113000081C
:102FBC001130000811300008F52F000811300008FE
:102FCC00113000081130000803300008FB681B6842
:102FDC00B968184600F032FA15E0FB681B68B9684E
:102FEC00184600F091FA0EE0FB681B68B9681846A9
:102FFC0000F0F4FA07E0FB681B68B968184600F0AB
:10300C0057FB00E000BFFB68002283F83C20002344
:10301C0018461037BD4680BD80B584B000AFF8604F
:10302C00B9607A60FB6893F83C30012B01D1022324
:10303C00ACE0FB68012283F83C207B680C2B00F28F
:10304C009F8001A252F823F0893000088D310008CE
:10305C008D3100088D310008C93000088D31000811
:10306C008D3100088D3100080B3100088D310008BE
:10307C008D3100088D3100084B310008FB681B684E
:10308C00B968184600F0DAF9FB681B689A69FB68A6
:10309C001B6842F008029A61FB681B689A69FB681E
:1030AC001B6822F004029A61FB681B689969BB6873
:1030BC001A69FB681B680A439A6162E0FB681B682B
:1030CC00B968184600F020FAFB681B689A69FB681F
:1030DC001B6842F400629A61FB681B689A69FB6882
:1030EC001B6822F480629A61FB681B689969BB6853
:1030FC001B691A02FB681B680A439A6141E0FB6872
:10310C001B68B968184600F069FAFB681B68DA6935
:10311C00FB681B6842F00802DA61FB681B68DA691D
:10312C00FB681B6822F00402DA61FB681B68D96932
:10313C00BB681A69FB681B680A43DA6121E0FB680B
:10314C001B68B968184600F0B3FAFB681B68DA69AB
:10315C00FB681B6842F40062DA61FB681B68DA6981
:10316C00FB681B6822F48062DA61FB681B68D96912
:10317C00BB681B691A02FB681B680A43DA6100E032
:10318C0000BFFB68002283F83C2000231846103750
:10319C00BD4680BD80B584B000AF786039607B6877
:1031AC0093F83C30012B01D10223B3E07B68012260
:1031BC0083F83C207B68022283F83D207B681B68E7
:1031CC009B68FB60FB6823F07703FB60FB6823F4D0
:1031DC007F43FB607B681B68FA689A603B681B68DE
:1031EC00B3F5005F3ED0B3F5005F00F28780B3F516
:1031FC00805F00F08580B3F5805F7FD8702B1AD08C
:10320C00702B7BD8602B50D0602B77D8502B3CD0B8
:10321C00502B73D8402B58D0402B6FD8302B64D008
:10322C00302B6BD8202B60D0202B67D8002B5CD098
:10323C00102B5AD062E07B6818683B6899683B6831
:10324C005A683B68DB6800F0F8FA7B681B689B687F
:10325C00FB60FB6843F07703FB607B681B68FA68D4
:10326C009A604EE07B6818683B6899683B685A68BE
:10327C003B68DB6800F0E1FA7B681B689A687B6846
:10328C001B6842F480429A603BE07B6818683B689C
:10329C0059683B68DB681A4600F058FA7B681B6873
:1032AC005021184600F0AFFA2BE07B6818683B6899
:1032BC0059683B68DB681A4600F076FA7B681B6835
:1032CC006021184600F09FFA1BE07B6818683B6889
:1032DC0059683B68DB681A4600F038FA7B681B6853
:1032EC004021184600F08FFA0BE07B681A683B68A7
:1032FC001B681946104600F086FA02E000BF00E099
:10330C0000BF7B68012283F83D207B68002283F894
:10331C003C20002318461037BD4680BD80B483B0D6
:10332C0000AF786000BF0C37BD4680BC704780B4DE
:10333C0083B000AF786000BF0C37BD4680BC7047CF
:10334C0080B483B000AF786000BF0C37BD4680BC42
:10335C00704780B483B000AF786000BF0C37BD46B7
:10336C0080BC704780B483B000AF786000BF0C376E
:10337C00BD4680BC7047000080B485B000AF78605B
:10338C0039607B681B68FB607B68294A93420BD0D1
:10339C007B68B3F1804F07D07B68264A934203D0F9
:1033AC007B68254A934208D1FB6823F07003FB60CD
:1033BC003B685B68FA681343FB607B681C4A93426A
:1033CC000BD07B68B3F1804F07D07B68194A9342CE
:1033DC0003D07B68184A934208D1FB6823F44073EE
:1033EC00FB603B68DB68FA681343FB60FB6823F007
:1033FC0080023B685B691343FB607B68FA681A6068
:10340C003B689A687B68DA623B681A687B689A62E8
:10341C007B68074A934203D13B681A697B681A633D
:10342C007B6801225A6100BF1437BD4680BC7047CF
:10343C00002C0140000400400008004080B487B01C
:10344C0000AF786039607B681B6A23F001027B68EF
:10345C001A627B681B6A7B617B685B683B617B687B
:10346C009B69FB60FB6823F07003FB60FB6823F037
:10347C000303FB603B681B68FA681343FB607B69C2
:10348C0023F002037B613B689B687A6913437B6181
:10349C007B681C4A93420CD17B6923F008037B6147
:1034AC003B68DB687A6913437B617B6923F0040317
:1034BC007B617B68134A934211D13B6923F480737F
:1034CC003B613B6923F400733B613B685B693A6980
:1034DC0013433B613B689B693A6913433B617B68CF
:1034EC003A695A607B68FA689A613B685A687B68EB
:1034FC005A637B687A691A6200BF1C37BD4680BC70
:10350C00704700BF002C014080B487B000AF7860DA
:10351C0039607B681B6A23F010027B681A627B6837
:10352C001B6A7B617B685B683B617B689B69FB60AA
:10353C00FB6823F4E043FB60FB6823F44073FB60FF
:10354C003B681B681B02FA681343FB607B6923F022
:10355C0020037B613B689B681B017A6913437B6189
:10356C007B681D4A93420DD17B6923F080037B61FC
:10357C003B68DB681B017A6913437B617B6923F031
:10358C0040037B617B68144A934213D13B6923F45B
:10359C0080633B613B6923F400633B613B685B697F
:1035AC009B003A6913433B613B689B699B003A69FA
:1035BC0013433B617B683A695A607B68FA689A618D
:1035CC003B685A687B689A637B687A691A6200BFA9
:1035DC001C37BD4680BC7047002C014080B487B0BE
:1035EC0000AF786039607B681B6A23F480727B685B
:1035FC001A627B681B6A7B617B685B683B617B68DA
:10360C00DB69FB60FB6823F07003FB60FB6823F055
:10361C000303FB603B681B68FA681343FB607B6920
:10362C0023F400737B613B689B681B027A6913432C
:10363C007B617B681D4A93420DD17B6923F4006347
:10364C007B613B68DB681B027A6913437B617B6996
:10365C0023F480637B617B68144A934213D13B69EA
:10366C0023F480533B613B6923F400533B613B687B
:10367C005B691B013A6913433B613B689B691B0106
:10368C003A6913433B617B683A695A607B68FA6814
:10369C00DA613B685A687B68DA637B687A691A621C
:1036AC0000BF1C37BD4680BC704700BF002C0140DA
:1036BC0080B487B000AF786039607B681B6A23F4F4
:1036CC0080527B681A627B681B6A3B617B685B6813
:1036DC007B617B68DB69FB60FB6823F4E043FB6088
:1036EC00FB6823F44073FB603B681B681B02FA68A1
:1036FC001343FB603B6923F400533B613B689B68BD
:10370C001B033A6913433B617B680F4A934209D10F
:10371C007B6923F480437B613B685B699B017A691D
:10372C0013437B617B687A695A607B68FA68DA615B
:10373C003B685A687B681A647B683A691A6200BFF6
:10374C001C37BD4680BC7047002C014080B487B04C
:10375C0000AFF860B9607A60FB681B6A7B61FB683C
:10376C001B6A23F00102FB681A62FB689B693B61D0
:10377C003B6923F0F0033B617B681B013A691343FF
:10378C003B617B6923F00A037B617A69BB68134355
:10379C007B61FB683A699A61FB687A691A6200BFBF
:1037AC001C37BD4680BC704780B487B000AFF86052
:1037BC00B9607A60FB681B6A23F01002FB681A621E
:1037CC00FB689B697B61FB681B6A3B617B6923F42B
:1037DC0070437B617B681B037A6913437B613B6994
:1037EC0023F0A0033B61BB681B013A6913433B61A7
:1037FC00FB687A699A61FB683A691A6200BF1C37E8
:10380C00BD4680BC704780B485B000AF786039602D
:10381C007B689B68FB60FB6823F07003FB603A6875
:10382C00FB68134343F00703FB607B68FA689A60FC
:10383C0000BF1437BD4680BC704780B487B000AF62
:10384C00F860B9607A603B60FB689B687B617B6960
:10385C0023F47F437B613B681A027B681A43BB6885
:10386C0013437A6913437B61FB687A699A6000BFE2
:10387C001C37BD4680BC704780B487B000AFF86081
:10388C00B9607A60BB6803F01F03012202FA03F3EC
:10389C007B61FB681A6A7B69DB431A40FB681A621E
:1038AC00FB681A6ABB6803F01F03796801FA03F31B
:1038BC001A43FB681A6200BF1C37BD4680BC7047B8
:1038CC0080B485B000AF786039607B6893F83C3089
:1038DC00012B01D1022346E07B68012283F83C20B6
:1038EC007B68022283F83D207B681B685B68FB6069
:1038FC007B681B689B68BB60FB6823F07003FB60F4
:10390C003B681B68FA681343FB607B681B68FA68AA
:10391C005A607B681B68164A93420ED07B681B6802
:10392C00B3F1804F09D07B681B68124A934204D0D4
:10393C007B681B68104A93420CD1BB6823F0800350
:10394C00BB603B685B68BA681343BB607B681B68F1
:10395C00BA689A607B68012283F83D207B6800225C
:10396C0083F83C20002318461437BD4680BC7047B2
:10397C00002C0140000400400008004080B483B0DB
:10398C0000AF786000BF0C37BD4680BC704780B478
:10399C0083B000AF786000BF0C37BD4680BC704769
:1039AC0080B582B000AF78607B68002B01D1012319
:1039BC003FE07B6893F83D30DBB2002B06D17B688F
:1039CC00002283F83C207868FDF79AF97B68242262
:1039DC0083F83D207B681B68DA687B681B6822F4DF
:1039EC000052DA60786800F049FB7B681B681A6942
:1039FC007B681B6822F490421A617B681B685A69C9
:103A0C007B681B6822F02A025A617B681B68DA68A3
:103A1C007B681B6842F40052DA607B6800221A64EF
:103A2C007B68202283F83D207B68202283F83E208F
:103A3C00002318460837BD4680BD000080B58AB00B
:103A4C0000AF78607B681B681B687B627B681B68B7
:103A5C00DB683B627B681B685B69FB610023BB61B5
:103A6C0000237B617B6A03F00F03BB61BB69002BF6
:103A7C000DD17B6A03F02003002B08D03B6A03F0C6
:103A8C002003002B03D0786800F04FFA7BE1BB6970
:103A9C00002B00F0B180FB6903F00103002B05D172
:103AAC003B6A03F49073002B00F0A6807B6A03F052
:103ABC000103002B0AD03B6A03F48073002B05D062
:103ACC007B681B6C43F001027B681A647B6A03F011
:103ADC000403002B0AD0FB6903F00103002B05D073
:103AEC007B681B6C43F002027B681A647B6A03F0F0
:103AFC000203002B0AD0FB6903F00103002B05D055
:103B0C007B681B6C43F004027B681A647B6A03F0CD
:103B1C000803002B0FD03B6A03F02003002B04D1C9
:103B2C00FB6903F00103002B05D07B681B6C43F091
:103B3C0008027B681A647B681B6C002B00F01E81EA
:103B4C007B6A03F02003002B07D03B6A03F02003B1
:103B5C00002B02D0786800F0E8F97B681B685B6981
:103B6C0003F04003002B14BF01230023DBB27B6165
:103B7C007B681B6C03F00803002B02D17B69002BC4
:103B8C0031D0786800F02AF97B681B685B6903F018
:103B9C004003002B23D07B681B685A697B681B6829
:103BAC0022F040025A617B689B6B002B13D07B6820
:103BBC009B6B764A5A637B689B6B1846FDF70CFE31
:103BCC000346002B16D07B689B6B5B6B7A68926B01
:103BDC00104698470EE0786800F0ECF80AE0786838
:103BEC0000F0E8F806E0786800F0E4F87B68002262
:103BFC001A64C3E000BFC1E07B681B6B012B40F073
:103C0C00A1807B6A03F01003002B00F09B803B6AC1
:103C1C0003F01003002B00F095800023FB607B6801
:103C2C001B681B68FB607B681B685B68FB60FB6840
:103C3C007B681B685B6903F04003002B4ED07B68EC
:103C4C009B6B1B685B683B823B8A002B00F0988067
:103C5C007B689B8D3A8A9A4280F092807B683A8A84
:103C6C00DA857B689B6B9B69202B2BD07B681B6850
:103C7C00DA687B681B6822F48072DA607B681B68E8
:103C8C005A697B681B6822F001025A617B681B68C9
:103C9C005A697B681B6822F040025A617B682022BB
:103CAC0083F83E207B6800221A637B681B68DA6805
:103CBC007B681B6822F01002DA607B689B6B1846ED
:103CCC00FDF750FD7B689A8D7B68DB8D9BB2D31A18
:103CDC009BB21946786800F076F851E07B689A8DB3
:103CEC007B68DB8D9BB2D31A7B827B68DB8D9BB2AE
:103CFC00002B47D07B8A002B44D07B681B68DA688A
:103D0C007B681B6822F49072DA607B681B685A69C6
:103D1C007B681B6822F001025A617B68202283F8C1
:103D2C003E207B6800221A637B681B68DA687B681C
:103D3C001B6822F01002DA607B8A1946786800F062
:103D4C0042F81FE07B6A03F08003002B08D03B6A2B
:103D5C0003F08003002B03D0786800F07FF812E0AA
:103D6C007B6A03F04003002B0DD03B6A03F0400349
:103D7C00002B08D0786800F0C0F804E000BF02E027
:103D8C0000BF00E000BF2837BD4680BD413E0008A3
:103D9C0080B483B000AF786000BF0C37BD4680BCE8
:103DAC00704780B483B000AF786000BF0C37BD465D
:103DBC0080BC704780B483B000AF786000BF0C3714
:103DCC00BD4680BC704780B483B000AF78600B46B2
:103DDC007B8000BF0C37BD4680BC704780B483B07D
:103DEC0000AF78607B681B68DA687B681B6822F41C
:103DFC009072DA607B681B685A697B681B6822F0DA
:103E0C0001025A617B681B6B012B07D17B681B6815
:103E1C00DA687B681B6822F01002DA607B6820226B
:103E2C0083F83E207B6800221A6300BF0C37BD4626
:103E3C0080BC704780B584B000AF78607B685B6AEB
:103E4C00FB60FB680022DA85FB680022DA84F868E4
:103E5C00FFF7B0FF00BF1037BD4680BD80B485B002
:103E6C0000AF78607B6893F83D30DBB2212B3ED1FC
:103E7C007B689B68B3F5805F14D17B681B69002B52
:103E8C0010D17B681B6AFB60FB681B881A467B6839
:103E9C001B68C2F308025A607B681B6A9A1C7B6819
:103EAC001A6208E07B681B6A591C7A6811621A78DE
:103EBC007B681B685A607B68DB8C9BB2013B9BB2B6
:103ECC007A681946D184002B0FD17B681B68DA689D
:103EDC007B681B6822F08002DA607B681B68DA68FA
:103EEC007B681B6842F04002DA60002300E002238A
:103EFC0018461437BD4680BC704780B582B000AF01
:103F0C0078607B681B68DA687B681B6822F040026B
:103F1C00DA607B68202283F83D207868FFF738FF51
:103F2C00002318460837BD4680BD80B586B000AF6B
:103F3C0078607B6893F83E30DBB2222B40F099809E
:103F4C007B689B68B3F5805F17D17B681B69002B7E
:103F5C0013D100237B617B689B6A3B617B681B6888
:103F6C005B689BB2C3F308039AB23B691A807B6807
:103F7C009B6A9A1C7B689A6226E07B689B6A7B61D1
:103F8C0000233B617B689B68B3F5805F07D07B683F
:103F9C009B68002B0AD17B681B69002B06D17B68C0
:103FAC001B685B68DAB27B691A7008E07B681B6877
:103FBC005B68DBB203F07F03DAB27B691A707B6853
:103FCC009B6A5A1C7B689A627B68DB8D9BB2013BB7
:103FDC009BB27A681946D185002B48D17B681B6847
:103FEC00DA687B681B6822F02002DA607B681B6849
:103FFC00DA687B681B6822F48072DA607B681B6865
:10400C005A697B681B6822F001025A617B68202286
:10401C0083F83E207B681B6B012B23D17B6800222D
:10402C001A637B681B68DA687B681B6822F01002D5
:10403C00DA607B681B681B6803F01003102B0AD135
:10404C000023FB607B681B681B68FB607B681B683C
:10405C005B68FB60FB687B689B8D19467868FFF793
:10406C00B2FE02E07868FFF79CFE002302E000231A
:10407C0000E0022318461837BD4680BD80B584B0D9
:10408C0000AF78607B681B681B6923F440517B6828
:10409C00DA687B681B680A431A617B689A687B68DC
:1040AC001B691A437B685B691343BB607B681B68A5
:1040BC00DB6823F4B05323F00C037A681268B968F8
:1040CC000B43D3607B681B685B6923F440717B688E
:1040DC009A697B681B680A435A617B681B682C4A87
:1040EC00934203D1FEF7BCFBF86002E0FEF7A4FBA1
:1040FC00F860FA6813469B0013449A001A447B68D4
:10410C005B689B00B2FBF3F3224AA2FB03235B091F
:10411C001901FA6813469B0013449A001A447B68F1
:10412C005B689B00B2FBF3F21A4BA3FB02035B0927
:10413C00642000FB03F3D31A1B013233154AA2FB94
:10414C0003235B0903F0F0031944FA6813469B0040
:10415C0013449A001A447B685B689B00B2FBF3F231
:10416C000C4BA3FB02035B09642000FB03F3D31A83
:10417C001B013233074AA2FB03235B0903F00F0236
:10418C007B681B680A449A6000BF1037BD4680BD2F
:10419C00003801401F85EB5170B500260C4D0D4CBD
:1041AC00641BA410A64209D100F022F800260A4D87
:1041BC000A4C641BA410A64205D170BD55F8043BF3
:1041CC0098470136EEE755F8043B98470136F2E77D
:1041DC005C4200085C4200085C4200086042000837
:1041EC0003460244934200D1704703F8011BF9E7E0
:1041FC00F8B500BFF8BC08BC9E467047F8B500BFC8
:08420C00F8BC08BC9E46704797
:1042140002030405060708090A0B0C0D0E0F101003
:1042240000010203040507090C0F12161B20262C9B
:10423400333A434C56606C788694A3B4C5D8EBFFEC
:104244000000000000000000010203040607080942
:08425400000000000102030458
:04425C003101000824
:044260000D01000844
:0C4264000024F400100000000100000025
:0400000508000F617F
:00000001FF
