:020000040800F2
:1000000000500020055000088D1B0008931B0008BD
:10001000991B00089F1B0008A51B0008000000009A
:10002000000000000000000000000000AB1B000802
:10003000B71B000800000000C31B0008CF1B00080E
:100040004D5000084D5000084D5000084D5000081C
:100050004D500008DF1B00084D5000084D500008AF
:100060004D5000084D5000084D500008ED1B000891
:10007000011C00084D5000084D5000084D5000086C
:100080004D5000084D5000084D5000084D500008DC
:100090004D5000084D5000084D5000084D500008CC
:1000A0004D5000084D5000084D5000084D500008BC
:1000B000151C00084D5000084D5000084D50000818
:1000C0004D5000084D5000084D5000084D5000089C
:1000D0004D500008291C00084D5000083D1C000828
:1000E0004D5000084D5000084D5000080000000021
:1000F0000000000000000000000000000000000000
:0C01000000000000000000005FF808F1A3
:1001100010B5054C237833B9044B13B10448AFF341
:1001200000800123237010BDDC01002000000000CE
:100130003878000808B5034B1BB103490348AFF3F7
:10014000008008BD00000000E001002038780008B1
:10015000034613F8012B002AFBD1181A0138704707
:1001600081F0004102E000BF83F0004330B54FEA68
:1001700041044FEA430594EA050F08BF90EA020FD5
:100180001FBF54EA000C55EA020C7FEA645C7FEA68
:10019000655C00F0E2804FEA5454D4EB5555B8BF8B
:1001A0006D420CDD2C4480EA020281EA030382EAFC
:1001B000000083EA010180EA020281EA0303362D8E
:1001C00088BF30BD11F0004F4FEA01314FF4801C61
:1001D0004CEA113102D0404261EB410113F0004F73
:1001E0004FEA03334CEA133302D0524263EB43032A
:1001F00094EA050F00F0A780A4F10104D5F1200EC8
:100200000DDB02FA0EFC22FA05F2801841F1000122
:1002100003FA0EF2801843FA05F359410EE0A5F1F6
:1002200020050EF1200E012A03FA0EFC28BF4CF027
:10023000020C43FA05F3C01851EBE37101F00045DD
:1002400007D54FF0000EDCF1000C7EEB00006EEBEA
:100250000101B1F5801F1BD3B1F5001F0CD3490874
:100260005FEA30004FEA3C0C04F101044FEA4452CB
:1002700012F5800F80F09A80BCF1004F08BF5FEA52
:10028000500C50F1000041EB045141EA050130BD32
:100290005FEA4C0C404141EB010111F4801FA4F1D5
:1002A0000104E9D191F0000F04BF01460020B1FA2A
:1002B00081F308BF2033A3F10B03B3F120020CDA62
:1002C0000C3208DD02F1140CC2F10C0201FA0CF040
:1002D00021FA02F10CE002F11402D8BFC2F1200CA5
:1002E00001FA02F120FA0CFCDCBF41EA0C0190405B
:1002F000E41AA2BF01EB0451294330BD6FEA0404A4
:100300001F3C1CDA0C340EDC04F11404C4F120028E
:1003100020FA04F001FA02F340EA030021FA04F3A0
:1003200045EA030130BDC4F10C04C4F1200220FAF7
:1003300002F001FA04F340EA0300294630BD21FA35
:1003400004F0294630BD94F0000F83F4801306BFFB
:1003500081F480110134013D4EE77FEA645C18BFEF
:100360007FEA655C29D094EA050F08BF90EA020F86
:1003700005D054EA000C04BF1946104630BD91EA7E
:10038000030F1EBF0021002030BD5FEA545C05D181
:100390004000494128BF41F0004130BD14F58004C0
:1003A0003CBF01F5801130BD01F0004545F0FE4134
:1003B00041F470014FF0000030BD7FEA645C1ABF69
:1003C000194610467FEA655C1CBF0B46024650EAA0
:1003D000013406BF52EA033591EA030F41F40021CC
:1003E00030BD00BF90F0000F04BF0021704730B552
:1003F0004FF4806404F132044FF000054FF0000127
:1004000050E700BF90F0000F04BF0021704730B5E7
:100410004FF4806404F1320410F0004548BF4042BC
:100420004FF000013EE700BF42004FEAE2014FEA11
:1004300031014FEA02701FBF12F07F4393F07F4FEC
:1004400081F06051704792F0000F14BF93F07F4F1E
:10045000704730B54FF4607401F0004521F0004161
:1004600020E700BF50EA010208BF704730B54FF0E7
:1004700000050AE050EA010208BF704730B511F0EC
:10048000004502D5404261EB41014FF4806404F124
:1004900032045FEA915C3FF4DCAE4FF003025FEAA6
:1004A000DC0C18BF03325FEADC0C18BF033202EB2E
:1004B000DC02C2F1200300FA03FC20FA02F001FA88
:1004C00003FE40EA0E0021FA02F11444C1E600BF27
:1004D00070B54FF0FF0C4CF4E06C1CEA11541DBFDA
:1004E0001CEA135594EA0C0F95EA0C0F00F0DEF8A5
:1004F0002C4481EA030621EA4C5123EA4C5350EA8A
:10050000013518BF52EA033541F4801143F48013DA
:1005100038D0A0FB02CE4FF00005E1FB02E506F06B
:100520000042E0FB03E54FF00006E1FB03569CF0C0
:10053000000F18BF4EF0010EA4F1FF04B6F5007FC6
:1005400064F5407404D25FEA4E0E6D4146EB060638
:1005500042EAC62141EA55514FEAC52040EA5E50C1
:100560004FEACE2EB4F1FD0C88BFBCF5E06F1ED86B
:10057000BEF1004F08BF5FEA500E50F1000041EBA2
:10058000045170BD06F0004646EA010140EA02004F
:1005900081EA0301B4EB5C04C2BFD4EB0C0541EA71
:1005A000045170BD41F480114FF0000E013C00F386
:1005B000AB8014F1360FDEBF002001F0004170BDAA
:1005C000C4F10004203C35DA0C341BDC04F11404C3
:1005D000C4F1200500FA05F320FA04F001FA05F24F
:1005E00040EA020001F0004221F0004110EBD3701C
:1005F00021FA04F642EB06015EEA430E08BF20EA48
:10060000D37070BDC4F10C04C4F1200500FA04F3EA
:1006100020FA05F001FA04F240EA020001F000417C
:1006200010EBD37041F100015EEA430E08BF20EAEF
:10063000D37070BDC4F1200500FA05F24EEA020E37
:1006400020FA04F301FA05F243EA020321FA04F066
:1006500001F0004121FA04F220EA020000EBD3701D
:100660005EEA430E08BF20EAD37070BD94F0000F1D
:100670000FD101F00046400041EB010111F4801F51
:1006800008BF013CF7D041EA060195F0000F18BF02
:10069000704703F00046520043EB030313F4801F3E
:1006A00008BF013DF7D043EA0603704794EA0C0FF8
:1006B0000CEA135518BF95EA0C0F0CD050EA41060E
:1006C00018BF52EA4306D1D181EA030101F000418B
:1006D0004FF0000070BD50EA410606BF10461946B3
:1006E00052EA430619D094EA0C0F02D150EA0136BF
:1006F00013D195EA0C0F05D152EA03361CBF104600
:1007000019460AD181EA030101F0004141F0FE419E
:1007100041F470014FF0000070BD41F0FE4141F422
:10072000780170BD70B54FF0FF0C4CF4E06C1CEA22
:1007300011541DBF1CEA135594EA0C0F95EA0C0FD7
:1007400000F0A7F8A4EB050481EA030E52EA033592
:100750004FEA013100F088804FEA03334FF08055B3
:1007600045EA131343EA12634FEA022245EA1115E0
:1007700045EA10654FEA00260EF000419D4208BF91
:10078000964244F1FD0404F5407402D25B084FEA3E
:100790003202B61A65EB03055B084FEA32024FF4EA
:1007A00080104FF4002CB6EB020E75EB030E22BF47
:1007B000B61A754640EA0C005B084FEA3202B6EB07
:1007C000020E75EB030E22BFB61A754640EA5C00B6
:1007D0005B084FEA3202B6EB020E75EB030E22BF46
:1007E000B61A754640EA9C005B084FEA3202B6EB47
:1007F000020E75EB030E22BFB61A754640EADC0006
:1008000055EA060E18D04FEA051545EA16754FEA67
:1008100006164FEAC30343EA52734FEAC2025FEA85
:100820001C1CC0D111F4801F0BD141EA00014FF014
:1008300000004FF0004CB6E711F4801F04BF0143E5
:100840000020B4F1FD0C88BFBCF5E06F3FF6AFAE01
:10085000B5EB030C04BFB6EB020C5FEA500C50F191
:10086000000041EB045170BD0EF0004E4EEA113114
:1008700014EB5C04C2BFD4EB0C0541EA045170BD1B
:1008800041F480114FF0000E013C90E645EA060E5F
:100890008DE60CEA135594EA0C0F08BF95EA0C0F8D
:1008A0003FF43BAF94EA0C0F0AD150EA01347FF4D5
:1008B00034AF95EA0C0F7FF425AF104619462CE7AC
:1008C00095EA0C0F06D152EA03353FF4FDAE10460F
:1008D000194622E750EA410618BF52EA43067FF460
:1008E000C5AE50EA41047FF40DAF52EA43057FF4F0
:1008F000EBAE12E74FF0FF3C06E000BF4FF0010CFB
:1009000002E000BF4FF0010C4DF804CD4FEA410C5E
:100910007FEA6C5C4FEA430C18BF7FEA6C5C1BD02B
:1009200001B050EA410C0CBF52EA430C91EA030FAC
:1009300002BF90EA020F0020704710F1000F91EA09
:10094000030F58BF994208BF90422CBFD8176FEAD7
:10095000E37040F0010070474FEA410C7FEA6C5CA5
:1009600002D150EA013C07D14FEA430C7FEA6C5CAC
:10097000D6D152EA033CD3D05DF8040B704700BFD8
:100980008446104662468C461946634600E000BF26
:1009900001B5FFF7B7FF002848BF10F1000F01BDF8
:1009A0004DF808EDFFF7F4FF0CBF012000205DF8C3
:1009B00008FB00BF4DF808EDFFF7EAFF34BF012048
:1009C00000205DF808FB00BF4DF808EDFFF7E0FFE1
:1009D00094BF012000205DF808FB00BF4DF808ED32
:1009E000FFF7CEFF94BF012000205DF808FB00BF99
:1009F0004DF808EDFFF7C4FF34BF012000205DF87B
:100A000008FB00BF4FEA410C7FEA6C5C02D150EA60
:100A1000013C0AD14FEA430C7FEA6C5C02D152EAF6
:100A2000033C02D14FF0000070474FF001007047C7
:100A30004FEA410212F5001215D211D56FF4787306
:100A4000B3EB625212D94FEAC12343F0004343EAA9
:100A5000505311F0004F23FA02F018BF4042704784
:100A60004FF00000704750EA013005D111F000400E
:100A700008BF6FF0004070474FF00000704700BFA4
:100A800080B584B000AFF860B9607A607B689AB2D4
:100A90007B680133B968044803F0D3FD7B681846CE
:100AA0001037BD4680BD00BF5405002080B582B020
:100AB00000AF78604FF400720349044803F052FE1F
:100AC00000BF0837BD4680BD3C0200205405002011
:100AD00080B582B000AF78607868FFF7E7FF00BFAD
:100AE0000837BD4680BD000080B400AF0B4B9B8D26
:100AF0001A460A4BDB8D9BB2D31A03F50073084AE2
:100B000012889B1A5A42C3F30803C2F3080258BF63
:100B100053429BB21846BD4680BC70475405002026
:100B20003802002080B483B000AF0C4B1B885A1CE5
:100B300091B20A4A11801A46094B9B5CFB71074B24
:100B40001B88B3F5007F02D3044B00221A80FB7987
:100B500018460C37BD4680BC704700BF38020020E5
:100B60003C02002080B582B000AFFFF7BDFF034616
:100B70003B603B68002B0FD000237B6008E0FFF751
:100B8000D1FF0346184600F0C1F87B6801337B6053
:100B90007A683B689A42F2DB00BF0837BD4680BDE9
:100BA00080B500AF084804F07BFF084804F078FFE8
:100BB000074804F075FF074804F072FF064804F088
:100BC0006FFF00BF80BD00BF507800086C78000840
:100BD00080780008C8780008DC78000880B586B006
:100BE00000AF786000237B6133E07B693B610023C9
:100BF000FB6011E0FB6801337A6813441B78002B1B
:100C000004D13B690133184A134429E03B6901339D
:100C10003B61FB680133FB60134A3B6913441B785B
:100C2000FB7204F03FFA0246FB7A013313441B784F
:100C300003F00303012B02D1FB7A203300E0FB7A9F
:100C4000FA6879680A4412789342D3D07B690133F9
:100C50007B61054A7B6913441B78002BC5D10023B7
:100C600018461837BD4680BDF801002080B586B013
:100C700000AFF860B9607A603B6000237B61FB687D
:100C80001B78202B02D1FB680133FB60FB681B78CB
:100C90002D2B0CBF01230023DBB2FB7416E0FB6895
:100CA0001B782F2B16D9FB681B78392B12D87A6941
:100CB00013469B0013445B007B61FB681B78303B51
:100CC0007A6913447B61FB680133FB60FB681B7826
:100CD000002BE4D1FB7C002B02D07B695B427B6163
:100CE0007A697B689A4207DB7A693B689A4203DC3F
:100CF000BB687A691A6002E0034804F0D1FEFB6821
:100D000018461837BD4680BDE878000880B584B025
:100D100000AF0346FB71404B1B681F2B07D83E4BAF
:100D20001B685A1C3C490A603C49FA79CA54FB7951
:100D30000A2B6DD1384B1B68013B384AD35C0D2B15
:100D400004D1354B1B68013B334A1360324B1B689F
:100D50001A46324BD018304B1B68C3F120031A4699
:100D6000002104F0BFF92C4B00221A602C48FFF739
:100D700035FF02462B4B9A4206D02B48FFF72EFF39
:100D800002462A4B9A4202D1FFF70AFF40E0284868
:100D9000FFF724FFF860FB68002B19D04FF0FF33FA
:100DA000BB6007F1080102230022F868FFF75EFF2D
:100DB000BB68002B2BDBBB68DAB21E4B1A701D4BD5
:100DC0001B78DBB219461C4804F0F6FD00BF1EE09C
:100DD0001A48FFF703FFF860194AFB68934217D1DE
:100DE0001848FFF7FBFEF860FB68002B03D016489D
:100DF00004F056FE0CE01548FFF7F0FEF860FB68C3
:100E0000002B05D0124804F04BFE00BF00E000BFED
:100E10001037BD4680BD00BF18020020F801002039
:100E20000C790008F901002010790008FC0100206D
:100E3000187900083A020020207900082C7900086F
:100E40000002002038790008407900085079000835
:100E50005879000880B500AF00F07AFF00F032F852
:100E600000F078FA00F050FA00F08AF800F048F943
:100E700000F0F6F91048FFF719FE00F01BFA00F039
:100E80006DF900F067FB01224FF400510B4801F0AF
:100E900061FE0B4804F004FE0F224FF6FF71142090
:100EA00000F038FB1E224FF6FF71052000F012FB08
:100EB000FFF758FEFCE700BF54050020000C01407E
:100EC0006879000880B594B000AF07F128032822A4
:100ED0000021184604F006F907F1140300221A60F5
:100EE0005A609A60DA601A613B1D00221A605A60EB
:100EF0009A60DA600923BB624FF48033FB620023FF
:100F00003B630123BB6301233B6402237B644FF4F7
:100F10008033BB644FF4E013FB6407F128031846E9
:100F200001F068FF0346002B01D000F0A7FA0F2361
:100F30007B610223BB610023FB614FF480633B6252
:100F400000237B6207F114030221184602F0D2F954
:100F50000346002B01D000F091FA02237B604FF48E
:100F60000043FB603B1D184602F060FB0346002B6C
:100F700001D000F083FA00BF5037BD4680BD0000AD
:100F800080B584B000AF3B1D00221A605A609A60A1
:100F9000594B5A4A1A60584B4FF480729A60564B1C
:100FA00001221A73544B00221A75534B4FF46022DE
:100FB000DA61514B00225A604F4B0A221A614E48A7
:100FC00000F028FF0346002B01D000F057FA102351
:100FD0007B600123BB600723FB603B1D194646482D
:100FE00000F0F0FF0346002B01D000F047FA012388
:100FF0007B600223BB600023FB603B1D19463E481B
:1010000000F0E0FF0346002B01D000F037FA022386
:101010007B600323BB603B1D1946374800F0D2FFBD
:101020000346002B01D000F029FA03237B60042340
:10103000BB603B1D1946304800F0C4FF0346002B3F
:1010400001D000F01BFA04237B600523BB603B1D2D
:101050001946294800F0B6FF0346002B01D000F0E6
:101060000DFA05237B600623BB603B1D1946224811
:1010700000F0A8FF0346002B01D000F0FFF9062383
:101080007B600723BB603B1D19461B4800F09AFF9D
:101090000346002B01D000F0F1F907237B60082301
:1010A000BB603B1D1946144800F08CFF0346002B23
:1010B00001D000F0E3F908237B600923BB603B1DEE
:1010C00019460D4800F07EFF0346002B01D000F0CA
:1010D000D5F909237B600A23BB603B1D19460648EE
:1010E00000F070FF0346002B01D000F0C7F900BFED
:1010F0001037BD4680BD00BF2405002000240140FC
:1011000080B500AF124B134A1A60114B124A5A6055
:101110000F4B00229A600E4B0022DA600C4B4FF40A
:1011200080421A610A4B00225A61094B00229A61DF
:10113000074B0022DA61064B00221A62044801F0D4
:1011400021FD0346002B01D000F098F900BF80BDBF
:101150008004002000540040801A060080B58EB044
:1011600000AF07F1280300221A605A609A60DA6023
:1011700007F1200300221A605A603B1D00221A600A
:101180005A609A60DA601A615A619A61334B4FF083
:1011900080421A60314B40F219225A602F4B0022D4
:1011A0009A602E4B4FF48072DA602C4B00221A6149
:1011B0002A4B00229A61294802F0EEFA0346002BDE
:1011C00001D000F05BF94FF48053BB6207F12803B4
:1011D0001946224802F0F0FD0346002B01D000F032
:1011E0004DF91E4802F027FB0346002B01D000F00A
:1011F00045F900233B6200237B6207F12003194677
:10120000164803F061F90346002B01D000F036F9CF
:1012100060237B600023BB600023FB6000237B61B5
:101220003B1D002219460D4802F008FD0346002B25
:1012300001D000F023F93B1D04221946074802F0B3
:10124000FDFC0346002B01D000F018F9034800F024
:101250007BFB00BF3837BD4680BD00BFDC050020EA
:1012600080B500AF114B124A1A60104B4FF4E132B7
:101270005A600E4B00229A600C4B0022DA600B4B36
:1012800000221A61094B0C225A61084B00229A6114
:10129000064B0022DA61054803F086F90346002B6D
:1012A00001D000F0EBF800BF80BD00BF5405002066
:1012B0000038014080B500AF114B124A1A60104B44
:1012C0004FF4E1325A600E4B00229A600C4B002220
:1012D000DA600B4B00221A61094B0C225A61084B51
:1012E00000229A61064B0022DA61054803F05CF99E
:1012F0000346002B01D000F0C1F800BF80BD00BF45
:101300003C0400200048004080B582B000AF104A85
:101310000F4B5B6943F0010353610D4B5B6903F0B5
:1013200001037B607B68002200210B2001F059F84B
:101330000B2001F072F8002200210C2001F051F87E
:101340000C2001F06AF800BF0837BD4680BD00BF21
:101350000010024080B588B000AF07F110030022F2
:101360001A605A609A60DA60404A404B9B6943F0C9
:10137000100393613D4B9B6903F01003FB60FB6816
:101380003A4A3A4B9B6943F020039361374B9B6980
:1013900003F02003BB60BB68344A344B9B6943F0C5
:1013A00004039361314B9B6903F004037B607B680A
:1013B0002E4A2E4B9B6943F0080393612B4B9B698C
:1013C00003F008033B603B68002246F204212848F2
:1013D00001F0C0FB00224FF4C851264801F0BAFBCF
:1013E0004FF460433B6103237B6107F1100319460F
:1013F000214801F055FA46F204233B6101237B6149
:101400000023BB610223FB6107F110031946184852
:1014100001F046FA49F230033B6100237B6100236F
:10142000BB6107F110031946114801F039FA4FF476
:10143000C8533B6101237B610023BB610223FB6135
:1014400007F1100319460B4801F02AFA4FF4807394
:101450003B6103237B6107F110031946044801F047
:101460001FFA00BF2037BD4680BD00BF00100240FC
:10147000000C0140000801400010014080B400AFA2
:1014800072B6FEE780B483B000AF0346FB71054B34
:101490001B68FA7904498A5C9A6300BF0C37BD4621
:1014A00080BC7047DC0500209079000880B483B0D0
:1014B00000AF0346FB71054B1B68FA7904498A5C4F
:1014C0005A6300BF0C37BD4680BC7047DC05002066
:1014D0009079000880B483B000AF0346FB800B46D0
:1014E000BB8013467B80094AFB8813807B881B04E2
:1014F0001AB2B7F9043013431BB29AB2044B1A80E4
:1015000000BF0C37BD4680BC704700BF2A060020D4
:101510002806002080B483B000AF0346FB800B4652
:10152000BB8013467B80094AFB8813807B881B04A1
:101530001AB2B7F9043013431BB29AB2044B1A80A3
:1015400000BF0C37BD4680BC704700BF2C06002092
:101550002E06002080B500AF0021044802F0C4F937
:101560000421024802F0C0F900BF80BDDC05002064
:1015700080B500AF5C4B1B68002B0CD05A4B1B682E
:10158000013B594A1360002B05D101224FF48071B1
:10159000564801F0DFFA564B1B88002B44D0554BC0
:1015A0001B680133534A1360524B1B68504A128820
:1015B000934239D34F4B00221A604F4B1B680133C3
:1015C0004D4A13604C4B1B684C4A1288121440322F
:1015D00093420FD3484B00221A60484B1B88013BB3
:1015E0009AB2464B1A80454B1B88002B02D1404BC8
:1015F00000221A80404B1B683F2B03D90020FFF7C5
:1016000041FF1BE03C4B1B681F2B06D93A4B1B6864
:10161000DBB2C3F13F03DBB202E0374B1B68DBB246
:101620001846FFF72FFF09E0314B1B88002B05D12F
:10163000304B00221A60304B00221A60304B1B885E
:10164000002B44D02F4B1B6801332E4A13602D4BC7
:101650001B682B4A1288934239D32A4B00221A6006
:10166000294B1B680133284A1360274B1B68274A04
:1016700012881214403293420FD3234B00221A6077
:10168000224B1B88013B9AB2204B1A801F4B1B88B0
:10169000002B02D11A4B00221A801B4B1B683F2BD8
:1016A00003D90020FFF702FF1CE0174B1B681F2B1C
:1016B00006D9154B1B68DBB2C3F13F03DBB202E076
:1016C000114B1B68DBB21846FFF7F0FE0AE00C4B2B
:1016D0001B88002B06D10B4B00221A600A4B0022FC
:1016E0001A60FFE700BF80BD24060020000801400B
:1016F0002A0600201C0200202002002028060020CC
:101700002C06002024020020280200202E060020A3
:1017100080B584B000AF194A184B9B6943F00103B0
:101720009361164B9B6903F00103BB60BB68134ACE
:10173000124BDB6943F08053D361104BDB6903F03C
:1017400080537B607B6800220021052000F049FE69
:10175000052000F062FE0A4B5B68FB60FB6823F02B
:10176000E063FB60FB6843F00073FB60044AFB68C6
:10177000536000BF1037BD4680BD00BF001002405F
:101780000000014080B58AB000AF786007F118030F
:1017900000221A605A609A60DA607B681B68334ADC
:1017A00093425FD1324A324B9B6943F40073936199
:1017B0002F4B9B6903F400737B617B692C4A2C4B94
:1017C0009B6943F004039361294B9B6903F0040375
:1017D0003B613B69264A264B9B6943F008039361B2
:1017E000234B9B6903F00803FB60FB68FE23BB618E
:1017F0000323FB6107F1180319461E4801F050F856
:101800000323BB610323FB6107F1180319461A4840
:1018100001F046F8194B1A4A1A60184B00225A6018
:10182000164B00229A60154B8022DA60134B4FF45E
:1018300000721A61114B4FF400625A610F4B202263
:101840009A610E4B0022DA610C4800F007FE034655
:10185000002B01D0FFF712FE7B68084A1A62074A84
:101860007B68536200BF2837BD4680BD002401401D
:101870000010024000080140000C014098050020C3
:101880000800024080B588B000AF786007F110030F
:1018900000221A605A609A60DA607B681B68154AF9
:1018A000934223D1144A144B9B6943F0080393617C
:1018B000114B9B6903F00803FB60FB68C0233B618D
:1018C00012237B610323FB6107F1100319460B48C8
:1018D00000F0E6FF084A084BDB6943F40013D361CC
:1018E000054BDB6903F40013BB60BB6800BF203706
:1018F000BD4680BD0054004000100240000C014075
:1019000080B584B000AF78607B681B68B3F1804F0E
:1019100013D10C4A0B4BDB6943F00103D361094B34
:10192000DB6903F00103FB60FB68002200211C203F
:1019300000F057FD1C2000F070FD00BF1037BD46C1
:1019400080BD00BF0010024080B58AB000AF786053
:1019500007F1140300221A605A609A60DA607B680B
:101960001B68B3F1804F42D1234A234B9B6943F05C
:1019700004039361204B9B6903F004033B613B69C3
:101980001D4A1D4B9B6943F0080393611A4B9B69E9
:1019900003F00803FB60FB684FF400437B61022304
:1019A000BB6102233B6207F114031946134800F0A0
:1019B00077FF08237B610223BB6102233B6207F1AF
:1019C000140319460E4800F06BFF0E4B5B687B62F8
:1019D0007B6A23F440737B627B6A43F0E0637B6243
:1019E0007B6A43F480737B62064A7B6A536000BF64
:1019F0002837BD4680BD00BF0010024000080140EE
:101A0000000C01400000014080B58AB000AF786052
:101A100007F1180300221A605A609A60DA607B6846
:101A20001B68534A93423AD1524A524B9B6943F442
:101A3000804393614F4B9B6903F480437B617B69D7
:101A40004C4A4C4B9B6943F004039361494B9B699F
:101A500003F004033B613B694FF40073BB61022355
:101A6000FB6103237B6207F118031946424800F02B
:101A700017FF4FF48063BB610023FB6100233B62CF
:101A800007F1180319463C4800F00AFF0022002124
:101A9000252000F0A6FC252000F0BFFC64E07B6858
:101AA0001B68364A93425FD1324A324BDB6943F4BA
:101AB0008023D3612F4BDB6903F48023FB60FB6839
:101AC0002C4A2C4B9B6943F008039361294B9B697B
:101AD00003F00803BB60BB684FF48063BB61022363
:101AE000FB6103237B6207F118031946244800F0C9
:101AF000D7FE4FF40063BB610023FB6100233B6210
:101B000007F1180319461E4800F0CAFE1D4B1E4A75
:101B10001A601C4B10225A601A4B00229A60194B13
:101B20008022DA60174B00221A61164B00225A619C
:101B3000144B00229A61134B0022DA61114800F025
:101B40008DFC0346002B01D0FFF798FC7B680D4A03
:101B50005A630C4A7B68536200220021272000F060
:101B600040FC272000F059FC00BF2837BD4680BD4F
:101B700000380140001002400008014000480040C9
:101B8000000C0140E00400201C00024080B400AFC3
:101B9000FEE780B400AFFEE780B400AFFEE780B49C
:101BA00000AFFEE780B400AFFEE780B400AF00BF37
:101BB000BD4680BC704780B400AF00BFBD4680BC4E
:101BC000704780B400AF00BFBD4680BC704780B591
:101BD00000AF00F003F900F03AFC00BF80BD80B414
:101BE00000AF00BFBD4680BC7047000080B500AFAD
:101BF000024800F043FD00BF80BD00BF98050020F3
:101C000080B500AF024800F039FD00BF80BD00BFC5
:101C1000E004002080B500AF024801F007FF00BFDC
:101C200080BD00BFDC05002080B500AF024802F097
:101C3000C9FD00BF80BD00BF5405002080B500AFC6
:101C4000024802F0BFFD00BF80BD00BF3C04002081
:101C500090B587B000AFF860B9607A6000237B610F
:101C60000AE0BC68631CBB60AFF300800346DBB2D4
:101C700023707B6901337B617A697B689A42F0DB70
:101C80007B6818461C37BD4690BD000080B584B007
:101C900000AF7860114B1B68002B02D10F4B104A2C
:101CA0001A600E4B1B68FB600C4B1A687B68134470
:101CB0006A46934207D903F0CBF902460C2313601E
:101CC0004FF0FF3306E0054B1A687B681344034A64
:101CD0001360FB6818461037BD4680BD2C020020FB
:101CE0003806002080B483B000AF78604FF0FF3337
:101CF00018460C37BD4680BC704780B483B000AF37
:101D0000786039603B684FF400525A6000231846EF
:101D10000C37BD4680BC704780B483B000AF78609C
:101D2000012318460C37BD4680BC704780B485B08F
:101D300000AFF860B9607A60002318461437BD46DA
:101D400080BC704780B400AF00BFBD4680BC704708
:101D500080B500AF084A084B1B6843F010031360BE
:101D6000032000F033FB002000F008F8FFF7D0FC60
:101D70000023184680BD00BF0020024080B582B01D
:101D800000AF7860124B1A68124B1B7819464FF45B
:101D90007A73B3FBF1F3B2FBF3F3184600F04BFB9D
:101DA0000346002B01D001230EE07B680F2B0AD8DD
:101DB000002279684FF0FF3000F013FB064A7B6881
:101DC0001360002300E0012318460837BD4680BD9C
:101DD00000000020080000200400002080B400AFB4
:101DE000054B1B781A46054B1B681344034A1360C6
:101DF00000BFBD4680BC70470800002030060020B0
:101E000080B400AF024B1B681846BD4680BC7047CB
:101E10003006002080B586B000AF78600023FB75E7
:101E200000233B610023BB600023FB607B68002B29
:101E300001D10123BEE07B689B68002B7B689B6A15
:101E4000002B09D17B680022DA627B68002283F8CC
:101E500024207868FFF796FC786800F0ABF9034619
:101E6000FB757B689B6A03F01003002B40F09980A0
:101E7000FB7D002B40F095807B689B6A23F48853A0
:101E800023F0020343F002027B689A627B685A687F
:101E90007B68DB691A437B681B7B5B001343BA6872
:101EA0001343BB607B689B68B3F5807F03D07B687E
:101EB0009B68012B02D14FF4807300E000233A6944
:101EC00013433B617B681B7D012B19D17B681B7B16
:101ED000002B09D17B689B69013B5A033B69134383
:101EE00043F400633B610BE07B689B6A43F0200294
:101EF0007B689A627B68DB6A43F001027B68DA6286
:101F00007B681B687A681268526822F469413A69F2
:101F10000A435A607B681A687B681B689968274B7C
:101F20000B40B9680B4393607B689B68B3F5807F77
:101F300003D07B689B68012B04D17B681B69013B44
:101F40001B05FB607B681B687A681268D26A22F402
:101F50007001FA680A43DA627B681B689A68184B5A
:101F60001340BA6893420BD17B680022DA627B6827
:101F70009B6A23F0030343F001027B689A6218E036
:101F80007B689B6A23F0120343F010027B689A621D
:101F90007B68DB6A43F001027B68DA620123FB7530
:101FA00007E07B689B6A43F010027B689A6201231A
:101FB000FB75FB7D18461837BD4680BDFDF7E1FF78
:101FC000FE0E1FFF90B484B000AF7860396000232C
:101FD000FB730023BB607B6893F82430012B01D195
:101FE0000223DCE07B68012283F824203B685B68E5
:101FF000062B1CD87B6819687B681B68586B3B688C
:102000005A6813469B001344053B1F2202FA03F350
:10201000DB4318403B681C683B685A6813469B00CA
:102020001344053B04FA03F303434B633CE03B6872
:102030005B680C2B1CD87B6819687B681B68186B65
:102040003B685A6813469B001344233B1F2202FA45
:1020500003F3DB4318403B681C683B685A6813462F
:102060009B001344233B04FA03F303430B631BE07D
:102070007B6819687B681B68D86A3B685A68134696
:102080009B001344413B1F2202FA03F3DB43184039
:102090003B681C683B685A6813469B001344413BED
:1020A00004FA03F30343CB623B681B68092B1CD97A
:1020B0007B6819687B681B68D8683B681A68134698
:1020C0005B0013441E3B072202FA03F3DB43184074
:1020D0003B689C683B681A6813465B0013441E3BD0
:1020E00004FA03F30343CB6019E07B6819687B684B
:1020F0001B6818693B681A6813465B001344072283
:1021000002FA03F3DB4318403B689C683B681A689B
:1021100013465B00134404FA03F303430B613B686B
:102120001B68102B03D03B681B68112B32D17B68D6
:102130001B681D4A934225D17B681B689B6803F48A
:102140000003002B26D17B681B687A6812689268AE
:1021500042F400029A603B681B68102B1AD1134BA3
:102160001B68134AA2FB03239A0C13469B001344DB
:102170005B00BB6002E0BB68013BBB60BB68002B3F
:10218000F9D107E07B689B6A43F020027B689A6282
:102190000123FB737B68002283F82420FB7B184615
:1021A0001037BD4690BC704700240140000000205D
:1021B00083DE1B4380B584B000AF78600023FB60F2
:1021C0007B681B689B6803F00103012B2ED17B68A1
:1021D0001B687A681268926822F001029A60FFF721
:1021E0000FFEF8601BE0FFF70BFE0246FB68D31AF8
:1021F000022B14D97B681B689B6803F00103012B39
:102200000DD17B689B6A43F010027B689A627B6801
:10221000DB6A43F001027B68DA62012307E07B6836
:102220001B689B6803F00103012BDCD000231846D8
:102230001037BD4680BD000080B485B000AF786027
:102240007B6803F00703FB600C4BDB68BB60BA687C
:102250004FF6FF031340BB60FB681A02BB681343D1
:1022600043F0BF6343F40033BB60044ABB68D360F0
:1022700000BF1437BD4680BC704700BF00ED00E0D2
:1022800080B400AF044BDB681B0A03F00703184659
:10229000BD4680BC704700BF00ED00E080B483B055
:1022A00000AF0346FB7197F90730002B0BDB0849A1
:1022B00097F907305B09FA7902F01F02012000FA52
:1022C00002F241F8232000BF0C37BD4680BC7047A6
:1022D00000E100E080B483B000AF03463960FB71D9
:1022E00097F90730002B0ADB0D4997F907303A6858
:1022F000D2B21201D2B20B4483F800230AE009499A
:10230000FB7903F00F03043B3A68D2B21201D2B258
:102310000B441A7600BF0C37BD4680BC704700BF27
:1023200000E100E000ED00E080B489B000AFF860AB
:10233000B9607A60FB6803F00703FB61FB69C3F1D6
:102340000703042B28BF0423BB61FB690433062B5E
:1023500002D9FB69033B00E000237B610122BB69DA
:1023600002FA03F35A1EBB681A407B699A400121A6
:102370007B6901FA03F3591E7B680B40134318462F
:102380002437BD4680BC704780B582B000AF78600E
:102390007B68013BB3F1807F01D301230FE00A4A40
:1023A0007B68013B53600F214FF0FF30FFF792FF36
:1023B000054B00229A60044B07221A60002318463E
:1023C0000837BD4680BD00BF10E000E080B582B098
:1023D00000AF78607868FFF72FFF00BF0837BD4671
:1023E00080BD80B586B000AF0346B9607A60FB73EC
:1023F00000237B61FFF744FF78617A68B9687869E8
:10240000FFF792FF024697F90F3011461846FFF783
:1024100061FF00BF1837BD4680BD80B582B000AFF8
:102420000346FB7197F907301846FFF737FF00BFE7
:102430000837BD4680BD80B582B000AF786078684F
:10244000FFF7A2FF034618460837BD4680BD80B59A
:1024500000AFFFF78DF800BF80BD000080B485B0ED
:1024600000AF78600023FB607B68002B01D1012363
:1024700043E07B681B681A46224B1344224AA2FBA6
:1024800003231B099A007B681A647B681F4ADA637E
:102490007B68022283F821207B681B681B68FB6035
:1024A000FB6823F47F5323F03003FB607B685A689A
:1024B0007B689B681A437B68DB681A437B681B69EF
:1024C0001A437B685B691A437B689B691A437B6884
:1024D000DB691343FA681343FB607B681B68FA6887
:1024E0001A607B6800229A637B68012283F82120AE
:1024F0007B68002283F82020002318461437BD464D
:1025000080BC7047F8FFFDBFCDCCCCCC00000240B2
:1025100080B485B000AF78600023FB737B6893F8CC
:102520002130022B08D07B6804229A637B6800224A
:1025300083F82020012320E07B681B687A681268FA
:10254000126822F00E021A607B681B687A681268B3
:10255000126822F001021A607B68DB6B7A68126CE9
:10256000012101FA02F25A607B68012283F82120DE
:102570007B68002283F82020FB7B18461437BD4679
:1025800080BC704780B584B000AF78600023FB73D7
:102590007B6893F82130022B05D07B6804229A6374
:1025A0000123FB7357E07B681B687A681268126826
:1025B00022F00E021A607B681B687A681268126843
:1025C00022F001021A60264A7B681B681946254BD7
:1025D00099422ED07B681B681946234B994226D01E
:1025E0007B681B681946214B99421DD07B681B688C
:1025F00019461F4B994214D07B681B6819461D4B26
:1026000099420BD07B681B6819461B4B994202D13B
:102610004FF480130EE04FF080730BE04FF48033E3
:1026200008E04FF4805305E04FF4807302E010237C
:1026300000E0012353607B68012283F821207B683E
:10264000002283F820207B685B6B002B03D07B6823
:102650005B6B78689847FB7B18461037BD4680BD9A
:1026600000000240080002401C000240300002400E
:1026700044000240580002406C00024080B584B023
:1026800000AF78607B68DB6B1B68FB607B681B6856
:102690001B68BB607B681B6C04229A40FB6813407C
:1026A000002B55D0BB6803F00403002B50D07B688F
:1026B0001B681B6803F02003002B07D17B681B6895
:1026C0007A681268126822F004021A606D4A7B6808
:1026D0001B6819466C4B99422ED07B681B681946C3
:1026E0006A4B994226D07B681B681946684B994211
:1026F0001DD07B681B681946664B994214D07B68D5
:102700001B681946644B99420BD07B681B681946BD
:10271000624B994202D14FF480030EE04FF0806388
:102720000BE04FF4802308E04FF4804305E04FF4C2
:10273000806302E0402300E0042353607B68DB6A8F
:10274000002B00F09A807B68DB6A7868984794E0F9
:102750007B681B6C02229A40FB681340002B5CD004
:10276000BB6803F00203002B57D07B681B681B6813
:1027700003F02003002B0BD17B681B687A6812687A
:10278000126822F00A021A607B68012283F8212075
:102790003C4A7B681B6819463B4B99422ED07B68AC
:1027A0001B681946394B994226D07B681B6819462D
:1027B000374B99421DD07B681B681946354B9942AF
:1027C00014D07B681B681946334B99420BD07B6849
:1027D0001B681946314B994202D14FF400130EE0A9
:1027E0004FF000730BE04FF4003308E04FF4005358
:1027F00005E04FF4007302E0202300E00223536061
:102800007B68002283F820207B689B6A002B34D0F1
:102810007B689B6A786898472FE07B681B6C08226E
:102820009A40FB681340002B28D0BB6803F00803D4
:10283000002B23D07B681B687A681268126822F02C
:102840000E021A607B68DB6B7A68126C012101FA58
:1028500002F25A607B6801229A637B68012283F846
:1028600021207B68002283F820207B681B6B002BD3
:1028700004D07B681B6B7868984700BF00BF103797
:10288000BD4680BD00000240080002401C0002401E
:102890003000024044000240580002406C000240F8
:1028A00080B48BB000AF7860396000237B62002376
:1028B0003B6227E101227B6A02FA03F3FB613B687A
:1028C0001A68FB691340BB61BA69FB699A4240F020
:1028D00016813B685B68122B34D0122B0DD8022B6B
:1028E0002BD0022B04D8002B31D0012B1CD048E078
:1028F000032B43D0112B1BD043E0894A934226D0AF
:10290000874A934206D8874A934220D0864A934208
:102910001DD036E0854A934219D0854A934216D09D
:10292000844A934213D02CE03B68DB683B6228E08A
:102930003B68DB6804333B6223E03B68DB680833B9
:102940003B621EE03B68DB680C333B6219E03B688E
:102950009B68002B02D104233B6212E03B689B681A
:10296000012B05D108233B627B68FA691A6108E0F4
:1029700008233B627B68FA695A6102E000233B62EC
:1029800000BFBB69FF2B01D87B6801E07B68043383
:102990007B61BB69FF2B02D87B6A9B0002E07B6AEC
:1029A000083B9B003B617B691A680F213B6901FA78
:1029B00003F3DB431A40396A3B6901FA03F31A4314
:1029C0007B691A603B685B6803F08053002B00F062
:1029D0009680594A584B9B6943F001039361564BCB
:1029E0009B6903F00103BB60BB68544A7B6A9B0888
:1029F000023352F82330FB607B6A03F003039B0031
:102A00000F2202FA03F3DB43FA681340FB607B6892
:102A10004B4A934213D07B684A4A93420DD07B685D
:102A2000494A934207D07B68484A934201D1032325
:102A300006E0042304E0022302E0012300E0002377
:102A40007A6A02F0030292009340FA681343FB6033
:102A50003A497B6A9B080233FA6841F823203B68B5
:102A60005B6803F48033002B06D03949384B1A6871
:102A7000BB6913430B6006E03549354B1A68BB69E7
:102A8000DB4313400B603B685B6803F40033002BAF
:102A900006D02F492E4B5A68BB6913434B6006E0A2
:102AA0002B492B4B5A68BB69DB4313404B603B6897
:102AB0005B6803F48013002B06D02549244B9A68E9
:102AC000BB6913438B6006E02149214B9A68BB69BF
:102AD000DB4313408B603B685B6803F40013002BFF
:102AE00006D01B491A4BDA68BB691343CB6006E07A
:102AF0001749174BDA68BB69DB431340CB607B6A2D
:102B000001337B623B681A687B6A22FA03F3002B6D
:102B10007FF4D0AE00BF2C37BD4680BC704700BFED
:102B200000002110000011100000121000003110F0
:102B3000000032100000221000100240000001408E
:102B400000080140000C0140001001400014014049
:102B50000004014080B483B000AF78600B467B80F6
:102B600013467B707B78002B03D07A887B681A61D0
:102B700003E07B881A047B681A6100BF0C37BD46EE
:102B800080BC704790B585B000AF78607B68002B43
:102B900001D101231FE17B6893F83D30DBB2002BAC
:102BA00006D17B68002283F83C207868FEF76AFE35
:102BB0007B68242283F83D207B681B687A68126852
:102BC000126822F001021A607B681B687A6812683A
:102BD000126842F400421A607B681B687A681268C7
:102BE000126822F400421A6000F0DAFCF8607B6898
:102BF0005B687B4A934207D8FB687A4A934294BF4A
:102C000001230023DBB206E0FB68774A934294BFBE
:102C100001230023DBB2002B01D00123DBE0FB68A2
:102C2000724AA2FB03239B0CBB607B681B687A681B
:102C30001268526822F03F01BA680A435A607B6802
:102C40001A687B681B681B6A23F03F017B685B681E
:102C50006348834202D8BB68013309E0BB684FF484
:102C6000967000FB03F36248A0FB03039B0901334A
:102C70000B4313627B6818687B681B68DB6923F46D
:102C80004F4222F0FF027B685B6855498B420DD8AA
:102C9000FB68591E7B685B685B00B1FBF3F3013393
:102CA000C3F30B03042B38BF04234FE07B689B68FE
:102CB000002B11D1FB685C1E7B6859680B465B00DA
:102CC0000B44B4FBF3F30133C3F30B03002B0CBF32
:102CD00001230023DBB212E0FB685C1E7B685968AD
:102CE0000B469B000B4499000B44B4FBF3F30133F8
:102CF000C3F30B03002B0CBF01230023DBB2002B1B
:102D000001D0012322E07B689B68002B0ED1FB6879
:102D10005C1E7B6859680B465B000B44B4FBF3F305
:102D20000133C3F30B0343F400430FE0FB685C1E65
:102D30007B6859680B469B000B4499000B44B4FB1D
:102D4000F3F30133C3F30B0343F440431343C36171
:102D50007B681B687A681268126822F0C0017A6882
:102D6000D0697A68126A02430A431A607B681A685B
:102D70007B681B689B6823F4034323F0FF03796897
:102D800008697968C96801430B4393607B681B68D5
:102D90007A681268D26822F0FF017A6850697A680E
:102DA000926902430A43DA607B681B687A6812689A
:102DB000126842F001021A607B6800221A647B6884
:102DC000202283F83D207B6800221A637B68002262
:102DD00083F83E20002318461437BD4690BD00BF3F
:102DE000A08601007F841E00FF083D0083DE1B4398
:102DF000D34D621080B586B000AF78607B68002B41
:102E000001D101236CE27B681B6803F00103002BF6
:102E100000F08780924B5B6803F00C03042B0CD00E
:102E20008F4B5B6803F00C03082B12D18C4B5B6853
:102E300003F48033B3F5803F0BD1894B1B6803F457
:102E40000033002B6CD07B685B68002B68D10123BA
:102E500046E27B685B68B3F5803F06D1804A804BD1
:102E60001B6843F4803313602EE07B685B68002BA3
:102E70000CD17B4A7A4B1B6823F480331360784A69
:102E8000774B1B6823F4802313601DE07B685B682D
:102E9000B3F5A02F0CD1724A714B1B6843F4802309
:102EA00013606F4A6E4B1B6843F4803313600BE072
:102EB0006B4A6B4B1B6823F480331360684A684B82
:102EC0001B6823F4802313607B685B68002B13D09E
:102ED000FEF796FF386108E0FEF792FF02463B6975
:102EE000D31A642B01D90323FAE15D4B1B6803F469
:102EF0000033002BF0D014E0FEF782FF386108E0C9
:102F0000FEF77EFF02463B69D31A642B01D90323E7
:102F1000E6E1534B1B6803F40033002BF0D100E0D3
:102F200000BF7B681B6803F00203002B63D04C4B8F
:102F30005B6803F00C03002B0BD0494B5B6803F07C
:102F40000C03082B1CD1464B5B6803F48033002B29
:102F500016D1434B1B6803F00203002B05D07B689E
:102F60001B69012B01D00123BAE13D493C4B1B6891
:102F700023F0F8027B685B69DB0013430B603AE0E7
:102F80007B681B69002B20D0364B01221A60FEF7AC
:102F900037FF386108E0FEF733FF02463B69D31A7A
:102FA000022B01D903239BE12D4B1B6803F0020385
:102FB000002BF0D02A492A4B1B6823F0F8027B68CB
:102FC0005B69DB0013430B6015E0264B00221A609F
:102FD000FEF716FF386108E0FEF712FF02463B6974
:102FE000D31A022B01D903237AE11D4B1B6803F08E
:102FF0000203002BF0D17B681B6803F00803002B51
:103000003AD07B689B69002B19D0174B01221A60BC
:10301000FEF7F6FE386108E0FEF7F2FE02463B6975
:10302000D31A022B01D903235AE10D4B5B6A03F03B
:103030000203002BF0D0012000F0DAFA1CE00A4B6A
:1030400000221A60FEF7DCFE38610FE0FEF7D8FEC2
:1030500002463B69D31A022B08D9032340E100BF83
:103060000010024000004242800442429E4B5B6AD4
:1030700003F00203002BE9D17B681B6803F0040313
:10308000002B00F0A6800023FB75974BDB6903F053
:103090008053002B0DD1944A934BDB6943F080534E
:1030A000D361914BDB6903F08053BB60BB680123A4
:1030B000FB758E4B1B6803F48073002B18D18B4A71
:1030C0008A4B1B6843F480731360FEF799FE3861E6
:1030D00008E0FEF795FE02463B69D31A642B01D93E
:1030E0000323FDE0814B1B6803F48073002BF0D0B9
:1030F0007B68DB68012B06D17B4A7B4B1B6A43F064
:10310000010313622DE07B68DB68002B0CD1764A4B
:10311000754B1B6A23F001031362734A724B1B6ADF
:1031200023F0040313621CE07B68DB68052B0CD1E1
:103130006D4A6D4B1B6A43F0040313626A4A6A4B83
:103140001B6A43F0010313620BE0674A664B1B6A7C
:1031500023F001031362644A634B1B6A23F00403E8
:1031600013627B68DB68002B15D0FEF749FE3861DF
:103170000AE0FEF745FE02463B69D31A41F2883267
:10318000934201D90323ABE0574B1B6A03F00203C0
:10319000002BEED014E0FEF733FE38610AE0FEF7B4
:1031A0002FFE02463B69D31A41F28832934201D97D
:1031B000032395E04C4B1B6A03F00203002BEED176
:1031C000FB7D012B05D1484A474BDB6923F0805337
:1031D000D3617B68DB69002B00F08180424B5B6828
:1031E00003F00C03082B61D07B68DB69022B46D10E
:1031F0003F4B00221A60FEF703FE386108E0FEF73D
:10320000FFFD02463B69D31A022B01D9032367E075
:10321000354B1B6803F00073002BF0D17B681B6AF1
:10322000B3F5803F08D130492F4B5B6823F400325F
:103230007B689B6813434B602B482B4B5B6823F4E4
:1032400074127B68196A7B685B6A0B4313434360A3
:10325000274B01221A60FEF7D3FD386108E0FEF724
:10326000CFFD02463B69D31A022B01D9032337E075
:103270001D4B1B6803F00073002BF0D02FE01C4B9C
:1032800000221A60FEF7BCFD386108E0FEF7B8FDC9
:1032900002463B69D31A022B01D9032320E0124BCB
:1032A0001B6803F00073002BF0D118E07B68DB692A
:1032B000012B01D1012313E00B4B5B68FB60FB6822
:1032C00003F480327B681B6A9A4206D1FB6803F4E0
:1032D00070127B685B6A9A4201D0012300E00023F0
:1032E00018461837BD4680BD0010024000700040EF
:1032F0006000424280B584B000AF786039607B687E
:10330000002B01D10123D0E06A4B1B6803F00702B8
:103310003B689A4210D26749664B1B6823F007024C
:103320003B6813430B60634B1B6803F007023B6869
:103330009A4201D00123B8E07B681B6803F00203C6
:10334000002B20D07B681B6803F00403002B05D002
:10335000594A594B5B6843F4E06353607B681B68D0
:1033600003F00803002B05D0534A534B5B6843F42A
:10337000605353605049504B5B6823F0F0027B6808
:103380009B6813434B607B681B6803F00103002BB1
:1033900040D07B685B68012B07D1474B1B6803F467
:1033A0000033002B15D101237FE07B685B68022B83
:1033B00007D1414B1B6803F00073002B09D1012397
:1033C00073E03D4B1B6803F00203002B01D1012386
:1033D0006BE03949384B5B6823F003027B685B681C
:1033E00013434B60FEF70CFDF8600AE0FEF708FDA2
:1033F0000246FB68D31A41F28832934201D9032373
:1034000053E02D4B5B6803F00C027B685B689B000C
:103410009A42EBD1274B1B6803F007023B689A42A4
:1034200010D92449234B1B6823F007023B68134340
:103430000B60204B1B6803F007023B689A4201D0E7
:10344000012332E07B681B6803F00403002B08D0E3
:103450001949194B5B6823F4E0627B68DB6813430E
:103460004B607B681B6803F00803002B09D01249EE
:10347000114B5B6823F460527B681B69DB001343CC
:103480004B6000F021F801460B4B5B681B0903F011
:103490000F030A4AD35C21FA03F3094A1360094B6C
:1034A0001B681846FEF76AFC002318461037BD4615
:1034B00080BD00BF0020024000100240B07900082B
:1034C000000000200400002090B48AB000AF2A4B16
:1034D0003C1D0FCB84E80F00284B1B883B8000234A
:1034E000FB610023BB6100237B6200237B6100231F
:1034F0003B62234B5B68FB61FB6903F00C03042B0D
:1035000002D0082B03D02DE01E4B3B622DE0FB695F
:103510009B0C03F00F0307F12802134413F8243C1B
:103520007B61FB6903F48033002B13D0144B5B6881
:103530005B0C03F0010307F12802134413F8283C45
:10354000BB617B690F4A02FB03F2BB69B2FBF3F379
:103550007B6204E07B690C4A02FB03F37B627B6ABB
:103560003B6202E0074B3B6200BF3B6A18462837CC
:10357000BD4690BC704700BF7C7900088C7900087C
:103580000010024000127A0000093D0080B400AF34
:10359000024B1B681846BD4680BC704700000020E7
:1035A00080B500AFFFF7F2FF0146054B5B681B0AD1
:1035B00003F00703034AD35C21FA03F3184680BDE6
:1035C00000100240C079000880B500AFFFF7DEFFB1
:1035D0000146054B5B68DB0A03F00703034AD35C33
:1035E00021FA03F3184680BD00100240C07900089C
:1035F00080B485B000AF78600A4B1B680A4AA2FB12
:1036000003235B0A7A6802FB03F3FB6000BFFB68DD
:103610005A1EFA60002BF9D100BF1437BD4680BC9A
:10362000704700BF00000020D34D621080B586B007
:1036300000AF786000233B610023FB607B681B6860
:1036400003F00103002B7DD00023FB754F4BDB699A
:1036500003F08053002B0DD14C4A4C4BDB6943F0F7
:103660008053D361494BDB6903F08053BB60BB6877
:103670000123FB75464B1B6803F48073002B18D1A4
:10368000434A434B1B6843F480731360FEF7B8FB57
:10369000386108E0FEF7B4FB02463B69D31A642B9D
:1036A00001D903236DE03A4B1B6803F48073002BB0
:1036B000F0D0364B1B6A03F44073FB60FB68002BB1
:1036C0002ED07B685B6803F44072FB689A4227D077
:1036D0002E4B1B6A23F44073FB602E4B01221A60B1
:1036E0002C4B00221A60294AFB681362FB6803F026
:1036F0000103002B14D0FEF783FB38610AE0FEF7CC
:103700007FFB02463B69D31A41F28832934201D9CA
:10371000032336E01D4B1B6A03F00203002BEED09F
:103720001A491A4B1B6A23F440727B685B68134387
:103730000B62FB7D012B05D1144A144BDB6923F08E
:103740008053D3617B681B6803F00203002B08D011
:103750000E490E4B5B6823F440427B689B68134321
:103760004B607B681B6803F01003002B08D00749EF
:10377000064B5B6823F480027B68DB6813434B6075
:10378000002318461837BD4680BD00BF0010024018
:10379000007000404004424280B582B000AF7860C3
:1037A0007B68002B01D1012341E07B6893F83D3019
:1037B000DBB2002B06D17B68002283F83C207868BE
:1037C000FEF79EF87B68022283F83D207B681A682A
:1037D0007B6804331946104600F0D2FB7B68012257
:1037E00083F846207B68012283F83E207B68012213
:1037F00083F83F207B68012283F840207B68012208
:1038000083F841207B68012283F842207B680122F3
:1038100083F843207B68012283F844207B680122DF
:1038200083F845207B68012283F83D200023184659
:103830000837BD4680BD80B582B000AF78607B6838
:10384000002B01D1012341E07B6893F83D30DBB2CE
:10385000002B06D17B68002283F83C20786800F0BA
:1038600039F87B68022283F83D207B681A687B6800
:1038700004331946104600F083FB7B68012283F86D
:1038800046207B68012283F83E207B68012283F872
:103890003F207B68012283F840207B68012283F867
:1038A00041207B68012283F842207B68012283F853
:1038B00043207B68012283F844207B68012283F83F
:1038C00045207B68012283F83D20002318460837F5
:1038D000BD4680BD80B483B000AF786000BF0C37B8
:1038E000BD4680BC7047000080B584B000AF7860F2
:1038F00039603B68002B09D17B6893F83E30DBB21E
:10390000012B14BF01230023DBB222E03B68042B10
:1039100009D17B6893F83F30DBB2012B14BF012340
:103920000023DBB215E03B68082B09D17B6893F8D4
:103930004030DBB2012B14BF01230023DBB208E0CF
:103940007B6893F84130DBB2012B14BF01230023C5
:10395000DBB2002B01D001235EE03B68002B04D1D9
:103960007B68022283F83E2013E03B68042B04D1DD
:103970007B68022283F83F200BE03B68082B04D1D0
:103980007B68022283F8402003E07B68022283F8F0
:1039900041207B681B6801223968184600F070FDE1
:1039A0007B681B681E4A934207D17B681B687A6854
:1039B0001268526C42F400425A647B681B68184AD1
:1039C00093420ED07B681B68B3F1804F09D07B68AF
:1039D0001B68144A934204D07B681B68124A9342C6
:1039E00011D17B681B689B6803F00703FB60FB68D1
:1039F000062B10D07B681B687A681268126842F048
:103A000001021A6007E07B681B687A681268126816
:103A100042F001021A60002318461037BD4680BDEF
:103A2000002C0140000400400008004080B582B036
:103A300000AF78607B681B681B6903F00203022BF0
:103A400022D17B681B68DB6803F00203022B1BD1C9
:103A50007B681B686FF002021A617B6801221A778B
:103A60007B681B689B6903F00303002B03D0786815
:103A700000F06BFA05E0786800F05EFA786800F014
:103A80006DFA7B6800221A777B681B681B6903F05C
:103A90000403042B22D17B681B68DB6803F004035A
:103AA000042B1BD17B681B686FF004021A617B68D2
:103AB00002221A777B681B689B6903F44073002B12
:103AC00003D0786800F041FA05E0786800F034FA35
:103AD000786800F043FA7B6800221A777B681B68DD
:103AE0001B6903F00803082B22D17B681B68DB6885
:103AF00003F00803082B1BD17B681B686FF00802DA
:103B00001A617B6804221A777B681B68DB6903F003
:103B10000303002B03D0786800F017FA05E07868FB
:103B200000F00AFA786800F019FA7B6800221A7728
:103B30007B681B681B6903F01003102B22D17B6884
:103B40001B68DB6803F01003102B1BD17B681B681C
:103B50006FF010021A617B6808221A777B681B6875
:103B6000DB6903F44073002B03D0786800F0EDF9B3
:103B700005E0786800F0E0F9786800F0EFF97B681C
:103B800000221A777B681B681B6903F00103012B75
:103B90000ED17B681B68DB6803F00103012B07D1A2
:103BA0007B681B686FF001021A61786800F0BBF94E
:103BB0007B681B681B6903F08003802B0ED17B6838
:103BC0001B68DB6803F08003802B07D17B681B68D0
:103BD0006FF080021A61786800F0DDFC7B681B687A
:103BE0001B6903F04003402B0ED17B681B68DB6828
:103BF00003F04003402B07D17B681B686FF0400245
:103C00001A61786800F0B3F97B681B681B6903F0E0
:103C10002003202B0ED17B681B68DB6803F0200398
:103C2000202B07D17B681B686FF020021A6178682F
:103C300000F0A8FC00BF0837BD4680BD80B584B049
:103C400000AFF860B9607A60FB6893F83C30012BF4
:103C500001D10223ACE0FB68012283F83C207B68A1
:103C60000C2B00F29F8001A252F823F0A13C000827
:103C7000A53D0008A53D0008A53D0008E13C000861
:103C8000A53D0008A53D0008A53D0008233D00080E
:103C9000A53D0008A53D0008A53D0008633D0008BE
:103CA000FB681B68B968184600F0CCF9FB681B6814
:103CB000FA681268926942F008029A61FB681B6810
:103CC000FA681268926922F004029A61FB681B6824
:103CD000FA6812689169BA6812690A439A6162E0E7
:103CE000FB681B68B968184600F012FAFB681B688D
:103CF000FA681268926942F400629A61FB681B6874
:103D0000FA681268926922F480629A61FB681B6803
:103D1000FA6812689169BA68126912020A439A61D4
:103D200041E0FB681B68B968184600F05BFAFB6865
:103D30001B68FA681268D26942F00802DA61FB680F
:103D40001B68FA681268D26922F00402DA61FB6823
:103D50001B68FA681268D169BA6812690A43DA61A5
:103D600021E0FB681B68B968184600F0A5FAFB68FB
:103D70001B68FA681268D26942F40062DA61FB6873
:103D80001B68FA681268D26922F48062DA61FB6803
:103D90001B68FA681268D169BA68126912020A438C
:103DA000DA6100E000BFFB68002283F83C200023BA
:103DB00018461037BD4680BD80B584B000AF78602E
:103DC00039607B6893F83C30012B01D10223A6E0D7
:103DD0007B68012283F83C207B68022283F83D2027
:103DE0007B681B689B68FB60FB6823F07703FB60C4
:103DF000FB6823F47F43FB607B681B68FA689A606A
:103E00003B681B68402B67D0402B0BD8102B73D01E
:103E1000102B02D8002B6FD078E0202B6CD0302BE9
:103E20006AD073E0702B0DD0702B04D8502B33D098
:103E3000602B41D06AE0B3F5805F66D0B3F5005FD8
:103E400017D063E07B6818683B6899683B685A68DC
:103E50003B68DB6800F0F5FA7B681B689B68FB60D9
:103E6000FB6843F07703FB607B681B68FA689A6025
:103E70004CE07B6818683B6899683B685A683B6807
:103E8000DB6800F0DEFA7B681B687A68126892686B
:103E900042F480429A6039E07B6818683B68596850
:103EA0003B68DB681A4600F055FA7B681B685021B6
:103EB000184600F0ACFA29E07B6818683B6859683E
:103EC0003B68DB681A4600F073FA7B681B68602168
:103ED000184600F09CFA19E07B6818683B6859683E
:103EE0003B68DB681A4600F035FA7B681B684021A6
:103EF000184600F08CFA09E07B681A683B681B687A
:103F00001946104600F083FA00E000BF7B680122EA
:103F100083F83D207B68002283F83C20002318466C
:103F20001037BD4680BD80B483B000AF786000BF5D
:103F30000C37BD4680BC704780B483B000AF78605A
:103F400000BF0C37BD4680BC704780B483B000AF63
:103F5000786000BF0C37BD4680BC704780B483B02A
:103F600000AF786000BF0C37BD4680BC704780B49E
:103F700083B000AF786000BF0C37BD4680BC70478F
:103F800080B485B000AF786039607B681B68FB60E7
:103F90007B68294A93420BD07B68B3F1804F07D0EE
:103FA0007B68264A934203D07B68254A934208D116
:103FB000FB6823F07003FB603B685B68FA6813439F
:103FC000FB607B681C4A93420BD07B68B3F1804F47
:103FD00007D07B68194A934203D07B68184A934202
:103FE00008D1FB6823F44073FB603B68DB68FA6828
:103FF0001343FB60FB6823F080023B685B6913435B
:10400000FB607B68FA681A603B689A687B68DA62D2
:104010003B681A687B689A627B68074A934203D1BF
:104020003B681A697B681A637B6801225A6100BF8A
:104030001437BD4680BC7047002C0140000400408E
:104040000008004080B487B000AF786039607B68BA
:104050001B6A23F001027B681A627B681B6A7B6122
:104060007B685B683B617B689B69FB60FB6823F056
:104070007003FB60FB6823F00303FB603B681B6875
:10408000FA681343FB607B6923F002037B613B68A2
:104090009B687A6913437B617B681C4A93420CD10D
:1040A0007B6923F008037B613B68DB687A69134313
:1040B0007B617B6923F004037B617B68134A934235
:1040C00011D13B6923F480733B613B6923F4007396
:1040D0003B613B685B693A6913433B613B689B69A1
:1040E0003A6913433B617B683A695A607B68FA68B6
:1040F0009A613B685A687B685A637B687A691A627E
:1041000000BF1C37BD4680BC704700BF002C01407B
:1041100080B487B000AF786039607B681B6A23F099
:1041200010027B681A627B681B6A7B617B685B6834
:104130003B617B689B69FB60FB6823F4E043FB60A9
:10414000FB6823F44073FB603B681B681B02FA6842
:104150001343FB607B6923F020037B613B689B6812
:104160001B017A6913437B617B681D4A93420DD121
:104170007B6923F080037B613B68DB681B017A6904
:1041800013437B617B6923F040037B617B68144AA6
:10419000934213D13B6923F480633B613B6923F471
:1041A00000633B613B685B699B003A6913433B6179
:1041B0003B689B699B003A6913433B617B683A69A2
:1041C0005A607B68FA689A613B685A687B689A63B0
:1041D0007B687A691A6200BF1C37BD4680BC704795
:1041E000002C014080B487B000AF786039607B68F4
:1041F0001B6A23F480727B681A627B681B6A7B618E
:104200007B685B683B617B68DB69FB60FB6823F074
:104210007003FB60FB6823F00303FB603B681B68D3
:10422000FA681343FB607B6923F400737B613B688E
:104230009B681B027A6913437B617B681D4A93422A
:104240000DD17B6923F400637B613B68DB681B0253
:104250007A6913437B617B6923F480637B617B68AC
:10426000144A934213D13B6923F480533B613B6969
:1042700023F400533B613B685B691B013A691343BC
:104280003B613B689B691B013A6913433B617B6857
:104290003A695A607B68FA68DA613B685A687B68F9
:1042A000DA637B687A691A6200BF1C37BD4680BC3E
:1042B000704700BF002C014080B487B000AF786029
:1042C00039607B681B6A23F480527B681A627B68C2
:1042D0001B6A3B617B685B687B617B68DB69FB60B9
:1042E000FB6823F4E043FB60FB6823F44073FB604E
:1042F0003B681B681B02FA681343FB603B6923F4AD
:1043000000533B613B689B681B033A6913433B6165
:104310007B680F4A934209D17B6923F480437B6118
:104320003B685B699B017A6913437B617B687A69AF
:104330005A607B68FA68DA613B685A687B681A647D
:104340007B683A691A6200BF1C37BD4680BC704763
:10435000002C014080B487B000AFF860B9607A608B
:10436000FB681B6A7B61FB681B6A23F00102FB6828
:104370001A62FB689B693B613B6923F0F0033B6178
:104380007B681B013A6913433B617B6923F00A0395
:104390007B617A69BB6813437B61FB683A699A6108
:1043A000FB687A691A6200BF1C37BD4680BC704743
:1043B00080B487B000AFF860B9607A60FB681B6AB0
:1043C00023F01002FB681A62FB689B697B61FB6843
:1043D0001B6A3B617B6923F470437B617B681B0331
:1043E0007A6913437B613B6923F0A0033B61BB689F
:1043F0001B013A6913433B61FB687A699A61FB6868
:104400003A691A6200BF1C37BD4680BC704780B451
:1044100085B000AF786039607B689B68FB60FB68A3
:1044200023F07003FB603A68FB68134343F0070313
:10443000FB607B68FA689A6000BF1437BD4680BC99
:10444000704780B487B000AFF860B9607A603B60B5
:10445000FB689B687B617B6923F47F437B613B68DE
:104460001A027B681A43BB6813437A6913437B6162
:10447000FB687A699A6000BF1C37BD4680BC7047F4
:1044800080B487B000AFF860B9607A60BB6803F0B1
:104490001F03012202FA03F37B61FB681A6A7B693E
:1044A000DB431A40FB681A62FB681A6ABB6803F0B8
:1044B0001F03796801FA03F31A43FB681A6200BF0D
:1044C0001C37BD4680BC704780B485B000AF7860B3
:1044D00039607B6893F83C30012B01D1022346E020
:1044E0007B68012283F83C207B68022283F83D2010
:1044F0007B681B685B68FB607B681B689B68BB60B4
:10450000FB6823F07003FB603B681B68FA68134389
:10451000FB607B681B68FA685A607B681B68164AF8
:1045200093420ED07B681B68B3F1804F09D07B6843
:104530001B68124A934204D07B681B68104A93425E
:104540000CD1BB6823F08003BB603B685B68BA6832
:104550001343BB607B681B68BA689A607B68012262
:1045600083F83D207B68002283F83C200023184616
:104570001437BD4680BC7047002C01400004004049
:104580000008004080B483B000AF786000BF0C37F3
:10459000BD4680BC704780B483B000AF786000BF78
:1045A0000C37BD4680BC704780B582B000AF7860E4
:1045B0007B68002B01D101233FE07B6893F83D30FD
:1045C000DBB2002B06D17B68002283F83C207868A0
:1045D000FDF71AFA7B68242283F83D207B681B686C
:1045E0007A681268D26822F40052DA60786800F0C3
:1045F0007BFC7B681B687A681268126922F490421F
:104600001A617B681B687A681268526922F02A0274
:104610005A617B681B687A681268D26842F400525B
:10462000DA607B6800221A647B68202283F83D20D0
:104630007B68202283F83E20002318460837BD46B9
:1046400080BD80B58AB002AFF860B9603B601346A8
:10465000FB8000237B61FB6893F83D30DBB2202BAD
:104660007BD1BB68002B02D0FB88002B01D101233A
:1046700074E0FB6893F83C30012B01D102236DE01C
:10468000FB68012283F83C20FB6800221A64FB6867
:10469000212283F83D20FDF7B3FB7861FB68FA889F
:1046A0009A84FB68FA88DA84FB689B68B3F5805FBC
:1046B00008D1FB681B69002B04D10023FB61BB6898
:1046C000BB6103E0BB68FB610023BB61FB680022A8
:1046D00083F83C2029E03B6800937B69002280211D
:1046E000F86800F02FFA0346002B01D0032335E0D1
:1046F000FB69002B0AD1FB681B68BA691288C2F3F8
:1047000008025A60BB690233BB6107E0FB681B68A3
:10471000FA6912785A60FB690133FB61FB68DB8C34
:104720009BB2013B9AB2FB68DA84FB68DB8C9BB2DC
:10473000002BD0D13B6800937B6900224021F868B0
:1047400000F000FA0346002B01D0032306E0FB68CB
:10475000202283F83D20002300E002231846203762
:10476000BD4680BD80B584B000AFF860B960134627
:10477000FB80FB6893F83E30DBB2202B1DD1BB6879
:10478000002B02D0FB88002B01D1012316E0FB682F
:1047900093F83C30012B01D102230FE0FB6801228A
:1047A00083F83C20FB6800221A63FB881A46B9682C
:1047B000F86800F011FA034600E0022318461037AB
:1047C000BD4680BD80B58AB000AF78607B681B684D
:1047D0001B687B627B681B68DB683B627B681B68CD
:1047E0005B69FB610023BB6100237B617B6A03F093
:1047F0000F03BB61BB69002B0DD17B6A03F0200363
:10480000002B08D03B6A03F02003002B03D078680C
:1048100000F0C1FA7CE1BB69002B00F0B180FB69BC
:1048200003F00103002B05D13B6A03F49073002BC6
:1048300000F0A6807B6A03F00103002B0AD03B6ADC
:1048400003F48073002B05D07B681B6C43F00102DE
:104850007B681A647B6A03F00403002B0AD0FB69AF
:1048600003F00103002B05D07B681B6C43F00202B0
:104870007B681A647B6A03F00203002B0AD0FB6991
:1048800003F00103002B05D07B681B6C43F004028E
:104890007B681A647B6A03F00803002B0FD03B6A25
:1048A00003F02003002B04D1FB6903F00103002B6C
:1048B00005D07B681B6C43F008027B681A647B6838
:1048C0001B6C002B00F01F817B6A03F02003002B80
:1048D00007D03B6A03F02003002B02D0786800F079
:1048E0005AFA7B681B685B6903F04003002B14BF16
:1048F00001230023DBB27B617B681B6C03F00803A0
:10490000002B02D17B69002B31D0786800F09DF933
:104910007B681B685B6903F04003002B23D07B6836
:104920001B687A681268526922F040025A617B68FB
:104930009B6B002B13D07B689B6B774A5A637B6819
:104940009B6B1846FDF71EFE0346002B16D07B68B6
:104950009B6B5B6B7A68926B104698470EE07868A9
:10496000FCF7B6F80AE07868FCF7B2F806E0786879
:10497000FCF7AEF87B6800221A64C4E000BFC2E016
:104980007B681B6B012B40F0A1807B6A03F0100356
:10499000002B00F09B803B6A03F01003002B00F01B
:1049A00095800023FB607B681B681B68FB607B684D
:1049B0001B685B68FB60FB687B681B685B6903F0D6
:1049C0004003002B4ED07B689B6B1B685B687B822F
:1049D0007B8A002B00F099807B689B8D7A8A9A42B3
:1049E00080F093807B687A8ADA857B689B6B9B6911
:1049F000202B2BD07B681B687A681268D26822F45F
:104A00008072DA607B681B687A681268526922F0EB
:104A100001025A617B681B687A681268526922F049
:104A200040025A617B68202283F83E207B68002286
:104A30001A637B681B687A681268D26822F01002D9
:104A4000DA607B689B6B1846FDF762FD7B689A8D88
:104A50007B68DB8D9BB2D31A9BB21946786800F055
:104A600066F852E07B689A8D7B68DB8D9BB2D31A27
:104A70003B827B68DB8D9BB2002B48D03B8A002BAE
:104A800045D07B681B687A681268D26822F49072FD
:104A9000DA607B681B687A681268526922F001024A
:104AA0005A617B68202283F83E207B6800221A63CB
:104AB0007B681B687A681268D26822F01002DA609C
:104AC0003B8A1946786800F032F820E07B6A03F0F0
:104AD0008003002B08D03B6A03F08003002B03D037
:104AE000786800F0F2F813E07B6A03F04003002BD3
:104AF0000ED03B6A03F04003002B09D0786800F029
:104B000032F900BF04E000BF02E000BF00E000BFD8
:104B10002837BD4680BD00BFA34C000880B483B0D9
:104B200000AF786000BF0C37BD4680BC704780B4D2
:104B300083B000AF78600B467B8000BF0C37BD466A
:104B400080BC704780B584B000AFF860B9603B604E
:104B50001346FB712CE0BB69B3F1FF3F28D0BB6962
:104B6000002B07D0FDF74CF902463B68D21ABB690F
:104B70009A421DD9FB681B68FA681268D26822F451
:104B8000D072DA60FB681B68FA681268526922F01A
:104B900001025A61FB68202283F83D20FB68202235
:104BA00083F83E20FB68002283F83C2003230FE0BB
:104BB000FB681B681A68BB681A40BB689A420CBF46
:104BC00001230023DBB21A46FB799A42C3D00023AB
:104BD00018461037BD4680BD80B485B000AFF86080
:104BE000B9601346FB80FB68BA689A62FB68FA8872
:104BF0009A85FB68FA88DA85FB6800221A64FB68EC
:104C0000222283F83E20FB68002283F83C20FB68C8
:104C10001B68FA681268D26842F48072DA60FB6836
:104C20001B68FA681268526942F001025A61FB6817
:104C30001B68FA681268D26842F02002DA6000232A
:104C400018461437BD4680BC704780B483B000AFAF
:104C500078607B681B687A681268D26822F4907268
:104C6000DA607B681B687A681268526922F0010278
:104C70005A617B681B6B012B07D17B681B687A68C4
:104C80001268D26822F01002DA607B68202283F872
:104C90003E207B6800221A6300BF0C37BD4680BCF3
:104CA000704780B584B000AF78607B685B6AFB605A
:104CB000FB680022DA85FB680022DA84F868FBF7DB
:104CC00007FF00BF1037BD4680BD80B485B000AF80
:104CD00078607B6893F83D30DBB2212B3DD17B6857
:104CE0009B68B3F5805F13D17B681B69002B0FD1E4
:104CF0007B681B6AFB607B681B68FA681288C2F3DA
:104D000008025A607B681B6A9A1C7B681A6208E07A
:104D10007B681A687B681B6A581C796808621B7874
:104D200053607B68DB8C9BB2013B9BB27A6819466F
:104D3000D184002B0FD17B681B687A681268D26817
:104D400022F08002DA607B681B687A681268D26899
:104D500042F04002DA60002300E0022318461437D4
:104D6000BD4680BC704780B582B000AF78607B687C
:104D70001B687A681268D26822F04002DA607B68A9
:104D8000202283F83D207868FFF7C8FE00231846EC
:104D90000837BD4680BD80B586B000AF78607B68BF
:104DA00093F83E30DBB2222B40F099807B689B6801
:104DB000B3F5805F17D17B681B69002B13D10023EB
:104DC0007B617B689B6A3B617B681B685B689BB20D
:104DD000C3F308039AB23B691A807B689B6A9A1CEA
:104DE0007B689A6226E07B689B6A7B6100233B615B
:104DF0007B689B68B3F5805F07D07B689B68002B5E
:104E00000AD17B681B69002B06D17B681B685B6835
:104E1000DAB27B691A7008E07B681B685B68DBB2FA
:104E200003F07F03DAB27B691A707B689B6A5A1CB5
:104E30007B689A627B68DB8D9BB2013B9BB27A6890
:104E40001946D185002B48D17B681B687A681268A7
:104E5000D26822F02002DA607B681B687A681268E8
:104E6000D26822F48072DA607B681B687A68126804
:104E7000526922F001025A617B68202283F83E20A9
:104E80007B681B6B012B23D17B6800221A637B6834
:104E90001B687A681268D26822F01002DA607B68B8
:104EA0001B681B6803F01003102B0AD10023FB6062
:104EB0007B681B681B68FB607B681B685B68FB602A
:104EC000FB687B689B8D19467868FFF730FE02E02F
:104ED0007868FBF7EBFD002302E0002300E00223EB
:104EE00018461837BD4680BD90B585B000AF7860D4
:104EF0007B681B687A681268126922F440517A68EC
:104F0000D2680A431A617B689A687B681B691A43F6
:104F10007B685B691343BB607B681A687B681B68AE
:104F2000DB6823F4B05323F00C03B9680B43D36060
:104F30007B681B687A681268526922F440717A684B
:104F400092690A435A617B681B682C4A934203D1D9
:104F5000FEF73AFBF86002E0FEF722FBF8607B68A0
:104F60001968FA6813469B0013449A001A447B6838
:104F70005B689B00B2FBF3F3214AA2FB03235B09AE
:104F80001801FA6813469B0013449A001A447B6880
:104F90005B689B00B2FBF3F2194BA3FB02435B0976
:104FA000642404FB03F3D31A1B013233144AA2FB1B
:104FB00003235B0903F0F0031844FA6813469B00CF
:104FC00013449A001A447B685B689B00B2FBF3F2BF
:104FD0000B4BA3FB02435B09642404FB03F3D31ACA
:104FE0001B013233064AA2FB03235B0903F00F03C4
:104FF00003448B6000BF1437BD4690BD00380140AC
:105000001F85EB510C480D490D4A002302E0D4588E
:10501000C4500433C4188C42F9D30A4A0A4C002302
:1050200001E013600432A242FBD3FCF78BFE00F0D8
:1050300015F8FBF70FFF704700000020DC0100208F
:10504000907C0008DC01002038060020FEE700000C
:10505000014B1868704700BF0C00002070B5002598
:105060000C4E0D4CA41BA410A54209D102F0E4FB88
:1050700000250A4E0A4CA41BA410A54205D170BD00
:1050800056F8253098470135EEE756F82530984711
:105090000135F2E7887C0008887C0008887C0008DD
:1050A0008C7C0008044B054A1B681B6A002B08BF58
:1050B0001346D3F8EC0070470C000020700000206D
:1050C00082B001B901A942B14BB113780B601278DB
:1050D000101C18BF012002B070471046FBE76FF0AC
:1050E0000100F8E703460244934200D1704703F8F9
:1050F000011BF9E7002B2DE9F0471E46BBBF03F16A
:1051000000431E4600232D2388B0149F129927F0D8
:105110002007462F1446109DDDF84CA00B7004D0DC
:10512000452F00D10135022300E0032307AA049292
:1051300006AA03928DE828042246334600F014FEA6
:10514000472F804602D1119BDB0726D5462F08EB5F
:10515000050911D198F80030302B0AD10022002324
:1051600020463146FBF71CFC18B9C5F10105CAF809
:105170000050DAF8003099440022002320463146DE
:10518000FBF70EFC38B93022079B994505D9591C0D
:1051900007911A70F8E7CDF81C904046079B159AC6
:1051A000A3EB0803136008B0BDE8F0870346F7B52A
:1051B000002903F8022BB6BF2D222B2249420929D0
:1051C000427021DD0DF1070217460A2691FBF6F524
:1051D00006FB1511092D01F1300102F8011C02F145
:1051E000FF34294609DC3031023A04F8011CBA4286
:1051F0001C4604D3201A03B0F0BD2246E6E712F89D
:10520000011B03F8011BF2E730221C46114404F88D
:10521000022B5970EEE700002DE9F04F91B00C46DB
:105220001A9F93461E46054601F0EEFC0368184699
:105230000993FAF78DFF00230E933B680A9007331A
:1052400023F0070303F1080294F81880D4F800A0B3
:105250003A60D3E90023C4E91223D4F84C90A76C38
:1052600029F000430B934FF0FF32A64B38460B99C1
:10527000FBF7C8FB002840F0F7814FF0FF32A14B4D
:1052800038460B99FBF7A0FB002840F0ED81002287
:10529000002338464946FBF78DFB10B12D2384F8D7
:1052A0004330994B994FB8F1470F98BF1F460323DE
:1052B0004FF0000923612AF00403236000965B4647
:1052C0000FAA2146284600F0DFF9013040F09A800D
:1052D0004FF0FF3011B0BDE8F08F62680EA8531C8C
:1052E0000DF1340E4AF4806341D106226260002140
:1052F0002360019363680DF13302059002920093DD
:105300003A464B460691CDF81080CDF80CE0284681
:10531000FFF7F0FE08F0DF03472B074609D10D9B8E
:10532000D81C02DB6268934259DDA8F102085FFADB
:1053300088F8B8F1650F0D9936D80139424604F165
:1053400050000D91FFF732FF0E9A81468318012A13
:10535000236102DC2268D10701D5013323619DF866
:105360003330002BAAD02D2384F84330A6E7B8F1C0
:10537000670F02D0B8F1470FB9D19AB10021069159
:105380000DF133018DE80C00236005903A46CDF80D
:105390001080CDF80CE002914B462846FFF7AAFE9C
:1053A0000746BCE70122A1E7B8F1660F19D1002931
:1053B00063680CDD216113B92268D20702D501337D
:1053C0000B4423610D9B4FF00009A365C7E713B998
:1053D0002268D00701D50233F3E70123F1E74FF04C
:1053E00067080D9B0E9A934205DB22682361D10763
:1053F000E8D50133E5E7002BCCBF0123C3F102035D
:105400001344DEE723685A0507D423693A46594610
:105410002846B04701302AD15AE7B8F1650F40F26B
:10542000DC80D4E9120100220023FBF7B9FA00283E
:1054300039D00123364A59462846B04701303FF457
:1054400047AF0E9B0D9A9A4202DB2368D8070ED510
:105450000A9B099A59462846B04701303FF438AFB5
:10546000002704F11A080E9B013B9F4211DB2368C1
:105470009F0708D5002704F11908E3680F9A9B1AC3
:105480009F42C0F2E780E0680F9B9842B8BF184681
:1054900020E70123424659462846B04701303FF4F1
:1054A00017AF0137DFE70D9B002B33DC0123184AD0
:1054B00059462846B04701303FF40AAF0D9B23B947
:1054C0000E9B13B92368D907D1D50A9B099A59466F
:1054D0002846B04701303FF4FBAE4FF0000804F11E
:1054E0001A090D9B5B42984501DB0E9B8EE7012359
:1054F0004A4659462846B04701303FF4E9AE08F124
:105500000108EEE7FFFFEF7FD6790008DA7900089F
:10551000E67900080E9AA36D9A42A8BF1A46002A9F
:10552000904636DC4FF0000A04F11A0328EAE878C6
:105530000B93D4F85890A9EB08039A4531DB0E9BE6
:105540000D9A9A4238DB2368DA0735D40E9B0D9901
:10555000A3EB0902A3EB01089045A8BF9046B8F160
:10556000000F31DC002728EAE87804F11A090D9AC7
:105570000E9B9B1AA3EB08039F42BFF678AF012353
:105580004A4659462846B04701303FF4A1AE01379C
:10559000EDE7134659463A462846B0470130C1D197
:1055A00096E601230B9A59462846B04701303FF44E
:1055B0008FAE0AF1010ABCE70A9B099A59462846B0
:1055C000B0470130C2D183E6434607EB0902594692
:1055D0002846B0470130C5D17AE60E9A012A01DC8F
:1055E000DB0734D501233A4659462846B0470130F7
:1055F0003FF46EAE0A9B099A59462846B0470130DF
:105600003FF466AED4E9120100220023FBF7C8F98B
:1056100050B1002704F11A080E9B013B9F420CDB9E
:105620004B4604F15002F2E60E9B7A1C013B5946B0
:105630002846B0470130F3D14AE601234246594695
:105640002846B04701303FF443AE0137E4E7012379
:105650003A46ECE70123424659462846B047013016
:105660003FF436AE013708E73A464B4638464946DE
:10567000FBF7C8F900283FF430AE014B014F12E6AA
:10568000DE790008E27900082DE9F04791461F46CF
:105690008A680B6906469342B8BF1346C9F80030C2
:1056A00091F843200C46DDF8208012B10133C9F88F
:1056B00000302368990642BFD9F800300233C9F898
:1056C0000030256815F0060507D104F1190AE368D2
:1056D000D9F800209B1A9D422ADB94F843302268B7
:1056E000003318BF012392062FD404F14302394638
:1056F0003046C047013022D02368E56803F0060336
:10570000042B18BF0025D9F800204FF0000908BF6E
:10571000AD1AA368226908BF25EAE5759342C4BFA4
:105720009B1AED181A344D451BD10020BDE8F087B7
:105730000123524639463046C047013003D14FF06D
:10574000FF30BDE8F0870135C1E73020E11881F86E
:1057500043005A1C94F845102244023382F8431047
:10576000C3E70123224639463046C0470130E6D020
:1057700009F10109D7E700002DE9F04317460A7E39
:1057800085B06E2A984606460C460C9B01F1430EE6
:1057900000F0BC801AD8632A2ED00AD8002A00F064
:1057A000C880582A00F08A8004F1420584F842201B
:1057B0002AE0642A01D0692AF6D121681A6811F01A
:1057C000800F23D0111D1960136827E0732A00F0A1
:1057D000B48008D86F2A2AD0702AE5D10A6842F02E
:1057E00020020A6003E0752A21D0782ADCD17822D1
:1057F0006F4984F8452064E01A6801F14205111DE3
:105800001960136884F842300123A3E011F0400FBF
:1058100002F104011960D7D0B2F90030002B03DA8D
:105820002D225B4284F8432062490A2217E0206857
:10583000196810F0800F03D0081D18600B6806E08F
:1058400010F0400F01F104001860F7D00B886F2AA8
:1058500014BF0A2208225749002084F843006568D3
:10586000002DA560C0F29C80206820F0040020601C
:10587000002B3FD1002D40F095807546082A0BD1B2
:105880002368DA0708D5236962689A42DEBF3023AD
:1058900005F8013C05F1FF35AEEB05032361CDF8BA
:1058A00000803B4603AA21463046FFF7EDFE01305B
:1058B00055D14FF0FF3005B0BDE8F08381F84520A9
:1058C0003C492268186812F0800F00F104051D6041
:1058D00001D0036802E05506FBD50388D00744BF1A
:1058E00042F0200222601BB9226822F020022260CE
:1058F0001022B1E77546B3FBF2F002FB1033CB5C2C
:1059000005F8013D03460028F5D1B7E708681A6895
:1059100010F0800F496904D0101D186013681960D9
:1059200007E010F0400F02F1040018601368F6D091
:105930001980002375462361B1E71A68111D1960AB
:10594000156800216268284601F0D8F908B1401BAB
:10595000606063682361002384F843309FE7236914
:105960002A4639463046C0470130A2D023689B07FB
:1059700007D5002504F11909E368039A9B1A9D4293
:1059800005DBE068039B9842B8BF184693E7012304
:105990004A4639463046C04701308AD00135EBE7E8
:1059A000002BA7D10B7804F1420584F8423065E75B
:1059B000F9790008E87900080FB40A4B13B51C68A0
:1059C00024B1A36913B9204601F094F805AB049AF9
:1059D000A1682046019301F05BFD02B0BDE81040D4
:1059E00004B070470C00002070B50E46054618B193
:1059F00083690BB901F07EF8AB69AC6813B928462E
:105A000001F078F8234B9C4217D16C68A3891B07DF
:105A10001DD52369DBB1013EA36816F8011F013BC8
:105A2000A360E9B9002B2EDA22460A21284600F0AD
:105A30003FF8013011D00A2070BD174B9C4201D1B4
:105A4000AC68E3E7154B9C4208BFEC68DEE72146F3
:105A5000284600F08DF80028DDD04FF0FF3070BDF3
:105A6000002B04DAA269934206DB0A2904D02368DA
:105A70005A1C22601970CFE72246284600F018F819
:105A80000130C9D1E9E70A2023685A1C2260187046
:105A900070BD00BF387B0008587B0008187B0008E9
:105AA000024B01461868FFF79FBF00BF0C000020A3
:105AB000F8B50E461446054618B183690BB901F0D6
:105AC00019F8214B9C422AD16C68A369A360A38971
:105AD0001A072ED5236963B323692068F6B2C01A6A
