:020000040800F2
:100000000050002005850008313700083737000808
:100010003D3700084337000849370008000000005A
:100020000000000000000000000000004F37000842
:100030005B370008000000006737000873370008CE
:100040004D8500084D8500084D8500084D85000848
:100050004D8500084D8500084D8500084D85000838
:100060004D8500084D8500084D850008853700083E
:100070004D8500084D8500084D8500084D85000818
:100080004D8500084D8500084D8500084D85000808
:100090004D8500084D8500084D8500084D850008F8
:1000A0004D8500084D8500084D8500084D850008E8
:1000B000C13700084D8500084D8500084D850008B2
:1000C0004D8500084D8500084D8500084D850008C8
:1000D0004D850008993700084D850008AD370008A8
:1000E0004D8500084D8500084D8500080000000082
:1000F0000000000000000000000000000000000000
:0C01000000000000000000005FF808F1A3
:1001100010B5054C237833B9044B13B10448AFF341
:1001200000800123237010BDDC01002000000000CE
:10013000C4AD000808B5034B1BB103490348AFF336
:10014000008008BD00000000E0010020C4AD0008F0
:10015000034613F8012B002AFBD1181A0138704707
:1001600081F0004102E000BF83F0004330B54FEA68
:1001700041044FEA430594EA050F08BF90EA020FD5
:100180001FBF54EA000C55EA020C7FEA645C7FEA68
:10019000655C00F0E2804FEA5454D4EB5555B8BF8B
:1001A0006D420CDD2C4480EA020281EA030382EAFC
:1001B000000083EA010180EA020281EA0303362D8E
:1001C00088BF30BD11F0004F4FEA01314FF4801C61
:1001D0004CEA113102D0404261EB410113F0004F73
:1001E0004FEA03334CEA133302D0524263EB43032A
:1001F00094EA050F00F0A780A4F10104D5F1200EC8
:100200000DDB02FA0EFC22FA05F2801841F1000122
:1002100003FA0EF2801843FA05F359410EE0A5F1F6
:1002200020050EF1200E012A03FA0EFC28BF4CF027
:10023000020C43FA05F3C01851EBE37101F00045DD
:1002400007D54FF0000EDCF1000C7EEB00006EEBEA
:100250000101B1F5801F1BD3B1F5001F0CD3490874
:100260005FEA30004FEA3C0C04F101044FEA4452CB
:1002700012F5800F80F09A80BCF1004F08BF5FEA52
:10028000500C50F1000041EB045141EA050130BD32
:100290005FEA4C0C404141EB010111F4801FA4F1D5
:1002A0000104E9D191F0000F04BF01460020B1FA2A
:1002B00081F308BF2033A3F10B03B3F120020CDA62
:1002C0000C3208DD02F1140CC2F10C0201FA0CF040
:1002D00021FA02F10CE002F11402D8BFC2F1200CA5
:1002E00001FA02F120FA0CFCDCBF41EA0C0190405B
:1002F000E41AA2BF01EB0451294330BD6FEA0404A4
:100300001F3C1CDA0C340EDC04F11404C4F120028E
:1003100020FA04F001FA02F340EA030021FA04F3A0
:1003200045EA030130BDC4F10C04C4F1200220FAF7
:1003300002F001FA04F340EA0300294630BD21FA35
:1003400004F0294630BD94F0000F83F4801306BFFB
:1003500081F480110134013D4EE77FEA645C18BFEF
:100360007FEA655C29D094EA050F08BF90EA020F86
:1003700005D054EA000C04BF1946104630BD91EA7E
:10038000030F1EBF0021002030BD5FEA545C05D181
:100390004000494128BF41F0004130BD14F58004C0
:1003A0003CBF01F5801130BD01F0004545F0FE4134
:1003B00041F470014FF0000030BD7FEA645C1ABF69
:1003C000194610467FEA655C1CBF0B46024650EAA0
:1003D000013406BF52EA033591EA030F41F40021CC
:1003E00030BD00BF90F0000F04BF0021704730B552
:1003F0004FF4806404F132044FF000054FF0000127
:1004000050E700BF90F0000F04BF0021704730B5E7
:100410004FF4806404F1320410F0004548BF4042BC
:100420004FF000013EE700BF42004FEAE2014FEA11
:1004300031014FEA02701FBF12F07F4393F07F4FEC
:1004400081F06051704792F0000F14BF93F07F4F1E
:10045000704730B54FF4607401F0004521F0004161
:1004600020E700BF50EA010208BF704730B54FF0E7
:1004700000050AE050EA010208BF704730B511F0EC
:10048000004502D5404261EB41014FF4806404F124
:1004900032045FEA915C3FF4DCAE4FF003025FEAA6
:1004A000DC0C18BF03325FEADC0C18BF033202EB2E
:1004B000DC02C2F1200300FA03FC20FA02F001FA88
:1004C00003FE40EA0E0021FA02F11444C1E600BF27
:1004D00070B54FF0FF0C4CF4E06C1CEA11541DBFDA
:1004E0001CEA135594EA0C0F95EA0C0F00F0DEF8A5
:1004F0002C4481EA030621EA4C5123EA4C5350EA8A
:10050000013518BF52EA033541F4801143F48013DA
:1005100038D0A0FB02CE4FF00005E1FB02E506F06B
:100520000042E0FB03E54FF00006E1FB03569CF0C0
:10053000000F18BF4EF0010EA4F1FF04B6F5007FC6
:1005400064F5407404D25FEA4E0E6D4146EB060638
:1005500042EAC62141EA55514FEAC52040EA5E50C1
:100560004FEACE2EB4F1FD0C88BFBCF5E06F1ED86B
:10057000BEF1004F08BF5FEA500E50F1000041EBA2
:10058000045170BD06F0004646EA010140EA02004F
:1005900081EA0301B4EB5C04C2BFD4EB0C0541EA71
:1005A000045170BD41F480114FF0000E013C00F386
:1005B000AB8014F1360FDEBF002001F0004170BDAA
:1005C000C4F10004203C35DA0C341BDC04F11404C3
:1005D000C4F1200500FA05F320FA04F001FA05F24F
:1005E00040EA020001F0004221F0004110EBD3701C
:1005F00021FA04F642EB06015EEA430E08BF20EA48
:10060000D37070BDC4F10C04C4F1200500FA04F3EA
:1006100020FA05F001FA04F240EA020001F000417C
:1006200010EBD37041F100015EEA430E08BF20EAEF
:10063000D37070BDC4F1200500FA05F24EEA020E37
:1006400020FA04F301FA05F243EA020321FA04F066
:1006500001F0004121FA04F220EA020000EBD3701D
:100660005EEA430E08BF20EAD37070BD94F0000F1D
:100670000FD101F00046400041EB010111F4801F51
:1006800008BF013CF7D041EA060195F0000F18BF02
:10069000704703F00046520043EB030313F4801F3E
:1006A00008BF013DF7D043EA0603704794EA0C0FF8
:1006B0000CEA135518BF95EA0C0F0CD050EA41060E
:1006C00018BF52EA4306D1D181EA030101F000418B
:1006D0004FF0000070BD50EA410606BF10461946B3
:1006E00052EA430619D094EA0C0F02D150EA0136BF
:1006F00013D195EA0C0F05D152EA03361CBF104600
:1007000019460AD181EA030101F0004141F0FE419E
:1007100041F470014FF0000070BD41F0FE4141F422
:10072000780170BD70B54FF0FF0C4CF4E06C1CEA22
:1007300011541DBF1CEA135594EA0C0F95EA0C0FD7
:1007400000F0A7F8A4EB050481EA030E52EA033592
:100750004FEA013100F088804FEA03334FF08055B3
:1007600045EA131343EA12634FEA022245EA1115E0
:1007700045EA10654FEA00260EF000419D4208BF91
:10078000964244F1FD0404F5407402D25B084FEA3E
:100790003202B61A65EB03055B084FEA32024FF4EA
:1007A00080104FF4002CB6EB020E75EB030E22BF47
:1007B000B61A754640EA0C005B084FEA3202B6EB07
:1007C000020E75EB030E22BFB61A754640EA5C00B6
:1007D0005B084FEA3202B6EB020E75EB030E22BF46
:1007E000B61A754640EA9C005B084FEA3202B6EB47
:1007F000020E75EB030E22BFB61A754640EADC0006
:1008000055EA060E18D04FEA051545EA16754FEA67
:1008100006164FEAC30343EA52734FEAC2025FEA85
:100820001C1CC0D111F4801F0BD141EA00014FF014
:1008300000004FF0004CB6E711F4801F04BF0143E5
:100840000020B4F1FD0C88BFBCF5E06F3FF6AFAE01
:10085000B5EB030C04BFB6EB020C5FEA500C50F191
:10086000000041EB045170BD0EF0004E4EEA113114
:1008700014EB5C04C2BFD4EB0C0541EA045170BD1B
:1008800041F480114FF0000E013C90E645EA060E5F
:100890008DE60CEA135594EA0C0F08BF95EA0C0F8D
:1008A0003FF43BAF94EA0C0F0AD150EA01347FF4D5
:1008B00034AF95EA0C0F7FF425AF104619462CE7AC
:1008C00095EA0C0F06D152EA03353FF4FDAE10460F
:1008D000194622E750EA410618BF52EA43067FF460
:1008E000C5AE50EA41047FF40DAF52EA43057FF4F0
:1008F000EBAE12E74FF0FF3C06E000BF4FF0010CFB
:1009000002E000BF4FF0010C4DF804CD4FEA410C5E
:100910007FEA6C5C4FEA430C18BF7FEA6C5C1BD02B
:1009200001B050EA410C0CBF52EA430C91EA030FAC
:1009300002BF90EA020F0020704710F1000F91EA09
:10094000030F58BF994208BF90422CBFD8176FEAD7
:10095000E37040F0010070474FEA410C7FEA6C5CA5
:1009600002D150EA013C07D14FEA430C7FEA6C5CAC
:10097000D6D152EA033CD3D05DF8040B704700BFD8
:100980008446104662468C461946634600E000BF26
:1009900001B5FFF7B7FF002848BF10F1000F01BDF8
:1009A0004DF808EDFFF7F4FF0CBF012000205DF8C3
:1009B00008FB00BF4DF808EDFFF7EAFF34BF012048
:1009C00000205DF808FB00BF4DF808EDFFF7E0FFE1
:1009D00094BF012000205DF808FB00BF4DF808ED32
:1009E000FFF7CEFF94BF012000205DF808FB00BF99
:1009F0004DF808EDFFF7C4FF34BF012000205DF87B
:100A000008FB00BF4FEA410C7FEA6C5C02D150EA60
:100A1000013C0AD14FEA430C7FEA6C5C02D152EAF6
:100A2000033C02D14FF0000070474FF001007047C7
:100A30004FEA410212F5001215D211D56FF4787306
:100A4000B3EB625212D94FEAC12343F0004343EAA9
:100A5000505311F0004F23FA02F018BF4042704784
:100A60004FF00000704750EA013005D111F000400E
:100A700008BF6FF0004070474FF00000704700BFA4
:100A80004FEA4102B2F1E04324BFB3F5001CDCF1B0
:100A9000FE5C0DD901F0004C4FEAC0024CEA5070E8
:100AA000B2F1004F40EB830008BF20F00100704717
:100AB00011F0804F21D113F13872BCBF01F000401A
:100AC000704741F480114FEA5252C2F11802C2F14C
:100AD000200C10FA0CF320FA02F018BF40F00100CD
:100AE0004FEAC1234FEAD32303FA0CFC40EA0C007F
:100AF00023FA02F34FEA4303CCE77FEA625307D1BC
:100B000050EA01331EBF4FF0FE4040F440007047F2
:100B100001F0004040F0FE4040F40000704700BF8C
:100B200080F0004002E000BF81F0004142001FBFA2
:100B30005FEA410392EA030F7FEA226C7FEA236CAB
:100B40006AD04FEA1262D2EB1363C1BFD2184140A0
:100B500048404140B8BF5B42192B88BF704710F036
:100B6000004F40F4000020F07F4018BF404211F0D9
:100B7000004F41F4000121F07F4118BF494292EA41
:100B8000030F3FD0A2F1010241FA03FC10EB0C006D
:100B9000C3F1200301FA03F100F0004302D54942FA
:100BA00060EB4000B0F5000F13D3B0F1807F06D3A7
:100BB00040084FEA310102F10102FE2A51D2B1F19F
:100BC000004F40EBC25008BF20F0010040EA030094
:100BD0007047490040EB000010F4000FA2F1010241
:100BE000EDD1B0FA80FCACF1080CB2EB0C0200FACB
:100BF0000CF0AABF00EBC25052421843BCBFD04019
:100C00001843704792F0000F81F4000106BF80F492
:100C100000000132013BB5E74FEA41037FEA226C55
:100C200018BF7FEA236C21D092EA030F04D092F020
:100C3000000F08BF0846704790EA010F1CBF002054
:100C4000704712F07F4F04D1400028BF40F00040B1
:100C5000704712F100723CBF00F50000704700F0D1
:100C6000004343F0FE4040F4000070477FEA2262F8
:100C700016BF08467FEA23630146420206BF5FEAC9
:100C8000412390EA010F40F4800070474FF00003C9
:100C900004E000BF10F0004348BF40425FEA000C90
:100CA00008BF704743F0964301464FF000001CE038
:100CB00050EA010208BF70474FF000030AE000BF8E
:100CC00050EA010208BF704711F0004302D54042CC
:100CD00061EB41015FEA010C02BF8446014600203E
:100CE00043F0B64308BFA3F18053A3F50003BCFA59
:100CF0008CF2083AA3EBC25310DB01FA02FC634406
:100D000000FA02FCC2F12002BCF1004F20FA02F20C
:100D100043EB020008BF20F00100704702F12002FF
:100D200001FA02FCC2F1200250EA4C0021FA02F260
:100D300043EB020008BF20EADC7070474FF0FF0C65
:100D40001CEAD0521EBF1CEAD15392EA0C0F93EA60
:100D50000C0F6FD01A4480EA010C400218BF5FEA02
:100D600041211ED04FF0006343EA501043EA511175
:100D7000A0FB01310CF00040B1F5000F3EBF49006F
:100D800041EAD3715B0040EA010062F17F02FD2A73
:100D90001DD8B3F1004F40EBC25008BF20F0010056
:100DA000704790F0000F0CF0004C08BF49024CEA6D
:100DB000502040EA51207F3AC2BFD2F1FF0340EAFF
:100DC000C250704740F400004FF00003013A5DDC70
:100DD00012F1190FDCBF00F000407047C2F10002B1
:100DE000410021FA02F1C2F1200200FA02FC5FEA9E
:100DF000310040F1000053EA4C0308BF20EADC70E8
:100E0000704792F0000F00F0004C02BF400010F459
:100E1000000F013AF9D040EA0C0093F0000F01F006
:100E2000004C02BF490011F4000F013BF9D041EA28
:100E30000C018FE70CEAD15392EA0C0F18BF93EA2A
:100E40000C0F0AD030F0004C18BF31F0004CD8D154
:100E500080EA010000F00040704790F0000F17BFDB
:100E600090F0004F084691F0000F91F0004F14D021
:100E700092EA0C0F01D142020FD193EA0C0F03D179
:100E80004B0218BF084608D180EA010000F000407C
:100E900040F0FE4040F40000704740F0FE4040F457
:100EA000400070474FF0FF0C1CEAD0521EBF1CEAF6
:100EB000D15392EA0C0F93EA0C0F69D0A2EB030214
:100EC00080EA010C49024FEA402037D04FF08053AE
:100ED00043EA111143EA10130CF000408B4238BF73
:100EE0005B0042F17D024FF4000C8B4224BF5B1A81
:100EF00040EA0C00B3EB510F24BFA3EB510340EACF
:100F00005C00B3EB910F24BFA3EB910340EA9C007C
:100F1000B3EBD10F24BFA3EBD10340EADC001B01EC
:100F200018BF5FEA1C1CE0D1FD2A3FF650AF8B4290
:100F300040EBC25008BF20F0010070470CF0004C9D
:100F40004CEA50207F32C2BFD2F1FF0340EAC250C8
:100F5000704740F400004FF00003013A37E792F089
:100F6000000F00F0004C02BF400010F4000F013AE7
:100F7000F9D040EA0C0093F0000F01F0004C02BFE2
:100F8000490011F4000F013BF9D041EA0C0195E74B
:100F90000CEAD15392EA0C0F08D142027FF47DAFE4
:100FA00093EA0C0F7FF470AF084676E793EA0C0FD4
:100FB00004D14B023FF44CAF08466EE730F0004CD2
:100FC00018BF31F0004CCAD130F000427FF45CAF62
:100FD00031F000437FF43CAF5FE700BF4FF0FF3CD0
:100FE00006E000BF4FF0010C02E000BF4FF0010C23
:100FF0004DF804CD4FEA40024FEA41037FEA226CEC
:1010000018BF7FEA236C11D001B052EA530C18BF0D
:1010100090EA010F58BFB2EB030088BFC81738BF72
:101020006FEAE17018BF40F0010070477FEA226C60
:1010300002D15FEA402C05D17FEA236CE4D15FEA5C
:10104000412CE1D05DF8040B704700BF8446084690
:101050006146FFE70FB5FFF7C9FF002848BF10F151
:10106000000F0FBD4DF808EDFFF7F4FF0CBF012096
:1010700000205DF808FB00BF4DF808EDFFF7EAFF20
:1010800034BF012000205DF808FB00BF4DF808EDDB
:10109000FFF7E0FF94BF012000205DF808FB00BFD0
:1010A0004DF808EDFFF7D2FF94BF012000205DF856
:1010B00008FB00BF4DF808EDFFF7C8FF34BF012063
:1010C00000205DF808FB00BF4FEA4002B2F1FE4F7E
:1010D0000FD34FF09E03B3EB12620DD94FEA0023FA
:1010E00043F0004310F0004F23FA02F018BF4042D3
:1010F00070474FF00000704712F1610F01D14202BA
:1011000005D110F0004008BF6FF0004070474FF06D
:101110000000704742000ED2B2F1FE4F0BD34FF0E9
:101120009E03B3EB126209D44FEA002343F000435D
:1011300023FA02F070474FF00000704712F1610F80
:1011400001D1420202D14FF0FF3070474FF0000052
:10115000704700BF80B500AF064803F00BF80A20C7
:1011600002F01AFC32220449024802F00FFD00BFCF
:1011700080BD00BF9C050020680200200000000028
:1011800090B583B000AF0023FB8000237B710AE0A1
:101190007B792F4A32F813309AB2FB881344FB80D4
:1011A0007B790A337B717B79312BF1D9FB88184627
:1011B000FFF770FD034627491846FFF7BFFD0346BA
:1011C0001846FFF7A7FF0346FB80FB881846FFF78A
:1011D00019F919A3D3E90023FFF77AF903460C465E
:1011E0001A46234616A1D1E90001FEF7BDFF0346CA
:1011F0000C461846214614A3D3E90023FFF792FAC0
:1012000003460C46184621464FF00002124BFEF7EB
:10121000ADFF03460C4618462146FFF731FC034656
:101220003B600E493868FFF77FFC034618460C37D1
:10123000BD4690BDAFF300806666666666664A3F4F
:10124000E17A14AE47E1F63F22FDF675E09C713F6E
:1012500068020020CDCC4C3E000039400000104117
:1012600080B582B000AF0023FB8005237B710AE0CC
:101270007B791B4A32F813309AB2FB881344FB8007
:101280007B790A337B717B79312BF1D9FB88184646
:10129000FFF700FD034613491846FFF74FFD0346CD
:1012A0001846FFF737FF0346FB80FB881846FFF719
:1012B000F1FC03460C491846FFF740FD03460B4975
:1012C0001846FFF73BFD03463B604FF000013868CE
:1012D000FFF72CFC034618460837BD4680BD00BF0B
:1012E00068020020CDCC4C3E3333533AC3F5E83F7F
:1012F00080B582B000AF0023FB8008237B710AE039
:101300007B791B4A32F813309AB2FB881344FB8076
:101310007B790A337B717B79312BF1D9FB881846B5
:10132000FFF7B8FC034613491846FFF707FD0346CD
:101330001846FFF7EFFE0346FB80FB881846FFF7D1
:10134000A9FC03460C491846FFF7F8FC03460B4975
:101350001846FFF7F3FC03463B604FF00001386886
:10136000FFF7E4FB034618460837BD4680BD00BFC3
:1013700068020020CDCC4C3E3333533AC3F5E83FEE
:1013800080B582B000AF0023FB8009237B710AE0A7
:101390007B791B4A32F813309AB2FB881344FB80E6
:1013A0007B790A337B717B79312BF1D9FB88184625
:1013B000FFF770FC034613491846FFF7BFFC0346CE
:1013C0001846FFF7A7FE0346FB80FB881846FFF789
:1013D00061FC03460C491846FFF7B0FC03460B4975
:1013E0001846FFF7ABFC03463B604FF0000138683E
:1013F000FFF79CFB034618460837BD4680BD00BF7B
:1014000068020020CDCC4C3E3333533AC3F5E83F5D
:1014100080B582B000AF0023FB8006237B710AE019
:101420007B791B4A32F813309AB2FB881344FB8055
:101430007B790A337B717B79312BF1D9FB88184694
:10144000FFF728FC034613491846FFF777FC0346CD
:101450001846FFF75FFE0346FB80FB881846FFF740
:1014600019FC03460C491846FFF768FC03460B4974
:101470001846FFF763FC03463B604FF000013868F5
:10148000FFF754FB034618460837BD4680BD00BF32
:1014900068020020CDCC4C3E3333533A3333934073
:1014A00080B582B000AF0023FB8007237B710AE088
:1014B0007B791B4A32F813309AB2FB881344FB80C5
:1014C0007B790A337B717B79312BF1D9FB88184604
:1014D000FFF7E0FB034613491846FFF72FFC0346CE
:1014E0001846FFF717FE0346FB80FB881846FFF7F8
:1014F000D1FB03460C491846FFF720FC03460B4975
:101500001846FFF71BFC03463B604FF000013868AC
:10151000FFF70CFB034618460837BD4680BD00BFE9
:1015200068020020CDCC4C3E3333533A33339340E2
:1015300080B483B000AF0023FB8002237B710BE0FB
:101540007B79144A32F813309AB2FB8813449BB269
:10155000FB807B790A337B717B79312BF0D9B7F92A
:1015600006300D4A82FB03125210DB17D31AFB80A0
:10157000B7F9063048F2E80202FB03F31B0BA3F6AF
:101580004E435B087B80B7F9023018460C37BD46E6
:1015900080BC7047680200206766666680B483B0CE
:1015A00000AF0023FB8001237B710BE07B79144AA1
:1015B00032F813309AB2FB8813449BB2FB807B79DC
:1015C0000A337B717B79312BF0D9B7F906300D4A9C
:1015D00082FB03125210DB17D31AFB80B7F90630D7
:1015E00048F2E80202FB03F31B0BA3F64E435B0831
:1015F0007B80B7F9023018460C37BD4680BC704777
:10160000680200206766666680B483B000AF00237E
:10161000FB8004237B710BE07B79144A32F8133092
:101620009AB2FB8813449BB2FB807B790A337B71AF
:101630007B79312BF0D9B7F906300D4A82FB0312C2
:101640005210DB17D31AFB80B7F9063048F2E802D4
:1016500002FB03F31B0BA3F6E4435B087B80B7F9A3
:10166000023018460C37BD4680BC70476802002027
:101670006766666680B483B000AF0023FB800323F7
:101680007B710BE07B79144A32F813309AB2FB88F5
:1016900013449BB2FB807B790A337B717B79312BBE
:1016A000F0D9B7F906300D4A82FB03125210DB174E
:1016B000D31AFB80B7F9063048F2E80202FB03F3C5
:1016C0001B0BA3F6E4435B087B80B7F90230184696
:1016D0000C37BD4680BC70476802002067666666AE
:1016E00080B584B000AFF860B9607A607B689AB268
:1016F0007B680133B968044806F023FA7B68184612
:101700001037BD4680BD00BFD005002080B500AFBA
:101710005C4B1B68002B0CD05A4B1B68013B594A91
:101720001360002B05D100224FF48071564803F05E
:1017300000FB564B1B88002B44D0554B1B680133D4
:10174000534A1360524B1B68504A1288934239D354
:101750004F4B00221A604F4B1B6801334D4A1360F8
:101760004C4B1B684C4A12881214403293420FD3E0
:10177000484B00221A60484B1B88013B9AB2464BEB
:101780001A80454B1B88002B02D1404B00221A8047
:10179000404B1B683F2B03D9002000F0C7FA1BE029
:1017A0003C4B1B681F2B06D93A4B1B68DBB2C3F1BD
:1017B0003F03DBB202E0374B1B68DBB2184600F098
:1017C000B5FA09E0314B1B88002B05D1304B0022C4
:1017D0001A60304B00221A60304B1B88002B44D01B
:1017E0002F4B1B6801332E4A13602D4B1B682B4A6D
:1017F0001288934239D32A4B00221A60294B1B6866
:101800000133284A1360274B1B68274A1288121499
:10181000403293420FD3234B00221A60224B1B8885
:10182000013B9AB2204B1A801F4B1B88002B02D120
:101830001A4B00221A801B4B1B683F2B03D9002038
:1018400000F086FA1CE0174B1B681F2B06D9154BBE
:101850001B68DBB2C3F13F03DBB202E0114B1B6834
:10186000DBB2184600F074FA0AE00C4B1B88002B20
:1018700006D10B4B00221A600A4B00221A60FFE7C8
:1018800000BF80BDD402002000080140DA02002021
:10189000F8010020FC010020D8020020DC0200201A
:1018A0000002002004020020E404002080B582B081
:1018B00000AF78604FF400720349044806F0D2F993
:1018C00000BF0837BD4680BDE0020020D0050020E3
:1018D00080B582B000AF78607868FFF7E7FF00BF9F
:1018E0000837BD4680BD000080B400AF0B4B9B8D18
:1018F0001A460A4BDB8D9BB2D31A03F50073084AD4
:1019000012889B1A5A42C3F30803C2F3080258BF55
:1019100053429BB21846BD4680BC7047D00500209C
:10192000D002002080B483B000AF0C4B1B885A1C3F
:1019300091B20A4A11801A46094B9B5CFB71074B16
:101940001B88B3F5007F02D3044B00221A80FB7979
:1019500018460C37BD4680BC704700BFD00200203F
:10196000E002002080B582B000AF7860064A7B6854
:10197000136001224FF48071044803F0DAF900BFCC
:101980000837BD4680BD00BFD402002000080140DA
:10199000B0B582B000AF03463960FB71FB79022B12
:1019A00001D90223FB71FB79234A52F823304FF00F
:1019B00000011846FFF756FB0346002B09D0FC79BF
:1019C0001E493868FFF7BAF903461A461A4B43F81E
:1019D0002420FC79FB79184A52F82350FB79164AE7
:1019E00052F8233015491846FFF75CFA03461946AA
:1019F0002846FFF799F803461A460F4B43F8242070
:101A0000FC79FB790C4A52F8233039681846FFF705
:101A10008DF803461A46084B43F82420FB79064A02
:101A200052F8233005491846FFF73CFA034618469A
:101A30000837BD46B0BD00BF080200200000A0412D
:101A4000B0B582B000AF03460A46FB711346BB80B7
:101A5000FB79062B01D90623FB71FB792A4A52F840
:101A600023304FF000011846FFF7FCFA0346002B25
:101A70000AD0FC79B7F90430DB001846FFF70AF901
:101A80000246214B43F82420FC79FB791E4A52F888
:101A90002350FB791C4A52F823304FF082411846FC
:101AA000FFF700FA034619462846FFF73DF80346BC
:101AB0001A46154B43F82420FC79FB79124A52F858
:101AC0002350B7F904301846FFF7E4F803461946E7
:101AD0002846FFF72BF803461A460B4B43F8242001
:101AE000FB79094A52F823304FF082411846FFF73C
:101AF000D9F903461846FFF7E7FA03461BB2184622
:101B00000837BD46B0BD00BF1402002080B500AF4D
:101B100000F07FFC4FF4807004F05AFA084A084B3A
:101B20001B6843F0040313604FF4807004F034FA30
:101B3000044807F035FA04F067FA00BF80BD00BF23
:101B400000700040E0AD000880B500AF10214C48A7
:101B500003F0D8F80346002B2DD04A4B1B68002B0E
:101B600029D14FF49670FFF7FDFE474B1B68002B01
:101B700027D001F007FF0246434B1B68D31AB3F589
:101B8000FA6F1ED905220A210A2000F013F9052256
:101B90000A210A2000F0EEF83C4807F001FA01F0B3
:101BA000F1FE0246374B1A6000224FF48041344860
:101BB00003F0BFF805E001F0E5FE0246324B1A6083
:101BC00000E000BF2F4B1B68002B25D001F0DAFE90
:101BD00002462C4B1B68D31A2D4A93421CD9294B21
:101BE00000221A6000F015FC4FF47A70FFF7BAFE7D
:101BF00005220A21142000F0DDF800224FF40051E4
:101C00001F4803F096F8234807F0CAF940F6B830A9
:101C100001F0C2FEFFF77AFF4FF40041184803F0CD
:101C200071F80346002B14D101F0ACFE0246154BAF
:101C30001B68D31A184A93420BD8184807F0B0F91A
:101C400001F0A0FE0346A3F5E033A3F59C730D4A13
:101C500013600C4B1B68002B0FD00F224FF6FF7147
:101C6000142000F0A7F81E224FF6FF710A2000F0A2
:101C7000A1F84FF4FA70FFF775FE00BF80BD00BFFA
:101C8000000C0140E0040020CC020020E8AD000878
:101C9000C0D4010000AE000837C101000CAE00083E
:101CA00080B582B000AFFFF71FFE03463B603B6884
:101CB000002B0FD000237B6008E0FFF733FE0346C4
:101CC000184600F047F97B6801337B607A683B680F
:101CD0009A42F2DB00BF0837BD4680BD80B58AB0AE
:101CE00000AF03463960FB7107F10C031C22002191
:101CF000184606F077FCFB79002B01D1402300E069
:101D00006023FB60FB793B6107F10C033A681946DD
:101D1000054805F0BBF93968034805F00DF800BF28
:101D20002837BD4680BD00BF8C06002080B582B03C
:101D300000AF0346FB71FB79044AD35C04211846CB
:101D4000FFF7CCFF00BF0837BD4680BD98B1000843
:101D500080B582B000AF0346FB71FB79044AD35CC7
:101D600000211846FFF7BAFF00BF0837BD4680BD07
:101D700098B1000880B483B000AF0346FB800B46E7
:101D8000BB8013467B80094AFB8813807B881B0439
:101D90001AB2B7F9043013431BB29AB2044B1A803B
:101DA00000BF0C37BD4680BC704700BFDA02002080
:101DB000D802002080B483B000AF0346FB800B46FE
:101DC000BB8013467B80094AFB8813807B881B04F9
:101DD0001AB2B7F9043013431BB29AB2044B1A80FB
:101DE00000BF0C37BD4680BC704700BFDC0200203E
:101DF000E404002080B500AF064807F0D1F806489B
:101E000007F0CEF8054807F0CBF8054807F0C8F80A
:101E100000BF80BD24AE000834AE000848AE000804
:101E200090AE000880B586B000AF786000237B617B
:101E300033E07B693B610023FB6011E0FB68013309
:101E40007A6813441B78002B04D13B690133184A8C
:101E5000134429E03B6901333B61FB680133FB60BC
:101E6000134A3B6913441B78FB7206F09BFB024646
:101E7000FB7A013313441B7803F00303012B02D1D7
:101E8000FB7A203300E0FB7AFA6879680A4412781A
:101E90009342D3D07B6901337B61054A7B6913444C
:101EA0001B78002BC5D1002318461837BD4680BDCE
:101EB0003002002080B586B000AFF860B9607A606B
:101EC0003B6000237B61FB681B78202B02D1FB6801
:101ED0000133FB60FB681B782D2B0CBF0123002313
:101EE000DBB2FB7416E0FB681B782F2B16D9FB685E
:101EF0001B78392B12D87A6913469B0013445B0078
:101F00007B61FB681B78303B7A6913447B61FB681B
:101F10000133FB60FB681B78002BE4D1FB7C002BBA
:101F200002D07B695B427B617A697B689A4207DBFE
:101F30007A693B689A4203DCBB687A691A6002E0FE
:101F4000034807F02DF8FB6818461837BD4680BDDA
:101F50009CAE000880B584B000AF0346FB712F4BE8
:101F60001B681F2B07D82D4B1B685A1C2B490A6076
:101F70002B49FA79CA54FB790A2B4CD1274B1B68A1
:101F8000013B274AD35C0D2B04D1244B1B68013B3A
:101F9000224A1360214B1B681A46214BD0181F4B55
:101FA0001B68C3F120031A46002106F01BFB1B4BE4
:101FB00000221A601B48FFF735FF02461A4B9A426F
:101FC00006D01A48FFF72EFF0246194B9A4202D15B
:101FD000FFF710FF1FE01748FFF724FFF860FB68CA
:101FE000002B18D04FF0FF33BB6007F1080102232C
:101FF0000022F868FFF75EFFBB68002B0ADBBB68B6
:10200000DAB20D4B1A700C4B1B7819460B4806F0D0
:1020100053FF00BF00BF1037BD4680BD50020020F7
:1020200030020020C0AE000831020020C4AE00081B
:1020300034020020CCAE000864020020D4AE0008B8
:1020400080B588B004AF03463960FB80FA88082366
:1020500002930223019307F10C0300930123D02183
:10206000064803F0B1F80346FB73BA893B681A804F
:10207000FB7B18461037BD4680BD00BF2C050020F5
:1020800080B588B004AF03460A46FB801346BB8088
:10209000BB88BB81FA88082302930223019307F1CE
:1020A0000C0300930123D021044802F093FF034660
:1020B000FB73FB7B18461037BD4680BD2C05002006
:1020C00080B584B000AF03460A46FB711346BB805F
:1020D000FB799BB207F10E0211461846FFF7B0FFDD
:1020E000B7F90430DB431AB2FB891BB213401BB2B1
:1020F0009BB2FB81FB799BB2FA8911461846FFF728
:10210000BFFF00BF1037BD4680BD80B584B000AFB3
:1021100003460A46FB711346BB80FB799BB207F16D
:102120000E0211461846FFF78BFFFA89BB8813434E
:102130009BB2FB81FB799BB2FA8911461846FFF7E7
:102140009FFF00BF1037BD4680BD000080B584B042
:1021500000AF154806F0B0FE0023BB601CE040F263
:10216000DC530322D021114803F090FA0346FB719F
:10217000642001F011FCFB79002B05D10C4806F01E
:102180000FFF0123FB730AE00A4806F009FF002352
:10219000FB73BB680133BB60BB68092BDFDDFB7BD6
:1021A00018461037BD4680BDE0AE00082C05002063
:1021B000F8AE000800AF000880B586B000AFF86048
:1021C000B96011461A460B46FB711346BB71BB79C9
:1021D000062B02D8204B7B6101E0204B7B61FB7911
:1021E0001846FEF757FD034679691846FEF7A6FD27
:1021F00003461946F868FEF755FE03461846FEF7F3
:1022000089FF03467B82FB791846FEF743FD0346B0
:1022100079691846FEF792FD03461946B868FEF73D
:1022200041FE03461846FEF775FF03463B827B8A54
:102230003A8A19460A4806F03FFE7B8A1946012071
:10224000FFF71EFF3B8A19460220FFF719FF00BF68
:102250001837BD4680BD00BF799A4939FC660639FA
:102260000CAF000880B584B000AF786039601449C5
:102270007868FEF717FE03461846FEF74BFF034645
:10228000FB810F493868FEF70DFE03461846FEF73E
:1022900041FF0346BB81FB89BA891946094806F00C
:1022A0000BFEFB8919460320FFF7EAFEBB8919469E
:1022B0000420FFF7E5FE00BF1037BD4680BD00BF1C
:1022C000B401D83A2CAF000880B584B000AF786074
:1022D0000B46FB701346BB70FB781846FEF7DAFC22
:1022E000034619467868FEF7DDFD0346BB60BB7800
:1022F000032B10D82349B868FEF716FC0346BB60D1
:102300002149B868FEF71AFD03461846FEF702FF9A
:102310000346FB7327E0BB78032B13D9BB78062B4E
:1023200010D81A49B868FEF7FFFB0346BB60164990
:10233000B868FEF703FD03461846FEF7EBFE0346BA
:10234000FB7310E04FF08041B868FEF7EDFB0346E9
:10235000BB600F49B868FEF7F1FC03461846FEF76C
:10236000D9FE0346FB73FB7B9BB219461B20FFF78C
:1023700087FEFB7B1946074806F09EFD00BF10371D
:10238000BD4680BD000074400000A04266665A4011
:102390000000D24248AF000880B584B000AF78603A
:1023A0000B46FB70FB781846FEF774FC0346796811
:1023B0001846FEF7C3FC03464FF07E511846FEF761
:1023C000B3FB03461846FEF7A5FE0346FB73FB7BF3
:1023D0009BB219461A20FFF753FEFB7B19460348B0
:1023E00006F06AFD00BF1037BD4680BD58AF00083B
:1023F00080B500AF4FF480711420FFF761FE00BF7D
:1024000080BD80B500AF10211420FFF77EFE00BF15
:1024100080BD80B500AF10211420FFF751FE00BF32
:1024200080BD80B500AF20211420FFF749FE00BF1A
:1024300080BD80B500AF01212920FFF741FE00BF1C
:1024400080BD000080B584B000AF0346FB71FB790E
:102450009BB207F10E0211461846FFF7F1FD034645
:10246000002B02D04FF6FF7306E0FB79FA8919467C
:10247000034806F021FDFB8918461037BD4680BD94
:1024800068AF000880B582B000AFBB1C19463B2086
:10249000FFF7D6FD0346002B01D0094B0BE07B88EC
:1024A0001846FEF7F7FB034606491846FEF746FCBA
:1024B00003467B607B6818460837BD4680BD00BF79
:1024C000000080BFB401D83A80B586B000AF0346A3
:1024D0000A46FB711346BB71BB79062B02D8134B1E
:1024E0007B6101E0124B7B6107F10E0319463A2034
:1024F000FFF7A6FD0346002B01D00E4B12E0FB793F
:102500009BB2FA8902FB03F39BB2FB81FB8918465D
:10251000FEF7C0FB034679691846FEF70FFC034639
:102520003B613B6918461837BD4680BD799A4939E9
:10253000FC660639000080BFB0B584B000AF03462A
:10254000FB7107F10C0319463E20FFF779FD0346A6
:10255000002B02D04FF0FF3329E0BB891BB2184695
:10256000FEF798FB034614491846FEF7E7FB0346BF
:102570001846FDF759FF03460C461846214608F059
:10258000DBFB04460D46FB791846FDF73BFF024690
:102590000B4620462946FEF7C5F803460C4618466A
:1025A0002146FEF745FA0346FB81B7F90E3018467F
:1025B0001037BD46B0BD00BFDC80BB3FB0B584B0B6
:1025C00000AF0346FB7107F10C0319463D20FFF7EE
:1025D00037FD0346002B02D04FF0FF3329E0BB89C3
:1025E0001BB21846FEF756FB034614491846FEF781
:1025F000A5FB03461846FDF717FF03460C46184691
:10260000214608F099FB04460D46FB791846FDF774
:10261000F9FE02460B4620462946FEF783F803469C
:102620000C4618462146FEF703FA0346FB81B7F92C
:102630000E3018461037BD46B0BD00BFDC80BB3F32
:1026400080B582B000AFBB1C19463F20FFF7F8FCF5
:102650000346002B01D00A4B0EE07B88A3F53B53C9
:102660002A3B1846FEF716FB034606491846FEF7B6
:1026700019FC03467B607B6818460837BD4680BD61
:10268000000080BF6666364280B582B000AF3B1D59
:1026900019464320FFF7D4FCBB88DBB203F00F03DD
:1026A000FB71FB7918460837BD4680BD80B582B006
:1026B00000AF3B1D19464320FFF7C2FCBB881A46FA
:1026C000FB7942FA03F3DBB203F00F03FB71FB79F2
:1026D00018460837BD4680BD80B500AFFFF791FEB4
:1026E0000F2001F059F900BF80BD000080B582B015
:1026F00000AF01F0EFF800F065FB00F0A5FD00F081
:1027000031FDA54806F04CFC00F056FD00224FF4C8
:102710000051A24802F00DFBA14B5B6803F00203DD
:10272000022B05D19E4A9E4B1B6843F008031360A1
:1027300001F028F978602DE001F024F902467B6869
:10274000D31AB3F57A7F25D901224FF480719548C9
:1027500002F0EFFA4FF47A7001F01EF900224FF404
:102760008071904802F0E5FA01224FF480418B48D5
:1027700002F0DFFA01F006F9786001224FF400510F
:10278000864802F0D6FA884806F00AFC874B0122F8
:102790001A7006E01021814802F0B4FA0346012BBA
:1027A000CAD0824B1B78002B05D14FF4967001F0F4
:1027B000F3F8FFF7ABF900F029FD7D48FFF776F855
:1027C00000F05EFB00F01CFC00F04AFC794804F0CD
:1027D000C1F9784804F016FA764804F05DFA04214D
:1027E000744804F0A9FAFEF7B5FC0A2001F0D4F809
:1027F000FFF7ACFC0346002B48D0FFF745FF03462C
:102800001A466D4B1A70FFF751FF03461A466B4B81
:102810001A706A4B1B781946674B1B781A46684832
:1028200006F04AFBFFF758FF634B1A78634B1B789F
:1028300064496548FFF7C0FC0A2001F0ADF8634920
:102840006348FFF70FFD0A2001F0A6F85A4B1978EC
:102850005A4B1B781A465F48FFF736FD0A2001F0F5
:102860009BF803215C48FFF797FDFFF7DAFD642032
:1028700001F092F8FFF7DDFD4FF47A7001F08CF86B
:10288000FFF7B6FD4FF47A7001F086F801F07AF8A0
:102890000246524B1A6001F075F80246504B1A601E
:1028A00001F070F802464F4B1A6001F06BF80246D7
:1028B0004D4B1A60FFF748F9FFF7F2F94B4B1B78C5
:1028C000022B02D9494B00221A7001F05BF8024634
:1028D000434B1B68D31A132B20D901F053F802463F
:1028E0003F4B1A604FF480512C4802F00BFA03461C
:1028F0001A463F4B1A704FF40041284802F002FA82
:1029000003461A463B4B1A702021244802F0FAF97C
:1029100003461A46384B1A7000F0B4F901F032F849
:102920000246304B1B68D31A632B0AD901F02AF8F0
:1029300002462C4B1A6000F009F900F025F900F06E
:1029400057F901F01FF80246244B1B68D31AB3F560
:102950007A7F11D301F016F80246204B1A60234B00
:102960001B78012B02D0022B03D005E000F0BAF84F
:1029700002E000F043F800BF01F004F802461A4BF1
:102980001B68D31A41F28732934293D900F0FAFFC1
:102990000246154B1A608DE788AF0008000C014015
:1029A00000700040000801409CAF00085402002065
:1029B000D00500208C060020D9060020DA06002071
:1029C000A8AF0008000008410000C040CDCC4C4139
:1029D000CDCC2C41666606410000B0408806002040
:1029E000CC05002034060020D4060020640200201C
:1029F00030060020D80600209805002098B500AFCA
:102A00002A4B5B691846FDF70FFD03460C461A4634
:102A10002346274806F050FA244B9B691846FDF7D9
:102A200003FD03460C461A462346224806F044FAA4
:102A3000214BB3F900301946204806F03DFA1E4BF1
:102A4000B3F9043019461E4806F036FA1A4BB3F9AA
:102A5000023019461B4806F02FFA174BB3F906301F
:102A60001946194806F028FA134BB3F908301946ED
:102A7000164806F021FA104BB3F90A3019461448EB
:102A800006F01AFA134B1B781946134806F014FA8D
:102A9000124B5B681846FDF7C7FC03460C461A4606
:102AA00023460F4806F008FA00BF98BD1406002020
:102AB000CCAF0008E0AF00087C060020F0AF0008B3
:102AC00008B0000820B0000838B0000850B0000876
:102AD00064B000089805002078B000088C0500203C
:102AE0008CB0000880B500AF124806F059FA3420C7
:102AF000FFF7A8FC104806F053FA3520FFF7A2FCB8
:102B00000E4806F04DFA3620FFF79CFC0C4806F004
:102B100047FA3720FFF796FC0A4806F041FA3820BA
:102B2000FFF790FC084806F03BFA3920FFF78AFCD3
:102B300000BF80BDA8B00008C0B00008D8B0000831
:102B4000F0B0000810B1000830B1000880B500AF47
:102B5000FEF716FB034619460120FEF719FF024651
:102B6000084B1A60FFF76CFD034619460220FEF77A
:102B70000FFF0246034B5A60024B4FF000029A606F
:102B800000BF80BD8C05002080B500AFFEF768FB5C
:102B90000246144B1A60FEF7ABFB0246114B5A601B
:102BA000FEF7EEFB02460F4B9A60FEF731FC024641
:102BB0000C4BDA60FEF774FC02460A4B1A61FFF711
:102BC00061FC0246074B5A61074B1A78074B1B788A
:102BD00019461046FFF778FC0246024B9A6100BF87
:102BE00080BD00BF14060020D9060020DA060020B0
:102BF00080B500AFFEF73EFD034619460120FEF703
:102C00001FFF03461A461E4B1A80FEF7FDFC0346C3
:102C100019460220FEF714FF03461A46184B5A8045
:102C2000FEF7BCFC034619460320FEF709FF0346E6
:102C30001A46134B9A80FEF77BFC03461946042084
:102C4000FEF7FEFE03461A460D4BDA800320FFF71F
:102C500073FC034619460520FEF7F2FE03461A46AA
:102C6000074B1A810320FFF7A9FC034619460620EB
:102C7000FEF7E6FE03461A46014B5A8100BF80BDAF
:102C80007C06002080B500AF424B9B684249184645
:102C9000FEF7FCF90346002B1BD03E4B9B683F49D7
:102CA0001846FEF7FDF90346002B12D03C4B1B786B
:102CB000002B0ED13B4B1B78042B03D0394B1B78D8
:102CC000012B06D1384B1B780133DAB2364B1A7020
:102CD00002E0354B00221A70334B1B78082B0CD9BD
:102CE000314B1B780B2B08D801224FF400612F4881
:102CF00002F01FF82E4806F053F9294B1B78012BE0
:102D000006D12C4B1B780133DAB22A4B1A7002E041
:102D1000284B00221A70274B1B780A2B1AD9214BFB
:102D20001B78042B16D1204B00221A70214B002255
:102D30001A7001224FF480511C4801F0FAFF012261
:102D400004211D4801F0F5FF164B03221A701B48A1
:102D500006F026F9124B1B78002B18D1114B1B786B
:102D6000032B03D00F4B1B78012B10D100224FF403
:102D700080510E4801F0DDFF002204210E4801F0D1
:102D8000D8FF084B04221A700D4806F009F900BF5D
:102D900080BD00BF14060020CDCCAC4000009040A8
:102DA0003006002054020020550200200008014097
:102DB00048B1000856020020000C014054B1000840
:102DC00060B1000880B594B000AF07F12803282255
:102DD0000021184605F006FC07F1140300221A60D2
:102DE0005A609A60DA601A613B1D00221A605A60CC
:102DF0009A60DA600923BB624FF48033FB620023E0
:102E00003B630123BB6301233B6402237B644FF4D8
:102E10008033BB644FF4E013FB6407F128031846CA
:102E200003F00AF90346002B01D000F095FA0F23B6
:102E30007B610223BB610023FB614FF480633B6233
:102E400000237B6207F114030221184603F074FB90
:102E50000346002B01D000F07FFA02237B604FF481
:102E60000043FB603B1D184603F002FD0346002BA8
:102E700001D000F071FA00BF5037BD4680BD0000A0
:102E800080B584B000AF3B1D00221A605A609A6082
:102E9000594B5A4A1A60584B4FF480729A60564BFD
:102EA00001221A73544B00221A75534B4FF46022BF
:102EB000DA61514B00225A604F4B0A221A614E4888
:102EC00000F08CFD0346002B01D000F045FA1023E2
:102ED0007B600123BB600723FB603B1D194646480E
:102EE00000F04EFF0346002B01D000F035FA01231D
:102EF0007B600223BB600323FB603B1D19463E48F9
:102F000000F03EFF0346002B01D000F025FA02231B
:102F10007B600323BB603B1D1946374800F030FF40
:102F20000346002B01D000F017FA03237B60042333
:102F3000BB603B1D1946304800F022FF0346002BC2
:102F400001D000F009FA04237B600523BB603B1D20
:102F50001946294800F014FF0346002B01D000F069
:102F6000FBF905237B600623BB603B1D1946224805
:102F700000F006FF0346002B01D000F0EDF9062318
:102F80007B600723BB603B1D19461B4800F0F8FE21
:102F90000346002B01D000F0DFF907237B600823F4
:102FA000BB603B1D1946144800F0EAFE0346002BA7
:102FB00001D000F0D1F908237B600923BB603B1DE1
:102FC00019460D4800F0DCFE0346002B01D000F04E
:102FD000C3F909237B600A23BB603B1D19460648E1
:102FE00000F0CEFE0346002B01D000F0B5F900BF83
:102FF0001037BD4680BD00BF9C0500200024014065
:1030000080B500AF134B144A1A60124B134A5A6032
:10301000104B4FF480429A600E4B0022DA600D4B49
:103020004FF480421A610B4B00225A61094B002277
:103030009A61084B0022DA61064B00221A620548A9
:1030400001F090FE0346002B01D000F085F900BF8F
:1030500080BD00BF2C05002000540040801A0600EF
:1030600080B58EB000AF07F1280300221A605A60C5
:103070009A60DA6007F1200300221A605A603B1D53
:1030800000221A605A609A60DA601A615A619A6185
:10309000334B4FF080421A60314B40F232225A607B
:1030A0002F4B00229A602E4B4FF48072DA602C4B2B
:1030B00000221A612A4B00229A61294803F04AFD36
:1030C0000346002B01D000F047F94FF48053BB6258
:1030D00007F128031946224804F0EEF80346002BB6
:1030E00001D000F039F91E4803F0D6FD0346002B4D
:1030F00001D000F031F900233B6200237B6207F12D
:1031000020031946164804F05FFC0346002B01D04B
:1031100000F022F960237B603223BB600223FB6056
:1031200000237B613B1D002219460D4804F006F880
:103130000346002B01D000F00FF93B1D0422194675
:10314000074803F0FBFF0346002B01D000F004F911
:10315000034800F011FA00BF3837BD4680BD00BFFC
:103160008C06002080B500AF114B124A1A60104B3C
:103170004FF4E1325A600E4B00229A600C4B002251
:10318000DA600B4B00221A61094B0C225A61084B82
:1031900000229A61064B0022DA61054804F084FCA3
:1031A0000346002B01D000F0D7F800BF80BD00BF60
:1031B000D00500200038014080B500AF114B124A05
:1031C0001A60104B4FF4E1325A600E4B00229A60A5
:1031D0000C4B0022DA600B4B00221A61094B0C22C7
:1031E0005A61084B00229A61064B0022DA610548B9
:1031F00004F05AFC0346002B01D000F0ADF800BFEC
:1032000080BD00BFE80400200048004080B582B0C7
:1032100000AF0C4A0B4B5B6943F001035361094B50
:103220005B6903F001037B607B6800220C210B20AB
:1032300001F021F90B2001F03AF900BF0837BD4633
:1032400080BD00BF0010024080B588B000AF07F11C
:10325000100300221A605A609A60DA603A4A3A4BC8
:103260009B6943F010039361374B9B6903F0100394
:10327000FB60FB68344A344B9B6943F02003936145
:10328000314B9B6903F02003BB60BB682E4A2E4B79
:103290009B6943F0040393612B4B9B6903F0040388
:1032A0007B607B68284A284B9B6943F00803936145
:1032B000254B9B6903F008033B603B68002246F204
:1032C0000C21224801F035FD00224FF4194120481D
:1032D00001F02FFD4FF460433B6103237B6107F155
:1032E000100319461B4801F0B3FB46F20C233B6167
:1032F00001237B610023BB610223FB6107F1100303
:103300001946124801F0A4FB49F230033B61002347
:103310007B610023BB6107F1100319460B4801F0E4
:1033200097FB4FF419433B6101237B610023BB6191
:103330000223FB6107F110031946054801F088FBE1
:1033400000BF2037BD4680BD00100240000C014088
:10335000000801400010014080B400AF72B6FEE7E3
:1033600080B485B000AF154A144B9B6943F001034C
:103370009361124B9B6903F00103BB60BB680F4A6A
:103380000E4BDB6943F08053D3610C4BDB6903F0D8
:1033900080537B607B680A4B5B68FB60FB6823F0B3
:1033A000E063FB60FB6843F00073FB60044AFB686A
:1033B000536000BF1437BD4680BC70470010024008
:1033C0000000014080B58AB000AF786007F11803B3
:1033D00000221A605A609A60DA607B681B68334A80
:1033E00093425FD1324A324B9B6943F4007393613D
:1033F0002F4B9B6903F400737B617B692C4A2C4B38
:103400009B6943F004039361294B9B6903F0040318
:103410003B613B69264A264B9B6943F00803936155
:10342000234B9B6903F00803FB60FB68FE23BB6131
:103430000323FB6107F1180319461E4801F008FB3E
:103440000323BB610323FB6107F1180319461A48E4
:1034500001F0FEFA194B1A4A1A60184B00225A6002
:10346000164B00229A60154B8022DA60134B4FF402
:1034700080721A61114B4FF480625A610F4B202207
:103480009A610E4B0022DA610C4801F031F80346D4
:10349000002B01D0FFF760FF7B68084A1A62074AD9
:1034A0007B68536200BF2837BD4680BD00240140C1
:1034B0000010024000080140000C014038060020C6
:1034C0000800024080B588B000AF786007F11003B3
:1034D00000221A605A609A60DA607B681B68154A9D
:1034E000934223D1144A144B9B6943F00803936120
:1034F000114B9B6903F00803FB60FB68C0233B6131
:1035000012237B610323FB6107F1100319460B486B
:1035100001F09EFA084A084BDB6943F40013D361BB
:10352000054BDB6903F40013BB60BB6800BF2037A9
:10353000BD4680BD0054004000100240000C014018
:1035400080B485B000AF78607B681B68B3F1804FB2
:103550000BD1084A074BDB6943F00103D361054BEC
:10356000DB6903F00103FB60FB6800BF1437BD4655
:1035700080BC70470010024080B588B000AF786012
:1035800007F10C0300221A605A609A60DA607B68C7
:103590001B68B3F1804F29D1164A164B9B6943F043
:1035A00008039361134B9B6903F00803BB60BB687E
:1035B0000823FB6002233B610223BB6107F10C037C
:1035C00019460D4801F044FA0C4B5B68FB61FB693E
:1035D00023F44073FB61FB6943F0E063FB61FB692B
:1035E00043F48073FB61054AFB69536000BF2037D9
:1035F000BD4680BD00100240000C014000000140AB
:1036000080B58AB000AF786007F1180300221A6015
:103610005A609A60DA607B681B68404A93423AD1EC
:103620003F4A3F4B9B6943F4804393613C4B9B690A
:1036300003F480437B617B69394A394B9B6943F0D2
:1036400004039361364B9B6903F004033B613B69C0
:103650004FF40073BB610223FB6103237B6207F11C
:10366000180319462F4801F0F3F94FF48063BB614A
:103670000023FB6100233B6207F118031946294828
:1036800001F0E6F900220021252000F0F4FE2520BB
:1036900000F00DFF3EE07B681B68234A934239D15E
:1036A0001F4A1F4BDB6943F48023D3611C4BDB694A
:1036B00003F48023FB60FB68194A194B9B6943F0B4
:1036C00008039361164B9B6903F00803BB60BB685A
:1036D0004FF48063BB610223FB6103237B6207F12C
:1036E00018031946114801F0B3F94FF40063BB61A8
:1036F0000023FB6100233B6207F1180319460B48C6
:1037000001F0A6F900220021272000F0B4FE2720B6
:1037100000F0CDFE00BF2837BD4680BD0038014017
:10372000001002400008014000480040000C014029
:1037300080B400AFFEE780B400AFFEE780B400AF16
:10374000FEE780B400AFFEE780B400AFFEE780B4D0
:1037500000AF00BFBD4680BC704780B400AF00BF63
:10376000BD4680BC704780B400AF00BFBD4680BC82
:10377000704780B500AF00F0F3F800F0B2FE00BF74
:1037800080BD000080B500AF024801F021F800BF05
:1037900080BD00BF3806002080B500AF024804F0AD
:1037A00091FA00BF80BD00BFD005002080B500AFFA
:1037B000024804F087FA00BF80BD00BFE804002083
:1037C00080B500AF024803F059FB00BF80BD00BFC9
:1037D0008C06002090B587B000AFF860B9607A60C1
:1037E00000237B610AE0BC68631CBB60AFF3008010
:1037F0000346DBB223707B6901337B617A697B68A6
:103800009A42F0DB7B6818461C37BD4690BD00002D
:1038100080B584B000AF7860114B1B68002B02D1DB
:103820000F4B104A1A600E4B1B68FB600C4B1A685A
:103830007B6813446A46934207D904F089FE024626
:103840000C2313604FF0FF3306E0054B1A687B68CA
:103850001344034A1360FB6818461037BD4680BD09
:1038600058020020E406002080B483B000AF7860E6
:103870004FF0FF3318460C37BD4680BC704780B40C
:1038800083B000AF786039603B684FF400525A60F3
:10389000002318460C37BD4680BC704780B483B007
:1038A00000AF7860012318460C37BD4680BC7047D6
:1038B00080B485B000AFF860B9607A600023184624
:1038C0001437BD4680BC704780B400AF00BFBD4612
:1038D00080BC704780B500AF084A084B1B6843F0B6
:1038E00010031360032000F0BBFD002000F008F877
:1038F000FFF736FD0023184680BD00BF00200240C0
:1039000080B582B000AF7860124B1A68124B1B78FA
:1039100019464FF47A73B3FBF1F3B2FBF3F3184695
:1039200000F0D3FD0346002B01D001230EE07B689D
:103930000F2B0AD8002279684FF0FF3000F09BFD72
:10394000064A7B681360002300E00123184608370D
:10395000BD4680BD000000200800002004000020BB
:1039600080B400AF054B1B781A46054B1B68134407
:10397000034A136000BFBD4680BC704708000020AA
:10398000DC06002080B400AF024B1B681846BD4621
:1039900080BC7047DC06002080B584B000AF786042
:1039A000FFF7F0FFB8607B68FB60FB68B3F1FF3F97
:1039B00005D0094B1B781A46FB681344FB6000BF17
:1039C000FFF7E0FF0246BB68D21AFB689A42F7D3C2
:1039D00000BF1037BD4680BD0800002080B586B00E
:1039E00000AF78600023FB7500233B610023BB60C0
:1039F0000023FB607B68002B01D10123BEE07B68C4
:103A00009B68002B7B689B6A002B09D17B68002296
:103A1000DA627B68002283F824207868FFF7D2FC02
:103A2000786800F0FFFA0346FB757B689B6A03F039
:103A30001003002B40F09980FB7D002B40F0958017
:103A40007B689B6A23F4885323F0020343F002024D
:103A50007B689A627B685A687B68DB691A437B687B
:103A60001B7B5B001343BA681343BB607B689B6896
:103A7000B3F5807F03D07B689B68012B02D14FF4A4
:103A8000807300E000233A6913433B617B681B7D30
:103A9000012B19D17B681B7B002B09D17B689B69AB
:103AA000013B5A033B69134343F400633B610BE062
:103AB0007B689B6A43F020027B689A627B68DB6AC2
:103AC00043F001027B68DA627B681B687A681268DF
:103AD000526822F469413A690A435A607B681A685D
:103AE0007B681B689968274B0B40B9680B43936050
:103AF0007B689B68B3F5807F03D07B689B68012B54
:103B000004D17B681B69013B1B05FB607B681B685C
:103B10007A681268D26A22F47001FA680A43DA629B
:103B20007B681B689A68184B1340BA6893420BD1A4
:103B30007B680022DA627B689B6A23F0030343F010
:103B400001027B689A6218E07B689B6A23F012038B
:103B500043F010027B689A627B68DB6A43F00102E3
:103B60007B68DA620123FB7507E07B689B6A43F0A0
:103B700010027B689A620123FB75FB7D184618379B
:103B8000BD4680BDFDF7E1FFFE0E1FFF80B586B08C
:103B900000AFF860B9607A600023FB75FB681B68B2
:103BA000644A934204D0FB681B68634A934206D17F
:103BB000604B5B6803F47023002B40F0B380FB681C
:103BC00093F82430012B01D10223AEE0FB680122DF
:103BD00083F82420F86800F0CBF90346FB75FB7DE1
:103BE000002B40F09A80FB689B6A23F4706323F0FB
:103BF000010343F48072FB689A62FB681B684E4ABB
:103C0000934205D14B4B5B6803F47023002B15D115
:103C1000FB689B6A23F48012FB689A62FB681B684E
:103C20005B6803F48063002B26D0FB689B6A23F457
:103C3000405343F48052FB689A621DE0FB689B6A24
:103C400043F48012FB689A62FB681B68394A93420E
:103C500004D0FB681B68384A93420DD1354B5B6832
:103C600003F48063002B07D0FB689B6A23F4405366
:103C700043F48052FB689A62FB689B6A03F48053AA
:103C8000002B06D0FB68DB6A23F00602FB68DA62D1
:103C900002E0FB680022DA62FB68002283F824203D
:103CA000FB681B6A254A9A62FB681B6A244ADA622F
:103CB000FB681B6A234A1A63FB681B686FF00202E9
:103CC0001A60FB681B68FA681268926842F4807296
:103CD0009A60FB68186AFB681B684C331946BA681F
:103CE0007B6800F05FFCFB681B689B6803F4602343
:103CF000B3F5602F08D1FB681B68FA6812689268F8
:103D000042F4A0029A600FE0FB681B68FA68126830
:103D1000926842F480129A6006E0FB68002283F801
:103D2000242001E00123FB75FB7D18461837BD46B2
:103D300080BD00BF0024014000280140A7400008CA
:103D4000234100083F41000880B483B000AF786091
:103D500000BF0C37BD4680BC704780B483B000AF55
:103D6000786000BF0C37BD4680BC704780B483B01C
:103D700000AF786000BF0C37BD4680BC70470000C4
:103D800090B484B000AF786039600023FB730023E7
:103D9000BB607B6893F82430012B01D10223DCE067
:103DA0007B68012283F824203B685B68062B1CD8C3
:103DB0007B6819687B681B68586B3B685A681346B8
:103DC0009B001344053B1F2202FA03F3DB43184018
:103DD0003B681C683B685A6813469B001344053BCC
:103DE00004FA03F303434B633CE03B685B680C2B32
:103DF0001CD87B6819687B681B68186B3B685A681D
:103E000013469B001344233B1F2202FA03F3DB43B8
:103E100018403B681C683B685A6813469B00134473
:103E2000233B04FA03F303430B631BE07B6819682D
:103E30007B681B68D86A3B685A6813469B0013442A
:103E4000413B1F2202FA03F3DB4318403B681C6826
:103E50003B685A6813469B001344413B04FA03F342
:103E60000343CB623B681B68092B1CD97B6819682C
:103E70007B681B68D8683B681A6813465B0013446C
:103E80001E3B072202FA03F3DB4318403B689C68A1
:103E90003B681A6813465B0013441E3B04FA03F3A5
:103EA0000343CB6019E07B6819687B681B6818695D
:103EB0003B681A6813465B001344072202FA03F3B7
:103EC000DB4318403B689C683B681A6813465B00FC
:103ED000134404FA03F303430B613B681B68102B84
:103EE00003D03B681B68112B32D17B681B681D4ACD
:103EF000934225D17B681B689B6803F40003002B69
:103F000026D17B681B687A681268926842F40002C6
:103F10009A603B681B68102B1AD1134B1B68134A1D
:103F2000A2FB03239A0C13469B0013445B00BB6067
:103F300002E0BB68013BBB60BB68002BF9D107E026
:103F40007B689B6A43F020027B689A620123FB73C3
:103F50007B68002283F82420FB7B18461037BD467F
:103F600090BC7047002401400000002083DE1B430A
:103F700080B584B000AF78600023FB600023BB6095
:103F80007B681B689B6803F00103012B40D07B68B2
:103F90001B687A681268926842F001029A601F4BAF
:103FA0001B681F4AA2FB03239B0CBB6002E0BB689B
:103FB000013BBB60BB68002BF9D1FFF7E3FCF86065
:103FC0001FE0FFF7DFFC0246FB68D31A022B18D96B
:103FD0007B681B689B6803F00103012B11D07B6891
:103FE0009B6A43F010027B689A627B68DB6A43F04D
:103FF00001027B68DA627B68002283F824200123B7
:1040000007E07B681B689B6803F00103012BD8D194
:10401000002318461037BD4680BD00BF00000020B9
:1040200083DE1B4380B584B000AF78600023FB6063
:104030007B681B689B6803F00103012B2ED17B6812
:104040001B687A681268926822F001029A60FFF792
:1040500099FCF8601BE0FFF795FC0246FB68D31A59
:10406000022B14D97B681B689B6803F00103012BAA
:104070000DD17B689B6A43F010027B689A627B6873
:10408000DB6A43F001027B68DA62012307E07B68A8
:104090001B689B6803F00103012BDCD0002318464A
:1040A0001037BD4680BD80B584B000AF78607B68B6
:1040B0005B6AFB60FB689B6A03F05003002B27D10F
:1040C000FB689B6A43F40072FB689A62FB681B689A
:1040D0009B6803F46023B3F5602F15D1FB681B7B4D
:1040E000002B11D1FB689B6A23F48072FB689A62F3
:1040F000FB689B6A03F48053002B05D1FB689B6A25
:1041000043F00102FB689A62F868FFF71DFE04E0C5
:10411000FB681B6A1B6B7868984700BF1037BD4669
:1041200080BD80B584B000AF78607B685B6AFB605F
:10413000F868FFF712FE00BF1037BD4680BD80B59E
:1041400084B000AF78607B685B6AFB60FB689B6A49
:1041500043F04002FB689A62FB68DB6A43F00402AA
:10416000FB68DA62F868FFF701FE00BF1037BD4652
:1041700080BD000090B587B000AF78600023FB756C
:104180000023FB607B6893F82430012B01D10223CC
:1041900095E07B68012283F824207868FFF742FFCE
:1041A0000346FB75FB7D002B40F084807B689B6A97
:1041B00023F4885323F0020343F002027B689A62DF
:1041C000414B1C68022002F009FC0346B4FBF3F3E8
:1041D0005B00FB6002E0FB68013BFB60FB68002BBF
:1041E000F9D17868FFF7C4FE7B681B687A681268AB
:1041F000926842F008029A60FFF7C4FB38611BE046
:10420000FFF7C0FB02463B69D31A0A2B14D97B681F
:104210001B689B6803F00803002B0DD07B689B6A2A
:1042200023F0120343F010027B689A627B6800223D
:1042300083F82420012342E07B681B689B6803F01D
:104240000803002BDCD17B681B687A6812689268CF
:1042500042F004029A60FFF795FB38611BE0FFF71C
:1042600091FB02463B69D31A0A2B14D97B681B6861
:104270009B6803F00403002B0DD07B689B6A23F03E
:10428000120343F010027B689A627B68002283F875
:104290002420012313E07B681B689B6803F0040360
:1042A000002BDCD17B689B6A23F0030343F00102FF
:1042B0007B689A627B68002283F82420FB7D184685
:1042C0001C37BD4690BD00BF0000002080B485B003
:1042D00000AF78607B6803F00703FB600C4BDB6882
:1042E000BB60BA684FF6FF031340BB60FB681A025D
:1042F000BB68134343F0BF6343F40033BB60044A1D
:10430000BB68D36000BF1437BD4680BC704700BF98
:1043100000ED00E080B400AF044BDB681B0A03F043
:1043200007031846BD4680BC704700BF00ED00E0A3
:1043300080B483B000AF0346FB7197F90730002BC0
:104340000BDB084997F907305B09FA7902F01F0285
:10435000012000FA02F241F8232000BF0C37BD46CD
:1043600080BC704700E100E080B483B000AF03463A
:104370003960FB7197F90730002B0ADB0D4997F97B
:1043800007303A68D2B21201D2B20B4483F800234C
:104390000AE00949FB7903F00F03043B3A68D2B203
:1043A0001201D2B20B441A7600BF0C37BD4680BC56
:1043B000704700BF00E100E000ED00E080B489B08C
:1043C00000AFF860B9607A60FB6803F00703FB6137
:1043D000FB69C3F10703042B28BF0423BB61FB69FE
:1043E0000433062B02D9FB69033B00E000237B6109
:1043F0000122BB6902FA03F35A1EBB681A407B69AB
:104400009A4001217B6901FA03F3591E7B680B4036
:10441000134318462437BD4680BC704780B582B030
:1044200000AF78607B68013BB3F1807F01D301234B
:104430000FE00A4A7B68013B53600F214FF0FF30C9
:10444000FFF792FF054B00229A60044B07221A6087
:10445000002318460837BD4680BD00BF10E000E0CD
:1044600080B582B000AF78607868FFF72FFF00BF9B
:104470000837BD4680BD80B586B000AF0346B96041
:104480007A60FB7300237B61FFF744FF78617A68F1
:10449000B9687869FFF792FF024697F90F30114625
:1044A0001846FFF761FF00BF1837BD4680BD80B5D5
:1044B00082B000AF0346FB7197F907301846FFF74B
:1044C00037FF00BF0837BD4680BD80B582B000AF62
:1044D00078607868FFF7A2FF034618460837BD46A4
:1044E00080BD80B500AFFDF711F900BF80BD0000B1
:1044F00080B485B000AF78600023FB607B68002B40
:1045000001D1012343E07B681B681A46224B134408
:10451000224AA2FB03231B099A007B681A647B686A
:104520001F4ADA637B68022283F821207B681B68BC
:104530001B68FB60FB6823F47F5323F03003FB60B0
:104540007B685A687B689B681A437B68DB681A4300
:104550007B681B691A437B685B691A437B689B69AC
:104560001A437B68DB691343FA681343FB607B687B
:104570001B68FA681A607B6800229A637B680122D4
:1045800083F821207B68002283F82020002318462E
:104590001437BD4680BC7047F8FFFDBFCDCCCCCCF6
:1045A0000000024080B586B000AFF860B9607A6064
:1045B0003B600023FB75FB6893F82030012B01D191
:1045C00002234AE0FB68012283F82020FB6893F86D
:1045D0002130012B3AD1FB68022283F82120FB68AD
:1045E00000229A63FB681B68FA681268126822F05E
:1045F00001021A603B687A68B968F86800F0FAF955
:10460000FB68DB6A002B08D0FB681B68FA6812683D
:10461000126842F00E021A600FE0FB681B68FA682D
:104620001268126822F004021A60FB681B68FA68BC
:104630001268126842F00A021A60FB681B68FA6886
:104640001268126842F001021A6005E0FB6800225D
:1046500083F820200223FB75FB7D18461837BD46E2
:1046600080BD80B485B000AF78600023FB737B68A9
:1046700093F82130022B08D07B6804229A637B6870
:10468000002283F82020012320E07B681B687A68E1
:104690001268126822F00E021A607B681B687A6842
:1046A0001268126822F001021A607B68DB6B7A687C
:1046B000126C012101FA02F25A607B68012283F830
:1046C00021207B68002283F82020FB7B18461437CA
:1046D000BD4680BC7047000080B584B000AF7860F4
:1046E0000023FB737B6893F82130022B05D07B6895
:1046F00004229A630123FB7357E07B681B687A6886
:104700001268126822F00E021A607B681B687A68D1
:104710001268126822F001021A60264A7B681B6840
:104720001946254B99422ED07B681B681946234BAE
:10473000994226D07B681B681946214B99421DD0AF
:104740007B681B6819461F4B994214D07B681B6815
:1047500019461D4B99420BD07B681B6819461B4BB1
:10476000994202D14FF480130EE04FF080730BE0BA
:104770004FF4803308E04FF4805305E04FF480732A
:1047800002E0102300E0012353607B68012283F8DC
:1047900021207B68002283F820207B685B6B002B44
:1047A00003D07B685B6B78689847FB7B18461037B3
:1047B000BD4680BD00000240080002401C000240CF
:1047C0003000024044000240580002406C000240A9
:1047D00080B584B000AF78607B68DB6B1B68FB60E2
:1047E0007B681B681B68BB607B681B6C04229A405B
:1047F000FB681340002B55D0BB6803F00403002B6B
:1048000050D07B681B681B6803F02003002B07D186
:104810007B681B687A681268126822F004021A60CA
:104820006D4A7B681B6819466C4B99422ED07B6899
:104830001B6819466A4B994226D07B681B6819464B
:10484000684B99421DD07B681B681946664B99429C
:1048500014D07B681B681946644B99420BD07B6867
:104860001B681946624B994202D14FF480030EE057
:104870004FF080630BE04FF4802308E04FF4804357
:1048800005E04FF4806302E0402300E0042353601E
:104890007B68DB6A002B00F09A807B68DB6A7868B3
:1048A000984794E07B681B6C02229A40FB68134097
:1048B000002B5CD0BB6803F00203002B57D07B6851
:1048C0001B681B6803F02003002B0BD17B681B685F
:1048D0007A681268126822F00A021A607B68012264
:1048E00083F821203C4A7B681B6819463B4B994260
:1048F0002ED07B681B681946394B994226D07B68BD
:104900001B681946374B99421DD07B681B681946B6
:10491000354B994214D07B681B681946334B99423A
:104920000BD07B681B681946314B994202D14FF47A
:1049300000130EE04FF000730BE04FF4003308E07B
:104940004FF4005305E04FF4007302E0202300E031
:10495000022353607B68002283F820207B689B6AD7
:10496000002B34D07B689B6A786898472FE07B687F
:104970001B6C08229A40FB681340002B28D0BB68B0
:1049800003F00803002B23D07B681B687A68126849
:10499000126822F00E021A607B68DB6B7A68126C78
:1049A000012101FA02F25A607B6801229A637B6856
:1049B000012283F821207B68002283F820207B6875
:1049C0001B6B002B04D07B681B6B7868984700BF7B
:1049D00000BF1037BD4680BD000002400800024005
:1049E0001C000240300002404400024058000240D7
:1049F0006C00024080B485B000AFF860B9607A60A6
:104A00003B60FB68DB6BFA68126C012101FA02F271
:104A10005A60FB681B683A685A60FB685B68102B39
:104A200008D1FB681B687A689A60FB681B68BA68E3
:104A3000DA6007E0FB681B68BA689A60FB681B686D
:104A40007A68DA6000BF1437BD4680BC704700004A
:104A500080B48BB000AF7860396000237B620023A4
:104A60003B6227E101227B6A02FA03F3FB613B68A8
:104A70001A68FB691340BB61BA69FB699A4240F04E
:104A800016813B685B68122B34D0122B0DD8022B99
:104A90002BD0022B04D8002B31D0012B1CD048E0A6
:104AA000032B43D0112B1BD043E0894A934226D0DD
:104AB000874A934206D8874A934220D0864A934237
:104AC0001DD036E0854A934219D0854A934216D0CC
:104AD000844A934213D02CE03B68DB683B6228E0B9
:104AE0003B68DB6804333B6223E03B68DB680833E8
:104AF0003B621EE03B68DB680C333B6219E03B68BD
:104B00009B68002B02D104233B6212E03B689B6848
:104B1000012B05D108233B627B68FA691A6108E022
:104B200008233B627B68FA695A6102E000233B621A
:104B300000BFBB69FF2B01D87B6801E07B680433B1
:104B40007B61BB69FF2B02D87B6A9B0002E07B6A1A
:104B5000083B9B003B617B691A680F213B6901FAA6
:104B600003F3DB431A40396A3B6901FA03F31A4342
:104B70007B691A603B685B6803F08053002B00F090
:104B80009680594A584B9B6943F001039361564BF9
:104B90009B6903F00103BB60BB68544A7B6A9B08B6
:104BA000023352F82330FB607B6A03F003039B005F
:104BB0000F2202FA03F3DB43FA681340FB607B68C1
:104BC0004B4A934213D07B684A4A93420DD07B688C
:104BD000494A934207D07B68484A934201D1032354
:104BE00006E0042304E0022302E0012300E00023A6
:104BF0007A6A02F0030292009340FA681343FB6062
:104C00003A497B6A9B080233FA6841F823203B68E3
:104C10005B6803F48033002B06D03949384B1A689F
:104C2000BB6913430B6006E03549354B1A68BB6915
:104C3000DB4313400B603B685B6803F40033002BDD
:104C400006D02F492E4B5A68BB6913434B6006E0D0
:104C50002B492B4B5A68BB69DB4313404B603B68C5
:104C60005B6803F48013002B06D02549244B9A6817
:104C7000BB6913438B6006E02149214B9A68BB69ED
:104C8000DB4313408B603B685B6803F40013002B2D
:104C900006D01B491A4BDA68BB691343CB6006E0A8
:104CA0001749174BDA68BB69DB431340CB607B6A5B
:104CB00001337B623B681A687B6A22FA03F3002B9C
:104CC0007FF4D0AE00BF2C37BD4680BC704700BF1C
:104CD000000021100000111000001210000031101F
:104CE00000003210000022100010024000000140BD
:104CF00000080140000C0140001001400014014078
:104D00000004014080B485B000AF78600B467B8022
:104D10007B689A687B881340002B02D00123FB73C9
:104D200001E00023FB73FB7B18461437BD4680BCB3
:104D3000704780B483B000AF78600B467B80134629
:104D40007B707B78002B03D07A887B681A6103E044
:104D50007B881A047B681A6100BF0C37BD4680BC93
:104D60007047000090B585B000AF78607B68002B7D
:104D700001D101231FE17B6893F83D30DBB2002BAA
:104D800006D17B68002283F83C207868FEF79AFB06
:104D90007B68242283F83D207B681B687A68126850
:104DA000126822F001021A607B681B687A68126838
:104DB000126842F400421A607B681B687A681268C5
:104DC000126822F400421A6001F00CFDF8607B6862
:104DD0005B687B4A934207D8FB687A4A934294BF48
:104DE00001230023DBB206E0FB68774A934294BFBD
:104DF00001230023DBB2002B01D00123DBE0FB68A1
:104E0000724AA2FB03239B0CBB607B681B687A6819
:104E10001268526822F03F01BA680A435A607B6800
:104E20001A687B681B681B6A23F03F017B685B681C
:104E30006348834202D8BB68013309E0BB684FF482
:104E4000967000FB03F36248A0FB03039B09013348
:104E50000B4313627B6818687B681B68DB6923F46B
:104E60004F4222F0FF027B685B6855498B420DD8A8
:104E7000FB68591E7B685B685B00B1FBF3F3013391
:104E8000C3F30B03042B38BF04234FE07B689B68FC
:104E9000002B11D1FB685C1E7B6859680B465B00D8
:104EA0000B44B4FBF3F30133C3F30B03002B0CBF30
:104EB00001230023DBB212E0FB685C1E7B685968AB
:104EC0000B469B000B4499000B44B4FBF3F30133F6
:104ED000C3F30B03002B0CBF01230023DBB2002B19
:104EE00001D0012322E07B689B68002B0ED1FB6878
:104EF0005C1E7B6859680B465B000B44B4FBF3F304
:104F00000133C3F30B0343F400430FE0FB685C1E63
:104F10007B6859680B469B000B4499000B44B4FB1B
:104F2000F3F30133C3F30B0343F440431343C3616F
:104F30007B681B687A681268126822F0C0017A6880
:104F4000D0697A68126A02430A431A607B681A6859
:104F50007B681B689B6823F4034323F0FF03796895
:104F600008697968C96801430B4393607B681B68D3
:104F70007A681268D26822F0FF017A6850697A680C
:104F8000926902430A43DA607B681B687A68126898
:104F9000126842F001021A607B6800221A647B6882
:104FA000202283F83D207B6800221A637B68002260
:104FB00083F83E20002318461437BD4690BD00BF3D
:104FC000A08601007F841E00FF083D0083DE1B4396
:104FD000D34D621080B588B002AFF8600846114624
:104FE0001A4603467B810B463B811346FB80FEF746
:104FF000C9FC7861FB6893F83D30DBB2202B40F0B0
:10500000D9807B690093192301226D49F86800F06B
:10501000E7FD0346002B01D00223CCE0FB6893F8A8
:105020003C30012B01D10223C5E0FB68012283F84B
:105030003C20FB681B681B6803F00103012B07D0B1
:10504000FB681B68FA681268126842F001021A6075
:10505000FB681B68FA681268126822F400621A6022
:10506000FB68212283F83D20FB68402283F83E2024
:10507000FB6800221A64FB683A6A5A62FB68BA8CC1
:105080005A85FB685B8D9AB2FB681A85FB684D4AAE
:10509000DA62F8883A8979897B690193BB6A00935F
:1050A0000346F86800F020FC0346002B52D0012391
:1050B00081E07A69B96AF86800F068FE0346002B5F
:1050C0000DD0FB681B6C042B07D1FB681B68FA68CA
:1050D0001268126842F400721A6001236BE0FB68E8
:1050E0001B68FA68526A12781A61FB685B6A5A1C7C
:1050F000FB685A62FB681B8D013B9AB2FB681A85FC
:10510000FB685B8D9BB2013B9AB2FB685A85FB68DA
:105110001B685B6903F00403042B1BD1FB681B8D28
:10512000002B17D0FB681B68FA68526A12781A6164
:10513000FB685B6A5A1CFB685A62FB681B8D013B6B
:105140009AB2FB681A85FB685B8D9BB2013B9AB2F1
:10515000FB685A85FB681B8D002BAAD17A69B96A56
:10516000F86800F054FE0346002B0DD0FB681B6C62
:10517000042B07D1FB681B68FA681268126842F4B6
:1051800000721A60012316E0FB681B68FA68126857
:10519000126842F400721A60FB68202283F83D20F6
:1051A000FB68002283F83E20FB68002283F83C2045
:1051B000002300E0022318461837BD4680BD00BF1B
:1051C000020010000000FFFF80B58CB002AFF86055
:1051D000084611461A4603467B810B463B8113461F
:1051E000FB8000233B62FEF7CDFB7862FB6893F8FF
:1051F0003D30DBB2202B40F03D827B6A00931923C7
:1052000001228149F86800F0EBFC0346002B01D035
:10521000022330E2FB6893F83C30012B01D10223DA
:1052200029E2FB68012283F83C20FB681B681B68AD
:1052300003F00103012B07D0FB681B68FA681268B2
:10524000126842F001021A60FB681B68FA68126873
:10525000126822F400621A60FB68222283F83D2063
:10526000FB68402283F83E20FB6800221A64FB683A
:105270003A6B5A62FB68BA8E5A85FB685B8D9AB2AC
:10528000FB681A85FB68614ADA62F8883A8979898D
:105290007B6A0193BB6B00930346F86800F0B8FB90
:1052A0000346002B01D00123E5E1FB681B8D002B99
:1052B00013D10023FB61FB681B685B69FB61FB6822
:1052C0001B689B69FB61FB69FB681B68FA681268D5
:1052D000126842F400721A60B9E1FB681B8D012B61
:1052E0001DD1FB681B68FA681268126822F480629C
:1052F0001A6072B60023BB61FB681B685B69BB6107
:10530000FB681B689B69BB61BB69FB681B68FA682B
:105310001268126842F400721A6062B697E1FB6884
:105320001B8D022B1DD1FB681B68FA68126812687E
:1053300042F400621A6072B600237B61FB681B684E
:105340005B697B61FB681B689B697B617B69FB68B0
:105350001B68FA681268126822F480621A6062B6EA
:1053600075E1FB681B68FA681268126842F4806293
:105370001A6000233B61FB681B685B693B61FB684B
:105380001B689B693B613B6961E1FB681B8D032BDB
:1053900000F21A81FB681B8D012B23D17A6AB96B4D
:1053A000F86800F075FD0346002B01D0012362E18F
:1053B000FB685B6AFA6812681269D2B21A70FB68FD
:1053C0005B6A5A1CFB685A62FB681B8D013B9AB2F0
:1053D000FB681A85FB685B8D9BB2013B9AB2FB6848
:1053E0005A8534E1FB681B8D022B50D17B6A0093F8
:1053F000BB6B00220649F86800F0F2FB0346002B65
:1054000008D0012337E100BF020010000000FFFFB9
:105410000400010072B6FB681B68FA681268126823
:1054200042F400721A60FB685B6AFA6812681269DB
:10543000D2B21A70FB685B6A5A1CFB685A62FB683E
:105440001B8D013B9AB2FB681A85FB685B8D9BB292
:10545000013B9AB2FB685A8562B6FB685B6AFA68E0
:1054600012681269D2B21A70FB685B6A5A1CFB6838
:105470005A62FB681B8D013B9AB2FB681A85FB6878
:105480005B8D9BB2013B9AB2FB685A85DFE07B6A79
:105490000093BB6B00227A49F86800F0A1FB034639
:1054A000002B01D00123E6E0FB681B68FA68126854
:1054B000126822F480621A6072B6FB685B6AFA684E
:1054C00012681269D2B21A70FB685B6A5A1CFB68D8
:1054D0005A62FB681B8D013B9AB2FB681A85FB6818
:1054E0005B8D9BB2013B9AB2FB685A85654B1B688A
:1054F000DB08654AA2FB03231A0A13469B001344E8
:10550000DA00D31A3B623B6A013B3B623B6A002BE9
:1055100017D1FB6800221A63FB68202283F83D2024
:10552000FB68002283F83E20FB681B6C43F02002DE
:10553000FB681A6462B6FB68002283F83C200123F2
:1055400099E0FB681B685B6903F00403042BDAD164
:10555000FB681B68FA681268126842F400721A60ED
:10556000FB685B6AFA6812681269D2B21A70FB684B
:105570005B6A5A1CFB685A62FB681B8D013B9AB23E
:10558000FB681A85FB685B8D9BB2013B9AB2FB6896
:105590005A8562B6FB685B6AFA6812681269D2B211
:1055A0001A70FB685B6A5A1CFB685A62FB681B8DA9
:1055B000013B9AB2FB681A85FB685B8D9BB2013B8D
:1055C0009AB2FB685A8542E07A6AB96BF86800F0D3
:1055D0005FFC0346002B01D001234CE0FB685B6AB3
:1055E000FA6812681269D2B21A70FB685B6A5A1CB8
:1055F000FB685A62FB681B8D013B9AB2FB681A85F7
:10560000FB685B8D9BB2013B9AB2FB685A85FB68D5
:105610001B685B6903F00403042B18D1FB685B6A09
:10562000FA6812681269D2B21A70FB685B6A5A1C77
:10563000FB685A62FB681B8D013B9AB2FB681A85B6
:10564000FB685B8D9BB2013B9AB2FB685A85FB6895
:105650001B8D002B7FF499AEFB68202283F83D2040
:10566000FB68002283F83E20FB68002283F83C2080
:10567000002300E0022318462837BD4680BD00BF46
:10568000040001000000002089B5F81480B58AB03C
:1056900002AFF8607A603B600B467B81FEF772F9DF
:1056A000F8610123BB61FB6893F83D30DBB2202B2E
:1056B00040F01081FB690093192301228849F868A2
:1056C00000F08EFA0346002B01D0022303E1FB68B1
:1056D00093F83C30012B01D10223FCE0FB6801224E
:1056E00083F83C20FB681B681B6803F00103012B57
:1056F00007D0FB681B68FA681268126842F0010262
:105700001A60FB681B68FA681268126822F400626B
:105710001A60FB68242283F83D20FB6800221A648B
:10572000FB68704ADA62FB681B68FA6812681268E4
:1057300042F480721A60FB6900933B6800224FF0CC
:105740000111F86800F04CFA0346002B0DD0FB68FD
:105750001B681B6803F48073B3F5807F03D1FB687B
:105760004FF400721A640323B5E0FB681B687A8962
:10577000D2B202F0FE021A61FEF704F9F861FB688A
:105780001B685B6903F00203022B0CBF012300239B
:10579000DBB2FB75FB681B685B6903F48063B3F5E0
:1057A000806F0CBF01230023DBB2BB7525E0FEF741
:1057B000E9F80246FB69D21A3B689A4202D83B6874
:1057C000002B03D1FB68A02283F83D20FB681B68F7
:1057D0005B6903F00203022B0CBF01230023DBB241
:1057E000FB75FB681B685B6903F48063B3F5806F2E
:1057F0000CBF01230023DBB2BB75FB6893F83D307F
:10580000DBB2A02B05D0FB7D002B02D1BB7D002B92
:10581000CDD0FB68202283F83D20FB681B685B69C4
:1058200003F00203022B29D1FB681B68FA68126897
:10583000126842F400721A6000233B61FB681B6827
:105840005B693B61FB681B689B693B613B69FB696A
:105850000093192301222249F86800F0C1F9034698
:10586000002B01D0012336E0FB68202283F83D2085
:10587000FB68002283F83C2000232CE0FB681B68B7
:10588000FA681268126842F400721A60FB681B68BA
:105890006FF480625A61FB69009319230122104959
:1058A000F86800F09DF90346002B01D0012312E0B7
:1058B000BB690133BB61BA697B689A42FFF433AFBD
:1058C000FB68202283F83D20FB68002283F83C20FF
:1058D000012300E0022318462037BD4680BD00BFEB
:1058E000020010000000FFFF80B588B002AFF86032
:1058F000084611461A4603467B810B463B811346F8
:10590000FB80FB681B68FA681268126842F48072B8
:105910001A607B6A00933B6A00224FF00111F8681D
:1059200000F05EF90346002B0DD0FB681B681B6876
:1059300003F48073B3F5807F03D1FB684FF40072EA
:105940001A6403235EE0FB681B687A89D2B202F016
:10595000FE021A617B6A3A6A2C49F86800F097F9EE
:105960000346002B01D001234CE000237B61FB6840
:105970001B685B697B61FB681B689B697B617B695A
:105980007A6A396AF86800F001FA0346002B0DD0F4
:10599000FB681B6C042B07D1FB681B68FA68126854
:1059A000126842F400721A6001232BE0FB88012B7D
:1059B00005D1FB681B683A89D2B21A6121E0FB6805
:1059C0001B683A89120A92B2D2B21A617A6A396AAB
:1059D000F86800F0DBF90346002B0DD0FB681B6C68
:1059E000042B07D1FB681B68FA681268126842F43E
:1059F00000721A60012305E0FB681B683A89D2B285
:105A00001A61002318461837BD4680BD0200010008
:105A100080B588B002AFF860084611461A460346C2
:105A20007B810B463B811346FB80FB681B68FA6851
:105A30001268126842F480621A60FB681B68FA6898
:105A40001268126842F480721A607B6A00933B6AA3
:105A500000224FF00111F86800F0C2F80346002B55
:105A60000DD0FB681B681B6803F48073B3F5807F5F
:105A700003D1FB684FF400721A640323A9E0FB68AA
:105A80001B687A89D2B202F0FE021A617B6A3A6A16
:105A90005249F86800F0FBF80346002B01D00123BF
:105AA00097E000237B61FB681B685B697B61FB6897
:105AB0001B689B697B617B697A6A396AF86800F0C8
:105AC00065F90346002B0DD0FB681B6C042B07D136
:105AD000FB681B68FA681268126842F400721A6068
