:020000040800F2
:1000000000500020F16B0008652700086B270008EE
:1000100071270008772700087D27000800000000EE
:10002000000000000000000000000000832700081E
:100030008F270008000000009B270008A727000862
:10004000396C0008396C0008396C0008396C0008FC
:10005000396C0008396C0008396C0008396C0008EC
:10006000396C0008396C0008396C0008B5270008A5
:10007000396C0008396C0008396C0008396C0008CC
:10008000396C0008396C0008396C0008396C0008BC
:10009000396C0008396C0008396C0008396C0008AC
:1000A000396C0008396C0008396C0008396C00089C
:1000B000396C0008396C0008396C0008396C00088C
:1000C000396C0008396C0008396C0008396C00087C
:1000D000396C0008C9270008396C0008DD270008C2
:1000E000396C0008396C0008396C00080000000009
:1000F0000000000000000000000000000000000000
:0C01000000000000000000005FF808F1A3
:1001100010B5054C237833B9044B13B10448AFF341
:1001200000800123237010BDDC01002000000000CE
:100130000894000808B5034B1BB103490348AFF30B
:10014000008008BD00000000E001002008940008C5
:10015000034613F8012B002AFBD1181A0138704707
:1001600081F0004102E000BF83F0004330B54FEA68
:1001700041044FEA430594EA050F08BF90EA020FD5
:100180001FBF54EA000C55EA020C7FEA645C7FEA68
:10019000655C00F0E2804FEA5454D4EB5555B8BF8B
:1001A0006D420CDD2C4480EA020281EA030382EAFC
:1001B000000083EA010180EA020281EA0303362D8E
:1001C00088BF30BD11F0004F4FEA01314FF4801C61
:1001D0004CEA113102D0404261EB410113F0004F73
:1001E0004FEA03334CEA133302D0524263EB43032A
:1001F00094EA050F00F0A780A4F10104D5F1200EC8
:100200000DDB02FA0EFC22FA05F2801841F1000122
:1002100003FA0EF2801843FA05F359410EE0A5F1F6
:1002200020050EF1200E012A03FA0EFC28BF4CF027
:10023000020C43FA05F3C01851EBE37101F00045DD
:1002400007D54FF0000EDCF1000C7EEB00006EEBEA
:100250000101B1F5801F1BD3B1F5001F0CD3490874
:100260005FEA30004FEA3C0C04F101044FEA4452CB
:1002700012F5800F80F09A80BCF1004F08BF5FEA52
:10028000500C50F1000041EB045141EA050130BD32
:100290005FEA4C0C404141EB010111F4801FA4F1D5
:1002A0000104E9D191F0000F04BF01460020B1FA2A
:1002B00081F308BF2033A3F10B03B3F120020CDA62
:1002C0000C3208DD02F1140CC2F10C0201FA0CF040
:1002D00021FA02F10CE002F11402D8BFC2F1200CA5
:1002E00001FA02F120FA0CFCDCBF41EA0C0190405B
:1002F000E41AA2BF01EB0451294330BD6FEA0404A4
:100300001F3C1CDA0C340EDC04F11404C4F120028E
:1003100020FA04F001FA02F340EA030021FA04F3A0
:1003200045EA030130BDC4F10C04C4F1200220FAF7
:1003300002F001FA04F340EA0300294630BD21FA35
:1003400004F0294630BD94F0000F83F4801306BFFB
:1003500081F480110134013D4EE77FEA645C18BFEF
:100360007FEA655C29D094EA050F08BF90EA020F86
:1003700005D054EA000C04BF1946104630BD91EA7E
:10038000030F1EBF0021002030BD5FEA545C05D181
:100390004000494128BF41F0004130BD14F58004C0
:1003A0003CBF01F5801130BD01F0004545F0FE4134
:1003B00041F470014FF0000030BD7FEA645C1ABF69
:1003C000194610467FEA655C1CBF0B46024650EAA0
:1003D000013406BF52EA033591EA030F41F40021CC
:1003E00030BD00BF90F0000F04BF0021704730B552
:1003F0004FF4806404F132044FF000054FF0000127
:1004000050E700BF90F0000F04BF0021704730B5E7
:100410004FF4806404F1320410F0004548BF4042BC
:100420004FF000013EE700BF42004FEAE2014FEA11
:1004300031014FEA02701FBF12F07F4393F07F4FEC
:1004400081F06051704792F0000F14BF93F07F4F1E
:10045000704730B54FF4607401F0004521F0004161
:1004600020E700BF50EA010208BF704730B54FF0E7
:1004700000050AE050EA010208BF704730B511F0EC
:10048000004502D5404261EB41014FF4806404F124
:1004900032045FEA915C3FF4DCAE4FF003025FEAA6
:1004A000DC0C18BF03325FEADC0C18BF033202EB2E
:1004B000DC02C2F1200300FA03FC20FA02F001FA88
:1004C00003FE40EA0E0021FA02F11444C1E600BF27
:1004D00070B54FF0FF0C4CF4E06C1CEA11541DBFDA
:1004E0001CEA135594EA0C0F95EA0C0F00F0DEF8A5
:1004F0002C4481EA030621EA4C5123EA4C5350EA8A
:10050000013518BF52EA033541F4801143F48013DA
:1005100038D0A0FB02CE4FF00005E1FB02E506F06B
:100520000042E0FB03E54FF00006E1FB03569CF0C0
:10053000000F18BF4EF0010EA4F1FF04B6F5007FC6
:1005400064F5407404D25FEA4E0E6D4146EB060638
:1005500042EAC62141EA55514FEAC52040EA5E50C1
:100560004FEACE2EB4F1FD0C88BFBCF5E06F1ED86B
:10057000BEF1004F08BF5FEA500E50F1000041EBA2
:10058000045170BD06F0004646EA010140EA02004F
:1005900081EA0301B4EB5C04C2BFD4EB0C0541EA71
:1005A000045170BD41F480114FF0000E013C00F386
:1005B000AB8014F1360FDEBF002001F0004170BDAA
:1005C000C4F10004203C35DA0C341BDC04F11404C3
:1005D000C4F1200500FA05F320FA04F001FA05F24F
:1005E00040EA020001F0004221F0004110EBD3701C
:1005F00021FA04F642EB06015EEA430E08BF20EA48
:10060000D37070BDC4F10C04C4F1200500FA04F3EA
:1006100020FA05F001FA04F240EA020001F000417C
:1006200010EBD37041F100015EEA430E08BF20EAEF
:10063000D37070BDC4F1200500FA05F24EEA020E37
:1006400020FA04F301FA05F243EA020321FA04F066
:1006500001F0004121FA04F220EA020000EBD3701D
:100660005EEA430E08BF20EAD37070BD94F0000F1D
:100670000FD101F00046400041EB010111F4801F51
:1006800008BF013CF7D041EA060195F0000F18BF02
:10069000704703F00046520043EB030313F4801F3E
:1006A00008BF013DF7D043EA0603704794EA0C0FF8
:1006B0000CEA135518BF95EA0C0F0CD050EA41060E
:1006C00018BF52EA4306D1D181EA030101F000418B
:1006D0004FF0000070BD50EA410606BF10461946B3
:1006E00052EA430619D094EA0C0F02D150EA0136BF
:1006F00013D195EA0C0F05D152EA03361CBF104600
:1007000019460AD181EA030101F0004141F0FE419E
:1007100041F470014FF0000070BD41F0FE4141F422
:10072000780170BD70B54FF0FF0C4CF4E06C1CEA22
:1007300011541DBF1CEA135594EA0C0F95EA0C0FD7
:1007400000F0A7F8A4EB050481EA030E52EA033592
:100750004FEA013100F088804FEA03334FF08055B3
:1007600045EA131343EA12634FEA022245EA1115E0
:1007700045EA10654FEA00260EF000419D4208BF91
:10078000964244F1FD0404F5407402D25B084FEA3E
:100790003202B61A65EB03055B084FEA32024FF4EA
:1007A00080104FF4002CB6EB020E75EB030E22BF47
:1007B000B61A754640EA0C005B084FEA3202B6EB07
:1007C000020E75EB030E22BFB61A754640EA5C00B6
:1007D0005B084FEA3202B6EB020E75EB030E22BF46
:1007E000B61A754640EA9C005B084FEA3202B6EB47
:1007F000020E75EB030E22BFB61A754640EADC0006
:1008000055EA060E18D04FEA051545EA16754FEA67
:1008100006164FEAC30343EA52734FEAC2025FEA85
:100820001C1CC0D111F4801F0BD141EA00014FF014
:1008300000004FF0004CB6E711F4801F04BF0143E5
:100840000020B4F1FD0C88BFBCF5E06F3FF6AFAE01
:10085000B5EB030C04BFB6EB020C5FEA500C50F191
:10086000000041EB045170BD0EF0004E4EEA113114
:1008700014EB5C04C2BFD4EB0C0541EA045170BD1B
:1008800041F480114FF0000E013C90E645EA060E5F
:100890008DE60CEA135594EA0C0F08BF95EA0C0F8D
:1008A0003FF43BAF94EA0C0F0AD150EA01347FF4D5
:1008B00034AF95EA0C0F7FF425AF104619462CE7AC
:1008C00095EA0C0F06D152EA03353FF4FDAE10460F
:1008D000194622E750EA410618BF52EA43067FF460
:1008E000C5AE50EA41047FF40DAF52EA43057FF4F0
:1008F000EBAE12E74FF0FF3C06E000BF4FF0010CFB
:1009000002E000BF4FF0010C4DF804CD4FEA410C5E
:100910007FEA6C5C4FEA430C18BF7FEA6C5C1BD02B
:1009200001B050EA410C0CBF52EA430C91EA030FAC
:1009300002BF90EA020F0020704710F1000F91EA09
:10094000030F58BF994208BF90422CBFD8176FEAD7
:10095000E37040F0010070474FEA410C7FEA6C5CA5
:1009600002D150EA013C07D14FEA430C7FEA6C5CAC
:10097000D6D152EA033CD3D05DF8040B704700BFD8
:100980008446104662468C461946634600E000BF26
:1009900001B5FFF7B7FF002848BF10F1000F01BDF8
:1009A0004DF808EDFFF7F4FF0CBF012000205DF8C3
:1009B00008FB00BF4DF808EDFFF7EAFF34BF012048
:1009C00000205DF808FB00BF4DF808EDFFF7E0FFE1
:1009D00094BF012000205DF808FB00BF4DF808ED32
:1009E000FFF7CEFF94BF012000205DF808FB00BF99
:1009F0004DF808EDFFF7C4FF34BF012000205DF87B
:100A000008FB00BF4FEA410C7FEA6C5C02D150EA60
:100A1000013C0AD14FEA430C7FEA6C5C02D152EAF6
:100A2000033C02D14FF0000070474FF001007047C7
:100A30004FEA410212F5001215D211D56FF4787306
:100A4000B3EB625212D94FEAC12343F0004343EAA9
:100A5000505311F0004F23FA02F018BF4042704784
:100A60004FF00000704750EA013005D111F000400E
:100A700008BF6FF0004070474FF00000704700BFA4
:100A80004FEA4102B2F1E04324BFB3F5001CDCF1B0
:100A9000FE5C0DD901F0004C4FEAC0024CEA5070E8
:100AA000B2F1004F40EB830008BF20F00100704717
:100AB00011F0804F21D113F13872BCBF01F000401A
:100AC000704741F480114FEA5252C2F11802C2F14C
:100AD000200C10FA0CF320FA02F018BF40F00100CD
:100AE0004FEAC1234FEAD32303FA0CFC40EA0C007F
:100AF00023FA02F34FEA4303CCE77FEA625307D1BC
:100B000050EA01331EBF4FF0FE4040F440007047F2
:100B100001F0004040F0FE4040F40000704700BF8C
:100B200080F0004002E000BF81F0004142001FBFA2
:100B30005FEA410392EA030F7FEA226C7FEA236CAB
:100B40006AD04FEA1262D2EB1363C1BFD2184140A0
:100B500048404140B8BF5B42192B88BF704710F036
:100B6000004F40F4000020F07F4018BF404211F0D9
:100B7000004F41F4000121F07F4118BF494292EA41
:100B8000030F3FD0A2F1010241FA03FC10EB0C006D
:100B9000C3F1200301FA03F100F0004302D54942FA
:100BA00060EB4000B0F5000F13D3B0F1807F06D3A7
:100BB00040084FEA310102F10102FE2A51D2B1F19F
:100BC000004F40EBC25008BF20F0010040EA030094
:100BD0007047490040EB000010F4000FA2F1010241
:100BE000EDD1B0FA80FCACF1080CB2EB0C0200FACB
:100BF0000CF0AABF00EBC25052421843BCBFD04019
:100C00001843704792F0000F81F4000106BF80F492
:100C100000000132013BB5E74FEA41037FEA226C55
:100C200018BF7FEA236C21D092EA030F04D092F020
:100C3000000F08BF0846704790EA010F1CBF002054
:100C4000704712F07F4F04D1400028BF40F00040B1
:100C5000704712F100723CBF00F50000704700F0D1
:100C6000004343F0FE4040F4000070477FEA2262F8
:100C700016BF08467FEA23630146420206BF5FEAC9
:100C8000412390EA010F40F4800070474FF00003C9
:100C900004E000BF10F0004348BF40425FEA000C90
:100CA00008BF704743F0964301464FF000001CE038
:100CB00050EA010208BF70474FF000030AE000BF8E
:100CC00050EA010208BF704711F0004302D54042CC
:100CD00061EB41015FEA010C02BF8446014600203E
:100CE00043F0B64308BFA3F18053A3F50003BCFA59
:100CF0008CF2083AA3EBC25310DB01FA02FC634406
:100D000000FA02FCC2F12002BCF1004F20FA02F20C
:100D100043EB020008BF20F00100704702F12002FF
:100D200001FA02FCC2F1200250EA4C0021FA02F260
:100D300043EB020008BF20EADC7070474FF0FF0C65
:100D40001CEAD0521EBF1CEAD15392EA0C0F93EA60
:100D50000C0F6FD01A4480EA010C400218BF5FEA02
:100D600041211ED04FF0006343EA501043EA511175
:100D7000A0FB01310CF00040B1F5000F3EBF49006F
:100D800041EAD3715B0040EA010062F17F02FD2A73
:100D90001DD8B3F1004F40EBC25008BF20F0010056
:100DA000704790F0000F0CF0004C08BF49024CEA6D
:100DB000502040EA51207F3AC2BFD2F1FF0340EAFF
:100DC000C250704740F400004FF00003013A5DDC70
:100DD00012F1190FDCBF00F000407047C2F10002B1
:100DE000410021FA02F1C2F1200200FA02FC5FEA9E
:100DF000310040F1000053EA4C0308BF20EADC70E8
:100E0000704792F0000F00F0004C02BF400010F459
:100E1000000F013AF9D040EA0C0093F0000F01F006
:100E2000004C02BF490011F4000F013BF9D041EA28
:100E30000C018FE70CEAD15392EA0C0F18BF93EA2A
:100E40000C0F0AD030F0004C18BF31F0004CD8D154
:100E500080EA010000F00040704790F0000F17BFDB
:100E600090F0004F084691F0000F91F0004F14D021
:100E700092EA0C0F01D142020FD193EA0C0F03D179
:100E80004B0218BF084608D180EA010000F000407C
:100E900040F0FE4040F40000704740F0FE4040F457
:100EA000400070474FF0FF0C1CEAD0521EBF1CEAF6
:100EB000D15392EA0C0F93EA0C0F69D0A2EB030214
:100EC00080EA010C49024FEA402037D04FF08053AE
:100ED00043EA111143EA10130CF000408B4238BF73
:100EE0005B0042F17D024FF4000C8B4224BF5B1A81
:100EF00040EA0C00B3EB510F24BFA3EB510340EACF
:100F00005C00B3EB910F24BFA3EB910340EA9C007C
:100F1000B3EBD10F24BFA3EBD10340EADC001B01EC
:100F200018BF5FEA1C1CE0D1FD2A3FF650AF8B4290
:100F300040EBC25008BF20F0010070470CF0004C9D
:100F40004CEA50207F32C2BFD2F1FF0340EAC250C8
:100F5000704740F400004FF00003013A37E792F089
:100F6000000F00F0004C02BF400010F4000F013AE7
:100F7000F9D040EA0C0093F0000F01F0004C02BFE2
:100F8000490011F4000F013BF9D041EA0C0195E74B
:100F90000CEAD15392EA0C0F08D142027FF47DAFE4
:100FA00093EA0C0F7FF470AF084676E793EA0C0FD4
:100FB00004D14B023FF44CAF08466EE730F0004CD2
:100FC00018BF31F0004CCAD130F000427FF45CAF62
:100FD00031F000437FF43CAF5FE700BF4FF0FF3CD0
:100FE00006E000BF4FF0010C02E000BF4FF0010C23
:100FF0004DF804CD4FEA40024FEA41037FEA226CEC
:1010000018BF7FEA236C11D001B052EA530C18BF0D
:1010100090EA010F58BFB2EB030088BFC81738BF72
:101020006FEAE17018BF40F0010070477FEA226C60
:1010300002D15FEA402C05D17FEA236CE4D15FEA5C
:10104000412CE1D05DF8040B704700BF8446084690
:101050006146FFE70FB5FFF7C9FF002848BF10F151
:10106000000F0FBD4DF808EDFFF7F4FF0CBF012096
:1010700000205DF808FB00BF4DF808EDFFF7EAFF20
:1010800034BF012000205DF808FB00BF4DF808EDDB
:10109000FFF7E0FF94BF012000205DF808FB00BFD0
:1010A0004DF808EDFFF7D2FF94BF012000205DF856
:1010B00008FB00BF4DF808EDFFF7C8FF34BF012063
:1010C00000205DF808FB00BF42000ED2B2F1FE4FD7
:1010D0000BD34FF09E03B3EB126209D44FEA002307
:1010E00043F0004323FA02F070474FF000007047CE
:1010F00012F1610F01D1420202D14FF0FF3070476F
:101100004FF00000704700BF80B500AF064802F006
:101110003FF80A2001F04EFC32220449024801F057
:1011200043FD00BF80BD00BF640300201402002007
:1011300090B583B000AF0023FB8000237B710AE0F1
:101140007B792F4A32F813309AB2FB881344FB8024
:101150007B790A337B717B79312BF1D9FB88184677
:10116000FFF798FD034627491846FFF7E7FD0346BA
:101170001846FFF7A9FF0346FB80FB881846FFF7D8
:1011800041F919A3D3E90023FFF7A2F903460C465E
:101190001A46234616A1D1E90001FEF7E5FF0346F2
:1011A0000C461846214614A3D3E90023FFF7BAFAE8
:1011B00003460C46184621464FF00002124BFEF73C
:1011C000D5FF03460C4618462146FFF759FC034657
:1011D0003B600E493868FFF7A7FC034618460C37FA
:1011E000BD4690BDAFF300806666666666664A3FA0
:1011F000E17A14AE47E1F63F22FDF675E09C713FBF
:1012000014020020CDCC4C3E0000394000001041BB
:1012100080B582B000AF0023FB8005237B710AE01C
:101220007B791B4A32F813309AB2FB881344FB8057
:101230007B790A337B717B79312BF1D9FB88184696
:10124000FFF728FD034613491846FFF777FD0346CD
:101250001846FFF739FF0346FB80FB881846FFF767
:1012600019FD03460C491846FFF768FD03460B4974
:101270001846FFF763FD03463B604FF000013868F6
:10128000FFF754FC034618460837BD4680BD00BF33
:1012900014020020CDCC4C3E3333533AC3F5E83F23
:1012A00080B582B000AF0023FB8008237B710AE089
:1012B0007B791B4A32F813309AB2FB881344FB80C7
:1012C0007B790A337B717B79312BF1D9FB88184606
:1012D000FFF7E0FC034613491846FFF72FFD0346CE
:1012E0001846FFF7F1FE0346FB80FB881846FFF720
:1012F000D1FC03460C491846FFF720FD03460B4975
:101300001846FFF71BFD03463B604FF000013868AD
:10131000FFF70CFC034618460837BD4680BD00BFEA
:1013200014020020CDCC4C3E3333533AC3F5E83F92
:1013300080B582B000AF0023FB8009237B710AE0F7
:101340007B791B4A32F813309AB2FB881344FB8036
:101350007B790A337B717B79312BF1D9FB88184675
:10136000FFF798FC034613491846FFF7E7FC0346CE
:101370001846FFF7A9FE0346FB80FB881846FFF7D7
:1013800089FC03460C491846FFF7D8FC03460B4975
:101390001846FFF7D3FC03463B604FF00001386866
:1013A000FFF7C4FB034618460837BD4680BD00BFA3
:1013B00014020020CDCC4C3E3333533AC3F5E83F02
:1013C00080B582B000AF0023FB8006237B710AE06A
:1013D0007B791B4A32F813309AB2FB881344FB80A6
:1013E0007B790A337B717B79312BF1D9FB881846E5
:1013F000FFF750FC034613491846FFF79FFC0346CE
:101400001846FFF761FE0346FB80FB881846FFF78E
:1014100041FC03460C491846FFF790FC03460B4974
:101420001846FFF78BFC03463B604FF0000138681D
:10143000FFF77CFB034618460837BD4680BD00BF5A
:1014400014020020CDCC4C3E3333533A3333934017
:1014500080B582B000AF0023FB8007237B710AE0D8
:101460007B791B4A32F813309AB2FB881344FB8015
:101470007B790A337B717B79312BF1D9FB88184654
:10148000FFF708FC034613491846FFF757FC0346CD
:101490001846FFF719FE0346FB80FB881846FFF746
:1014A000F9FB03460C491846FFF748FC03460B4975
:1014B0001846FFF743FC03463B604FF000013868D5
:1014C000FFF734FB034618460837BD4680BD00BF12
:1014D00014020020CDCC4C3E3333533A3333934087
:1014E00080B483B000AF0023FB8002237B710AE04D
:1014F0007B79114A32F813309AB2FB881344FB808F
:101500007B790A337B717B79312BF1D9FB880B4ACC
:10151000A2FB03239B08FB80FB8848F2E80202FB46
:1015200003F31B0BA3F6E4435B087B807B88184620
:101530000C37BD4680BC704714020020CDCCCCCC0B
:1015400080B483B000AF0023FB8001237B710AE0ED
:101550007B79114A32F813309AB2FB881344FB802E
:101560007B790A337B717B79312BF1D9FB880B4A6C
:10157000A2FB03239B08FB80FB8848F2E80202FBE6
:1015800003F31B0BA3F6E4435B087B807B881846C0
:101590000C37BD4680BC704714020020CDCCCCCCAB
:1015A00080B483B000AF0023FB8004237B710AE08A
:1015B0007B79114A32F813309AB2FB881344FB80CE
:1015C0007B790A337B717B79312BF1D9FB880B4A0C
:1015D000A2FB03239B08FB80FB8848F2E80202FB86
:1015E00003F31B0BA3F6E4435B087B807B88184660
:1015F0000C37BD4680BC704714020020CDCCCCCC4B
:1016000080B483B000AF0023FB8003237B710AE02A
:101610007B79114A32F813309AB2FB881344FB806D
:101620007B790A337B717B79312BF1D9FB880B4AAB
:10163000A2FB03239B08FB80FB8848F2E80202FB25
:1016400003F31B0BA3F6E4435B087B807B881846FF
:101650000C37BD4680BC704714020020CDCCCCCCEA
:1016600080B584B000AFF860B9607A607B689AB2E8
:101670007B680133B968044804F02FFE7B68184684
:101680001037BD4680BD00BF98030020B0B582B0C2
:1016900000AF03463960FB71FB79002B01D00023BA
:1016A000FB71FB79234A52F823304FF000011846B2
:1016B000FFF7D8FC0346002B09D0FC791E49386897
:1016C000FFF73CFB03461A461A4B43F82420FC79EB
:1016D000FB79184A52F82350FB79164A52F8233006
:1016E00015491846FFF7DEFB034619462846FFF763
:1016F0001BFA03461A460F4B43F82420FC79FB796A
:101700000C4A52F8233039681846FFF70FFA03469F
:101710001A46084B43F82420FB79064A52F8233036
:1017200005491846FFF7BEFB034618460837BD4675
:10173000B0BD00BFF80100200000A04180B582B01C
:1017400000AF01F02DF97860204B1B687A68D31A3E
:10175000632B36D91D4A7B68136010211C4802F0A8
:10176000D9FA0346012B05D11A4B1B680133194ADC
:10177000136002E0174B00221A60164B1B68142BF3
:101780001FD900224FF40051114802F0DAFA124832
:1017900005F05CFF40F6B83001F00CF94FF48070B2
:1017A00003F036FC0D4A0D4B1B6843F00403136035
:1017B0004FF4807003F010FC094805F047FF03F078
:1017C00043FC00BF0837BD4680BD00BFFC010020C0
:1017D000000C01400002002020940008007000402E
:1017E0002C94000880B588B004AF03463960FB80B4
:1017F000FA88082302930223019307F10C03009354
:101800000123D021064802F0FFFC0346FB73BA898E
:101810003B681A80FB7B18461037BD4680BD00BF71
:101820000403002080B588B004AF03460A46FB805D
:101830001346BB80BB88BB81FA880823029302232E
:10184000019307F10C0300930123D021044802F017
:10185000E1FB0346FB73FB7B18461037BD4680BD9A
:101860000403002080B584B000AF154805F07AFE6F
:101870000023BB601CE040F2DC530322D02111485E
:1018800002F024FF0346FB71642001F093F8FB791A
:10189000002B05D10C4805F0D9FE0123FB730AE0AB
:1018A0000A4805F0D3FE0023FB73BB680133BB601D
:1018B000BB68092BDFDDFB7B18461037BD4680BDBA
:1018C00034940008040300204C9400085494000849
:1018D00080B586B000AFF860B96011461A460B4675
:1018E000FB711346BB71BB79062B02D8204B7B6181
:1018F00001E0204B7B61FB791846FFF7CBF90346EB
:1019000079691846FFF71AFA03461946F868FFF78F
:10191000C9FA03461846FFF7D7FB03467B82FB79DB
:101920001846FFF7B7F9034679691846FFF706FA34
:1019300003461946B868FFF7B5FA03461846FFF79D
:10194000C3FB03463B827B8A3A8A19460A4805F064
:1019500009FE7B8A19460120FFF764FF3B8A19467E
:101960000220FFF75FFF00BF1837BD4680BD00BFF4
:10197000799A4939FC6606396094000880B582B0CE
:1019800000AF3B1D19464320FFF72CFFBB88DBB29D
:1019900003F00F03FB71FB7918460837BD4680BD85
:1019A00080B582B000AF3B1D19464320FFF71AFFF8
:1019B000BB881A46FB7942FA03F3DBB203F00F034C
:1019C000FB71FB7918460837BD4680BD80B400AF77
:1019D00000BFBD4680BC704790B583B000AF00F03B
:1019E00087FF00F03FFA00F057FC00F0E3FB964859
:1019F00005F02CFE00F008FC00224FF40051934843
:101A000002F09FF9924B5B6803F00203022B05D1B1
:101A10008F4A8F4B1B6843F00803136000F0C0FF30
:101A2000786017E000F0BCFF02467B68D31AB3F57C
:101A30007A7F0FD900F0B4FF786001224FF4005193
:101A4000824802F07EF9834805F000FE824B0122B5
:101A50001A7006E010217D4802F05CF90346012B64
:101A6000E0D07D4B1B78002B16D14FF4967000F020
:101A7000A1FF4FF4807003F0CBFA754A744B1B68DA
:101A800043F0040313604FF4807003F0A5FA734829
:101A900005F0DCFD03F0D8FA00F0E0FB00F040FABE
:101AA00000F0FEFA00F02CFBFFF72EFB0A2000F0FE
:101AB00081FFFFF7D7FE0346002B1ED0FFF75EFF26
:101AC00003461A46664B1A70FFF76AFF03461A462A
:101AD000644B1A70634B1B781946614B1B781A468E
:101AE000614805F03FFDFFF771FF5D4B1A785D4BD4
:101AF0001B785E495E48FFF7EBFE00F051FF02469F
:101B00005C4B1A6000F04CFF02465B4B1A6000F021
:101B100047FF0246594B1A60FFF710FE00F040FFE6
:101B20000246554B1B68D31A092B26D900F038FF03
:101B30000246514B1A60FFF7FBFA03461946012093
:101B4000FFF7A4FD02464E4B1A6000F0ADF800F01E
:101B5000CBF84FF480513D4802F0DCF803461A46BA
:101B6000484B1A704FF40041384802F0D3F803464E
:101B70001A46454B1A7000F0D5F800F011FF0246E6
:101B80003C4B1B68D31AB3F57A7F4BD34FF40071EB
:101B90002E4802F0EEF800F003FF0246354B1A60C3
:101BA000374B1B681846FEF73FFC03460C461A46A7
:101BB0002346364805F0D6FC354B1B681846FEF721
:101BC00033FC03460C461A462346324805F0CAFC4D
:101BD0002F4B5B681846FEF727FC03460C461A4657
:101BE00023462D4805F0BEFC294BDB681846FEF75E
:101BF0001BFC03460C461A462346284805F0B2FC57
:101C0000234B9B681846FEF70FFC03460C461A460A
:101C10002346234805F0A6FC1A4B1B781946214899
:101C200005F0A0FC00F0BCFE0246144B1B68D31A62
:101C300041F2873293427FF66FAF00F0B1FE024669
:101C40000E4B1A6068E700BF80940008000C01404A
:101C5000007000409494000804020020A094000842
:101C60004D0400204E040020AC94000833334B4157
:101C70003333F34044040020940300204804002040
:101C800040040020F00300204C040020D094000801
:101C9000DC030020E4940008F49400080495000894
:101CA000189500082C95000880B500AFFFF7B0FA32
:101CB00002460C4B1A60FFF7F3FA0246094B5A60D2
:101CC000FFF736FB0246074B9A60FFF779FB0246A7
:101CD000044BDA60FFF7BCFB0246024B1A6100BFFF
:101CE00080BD00BFDC03002080B500AFFFF788FC9B
:101CF00003469AB20A4B1A80FFF752FC03469AB287
:101D0000074B5A80FFF71CFC03469AB2044B9A809B
:101D1000FFF7E6FB03469AB2014BDA8000BF80BDB5
:101D20003804002080B500AF424B9B6842491846FA
:101D3000FFF7ACF90346002B1BD03E4B9B683F4995
:101D40001846FFF7ADF90346002B12D03C4B1B7829
:101D5000002B0ED13B4B1B78042B03D0394B1B7847
:101D6000012B06D1384B1B780133DAB2364B1A708F
:101D700002E0354B00221A70334B1B78082B0CD92C
:101D8000314B1B780B2B08D801224FF400612F48F0
:101D900001F0D7FF2E4805F059FC294B1B78012B89
:101DA00006D12C4B1B780133DAB22A4B1A7002E0B1
:101DB000284B00221A70274B1B780A2B1AD9214B6B
:101DC0001B78042B16D1204B00221A70214B0022C5
:101DD0001A7001224FF480511C4801F0B2FF012219
:101DE00004211D4801F0ADFF164B03221A701B4859
:101DF00005F02CFC124B1B78002B18D1114B1B78D3
:101E0000032B03D00F4B1B78012B10D100224FF472
:101E100080510E4801F095FF002204210E4801F088
:101E200090FF084B04221A700D4805F00FFC00BF0C
:101E300080BD00BFDC030020CDCCAC400000904052
:101E4000F0030020040200200502002000080140E9
:101E50004095000806020020000C01404C95000847
:101E60005895000880B594B000AF07F128032822E8
:101E70000021184604F00CFF07F1140300221A6039
:101E80005A609A60DA601A613B1D00221A605A603B
:101E90009A60DA600923BB624FF48033FB6200234F
:101EA0003B630123BB6301233B6402237B644FF448
:101EB0008033BB644FF4E013FB6407F1280318463A
:101EC00003F0DAF80346002B01D000F06DFA0F237F
:101ED0007B610223BB610023FB614FF480633B62A3
:101EE00000237B6207F114030221184603F044FB30
:101EF0000346002B01D000F057FA02237B604FF419
:101F00000043FB603B1D184603F0D2FC0346002B48
:101F100001D000F049FA00BF5037BD4680BD000037
:101F200080B584B000AF3B1D00221A605A609A60F1
:101F3000594B5A4A1A60584B4FF480729A60564B6C
:101F400001221A73544B00221A75534B4FF460222E
:101F5000DA61514B00225A604F4B0A221A614E48F7
:101F600000F04AFD0346002B01D000F01DFA1023BB
:101F70007B600123BB600723FB603B1D194646487D
:101F800000F00CFF0346002B01D000F00DFA0123F6
:101F90007B600223BB600323FB603B1D19463E4868
:101FA00000F0FCFE0346002B01D000F0FDF90223F7
:101FB0007B600323BB603B1D1946374800F0EEFEF3
:101FC0000346002B01D000F0EFF903237B600423CC
:101FD000BB603B1D1946304800F0E0FE0346002B75
:101FE00001D000F0E1F904237B600523BB603B1DB9
:101FF0001946294800F0D2FE0346002B01D000F01C
:10200000D3F905237B600623BB603B1D194622489C
:1020100000F0C4FE0346002B01D000F0C5F90623F2
:102020007B600723BB603B1D19461B4800F0B6FED2
:102030000346002B01D000F0B7F907237B6008238B
:10204000BB603B1D1946144800F0A8FE0346002B58
:1020500001D000F0A9F908237B600923BB603B1D78
:1020600019460D4800F09AFE0346002B01D000F0FF
:102070009BF909237B600A23BB603B1D1946064878
:1020800000F08CFE0346002B01D000F08DF900BF5C
:102090001037BD4680BD00BF64030020002401400E
:1020A00080B500AF134B144A1A60124B134A5A60A2
:1020B000104B4FF480429A600E4B0022DA600D4BB9
:1020C0004FF480421A610B4B00225A61094B0022E7
:1020D0009A61084B0022DA61064B00221A62054819
:1020E00001F060FE0346002B01D000F05DF900BF57
:1020F00080BD00BF0403002000540040801A060089
:1021000080B58AB000AF07F1200300221A605A6040
:102110003B1D00221A605A609A60DA601A615A61A7
:102120009A61224B224A1A60204B00225A601F4BB0
:1021300000229A601D4B4FF6FF72DA601B4B0022A3
:102140001A611A4B00229A61184803F023FD0346D6
:10215000002B01D000F028F900233B6200237B62B2
:1021600007F120031946114804F00CF80346002B30
:1021700001D000F019F960237B600023BB600023CD
:10218000FB6000237B613B1D08221946074803F0D2
:1021900051FD0346002B01D000F006F9034800F082
:1021A00015FA00BF2837BD4680BD00BF7802002069
:1021B0000008004080B500AF114B124A1A60104B66
:1021C0004FF4E1325A600E4B00229A600C4B002211
:1021D000DA600B4B00221A61094B0C225A61084B42
:1021E00000229A61064B0022DA61054804F028F8C3
:1021F0000346002B01D000F0D7F800BF80BD00BF20
:10220000980300200038014080B500AF114B124AFE
:102210001A60104B4FF4E1325A600E4B00229A6064
:102220000C4B0022DA600B4B00221A61094B0C2286
:102230005A61084B00229A61064B0022DA61054878
:1022400003F0FEFF0346002B01D000F0ADF800BF05
:1022500080BD00BFC00200200048004080B582B0B1
:1022600000AF0C4A0B4B5B6943F001035361094B10
:102270005B6903F001037B607B6800220C210B206B
:1022800001F007F90B2001F020F900BF0837BD4627
:1022900080BD00BF0010024080B588B000AF07F1DC
:1022A000100300221A605A609A60DA603A4A3A4B88
:1022B0009B6943F010039361374B9B6903F0100354
:1022C000FB60FB68344A344B9B6943F02003936105
:1022D000314B9B6903F02003BB60BB682E4A2E4B39
:1022E0009B6943F0040393612B4B9B6903F0040348
:1022F0007B607B68284A284B9B6943F00803936105
:10230000254B9B6903F008033B603B68002246F2C3
:102310000C21224801F015FD00224FF419412048FC
:1023200001F00FFD4FF460433B6103237B6107F134
:10233000100319461B4801F093FB46F20C233B6146
:1023400001237B610023BB610223FB6107F11003C2
:102350001946124801F084FB49F230033B61002327
:102360007B610023BB6107F1100319460B4801F0A4
:1023700077FB4FF419433B6101237B610023BB6171
:102380000223FB6107F110031946054801F068FBC1
:1023900000BF2037BD4680BD00100240000C014048
:1023A000000801400010014080B400AF72B6FEE7A3
:1023B00080B485B000AF154A144B9B6943F001030C
:1023C0009361124B9B6903F00103BB60BB680F4A2A
:1023D0000E4BDB6943F08053D3610C4BDB6903F098
:1023E00080537B607B680A4B5B68FB60FB6823F073
:1023F000E063FB60FB6843F00073FB60044AFB682A
:10240000536000BF1437BD4680BC704700100240C7
:102410000000014080B58AB000AF786007F1180372
:1024200000221A605A609A60DA607B681B68334A3F
:1024300093425FD1324A324B9B6943F400739361FC
:102440002F4B9B6903F400737B617B692C4A2C4BF7
:102450009B6943F004039361294B9B6903F00403D8
:102460003B613B69264A264B9B6943F00803936115
:10247000234B9B6903F00803FB60FB68FE23BB61F1
:102480000323FB6107F1180319461E4801F0E8FA1F
:102490000323BB610323FB6107F1180319461A48A4
:1024A00001F0DEFA194B1A4A1A60184B00225A60E2
:1024B000164B00229A60154B8022DA60134B4FF4C2
:1024C00080721A61114B4FF480625A610F4B2022C7
:1024D0009A610E4B0022DA610C4801F011F80346B4
:1024E000002B01D0FFF760FF7B68084A1A62074A99
:1024F0007B68536200BF2837BD4680BD0024014081
:102500000010024000080140000C0140F4030020CC
:102510000800024080B588B000AF786007F1100372
:1025200000221A605A609A60DA607B681B68154A5C
:10253000934223D1144A144B9B6943F008039361DF
:10254000114B9B6903F00803FB60FB68C0233B61F0
:1025500012237B610323FB6107F1100319460B482B
:1025600001F07EFA084A084BDB6943F40013D3619B
:10257000054BDB6903F40013BB60BB6800BF203769
:10258000BD4680BD0054004000100240000C0140D8
:1025900080B485B000AF78607B681B68094A9342BD
:1025A0000BD1094A084BDB6943F00403D361064BA6
:1025B000DB6903F00403FB60FB6800BF1437BD4612
:1025C00080BC7047000800400010024080B588B011
:1025D00000AF786007F1100300221A605A609A6019
:1025E000DA607B681B68104A934218D10F4A0F4B80
:1025F0009B6943F0080393610C4B9B6903F008034C
:10260000FB60FB684FF480733B6102237B61022314
:10261000FB6107F110031946054801F021FA00BFDC
:102620002037BD4680BD00BF0008004000100240BA
:10263000000C014080B58AB000AF786007F1180344
:1026400000221A605A609A60DA607B681B68404A10
:1026500093423AD13F4A3F4B9B6943F48043936195
:102660003C4B9B6903F480437B617B69394A394B5E
:102670009B6943F004039361364B9B6903F00403A9
:102680003B613B694FF40073BB610223FB61032391
:102690007B6207F1180319462F4801F0E1F94FF466
:1026A0008063BB610023FB6100233B6207F11803D9
:1026B0001946294801F0D4F900220021252000F014
:1026C000E8FE252000F001FF3EE07B681B68234AFE
:1026D000934239D11F4A1F4BDB6943F48023D361F6
:1026E0001C4BDB6903F48023FB60FB68194A194B20
:1026F0009B6943F008039361164B9B6903F0080341
:10270000BB60BB684FF48063BB610223FB610323A2
:102710007B6207F118031946114801F0A1F94FF443
:102720000063BB610023FB6100233B6207F11803D8
:1027300019460B4801F094F900220021272000F0EF
:10274000A8FE272000F0C1FE00BF2837BD4680BD8F
:1027500000380140001002400008014000480040DD
:10276000000C014080B400AFFEE780B400AFFEE78C
:1027700080B400AFFEE780B400AFFEE780B400AFE6
:10278000FEE780B400AF00BFBD4680BC704780B498
:1027900000AF00BFBD4680BC704780B400AF00BF33
:1027A000BD4680BC704780B500AF00F0E7F800BFC1
:1027B00080BD000080B500AF024801F011F800BFF5
:1027C00080BD00BFF403002080B500AF024803F0D5
:1027D00015FE00BF80BD00BF9803002080B500AF8C
:1027E000024803F00BFE00BF80BD00BFC002002006
:1027F00090B587B000AFF860B9607A6000237B6164
:102800000AE0BC68631CBB60AFF300800346DBB228
:1028100023707B6901337B617A697B689A42F0DBC4
:102820007B6818461C37BD4690BD000080B584B05B
:1028300000AF7860114B1B68002B02D10F4B104A80
:102840001A600E4B1B68FB600C4B1A687B681344C4
:102850006A46934207D904F0F1F902460C2313604B
:102860004FF0FF3306E0054B1A687B681344034AB8
:102870001360FB6818461037BD4680BD0802002073
:102880005804002080B483B000AF78604FF0FF336D
:1028900018460C37BD4680BC704780B483B000AF8B
:1028A000786039603B684FF400525A600023184644
:1028B0000C37BD4680BC704780B483B000AF7860F1
:1028C000012318460C37BD4680BC704780B485B0E4
:1028D00000AFF860B9607A60002318461437BD462F
:1028E00080BC704780B400AF00BFBD4680BC70475D
:1028F00080B500AF084A084B1B6843F01003136013
:10290000032000F0BBFD002000F008F8FFF750FDA9
:102910000023184680BD00BF0020024080B582B071
:1029200000AF7860124B1A68124B1B7819464FF4AF
:102930007A73B3FBF1F3B2FBF3F3184600F0D3FD67
:102940000346002B01D001230EE07B680F2B0AD831
:10295000002279684FF0FF3000F09BFD064A7B684B
:102960001360002300E0012318460837BD4680BDF0
:1029700000000020080000200400002080B400AF08
:10298000054B1B781A46054B1B681344034A13601A
:1029900000BFBD4680BC70470800002050040020E6
:1029A00080B400AF024B1B681846BD4680BC704720
:1029B0005004002080B584B000AF7860FFF7F0FFCE
:1029C000B8607B68FB60FB68B3F1FF3F05D0094B43
:1029D0001B781A46FB681344FB6000BFFFF7E0FF5B
:1029E0000246BB68D21AFB689A42F7D300BF103781
:1029F000BD4680BD0800002080B586B000AF78607D
:102A00000023FB7500233B610023BB600023FB60B8
:102A10007B68002B01D10123BEE07B689B68002B03
:102A20007B689B6A002B09D17B680022DA627B6895
:102A3000002283F824207868FFF7ECFC786800F027
:102A4000FFFA0346FB757B689B6A03F01003002BBB
:102A500040F09980FB7D002B40F095807B689B6A5D
:102A600023F4885323F0020343F002027B689A6246
:102A70007B685A687B68DB691A437B681B7B5B0059
:102A80001343BA681343BB607B689B68B3F5807FD0
:102A900003D07B689B68012B02D14FF4807300E068
:102AA00000233A6913433B617B681B7D012B19D1DD
:102AB0007B681B7B002B09D17B689B69013B5A0318
:102AC0003B69134343F400633B610BE07B689B6A03
:102AD00043F020027B689A627B68DB6A43F0010264
:102AE0007B68DA627B681B687A681268526822F435
:102AF00069413A690A435A607B681A687B681B68B7
:102B00009968274B0B40B9680B4393607B689B68BF
:102B1000B3F5807F03D07B689B68012B04D17B6871
:102B20001B69013B1B05FB607B681B687A681268A8
:102B3000D26A22F47001FA680A43DA627B681B6881
:102B40009A68184B1340BA6893420BD17B680022F5
:102B5000DA627B689B6A23F0030343F001027B681F
:102B60009A6218E07B689B6A23F0120343F010021C
:102B70007B689A627B68DB6A43F001027B68DA62F9
:102B80000123FB7507E07B689B6A43F010027B68BA
:102B90009A620123FB75FB7D18461837BD4680BD40
:102BA000FDF7E1FFFE0E1FFF80B586B000AFF860B5
:102BB000B9607A600023FB75FB681B68644A934226
:102BC00004D0FB681B68634A934206D1604B5B6884
:102BD00003F47023002B40F0B380FB6893F824309B
:102BE000012B01D10223AEE0FB68012283F82420EF
:102BF000F86800F0CBF90346FB75FB7D002B40F035
:102C00009A80FB689B6A23F4706323F0010343F40A
:102C10008072FB689A62FB681B684E4A934205D13A
:102C20004B4B5B6803F47023002B15D1FB689B6A48
:102C300023F48012FB689A62FB681B685B6803F4EC
:102C40008063002B26D0FB689B6A23F4405343F437
:102C50008052FB689A621DE0FB689B6A43F4801215
:102C6000FB689A62FB681B68394A934204D0FB6890
:102C70001B68384A93420DD1354B5B6803F480637F
:102C8000002B07D0FB689B6A23F4405343F4805227
:102C9000FB689A62FB689B6A03F48053002B06D0A2
:102CA000FB68DB6A23F00602FB68DA6202E0FB687D
:102CB0000022DA62FB68002283F82420FB681B6A8A
:102CC000254A9A62FB681B6A244ADA62FB681B6A1F
:102CD000234A1A63FB681B686FF002021A60FB68E4
:102CE0001B68FA681268926842F480729A60FB6806
:102CF000186AFB681B684C331946BA687B6800F099
:102D000059FCFB681B689B6803F46023B3F5602FD4
:102D100008D1FB681B68FA681268926842F4A00246
:102D20009A600FE0FB681B68FA681268926842F4C8
:102D300080129A6006E0FB68002283F8242001E0FC
:102D40000123FB75FB7D18461837BD4680BD00BFCB
:102D50000024014000280140C33000083F31000832
:102D60005B31000880B483B000AF786000BF0C37DF
:102D7000BD4680BC704780B483B000AF786000BFB0
:102D80000C37BD4680BC704780B483B000AF78601C
:102D900000BF0C37BD4680BC7047000090B484B0C3
:102DA00000AF786039600023FB730023BB607B6851
:102DB00093F82430012B01D10223DCE07B6801224F
:102DC00083F824203B685B68062B1CD87B68196855
:102DD0007B681B68586B3B685A6813469B0013441A
:102DE000053B1F2202FA03F3DB4318403B681C68D3
:102DF0003B685A6813469B001344053B04FA03F3EF
:102E000003434B633CE03B685B680C2B1CD87B683E
:102E100019687B681B68186B3B685A6813469B00EF
:102E20001344233B1F2202FA03F3DB4318403B68A1
:102E30001C683B685A6813469B001344233B04FA02
:102E400003F303430B631BE07B6819687B681B6813
:102E5000D86A3B685A6813469B001344413B1F22C3
:102E600002FA03F3DB4318403B681C683B685A686E
:102E700013469B001344413B04FA03F30343CB6224
:102E80003B681B68092B1CD97B6819687B681B6829
:102E9000D8683B681A6813465B0013441E3B072240
:102EA00002FA03F3DB4318403B689C683B681A68EE
:102EB00013465B0013441E3B04FA03F30343CB6049
:102EC00019E07B6819687B681B6818693B681A6899
:102ED00013465B001344072202FA03F3DB43184056
:102EE0003B689C683B681A6813465B00134404FA0D
:102EF00003F303430B613B681B68102B03D03B6853
:102F00001B68112B32D17B681B681D4A934225D167
:102F10007B681B689B6803F40003002B26D17B6849
:102F20001B687A681268926842F400029A603B68F3
:102F30001B68102B1AD1134B1B68134AA2FB0323E7
:102F40009A0C13469B0013445B00BB6002E0BB6815
:102F5000013BBB60BB68002BF9D107E07B689B6A33
:102F600043F020027B689A620123FB737B68002296
:102F700083F82420FB7B18461037BD4690BC704771
:102F8000002401400000002083DE1B4380B584B094
:102F900000AF78600023FB600023BB607B681B6888
:102FA0009B6803F00103012B40D07B681B687A68A3
:102FB0001268926842F001029A601F4B1B681F4A18
:102FC000A2FB03239B0CBB6002E0BB68013BBB6020
:102FD000BB68002BF9D1FFF7E3FCF8601FE0FFF7B7
:102FE000DFFC0246FB68D31A022B18D97B681B68EA
:102FF0009B6803F00103012B11D07B689B6A43F0AF
:1030000010027B689A627B68DB6A43F001027B688E
:10301000DA627B68002283F82420012307E07B68C2
:103020001B689B6803F00103012BD8D100231846CD
:103030001037BD4680BD00BF0000002083DE1B436B
:1030400080B584B000AF78600023FB607B681B68AC
:103050009B6803F00103012B2ED17B681B687A6803
:103060001268926822F001029A60FFF799FCF860FA
:103070001BE0FFF795FC0246FB68D31A022B14D91C
:103080007B681B689B6803F00103012B0DD17B68F3
:103090009B6A43F010027B689A627B68DB6A43F0AC
:1030A00001027B68DA62012307E07B681B689B688A
:1030B00003F00103012BDCD0002318461037BD4676
:1030C00080BD80B584B000AF78607B685B6AFB60D0
:1030D000FB689B6A03F05003002B27D1FB689B6AB7
:1030E00043F40072FB689A62FB681B689B6803F4F8
:1030F0006023B3F5602F15D1FB681B7B002B11D12A
:10310000FB689B6A23F48072FB689A62FB689B6A87
:1031100003F48053002B05D1FB689B6A43F0010246
:10312000FB689A62F868FFF71DFE04E0FB681B6A03
:103130001B6B7868984700BF1037BD4680BD80B5CF
:1031400084B000AF78607B685B6AFB60F868FFF76B
:1031500012FE00BF1037BD4680BD80B584B000AF01
:1031600078607B685B6AFB60FB689B6A43F04002A7
:10317000FB689A62FB68DB6A43F00402FB68DA6270
:10318000F868FFF701FE00BF1037BD4680BD0000A4
:1031900090B587B000AF78600023FB750023FB601B
:1031A0007B6893F82430012B01D1022395E07B68E2
:1031B000012283F824207868FFF742FF0346FB755D
:1031C000FB7D002B40F084807B689B6A23F488534E
:1031D00023F0020343F002027B689A62414B1C68B1
:1031E000022002F01BFC0346B4FBF3F35B00FB6020
:1031F00002E0FB68013BFB60FB68002BF9D17868BB
:10320000FFF7C4FE7B681B687A681268926842F018
:1032100008029A60FFF7C4FB38611BE0FFF7C0FBB0
:1032200002463B69D31A0A2B14D97B681B689B683A
:1032300003F00803002B0DD07B689B6A23F0120378
:1032400043F010027B689A627B68002283F8242096
:10325000012342E07B681B689B6803F00803002B96
:10326000DCD17B681B687A681268926842F00402BD
:103270009A60FFF795FB38611BE0FFF791FB024670
:103280003B69D31A0A2B14D97B681B689B6803F02F
:103290000403002B0DD07B689B6A23F0120343F0DC
:1032A00010027B689A627B68002283F82420012345
:1032B00013E07B681B689B6803F00403002BDCD1E0
:1032C0007B689B6A23F0030343F001027B689A62E8
:1032D0007B68002283F82420FB7D18461C37BD46FE
:1032E00090BD00BF0000002080B485B000AF7860C2
:1032F0007B6803F00703FB600C4BDB68BB60BA68BC
:103300004FF6FF031340BB60FB681A02BB68134310
:1033100043F0BF6343F40033BB60044ABB68D3602F
:1033200000BF1437BD4680BC704700BF00ED00E011
:1033300080B400AF044BDB681B0A03F00703184698
:10334000BD4680BC704700BF00ED00E080B483B094
:1033500000AF0346FB7197F90730002B0BDB0849E0
:1033600097F907305B09FA7902F01F02012000FA91
:1033700002F241F8232000BF0C37BD4680BC7047E5
:1033800000E100E080B483B000AF03463960FB7118
:1033900097F90730002B0ADB0D4997F907303A6897
:1033A000D2B21201D2B20B4483F800230AE00949D9
:1033B000FB7903F00F03043B3A68D2B21201D2B298
:1033C0000B441A7600BF0C37BD4680BC704700BF67
:1033D00000E100E000ED00E080B489B000AFF860EB
:1033E000B9607A60FB6803F00703FB61FB69C3F116
:1033F0000703042B28BF0423BB61FB690433062B9E
:1034000002D9FB69033B00E000237B610122BB6919
:1034100002FA03F35A1EBB681A407B699A400121E5
:103420007B6901FA03F3591E7B680B40134318466E
:103430002437BD4680BC704780B582B000AF78604D
:103440007B68013BB3F1807F01D301230FE00A4A7F
:103450007B68013B53600F214FF0FF30FFF792FF75
:10346000054B00229A60044B07221A60002318467D
:103470000837BD4680BD00BF10E000E080B582B0D7
:1034800000AF78607868FFF72FFF00BF0837BD46B0
:1034900080BD80B586B000AF0346B9607A60FB732B
:1034A00000237B61FFF744FF78617A68B968786927
:1034B000FFF792FF024697F90F3011461846FFF7C3
:1034C00061FF00BF1837BD4680BD80B582B000AF38
:1034D0000346FB7197F907301846FFF737FF00BF27
:1034E0000837BD4680BD80B582B000AF786078688F
:1034F000FFF7A2FF034618460837BD4680BD00000F
:1035000080B485B000AF78600023FB607B68002B3F
:1035100001D1012343E07B681B681A46224B134408
:10352000224AA2FB03231B099A007B681A647B686A
:103530001F4ADA637B68022283F821207B681B68BC
:103540001B68FB60FB6823F47F5323F03003FB60B0
:103550007B685A687B689B681A437B68DB681A4300
:103560007B681B691A437B685B691A437B689B69AC
:103570001A437B68DB691343FA681343FB607B687B
:103580001B68FA681A607B6800229A637B680122D4
:1035900083F821207B68002283F82020002318462E
:1035A0001437BD4680BC7047F8FFFDBFCDCCCCCCF6
:1035B0000000024080B586B000AFF860B9607A6064
:1035C0003B600023FB75FB6893F82030012B01D191
:1035D00002234AE0FB68012283F82020FB6893F86D
:1035E0002130012B3AD1FB68022283F82120FB68AD
:1035F00000229A63FB681B68FA681268126822F05E
:1036000001021A603B687A68B968F86800F0FAF954
:10361000FB68DB6A002B08D0FB681B68FA6812683D
:10362000126842F00E021A600FE0FB681B68FA682D
:103630001268126822F004021A60FB681B68FA68BC
:103640001268126842F00A021A60FB681B68FA6886
:103650001268126842F001021A6005E0FB6800225D
:1036600083F820200223FB75FB7D18461837BD46E2
:1036700080BD80B485B000AF78600023FB737B68A9
:1036800093F82130022B08D07B6804229A637B6870
:10369000002283F82020012320E07B681B687A68E1
:1036A0001268126822F00E021A607B681B687A6842
:1036B0001268126822F001021A607B68DB6B7A687C
:1036C000126C012101FA02F25A607B68012283F830
:1036D00021207B68002283F82020FB7B18461437CA
:1036E000BD4680BC7047000080B584B000AF7860F4
:1036F0000023FB737B6893F82130022B05D07B6895
:1037000004229A630123FB7357E07B681B687A6885
:103710001268126822F00E021A607B681B687A68D1
:103720001268126822F001021A60264A7B681B6840
:103730001946254B99422ED07B681B681946234BAE
:10374000994226D07B681B681946214B99421DD0AF
:103750007B681B6819461F4B994214D07B681B6815
:1037600019461D4B99420BD07B681B6819461B4BB1
:10377000994202D14FF480130EE04FF080730BE0BA
:103780004FF4803308E04FF4805305E04FF480732A
:1037900002E0102300E0012353607B68012283F8DC
:1037A00021207B68002283F820207B685B6B002B44
:1037B00003D07B685B6B78689847FB7B18461037B3
:1037C000BD4680BD00000240080002401C000240CF
:1037D0003000024044000240580002406C000240A9
:1037E00080B584B000AF78607B68DB6B1B68FB60E2
:1037F0007B681B681B68BB607B681B6C04229A405B
:10380000FB681340002B55D0BB6803F00403002B6A
:1038100050D07B681B681B6803F02003002B07D186
:103820007B681B687A681268126822F004021A60CA
:103830006D4A7B681B6819466C4B99422ED07B6899
:103840001B6819466A4B994226D07B681B6819464B
:10385000684B99421DD07B681B681946664B99429C
:1038600014D07B681B681946644B99420BD07B6867
:103870001B681946624B994202D14FF480030EE057
:103880004FF080630BE04FF4802308E04FF4804357
:1038900005E04FF4806302E0402300E0042353601E
:1038A0007B68DB6A002B00F09A807B68DB6A7868B3
:1038B000984794E07B681B6C02229A40FB68134097
:1038C000002B5CD0BB6803F00203002B57D07B6851
:1038D0001B681B6803F02003002B0BD17B681B685F
:1038E0007A681268126822F00A021A607B68012264
:1038F00083F821203C4A7B681B6819463B4B994260
:103900002ED07B681B681946394B994226D07B68BC
:103910001B681946374B99421DD07B681B681946B6
:10392000354B994214D07B681B681946334B99423A
:103930000BD07B681B681946314B994202D14FF47A
:1039400000130EE04FF000730BE04FF4003308E07B
:103950004FF4005305E04FF4007302E0202300E031
:10396000022353607B68002283F820207B689B6AD7
:10397000002B34D07B689B6A786898472FE07B687F
:103980001B6C08229A40FB681340002B28D0BB68B0
:1039900003F00803002B23D07B681B687A68126849
:1039A000126822F00E021A607B68DB6B7A68126C78
:1039B000012101FA02F25A607B6801229A637B6856
:1039C000012283F821207B68002283F820207B6875
:1039D0001B6B002B04D07B681B6B7868984700BF7B
:1039E00000BF1037BD4680BD000002400800024005
:1039F0001C000240300002404400024058000240D7
:103A00006C00024080B485B000AFF860B9607A60A5
:103A10003B60FB68DB6BFA68126C012101FA02F271
:103A20005A60FB681B683A685A60FB685B68102B39
:103A300008D1FB681B687A689A60FB681B68BA68E3
:103A4000DA6007E0FB681B68BA689A60FB681B686D
:103A50007A68DA6000BF1437BD4680BC704700004A
:103A600080B48BB000AF7860396000237B620023A4
:103A70003B6227E101227B6A02FA03F3FB613B68A8
:103A80001A68FB691340BB61BA69FB699A4240F04E
:103A900016813B685B68122B34D0122B0DD8022B99
:103AA0002BD0022B04D8002B31D0012B1CD048E0A6
:103AB000032B43D0112B1BD043E0894A934226D0DD
:103AC000874A934206D8874A934220D0864A934237
:103AD0001DD036E0854A934219D0854A934216D0CC
:103AE000844A934213D02CE03B68DB683B6228E0B9
:103AF0003B68DB6804333B6223E03B68DB680833E8
:103B00003B621EE03B68DB680C333B6219E03B68BC
:103B10009B68002B02D104233B6212E03B689B6848
:103B2000012B05D108233B627B68FA691A6108E022
:103B300008233B627B68FA695A6102E000233B621A
:103B400000BFBB69FF2B01D87B6801E07B680433B1
:103B50007B61BB69FF2B02D87B6A9B0002E07B6A1A
:103B6000083B9B003B617B691A680F213B6901FAA6
:103B700003F3DB431A40396A3B6901FA03F31A4342
:103B80007B691A603B685B6803F08053002B00F090
:103B90009680594A584B9B6943F001039361564BF9
:103BA0009B6903F00103BB60BB68544A7B6A9B08B6
:103BB000023352F82330FB607B6A03F003039B005F
:103BC0000F2202FA03F3DB43FA681340FB607B68C1
:103BD0004B4A934213D07B684A4A93420DD07B688C
:103BE000494A934207D07B68484A934201D1032354
:103BF00006E0042304E0022302E0012300E00023A6
:103C00007A6A02F0030292009340FA681343FB6061
:103C10003A497B6A9B080233FA6841F823203B68E3
:103C20005B6803F48033002B06D03949384B1A689F
:103C3000BB6913430B6006E03549354B1A68BB6915
:103C4000DB4313400B603B685B6803F40033002BDD
:103C500006D02F492E4B5A68BB6913434B6006E0D0
:103C60002B492B4B5A68BB69DB4313404B603B68C5
:103C70005B6803F48013002B06D02549244B9A6817
:103C8000BB6913438B6006E02149214B9A68BB69ED
:103C9000DB4313408B603B685B6803F40013002B2D
:103CA00006D01B491A4BDA68BB691343CB6006E0A8
:103CB0001749174BDA68BB69DB431340CB607B6A5B
:103CC00001337B623B681A687B6A22FA03F3002B9C
:103CD0007FF4D0AE00BF2C37BD4680BC704700BF1C
:103CE000000021100000111000001210000031101F
:103CF00000003210000022100010024000000140BD
:103D000000080140000C0140001001400014014077
:103D10000004014080B485B000AF78600B467B8022
:103D20007B689A687B881340002B02D00123FB73C9
:103D300001E00023FB73FB7B18461437BD4680BCB3
:103D4000704780B483B000AF78600B467B80134629
:103D50007B707B78002B03D07A887B681A6103E044
:103D60007B881A047B681A6100BF0C37BD4680BC93
:103D7000704780B485B000AF78600B467B807B686D
:103D8000DB68FB607A88FB6813401A04FB68D94340
:103D90007B880B401A437B681A6100BF1437BD460D
:103DA00080BC704790B585B000AF78607B68002B11
:103DB00001D101231FE17B6893F83D30DBB2002B7A
:103DC00006D17B68002283F83C207868FEF7A2FBCE
:103DD0007B68242283F83D207B681B687A68126820
:103DE000126822F001021A607B681B687A68126808
:103DF000126842F400421A607B681B687A68126895
:103E0000126822F400421A6001F00CFDF8607B6831
:103E10005B687B4A934207D8FB687A4A934294BF17
:103E200001230023DBB206E0FB68774A934294BF8C
:103E300001230023DBB2002B01D00123DBE0FB6870
:103E4000724AA2FB03239B0CBB607B681B687A68E9
:103E50001268526822F03F01BA680A435A607B68D0
:103E60001A687B681B681B6A23F03F017B685B68EC
:103E70006348834202D8BB68013309E0BB684FF452
:103E8000967000FB03F36248A0FB03039B09013318
:103E90000B4313627B6818687B681B68DB6923F43B
:103EA0004F4222F0FF027B685B6855498B420DD878
:103EB000FB68591E7B685B685B00B1FBF3F3013361
:103EC000C3F30B03042B38BF04234FE07B689B68CC
:103ED000002B11D1FB685C1E7B6859680B465B00A8
:103EE0000B44B4FBF3F30133C3F30B03002B0CBF00
:103EF00001230023DBB212E0FB685C1E7B6859687B
:103F00000B469B000B4499000B44B4FBF3F30133C5
:103F1000C3F30B03002B0CBF01230023DBB2002BE8
:103F200001D0012322E07B689B68002B0ED1FB6847
:103F30005C1E7B6859680B465B000B44B4FBF3F3D3
:103F40000133C3F30B0343F400430FE0FB685C1E33
:103F50007B6859680B469B000B4499000B44B4FBEB
:103F6000F3F30133C3F30B0343F440431343C3613F
:103F70007B681B687A681268126822F0C0017A6850
:103F8000D0697A68126A02430A431A607B681A6829
:103F90007B681B689B6823F4034323F0FF03796865
:103FA00008697968C96801430B4393607B681B68A3
:103FB0007A681268D26822F0FF017A6850697A68DC
:103FC000926902430A43DA607B681B687A68126868
:103FD000126842F001021A607B6800221A647B6852
:103FE000202283F83D207B6800221A637B68002230
:103FF00083F83E20002318461437BD4690BD00BF0D
:10400000A08601007F841E00FF083D0083DE1B4365
:10401000D34D621080B588B002AFF86008461146F3
:104020001A4603467B810B463B811346FB80FEF715
:10403000B7FC7861FB6893F83D30DBB2202B40F091
:10404000D9807B690093192301226D49F86800F03B
:10405000E7FD0346002B01D00223CCE0FB6893F878
:104060003C30012B01D10223C5E0FB68012283F81B
:104070003C20FB681B681B6803F00103012B07D081
:10408000FB681B68FA681268126842F001021A6045
:10409000FB681B68FA681268126822F400621A60F2
:1040A000FB68212283F83D20FB68402283F83E20F4
:1040B000FB6800221A64FB683A6A5A62FB68BA8C91
:1040C0005A85FB685B8D9AB2FB681A85FB684D4A7E
:1040D000DA62F8883A8979897B690193BB6A00932F
:1040E0000346F86800F020FC0346002B52D0012361
:1040F00081E07A69B96AF86800F068FE0346002B2F
:104100000DD0FB681B6C042B07D1FB681B68FA6899
:104110001268126842F400721A6001236BE0FB68B7
:104120001B68FA68526A12781A61FB685B6A5A1C4B
:10413000FB685A62FB681B8D013B9AB2FB681A85CB
:10414000FB685B8D9BB2013B9AB2FB685A85FB68AA
:104150001B685B6903F00403042B1BD1FB681B8DF8
:10416000002B17D0FB681B68FA68526A12781A6134
:10417000FB685B6A5A1CFB685A62FB681B8D013B3B
:104180009AB2FB681A85FB685B8D9BB2013B9AB2C1
:10419000FB685A85FB681B8D002BAAD17A69B96A26
:1041A000F86800F054FE0346002B0DD0FB681B6C32
:1041B000042B07D1FB681B68FA681268126842F486
:1041C00000721A60012316E0FB681B68FA68126827
:1041D000126842F400721A60FB68202283F83D20C6
:1041E000FB68002283F83E20FB68002283F83C2015
:1041F000002300E0022318461837BD4680BD00BFEB
:10420000020010000000FFFF80B58CB002AFF86024
:10421000084611461A4603467B810B463B811346EE
:10422000FB8000233B62FEF7BBFB7862FB6893F8E0
:104230003D30DBB2202B40F03D827B6A0093192396
:1042400001228149F86800F0EBFC0346002B01D005
:10425000022330E2FB6893F83C30012B01D10223AA
:1042600029E2FB68012283F83C20FB681B681B687D
:1042700003F00103012B07D0FB681B68FA68126882
:10428000126842F001021A60FB681B68FA68126843
:10429000126822F400621A60FB68222283F83D2033
:1042A000FB68402283F83E20FB6800221A64FB680A
:1042B0003A6B5A62FB68BA8E5A85FB685B8D9AB27C
:1042C000FB681A85FB68614ADA62F8883A8979895D
:1042D0007B6A0193BB6B00930346F86800F0B8FB60
:1042E0000346002B01D00123E5E1FB681B8D002B69
:1042F00013D10023FB61FB681B685B69FB61FB68F2
:104300001B689B69FB61FB69FB681B68FA681268A4
:10431000126842F400721A60B9E1FB681B8D012B30
:104320001DD1FB681B68FA681268126822F480626B
:104330001A6072B60023BB61FB681B685B69BB61D6
:10434000FB681B689B69BB61BB69FB681B68FA68FB
:104350001268126842F400721A6062B697E1FB6854
:104360001B8D022B1DD1FB681B68FA68126812684E
:1043700042F400621A6072B600237B61FB681B681E
:104380005B697B61FB681B689B697B617B69FB6880
:104390001B68FA681268126822F480621A6062B6BA
:1043A00075E1FB681B68FA681268126842F4806263
:1043B0001A6000233B61FB681B685B693B61FB681B
:1043C0001B689B693B613B6961E1FB681B8D032BAB
:1043D00000F21A81FB681B8D012B23D17A6AB96B1D
:1043E000F86800F075FD0346002B01D0012362E15F
:1043F000FB685B6AFA6812681269D2B21A70FB68CD
:104400005B6A5A1CFB685A62FB681B8D013B9AB2BF
:10441000FB681A85FB685B8D9BB2013B9AB2FB6817
:104420005A8534E1FB681B8D022B50D17B6A0093C7
:10443000BB6B00220649F86800F0F2FB0346002B34
:1044400008D0012337E100BF020010000000FFFF89
:104450000400010072B6FB681B68FA6812681268F3
:1044600042F400721A60FB685B6AFA6812681269AB
:10447000D2B21A70FB685B6A5A1CFB685A62FB680E
:104480001B8D013B9AB2FB681A85FB685B8D9BB262
:10449000013B9AB2FB685A8562B6FB685B6AFA68B0
:1044A00012681269D2B21A70FB685B6A5A1CFB6808
:1044B0005A62FB681B8D013B9AB2FB681A85FB6848
:1044C0005B8D9BB2013B9AB2FB685A85DFE07B6A49
:1044D0000093BB6B00227A49F86800F0A1FB034609
:1044E000002B01D00123E6E0FB681B68FA68126824
:1044F000126822F480621A6072B6FB685B6AFA681E
:1045000012681269D2B21A70FB685B6A5A1CFB68A7
:104510005A62FB681B8D013B9AB2FB681A85FB68E7
:104520005B8D9BB2013B9AB2FB685A85654B1B6859
:10453000DB08654AA2FB03231A0A13469B001344B7
:10454000DA00D31A3B623B6A013B3B623B6A002BB9
:1045500017D1FB6800221A63FB68202283F83D20F4
:10456000FB68002283F83E20FB681B6C43F02002AE
:10457000FB681A6462B6FB68002283F83C200123C2
:1045800099E0FB681B685B6903F00403042BDAD134
:10459000FB681B68FA681268126842F400721A60BD
:1045A000FB685B6AFA6812681269D2B21A70FB681B
:1045B0005B6A5A1CFB685A62FB681B8D013B9AB20E
:1045C000FB681A85FB685B8D9BB2013B9AB2FB6866
:1045D0005A8562B6FB685B6AFA6812681269D2B2E1
:1045E0001A70FB685B6A5A1CFB685A62FB681B8D79
:1045F000013B9AB2FB681A85FB685B8D9BB2013B5D
:104600009AB2FB685A8542E07A6AB96BF86800F0A2
:104610005FFC0346002B01D001234CE0FB685B6A82
:10462000FA6812681269D2B21A70FB685B6A5A1C87
:10463000FB685A62FB681B8D013B9AB2FB681A85C6
:10464000FB685B8D9BB2013B9AB2FB685A85FB68A5
:104650001B685B6903F00403042B18D1FB685B6AD9
:10466000FA6812681269D2B21A70FB685B6A5A1C47
:10467000FB685A62FB681B8D013B9AB2FB681A8586
:10468000FB685B8D9BB2013B9AB2FB685A85FB6865
:104690001B8D002B7FF499AEFB68202283F83D2010
:1046A000FB68002283F83E20FB68002283F83C2050
:1046B000002300E0022318462837BD4680BD00BF16
:1046C000040001000000002089B5F81480B58AB00C
:1046D00002AFF8607A603B600B467B81FEF760F9C1
:1046E000F8610123BB61FB6893F83D30DBB2202BFE
:1046F00040F01081FB690093192301228849F86872
:1047000000F08EFA0346002B01D0022303E1FB6880
:1047100093F83C30012B01D10223FCE0FB6801221D
:1047200083F83C20FB681B681B6803F00103012B26
:1047300007D0FB681B68FA681268126842F0010231
:104740001A60FB681B68FA681268126822F400623B
:104750001A60FB68242283F83D20FB6800221A645B
:10476000FB68704ADA62FB681B68FA6812681268B4
:1047700042F480721A60FB6900933B6800224FF09C
:104780000111F86800F04CFA0346002B0DD0FB68CD
:104790001B681B6803F48073B3F5807F03D1FB684B
:1047A0004FF400721A640323B5E0FB681B687A8932
:1047B000D2B202F0FE021A61FEF7F2F8F861FB686D
:1047C0001B685B6903F00203022B0CBF012300236B
:1047D000DBB2FB75FB681B685B6903F48063B3F5B0
:1047E000806F0CBF01230023DBB2BB7525E0FEF711
:1047F000D7F80246FB69D21A3B689A4202D83B6856
:10480000002B03D1FB68A02283F83D20FB681B68C6
:104810005B6903F00203022B0CBF01230023DBB210
:10482000FB75FB681B685B6903F48063B3F5806FFD
:104830000CBF01230023DBB2BB75FB6893F83D304E
:10484000DBB2A02B05D0FB7D002B02D1BB7D002B62
:10485000CDD0FB68202283F83D20FB681B685B6994
:1048600003F00203022B29D1FB681B68FA68126867
:10487000126842F400721A6000233B61FB681B68F7
:104880005B693B61FB681B689B693B613B69FB693A
:104890000093192301222249F86800F0C1F9034668
:1048A000002B01D0012336E0FB68202283F83D2055
:1048B000FB68002283F83C2000232CE0FB681B6887
:1048C000FA681268126842F400721A60FB681B688A
:1048D0006FF480625A61FB69009319230122104929
:1048E000F86800F09DF90346002B01D0012312E087
:1048F000BB690133BB61BA697B689A42FFF433AF8D
:10490000FB68202283F83D20FB68002283F83C20CE
:10491000012300E0022318462037BD4680BD00BFBA
:10492000020010000000FFFF80B588B002AFF86001
:10493000084611461A4603467B810B463B811346C7
:10494000FB80FB681B68FA681268126842F4807288
:104950001A607B6A00933B6A00224FF00111F868ED
:1049600000F05EF90346002B0DD0FB681B681B6846
:1049700003F48073B3F5807F03D1FB684FF40072BA
:104980001A6403235EE0FB681B687A89D2B202F0E6
:10499000FE021A617B6A3A6A2C49F86800F097F9BE
:1049A0000346002B01D001234CE000237B61FB6810
:1049B0001B685B697B61FB681B689B697B617B692A
:1049C0007A6A396AF86800F001FA0346002B0DD0C4
:1049D000FB681B6C042B07D1FB681B68FA68126824
:1049E000126842F400721A6001232BE0FB88012B4D
:1049F00005D1FB681B683A89D2B21A6121E0FB68D5
:104A00001B683A89120A92B2D2B21A617A6A396A7A
:104A1000F86800F0DBF90346002B0DD0FB681B6C37
:104A2000042B07D1FB681B68FA681268126842F40D
:104A300000721A60012305E0FB681B683A89D2B254
:104A40001A61002318461837BD4680BD02000100D8
:104A500080B588B002AFF860084611461A46034692
:104A60007B810B463B811346FB80FB681B68FA6821
:104A70001268126842F480621A60FB681B68FA6868
:104A80001268126842F480721A607B6A00933B6A73
:104A900000224FF00111F86800F0C2F80346002B25
:104AA0000DD0FB681B681B6803F48073B3F5807F2F
:104AB00003D1FB684FF400721A640323A9E0FB687A
:104AC0001B687A89D2B202F0FE021A617B6A3A6AE6
:104AD0005249F86800F0FBF80346002B01D001238F
:104AE00097E000237B61FB681B685B697B61FB6867
:104AF0001B689B697B617B697A6A396AF86800F098
:104B000065F90346002B0DD0FB681B6C042B07D105
:104B1000FB681B68FA681268126842F400721A6037
:104B2000012376E0FB88012B05D1FB681B683A89DD
:104B3000D2B21A6121E0FB681B683A89120A92B26C
:104B4000D2B21A617A6A396AF86800F03FF903460E
:104B5000002B0DD0FB681B6C042B07D1FB681B6876
:104B6000FA681268126842F400721A60012350E079
:104B7000FB681B683A89D2B21A617A6A396AF868A6
:104B800000F024F90346002B0DD0FB681B6C042BAE
:104B900007D1FB681B68FA681268126842F4007259
:104BA0001A60012335E0FB681B68FA681268126816
:104BB00042F480721A607B6A00933B6A00224FF0D5
:104BC0000111F86800F02CF80346002B0DD0FB68AB
:104BD0001B681B6803F48073B3F5807F03D1FB6807
:104BE0004FF400721A64032313E0FB681B687A8990
:104BF000D2B242F00102D2B21A617B6A3A6A074924
:104C0000F86800F064F80346002B01D0012300E0AF
:104C1000002318461837BD4680BD00BF02000100C2
:104C200080B584B000AFF860B9603B601346FB719B
:104C300025E03B68B3F1FF3F21D0FDF7B1FE02460E
:104C4000BB69D21A3B689A4202D83B68002B16D146
:104C5000FB6800221A63FB68202283F83D20FB6872
:104C6000002283F83E20FB681B6C43F02002FB68A7
:104C70001A64FB68002283F83C20012323E0BB6810
:104C80001B0CDBB2012B0DD1FB681B685B69DA439F
:104C9000BB6813409BB2002B0CBF01230023DBB287
:104CA0001A460CE0FB681B689B69DA43BB6813403B
:104CB0009BB2002B0CBF01230023DBB21A46FB7909
:104CC0009A42B6D0002318461037BD4680BD80B545
:104CD00084B000AFF860B9607A603B6051E0FB6877
:104CE0001B685B6903F48063B3F5806F23D1FB68B5
:104CF0001B68FA681268126842F400721A60FB6856
:104D00001B686FF480625A61FB6800221A63FB68BB
:104D1000202283F83D20FB68002283F83E20FB68B8
:104D20001B6C43F00402FB681A64FB68002283F8E2
:104D30003C20012346E07B68B3F1FF3F21D0FDF723
:104D40002FFE02463B68D21A7B689A4202D87B68E3
:104D5000002B16D1FB6800221A63FB68202283F81F
:104D60003D20FB68002283F83E20FB681B6C43F06B
:104D70002002FB681A64FB68002283F83C200123B0
:104D800020E0BB681B0CDBB2012B0CD1FB681B685D
:104D90005B69DA43BB6813409BB2002B14BF01234D
:104DA0000023DBB20BE0FB681B689B69DA43BB683E
:104DB00013409BB2002B14BF01230023DBB2002B56
:104DC0008DD1002318461037BD4680BD80B584B014
:104DD00000AFF860B9607A602DE0F86800F0CEF8B6
:104DE0000346002B01D001232DE0BB68B3F1FF3F48
:104DF00021D0FDF7D5FD02467B68D21ABB689A42E6
:104E000002D8BB68002B16D1FB6800221A63FB682E
:104E1000202283F83D20FB68002283F83E20FB68B7
:104E20001B6C43F02002FB681A64FB68002283F8C5
:104E30003C20012307E0FB681B685B6903F08003EB
:104E4000802BCAD1002318461037BD4680BD80B5DF
:104E500084B000AFF860B9607A602DE0F86800F0C7
:104E60008DF80346002B01D001232DE0BB68B3F180
:104E7000FF3F21D0FDF794FD02467B68D21ABB6844
:104E80009A4202D8BB68002B16D1FB6800221A6335
:104E9000FB68202283F83D20FB68002283F83E2037
:104EA000FB681B6C43F02002FB681A64FB6800225D
:104EB00083F83C20012307E0FB681B685B6903F073
:104EC0000403042BCAD1002318461037BD4680BD09
:104ED00080B584B000AFF860B9607A6042E0FB68EA
:104EE0001B685B6903F01003102B19D1FB681B686A
:104EF0006FF010025A61FB6800221A63FB682022DF
:104F000083F83D20FB68002283F83E20FB681A6C82
:104F1000FB681A64FB68002283F83C20012329E027
:104F2000FDF73EFD02467B68D21ABB689A4202D862
:104F3000BB68002B16D1FB6800221A63FB68202295
:104F400083F83D20FB68002283F83E20FB681B6C41
:104F500043F02002FB681A64FB68002283F83C20BF
:104F6000012307E0FB681B685B6903F04003402BEB
:104F7000B5D1002318461037BD4680BD80B483B03C
:104F800000AF78607B681B685B6903F48063B3F5EE
:104F9000806F1BD17B681B686FF480625A617B68ED
:104FA00000221A637B68202283F83D207B68002260
:104FB00083F83E207B681B6C43F004027B681A6414
:104FC0007B68002283F83C20012300E00023184680
:104FD0000C37BD4680BC704780B485B000AF7860A8
:104FE0007B68FB60FB6893FAA3F3BB60BB68B3FA12
:104FF00083F3DBB21A46054B13449B001A46012388
:10500000136000BF1437BD4680BC704720808310FA
:1050100080B485B000AF78607B68FB60FB6893FA72
:10502000A3F3BB60BB68B3FA83F3DBB21A46054B4C
:1050300013449B001A460023136000BF1437BD467B
:1050400080BC70472080831080B400AF084A084BB2
:105050001B6843F002031360064A064B1B6943F0CA
:105060000403136130BF00BFBD4680BC704700BF62
:105070000070004000ED00E080B586B000AF7860C1
:105080007B68002B01D101236CE27B681B6803F075
:105090000103002B00F08780924B5B6803F00C0348
:1050A000042B0CD08F4B5B6803F00C03082B12D140
:1050B0008C4B5B6803F48033B3F5803F0BD1894B95
:1050C0001B6803F40033002B6CD07B685B68002BFB
:1050D00068D1012346E27B685B68B3F5803F06D167
:1050E000804A804B1B6843F4803313602EE07B685A
:1050F0005B68002B0CD17B4A7A4B1B6823F480330E
:105100001360784A774B1B6823F4802313601DE0FB
:105110007B685B68B3F5A02F0CD1724A714B1B689A
:1051200043F4802313606F4A6E4B1B6843F4803353
:1051300013600BE06B4A6B4B1B6823F480331360E6
:10514000684A684B1B6823F4802313607B685B68A4
:10515000002B13D0FDF724FC386108E0FDF720FC9C
:1051600002463B69D31A642B01D90323FAE15D4B54
:105170001B6803F40033002BF0D014E0FDF710FCA3
:10518000386108E0FDF70CFC02463B69D31A642B3A
:1051900001D90323E6E1534B1B6803F40033002BD2
:1051A000F0D100E000BF7B681B6803F00203002B16
:1051B00063D04C4B5B6803F00C03002B0BD0494BC6
:1051C0005B6803F00C03082B1CD1464B5B6803F4AF
:1051D0008033002B16D1434B1B6803F00203002BD6
:1051E00005D07B681B69012B01D00123BAE13D4941
:1051F0003C4B1B6823F0F8027B685B69DB001343C0
:105200000B603AE07B681B69002B20D0364B0122F3
:105210001A60FDF7C5FB386108E0FDF7C1FB0246E7
:105220003B69D31A022B01D903239BE12D4B1B6849
:1052300003F00203002BF0D02A492A4B1B6823F00D
:10524000F8027B685B69DB0013430B6015E0264BBB
:1052500000221A60FDF7A4FB386108E0FDF7A0FB0F
:1052600002463B69D31A022B01D903237AE11D4B75
:105270001B6803F00203002BF0D17B681B6803F06E
:105280000803002B3AD07B689B69002B19D0174B81
:1052900001221A60FDF784FB386108E0FDF780FB0E
:1052A00002463B69D31A022B01D903235AE10D4B65
:1052B0005B6A03F00203002BF0D0012000F0DAFA61
:1052C0001CE00A4B00221A60FDF76AFB38610FE010
:1052D000FDF766FB02463B69D31A022B08D903236C
:1052E00040E100BF00100240000042428004424200
:1052F0009E4B5B6A03F00203002BE9D17B681B68BD
:1053000003F00403002B00F0A6800023FB75974BED
:10531000DB6903F08053002B0DD1944A934BDB697A
:1053200043F08053D361914BDB6903F08053BB6042
:10533000BB680123FB758E4B1B6803F48073002B45
:1053400018D18B4A8A4B1B6843F480731360FDF7B6
:1053500027FB386108E0FDF723FB02463B69D31ABF
:10536000642B01D90323FDE0814B1B6803F4807398
:10537000002BF0D07B68DB68012B06D17B4A7B4B8E
:105380001B6A43F0010313622DE07B68DB68002B8E
:105390000CD1764A754B1B6A23F001031362734AE2
:1053A000724B1B6A23F0040313621CE07B68DB680A
:1053B000052B0CD16D4A6D4B1B6A43F0040313623D
:1053C0006A4A6A4B1B6A43F0010313620BE0674AA7
:1053D000664B1B6A23F001031362644A634B1B6A2A
:1053E00023F0040313627B68DB68002B15D0FDF704
:1053F000D7FA38610AE0FDF7D3FA02463B69D31ABF
:1054000041F28832934201D90323ABE0574B1B6A28
:1054100003F00203002BEED014E0FDF7C1FA38616F
:105420000AE0FDF7BDFA02463B69D31A41F2883221
:10543000934201D9032395E04C4B1B6A03F002030E
:10544000002BEED1FB7D012B05D1484A474BDB6990
:1054500023F08053D3617B68DB69002B00F08180EF
:10546000424B5B6803F00C03082B61D07B68DB695F
:10547000022B46D13F4B00221A60FDF791FA3861AA
:1054800008E0FDF78DFA02463B69D31A022B01D9D9
:10549000032367E0354B1B6803F00073002BF0D14A
:1054A0007B681B6AB3F5803F08D130492F4B5B689E
:1054B00023F400327B689B6813434B602B482B4BD3
:1054C0005B6823F474127B68196A7B685B6A0B4320
:1054D00013434360274B01221A60FDF761FA3861DC
:1054E00008E0FDF75DFA02463B69D31A022B01D9A9
:1054F000032337E01D4B1B6803F00073002BF0D033
:105500002FE01C4B00221A60FDF74AFA386108E0D0
:10551000FDF746FA02463B69D31A022B01D9032351
:1055200020E0124B1B6803F00073002BF0D118E051
:105530007B68DB69012B01D1012313E00B4B5B6816
:10554000FB60FB6803F480327B681B6A9A4206D1D9
:10555000FB6803F470127B685B6A9A4201D00123F6
:1055600000E0002318461837BD4680BD00100240F9
:10557000007000406000424280B584B000AF7860A7
:1055800039607B68002B01D10123D0E06A4B1B6896
:1055900003F007023B689A4210D26749664B1B68CA
:1055A00023F007023B6813430B60634B1B6803F057
:1055B00007023B689A4201D00123B8E07B681B6870
:1055C00003F00203002B20D07B681B6803F0040368
:1055D000002B05D0594A594B5B6843F4E063536094
:1055E0007B681B6803F00803002B05D0534A534B1C
:1055F0005B6843F4605353605049504B5B6823F041
:10560000F0027B689B6813434B607B681B6803F068
:105610000103002B40D07B685B68012B07D1474B0F
:105620001B6803F40033002B15D101237FE07B6856
:105630005B68022B07D1414B1B6803F00073002B02
:1056400009D1012373E03D4B1B6803F00203002BDB
:1056500001D101236BE03949384B5B6823F0030229
:105660007B685B6813434B60FDF79AF9F8600AE0CA
:10567000FDF796F90246FB68D31A41F2883293424D
:1056800001D9032353E02D4B5B6803F00C027B68C8
:105690005B689B009A42EBD1274B1B6803F0070223
:1056A0003B689A4210D92449234B1B6823F0070218
:1056B0003B6813430B60204B1B6803F007023B68F9
:1056C0009A4201D0012332E07B681B6803F0040397
:1056D000002B08D01949194B5B6823F4E0627B6802
:1056E000DB6813434B607B681B6803F00803002BE7
:1056F00009D01249114B5B6823F460527B681B6927
:10570000DB0013434B6000F021F801460B4B5B6854
:105710001B0903F00F030A4AD35C21FA03F3094A79
:105720001360094B1B681846FDF7F8F8002318466C
:105730001037BD4680BD00BF00200240001002406F
:1057400090950008000000200400002090B48AB06A
:1057500000AF2A4B3C1D0FCB84E80F00284B1B8861
:105760003B800023FB610023BB6100237B6200239D
:105770007B6100233B62234B5B68FB61FB6903F0A9
:105780000C03042B02D0082B03D02DE01E4B3B62F0
:105790002DE0FB699B0C03F00F0307F12802134473
:1057A00013F8243C7B61FB6903F48033002B13D096
:1057B000144B5B685B0C03F0010307F128021344F0
:1057C00013F8283CBB617B690F4A02FB03F2BB69FB
:1057D000B2FBF3F37B6204E07B690C4A02FB03F348
:1057E0007B627B6A3B6202E0074B3B6200BF3B6A25
:1057F00018462837BD4690BC704700BF6895000822
:10580000789500080010024000127A0000093D005F
:1058100080B400AF024B1B681846BD4680BC704781
:105820000000002080B500AFFFF7F2FF0146054BF6
:105830005B681B0A03F00703034AD35C21FA03F3F6
:10584000184680BD00100240A095000880B500AF4A
:10585000FFF7DEFF0146054B5B68DB0A03F0070339
:10586000034AD35C21FA03F3184680BD00100240BE
:10587000A095000880B485B000AF78600A4B1B6823
:105880000A4AA2FB03235B0A7A6802FB03F3FB606C
:1058900000BFFB685A1EFA60002BF9D100BF143715
:1058A000BD4680BC704700BF00000020D34D621091
:1058B00080B586B000AF786000233B610023FB60B9
:1058C0007B681B6803F00103002B7DD00023FB7570
:1058D0004F4BDB6903F08053002B0DD14C4A4C4BEE
:1058E000DB6943F08053D361494BDB6903F080539C
:1058F000BB60BB680123FB75464B1B6803F48073D8
:10590000002B18D1434A434B1B6843F48073136048
:10591000FDF746F8386108E0FDF742F802463B69BA
:10592000D31A642B01D903236DE03A4B1B6803F4AF
:105930008073002BF0D0364B1B6A03F44073FB607E
:10594000FB68002B2ED07B685B6803F44072FB6819
:105950009A4227D02E4B1B6A23F44073FB602E4BD8
:1059600001221A602C4B00221A60294AFB6813623C
:10597000FB6803F00103002B14D0FDF711F8386128
:105980000AE0FDF70DF802463B69D31A41F288326E
:10599000934201D9032336E01D4B1B6A03F0020337
:1059A000002BEED01A491A4B1B6A23F440727B6815
:1059B0005B6813430B62FB7D012B05D1144A144B2A
:1059C000DB6923F08053D3617B681B6803F002031B
:1059D000002B08D00E490E4B5B6823F440427B68D5
:1059E0009B6813434B607B681B6803F01003002B1C
:1059F00008D00749064B5B6823F480027B68DB68AC
:105A000013434B60002318461837BD4680BD00BFC6
:105A100000100240007000404004424290B58DB03A
:105A200000AF7860554B07F10C040FCB84E80F00F2
:105A3000534B1B883B8100237B620023FB620023C6
:105A40003B620023FB610023BB627B68022B7FD09B
:105A5000102B02D0012B48D08BE04A4B5B68FB61D6
:105A6000484B1B6803F08073002B7FD0FB699B0CB5
:105A700003F00F0307F13002134413F8243C3B6298
:105A8000FB6903F48033002B18D03E4B5B685B0C42
:105A900003F0010307F13002134413F8283C7B6242
:105AA000FB6903F48033002B0DD0374A7B6AB2FBCD
:105AB000F3F33A6A02FB03F3FB6204E03B6A334A06
:105AC00002FB03F3FB622F4B5B6803F48003B3F527
:105AD000800F02D1FB6ABB6248E0FB6A5B002C4A84
