:020000040800F2
:100000000050002081130008A9110008AF1100085A
:10001000B5110008BB110008C11100080000000064
:10002000000000000000000000000000C7110008F0
:10003000D311000800000000DF110008EB110008D8
:10004000C9130008C9130008C9130008C913000820
:10005000C9130008FB110008C9130008C9130008E0
:10006000C9130008C9130008C913000809120008C1
:100070001D120008C9130008C9130008C91300089D
:10008000C9130008C9130008C9130008C9130008E0
:10009000C9130008C9130008C9130008C9130008D0
:1000A000C9130008C9130008C9130008C9130008C0
:1000B00031120008C9130008C9130008C913000849
:1000C000C9130008C9130008C9130008C9130008A0
:1000D000C913000845120008C91300085912000886
:1000E000C9130008C9130008C91300080000000064
:1000F0000000000000000000000000000000000000
:0C01000000000000000000005FF808F1A3
:10010C0010B5054C237833B9044B13B10448AFF345
:10011C0000800123237010BD70000020000000003F
:10012C009C52000808B5034B1BB103490348AFF3BD
:10013C00008008BD00000000740000209C520008E4
:10014C0080B500AF00F098FC01F092F90346104A1C
:10015C0013601E224FF6FF71042000F0DFFC00F04C
:10016C00ABF801F085F90246094B1B68D31AB3F5BD
:10017C007A7F04D301F07CF90346054A1360054BE2
:10018C001B68054A9342EAD1024802F0CDF9E6E732
:10019C00F8000020980300200030004080B582B0A9
:1001AC0000AF00224FF400512F4802F060F82F4BA3
:1001BC005B6803F00203022B05D12C4B1B682B4A06
:1001CC0043F00803136001F053F9786035E001F057
:1001DC004FF902467B68D31AB3F57A7F25D94FF4D1
:1001EC007A7000F0B7FC4FF4FA7001F04BF9012271
:1001FC004FF480411C4802F03AF801F039F978606C
:10020C0001224FF40051184802F031F8184804F05C
:10021C00EBFB184B01221A70174B1B68174A9342C1
:10022C0013D1154802F080F90FE0134B1B68134AE9
:10023C00934202D1104802F077F910210A4801F0DC
:10024C00FFFF0346012BC2D000E000BF094B1B7817
:10025C00002B05D14FF4967001F014F900F010F852
:10026C0000BF0837BD4680BD000C01400070004047
:10027C00B45200088C00002098030020003000408D
:10028C0080B500AF4FF4807002F07AF9084B1B6810
:10029C00074A43F0040313604FF4807002F054F9E2
:1002AC00044804F0A1FB02F087F900BF80BD00BF39
:1002BC0000700040C052000880B500AF10215548B6
:1002CC0001F0BEFF0346002B33D0534B1B68002BB1
:1002DC002FD14FF47A7000F03DFC504B1B68002B73
:1002EC002DD001F0C5F802464C4B1B68D31AB3F560
:1002FC00FA6F24D9002000F0CDFB002000F0DEFBCB
:10030C0005220A210A2000F009FC05220A210A20F4
:10031C0000F0E8FB424804F067FB01F0A9F8034643
:10032C003D4A136000224FF480413A4801F09FFF90
:10033C0005E001F09DF80346384A136000E000BF69
:10034C00354B1B68002B23D001F092F80246324B40
:10035C001B68D31A334A93421AD92F4B00221A60C6
:10036C004FF47A7000F0F6FB05220A21032000F00E
:10037C00D5FB00224FF40051264801F078FF2A48A3
:10038C0004F032FB40F6B83001F07CF8FFF778FF50
:10039C004FF400411F4801F053FF0346002B14D1CA
:1003AC0001F066F802461C4B1B68D31A1F4A934295
:1003BC000BD81F4804F018FB01F05AF80346A3F5BC
:1003CC00E033A3F59C73144A1360134B1B68002B8A
:1003DC001ED00F224FF6FF71032000F083FB1E226C
:1003EC004FF6FF71032000F099FB01F041F8024633
:1003FC00104B1B68D31A40F2DB52934208D901F020
:10040C0037F803460B4A13604FF4967000F0A2FBCA
:10041C0000BF80BD000C0140F0000020AC000020AB
:10042C00C8520008C0D40100E452000837C10100D2
:10043C00F0520008EC00002080B584B000AFF860EA
:10044C00B9607A607B689AB27B680133B9680448FA
:10045C0003F047FD7B6818461037BD4680BD00BFD2
:10046C001804002080B582B000AF78604FF40072A1
:10047C000349044803F0C7FD00BF0837BD4680BDE3
:10048C00000100201804002080B582B000AF786015
:10049C007868FFF7E7FF00BF0837BD4680BD000056
:1004AC0080B500AF00F08CFF00F01EF800F064FA8D
:1004BC0000F0E8F90A4804F097FAFFF76FFE00F035
:1004CC000BFA00F033FA00F06DF800F02BF900F0A5
:1004DC0057F9044802F0A8FDFFF732FEFEE700BF13
:1004EC0008530008A004002080B594B000AF07F1B9
:1004FC00280328220021184604F000FA07F11403FF
:10050C0000221A605A609A60DA601A613B1D002260
:10051C001A605A609A60DA600923BB624FF4803328
:10052C00FB6200233B630123BB6301233B64022377
:10053C007B644FF48033BB644FF4E013FB6407F12E
:10054C002803184602F050F80346002B01D000F0A7
:10055C008DFA0F237B610223BB610023FB614FF4F7
:10056C0080633B6200237B6207F11403022118466F
:10057C0002F0BAFA0346002B01D000F077FA0223FE
:10058C007B604FF40043FB603B1D184602F046FCB9
:10059C000346002B01D000F069FA00BF5037BD466E
:1005AC0080BD000080B584B000AF3B1D00221A60F6
:1005BC005A609A60594B5A4A1A60584B4FF48072E1
:1005CC009A60564B01221A73544B00221A75534BE6
:1005DC004FF46022DA61514B00225A604F4B0A22D1
:1005EC001A614E4800F072FF0346002B01D000F058
:1005FC003DFA10237B600123BB600723FB603B1D8E
:10060C001946464801F03AF80346002B01D000F099
:10061C002DFA01237B600223BB600023FB603B1D92
:10062C0019463E4801F02AF80346002B01D000F091
:10063C001DFA02237B600323BB603B1D1946374820
:10064C0001F01CF80346002B01D000F00FFA032335
:10065C007B600423BB603B1D1946304801F00EF84B
:10066C000346002B01D000F001FA04237B60052324
:10067C00BB603B1D1946294801F000F80346002BCE
:10068C0001D000F0F3F905237B600623BB603B1D12
:10069C001946224800F0F2FF0346002B01D000F06F
:1006AC00E5F906237B600723BB603B1D19461B48FD
:1006BC0000F0E4FF0346002B01D000F0D7F907232C
:1006CC007B600823BB603B1D1946144800F0D6FF25
:1006DC000346002B01D000F0C9F908237B600923E5
:1006EC00BB603B1D19460D4800F0C8FF0346002BAC
:1006FC0001D000F0BBF909237B600A23BB603B1DD2
:10070C001946064800F0BAFF0346002B01D000F052
:10071C00ADF900BF1037BD4680BD00BFE803002017
:10072C000024014080B500AF124B134A1A60114BE4
:10073C00124A5A600F4B00229A600E4B0022DA606C
:10074C000C4B4FF480421A610A4B00225A61094B40
:10075C0000229A61074B0022DA61064B00221A62D2
:10076C00044801F09DFD0346002B01D000F07EF9FA
:10077C0000BF80BD4403002000540040801A0600D6
:10078C0080B58EB000AF07F1280300221A605A60C2
:10079C009A60DA6007F1200300221A605A603B1D50
:1007AC0000221A605A609A60DA601A615A619A6182
:1007BC00334B4FF080421A60314B40F219225A6091
:1007CC002F4B00229A602E4B4FF48072DA602C4B28
:1007DC0000221A612A4B00229A61294802F0D4FBAC
:1007EC000346002B01D000F041F94FF48053BB625B
:1007FC0007F128031946224802F020FF0346002B7C
:10080C0001D000F033F91E4802F058FC0346002BCF
:10081C0001D000F02BF900233B6200237B6207F12F
:10082C0020031946164803F09FFA0346002B01D00B
:10083C0000F01CF960237B600023BB600023FB608D
:10084C0000237B613B1D002219460D4802F038FE47
:10085C000346002B01D000F009F93B1D0422194678
:10086C00074802F02DFE0346002B01D000F0FEF8E5
:10087C00034800F071FB00BF3837BD4680BD00BF98
:10088C00A004002080B500AF114B124A1A60104B27
:10089C004FF4E1325A600E4B00229A600C4B00224E
:1008AC00DA600B4B00221A61094B0C225A61084B7F
:1008BC0000229A61064B0022DA61054803F0C4FA63
:1008CC000346002B01D000F0D1F800BF80BD00BF63
:1008DC00180400200038014080B500AF114B124ABB
:1008EC001A60104B4FF4E1325A600E4B00229A60A2
:1008FC000C4B0022DA600B4B00221A61094B0C22C4
:10090C005A61084B00229A61064B0022DA610548B5
:10091C0003F09AFA0346002B01D000F0A7F800BFB1
:10092C0080BD00BF000300200048004080B582B0AD
:10093C0000AF104B5B690F4A43F0010353610D4B41
:10094C005B6903F001037B607B68002200210B20B4
:10095C0001F0A5F80B2001F0BEF8002200210C20BC
:10096C0001F09DF80C2001F0B6F800BF0837BD4629
:10097C0080BD00BF0010024080B588B000AF07F109
:10098C00100300221A605A609A60DA60344B9B693B
:10099C00334A43F020039361314B9B6903F02003EE
:1009AC00FB60FB682E4B9B692D4A43F0040393615B
:1009BC002B4B9B6903F00403BB60BB68284B9B6902
:1009CC00274A43F008039361254B9B6903F0080306
:1009DC007B607B68002246F20421224801F047FC30
:1009EC0000224FF4C851204801F041FC46F2042388
:1009FC003B6101237B610023BB610223FB6107F197
:100A0C0010031946174801F097FA49F230033B617D
:100A1C0000237B610023BB6107F1100319461148C9
:100A2C0001F08AFA4FF4C8533B6101237B61002328
:100A3C00BB610223FB6107F1100319460A4801F060
:100A4C007BFA4FF480733B6103237B6107F1100346
:100A5C001946044801F070FA00BF2037BD4680BD2E
:100A6C0000100240000C01400008014080B400AFAF
:100A7C0072B600BFFEE7000080B500AF002104484D
:100A8C0002F074FB0421024802F070FB00BF80BD31
:100A9C00A004002080B483B000AF0346FB71FB7947
:100AAC00044AD25C044B1B689A6300BF0C37BD46EA
:100ABC0080BC70472C530008A004002080B483B085
:100ACC0000AF0346FB71FB79044AD25C044B1B68F4
:100ADC005A6300BF0C37BD4680BC70472C530008CE
:100AEC00A004002080B483B000AF0346FB800B460B
:100AFC00BB8013467B80074AFB881380BA887B88AF
:100B0C001B0413431A46044B1A6000BF0C37BD4636
:100B1C0080BC7047F0040020EC04002080B483B04B
:100B2C0000AF0346FB800B46BB8013467B80074A15
:100B3C00FB881380BA887B881B0413431A46044B2A
:100B4C001A6000BF0C37BD4680BC7047F204002011
:100B5C00F404002080B582B000AF7860064A7B6850
:100B6C00136001224FF48071044801F080FB00BF38
:100B7C000837BD4680BD00BFE804002000080140D6
:100B8C0080B500AF5C4B1B68002B0CD05A4B1B681C
:100B9C00013B594A1360002B05D100224FF48071A0
:100BAC00564801F064FB564B1B88002B44D0554B28
:100BBC001B680133534A1360524B1B68504A12880E
:100BCC00934239D34F4B00221A604F4B1B680133B1
:100BDC004D4A13604C4B1A684C4B1B681B0C403332
:100BEC009A420FD3484B00221A60484B1B68013BBA
:100BFC00464A1360454B1B689BB2002B02D1404BFD
:100C0C0000221A80404B1B683F2B03D90020FFF7B2
:100C1C0041FF1BE03C4B1B681F2B06D93A4B1B6852
:100C2C00DBB2C3F13F03DBB202E0374B1B68DBB234
:100C3C001846FFF72FFF09E0314B1B88002B05D11D
:100C4C00304B00221A60304B00221A60304B1B884C
:100C5C00002B44D02F4B1B6801332E4A13602D4BB5
:100C6C001B682B4A1288934239D32A4B00221A60F4
:100C7C00294B1B680133284A1360274B1A68274BF2
:100C8C001B681B0C40339A420FD3234B00221A6073
:100C9C00224B1B68013B214A1360204B1B689BB203
:100CAC00002B02D11A4B00221A801B4B1B683F2BC6
:100CBC0003D90020FFF702FF1CE0174B1B681F2B0A
:100CCC0006D9154B1B68DBB2C3F13F03DBB202E064
:100CDC00114B1B68DBB21846FFF7F0FE0AE00C4B19
:100CEC001B88002B06D10B4B00221A600A4B0022EA
:100CFC001A60FFE700BF80BDE80400200008014037
:100D0C00F00400209000002094000020EC0400204F
:100D1C00F2040020980000209C000020F404002025
:100D2C0080B584B000AF194B9B69184A43F001039E
:100D3C009361164B9B6903F00103BB60BB68134BBB
:100D4C00DB69124A43F08053D361104BDB6903F02B
:100D5C0080537B607B6800220021052000F09FFE01
:100D6C00052000F0B8FE0A4B5B68FB60FB6823F0C3
:100D7C00E063FB60FB6843F00073FB60044AFB68B4
:100D8C00536000BF1037BD4680BD00BF001002404D
:100D9C000000014080B58AB000AF786007F11803FD
:100DAC0000221A605A609A60DA607B681B68334ACA
:100DBC0093425FD1324B9B69314A43F40073936188
:100DCC002F4B9B6903F400737B617B692C4B9B69F4
:100DDC002B4A43F004039361294B9B6903F00403F2
:100DEC003B613B69264B9B69254A43F008039361A1
:100DFC00234B9B6903F00803FB60FB68FE23BB617C
:100E0C000323FB6107F1180319461E4801F094F8FF
:100E1C000323BB610323FB6107F1180319461A482E
:100E2C0001F08AF8194B1A4A1A60184B00225A60C2
:100E3C00164B00229A60154B8022DA60134B4FF44C
:100E4C0000721A61114B4FF400625A610F4B202251
:100E5C009A610E4B0022DA610C4800F05DFE0346ED
:100E6C00002B01D0FFF702FE7B68084A1A62074A82
:100E7C007B68536200BF2837BD4680BD002401400B
:100E8C000010024000080140000C01405C040020EE
:100E9C000800024080B588B000AF786007F11003FD
:100EAC0000221A605A609A60DA607B681B68154AE7
:100EBC00934223D1144B9B69134A43F0080393616B
:100ECC00114B9B6903F00803FB60FB68C0233B617B
:100EDC0012237B610323FB6107F1100319460B48B6
:100EEC0001F02AF8084BDB69074A43F40013D3617D
:100EFC00054BDB6903F40013BB60BB6800BF2037F4
:100F0C00BD4680BD0054004000100240000C014062
:100F1C0080B584B000AF78607B681B68B3F1804FFC
:100F2C0013D10C4BDB690B4A43F00103D361094B22
:100F3C00DB6903F00103FB60FB68002200211C202D
:100F4C0000F0ADFD1C2000F0C6FD00BF1037BD4603
:100F5C0080BD00BF0010024080B58AB000AF786041
:100F6C0007F1140300221A605A609A60DA607B68F9
:100F7C001B68B3F1804F42D1234B9B69224A43F04B
:100F8C0004039361204B9B6903F004033B613B69B1
:100F9C001D4B9B691C4A43F0080393611A4B9B69D8
:100FAC0003F00803FB60FB684FF400437B610223F2
:100FBC00BB6102233B6207F114031946134800F08E
:100FCC00BBFF08237B610223BB6102233B6207F159
:100FDC00140319460E4800F0AFFF0E4B5B687B62A2
:100FEC007B6A23F440737B627B6A43F0E0637B6231
:100FFC007B6A43F480737B62064A7B6A536000BF52
:10100C002837BD4680BD00BF0010024000080140DB
:10101C00000C01400000014080B58AB000AF786040
:10102C0007F1180300221A605A609A60DA607B6834
:10103C001B68534A93423AD1524B9B69514A43F431
:10104C00804393614F4B9B6903F480437B617B69C5
:10105C004C4B9B694B4A43F004039361494B9B698E
:10106C0003F004033B613B694FF40073BB61022343
:10107C00FB6103237B6207F118031946424800F019
:10108C005BFF4FF48063BB610023FB6100233B6279
:10109C0007F1180319463C4800F04EFF00220021CE
:1010AC00252000F0FCFC252000F015FD64E07B6899
:1010BC001B68364A93425FD1324BDB69314A43F4A9
:1010CC008023D3612F4BDB6903F48023FB60FB6827
:1010DC002C4B9B692B4A43F008039361294B9B696A
:1010EC0003F00803BB60BB684FF48063BB61022351
:1010FC00FB6103237B6207F118031946244800F0B7
:10110C001BFF4FF40063BB610023FB6100233B62B8
:10111C0007F1180319461E4800F00EFF1D4B1E4A1E
:10112C001A601C4B10225A601A4B00229A60194B01
:10113C008022DA60174B00221A61164B00225A618A
:10114C00144B00229A61134B0022DA61114800F013
:10115C00E3FC0346002B01D0FFF788FC7B680D4AAB
:10116C005A630C4A7B68536200220021272000F04E
:10117C0096FC272000F0AFFC00BF2837BD4680BD91
:10118C0000380140001002400008014000480040B7
:10119C00000C0140A40300201C00024080B400AFEE
:1011AC00FEE780B400AFFEE780B400AFFEE780B48A
:1011BC0000AFFEE780B400AFFEE780B400AF00BF25
:1011CC00BD4680BC704780B400AF00BFBD4680BC3C
:1011DC00704780B400AF00BFBD4680BC704780B57F
:1011EC0000AF00F033F900F090FC00BF80BD80B47C
:1011FC0000AF00BFBD4680BC7047000080B500AF9B
:10120C00024800F093FD00BF80BD00BF5C040020CD
:10121C0080B500AF024800F089FD00BF80BD00BF63
:10122C00A403002080B500AF024802F041F800BFD3
:10123C0080BD00BFA004002080B500AF024802F0C2
:10124C0013FF00BF80BD00BF1804002080B500AFA5
:10125C00024802F009FF00BF80BD00BF0003002060
:10126C0080B586B000AFF860B9607A6000237B610E
:10127C000AE0AFF300800146BB685A1CBA60CAB2E0
:10128C001A707B6901337B617A697B689A42F0DB67
:10129C007B6818461837BD4680BD80B483B000AF5C
:1012AC0078604FF0FF3318460C37BD4680BC704752
:1012BC0080B483B000AF786039603B684FF4005263
:1012CC005A60002318460C37BD4680BC704780B46A
:1012DC0083B000AF7860012318460C37BD4680BC44
:1012EC00704780B485B000AFF860B9607A600023B5
:1012FC0018461437BD4680BC7047000080B586B0D8
:10130C0000AF7860144A154BD31A7B617B693B6143
:10131C00134B1B68002B02D1114B124A1A60104B55
:10132C001A687B6813443A699A4207D203F0BCFAF4
:10133C0003460C221A604FF0FF3309E0084B1B6880
:10134C00FB60074B1A687B681344054A1360FB6803
:10135C0018461837BD4680BD005000200004000020
:10136C00A00000201005002080B400AF00BFBD46D7
:10137C0080BC70470C480D490D4A002302E0D4583C
:10138C00C4500433C4188C42F9D30A4A0A4C0023C3
:10139C0001E013600432A242FBD3FFF7E5FF03F038
:1013AC0089FAFFF77DF870470000002070000020DC
:1013BC00D0530008700000200C050020FEE7000050
:1013CC0080B500AF084B1B68074A43F0100313604D
:1013DC00032000F059FB002000F008F8FFF7A0FCF8
:1013EC000023184680BD00BF0020024080B582B0AB
:1013FC0000AF7860124B1A68124B1B7819464FF4E9
:10140C007A73B3FBF1F3B2FBF3F3184600F071FB04
:10141C000346002B01D001230EE07B680F2B0AD86A
:10142C00002279684FF0FF3000F039FB064A7B68E8
:10143C001360002300E0012318460837BD4680BD29
:10144C0000000020080000200400002080B400AF41
:10145C00054B1B781A46054B1B681344034A136053
:10146C0000BFBD4680BC704708000020F804002077
:10147C0080B400AF024B1B681846BD4680BC704759
:10148C00F804002080B584B000AF7860FFF7F0FF5F
:10149C00B8607B68FB60FB68B3F1FF3F05D00A4B7B
:1014AC001B781A46FB681344FB6000BFFFF7E0FF94
:1014BC000246BB68D31AFA689A42F7D800BF00BF3D
:1014CC001037BD4680BD00BF0800002080B586B037
:1014DC0000AF78600023FB7500233B610023BB60E9
:1014EC000023FB607B68002B01D10123BEE07B68ED
:1014FC009B68002B7B689B6A002B09D17B680022C0
:10150C00DA627B68002283F824207868FFF742FCBB
:10151C00786800F0ABF90346FB757B689B6A03F0B7
:10152C001003002B40F09980FB7D002B40F0958040
:10153C007B689B6A23F4885323F0020343F0020276
:10154C007B689A627B685A687B68DB691A437B68A4
:10155C001B7B5B001343BA681343BB607B689B68BF
:10156C00B3F5807F03D07B689B68012B02D14FF4CD
:10157C00807300E000233A6913433B617B681B7D59
:10158C00012B19D17B681B7B002B09D17B689B69D4
:10159C00013B5A033B69134343F400633B610BE08B
:1015AC007B689B6A43F020027B689A627B68DB6AEB
:1015BC0043F001027B68DA627B681B685B6823F48A
:1015CC0069417B681B683A690A435A607B681B68EF
:1015DC009A68284B13407A681268B9680B43936079
:1015EC007B689B68B3F5807F03D07B689B68012B7D
:1015FC0004D17B681B69013B1B05FB607B681B6886
:10160C00DB6A23F470017B681B68FA680A43DA62B0
:10161C007B681B689A68184B1340BA689A420BD1C6
:10162C007B680022DA627B689B6A23F0030343F039
:10163C0001027B689A6218E07B689B6A23F01203B4
:10164C0043F010027B689A627B68DB6A43F001020C
:10165C007B68DA620123FB7507E07B689B6A43F0C9
:10166C0010027B689A620123FB75FB7D18461837C4
:10167C00BD4680BDFDF7E1FFFE0E1FFF80B485B0B7
:10168C0000AF786039600023FB730023BB607B687C
:10169C0093F82430012B01D10223DCE07B6801227A
:1016AC0083F824203B685B68062B1CD87B681B687E
:1016BC00596B3B685A6813469B001344053B1F2229
:1016CC0002FA03F3DB4319403B6818683B685A681D
:1016DC0013469B001344053B00FA03F27B681B681E
:1016EC000A435A633CE03B685B680C2B1CD87B6854
:1016FC001B68196B3B685A6813469B001344233BC9
:10170C001F2202FA03F3DB4319403B6818683B685D
:10171C005A6813469B001344233B00FA03F27B6880
:10172C001B680A431A631BE07B681B68D96A3B6819
:10173C005A6813469B001344413B1F2202FA03F3E1
:10174C00DB4319403B6818683B685A6813469B009A
:10175C001344413B00FA03F27B681B680A43DA62CC
:10176C003B681B68092B1CD97B681B68D9683B68D4
:10177C001A6813465B0013441E3B072202FA03F35C
:10178C00DB4319403B6898683B681A6813465B005A
:10179C0013441E3B00FA03F27B681B680A43DA60B1
:1017AC0019E07B681B6819693B681A6813465B0073
:1017BC001344072202FA03F3DB4319403B68986891
:1017CC003B681A6813465B00134400FA03F27B680B
:1017DC001B680A431A613B681B68102B03D03B68DB
:1017EC001B68112B32D17B681B681D4A934225D193
:1017FC007B681B689B6803F40003002B26D17B6875
:10180C001B689A687B681B6842F400029A603B680C
:10181C001B68102B1AD1134B1B68134AA2FB032312
:10182C009A0C13469B0013445B00BB6002E0BB6840
:10183C00013BBB60BB68002BF9D107E07B689B6A5E
:10184C0043F020027B689A620123FB737B680022C1
:10185C0083F82420FB7B18461437BD4680BC7047A8
:10186C00002401400000002083DE1B4380B584B0BF
:10187C0000AF78600023FB607B681B689B6803F0FB
:10188C000103012B2ED17B681B689A687B681B684F
:10189C0022F001029A60FFF7EBFDF8601BE0FFF706
:1018AC00E7FD0246FB68D31A022B14D97B681B6830
:1018BC009B6803F00103012B0DD17B689B6A43F0FD
:1018CC0010027B689A627B68DB6A43F001027B68DA
:1018DC00DA62012307E07B681B689B6803F0010355
:1018EC00012BDCD0002318461037BD4680BD00000C
:1018FC0080B485B000AF78607B6803F00703FB60B1
:10190C000C4BDB68BB60BA684FF6FF031340BB603F
:10191C00FB681A02BB68134343F0BF6343F4003304
:10192C00BB60044ABB68D36000BF1437BD4680BCA3
:10193C00704700BF00ED00E080B400AF044BDB68E3
:10194C001B0A03F007031846BD4680BC704700BF56
:10195C0000ED00E080B483B000AF0346FB7197F953
:10196C000730002B0BDBFB7903F01F02064997F9BC
:10197C0007305B09012000FA02F241F8232000BF76
:10198C000C37BD4680BC704700E100E080B483B0EA
:10199C0000AF03463960FB7197F90730002B0ADB67
:1019AC003B68DAB20C4997F907301201D2B20B44FA
:1019BC0083F800230AE03B68DAB20849FB7903F0AC
:1019CC000F03043B1201D2B20B441A7600BF0C3742
:1019DC00BD4680BC704700BF00E100E000ED00E0B8
:1019EC0080B489B000AFF860B9607A60FB6803F02E
:1019FC000703FB61FB69C3F10703042B28BF042316
:101A0C00BB61FB690433062B02D9FB69033B00E085
:101A1C0000237B614FF0FF32BB6902FA03F3DA4318
:101A2C00BB681A407B699A404FF0FF317B6901FA21
:101A3C0003F3D9437B680B40134318462437BD4648
:101A4C0080BC704780B582B000AF78607B68013B8A
:101A5C00B3F1807F01D301230FE00A4A7B68013B7D
:101A6C0053600F214FF0FF30FFF790FF054B002222
:101A7C009A60044B07221A60002318460837BD46AB
:101A8C0080BD00BF10E000E080B582B000AF786090
:101A9C007868FFF72DFF00BF0837BD4680BD80B5C5
:101AAC0086B000AF0346B9607A60FB7300237B619C
:101ABC00FFF742FF78617A68B9687869FFF790FFA1
:101ACC00024697F90F3011461846FFF75FFF00BF2B
:101ADC001837BD4680BD80B582B000AF0346FB71A0
:101AEC0097F907301846FFF735FF00BF0837BD469A
:101AFC0080BD80B582B000AF78607868FFF7A2FF38
:101B0C00034618460837BD4680BD80B500AFFFF7C9
:101B1C0037F800BF80BD000080B485B000AF78609E
:101B2C000023FB607B68002B01D1012343E07B6821
:101B3C001B681A46224B1344224AA2FB03231B099F
:101B4C009A007B681A647B681F4ADA637B680222FE
:101B5C0083F821207B681B681B68FB60FB6823F4FF
:101B6C007F5323F03003FB607B685A687B689B686B
:101B7C001A437B68DB681A437B681B691A437B68D2
:101B8C005B691A437B689B691A437B68DB69134367
:101B9C00FA681343FB607B681B68FA681A607B6801
:101BAC0000229A637B68012283F821207B68002243
:101BBC0083F82020002318461437BD4680BC70479C
:101BCC00F8FFFDBFCDCCCCCC0000024080B485B07A
:101BDC0000AF78600023FB737B6893F82130022BF5
:101BEC0008D07B6804229A637B68002283F820204B
:101BFC00012320E07B681B681A687B681B6822F055
:101C0C000E021A607B681B681A687B681B6822F0DE
:101C1C0001021A607B681A6C7B68DB6B012101FA8C
:101C2C0002F25A607B68012283F821207B68002233
:101C3C0083F82020FB7B18461437BD4680BC7047C8
:101C4C0080B584B000AF78600023FB737B6893F899
:101C5C002130022B05D07B6804229A630123FB738D
:101C6C0051E07B681B681A687B681B6822F00E02C7
:101C7C001A607B681B681A687B681B6822F001027B
:101C8C001A607B681B68224A934229D07B681B68C8
:101C9C00204A934222D07B681B681F4A93421AD079
:101CAC007B681B681D4A934212D07B681B681C4AD8
:101CBC0093420AD07B681B681A4A934202D14FF4B4
:101CCC0080130EE04FF080730BE04FF4803308E08C
:101CDC004FF4805305E04FF4807302E0102300E0D2
:101CEC000123114A53607B68012283F821207B6811
:101CFC00002283F820207B685B6B002B03D07B6871
:101D0C005B6B78689847FB7B18461037BD4680BDE7
:101D1C00080002401C000240300002404400024017
:101D2C00580002406C0002400000024080B584B0B4
:101D3C0000AF78607B68DB6B1B68FB607B681B68A3
:101D4C001B68BB607B681B6C04229A40FB681340C9
:101D5C00002B4FD0BB6803F00403002B4AD07B68E8
:101D6C001B681B6803F02003002B07D17B681B68E2
:101D7C001A687B681B6822F004021A607B681B6877
:101D8C00664A934229D07B681B68654A934222D0ED
:101D9C007B681B68634A93421AD07B681B68624A53
:101DAC00934212D07B681B68604A93420AD07B68CE
:101DBC001B685F4A934202D14FF480030EE04FF050
:101DCC0080630BE04FF4802308E04FF4804305E080
:101DDC004FF4806302E0402300E00423554A536033
:101DEC007B68DB6A002B00F094807B68DB6A786888
:101DFC0098478EE07B681B6C02229A40FB6813406C
:101E0C00002B56D0BB6803F00203002B51D07B682B
:101E1C001B681B6803F02003002B0BD17B681B682D
:101E2C001A687B681B6822F00A021A607B68012220
:101E3C0083F821207B681B68384A934229D07B6841
:101E4C001B68374A934222D07B681B68354A934201
:101E5C001AD07B681B68344A934212D07B681B688B
:101E6C00324A93420AD07B681B68314A934202D1B2
:101E7C004FF400130EE04FF000730BE04FF40033FF
:101E8C0008E04FF4005305E04FF4007302E0202308
:101E9C0000E00223274A53607B68002283F820204D
:101EAC007B689B6A002B34D07B689B6A7868984768
:101EBC002FE07B681B6C08229A40FB681340002BB8
:101ECC0028D0BB6803F00803002B23D07B681B6869
:101EDC001A687B681B6822F00E021A607B681A6C09
:101EEC007B68DB6B012101FA02F25A607B680122EC
:101EFC009A637B68012283F821207B68002283F897
:101F0C0020207B681B6B002B04D07B681B6B7868D4
:101F1C00984700BF00BF1037BD4680BD0800024087
:101F2C001C000240300002404400024058000240B5
:101F3C006C0002400000024080B48BB000AF7860AF
:101F4C00396000237B6200233B6269E101227B6ADA
:101F5C0002FA03F3FB613B681B68FA691340BB612F
:101F6C00BA69FB699A4240F058813B685B689A4AAF
:101F7C0093425ED0984A934275D8984A934258D06F
:101F8C00964A93426FD8964A934252D0944A9342BF
:101F9C0069D8944A93424CD0924A934263D8924A5D
:101FAC00934246D0904A93425DD8122B2AD8122BDA
:101FBC0059D801A252F823F03F200008192000083C
:101FCC002B2000086D2000087320000873200008E7
:101FDC007320000873200008732000087320000889
:101FEC007320000873200008732000087320000879
:101FFC0073200008732000087320000821200008BB
:10200C0035200008794A934213D02CE03B68DB68FA
:10201C003B6229E03B68DB6804333B6224E03B68AD
:10202C00DB6808333B621FE03B68DB680C333B62C8
:10203C001AE03B689B68002B02D104233B6213E03F
:10204C003B689B68012B05D108233B627B68FA69CE
:10205C001A6109E008233B627B68FA695A6103E064
:10206C0000233B6200E000BFBB69FF2B01D87B68FB
:10207C0001E07B6804337B61BB69FF2B02D87B6A70
:10208C009B0002E07B6A083B9B003B617B691A6802
:10209C000F213B6901FA03F3DB431A40396A3B69B0
:1020AC0001FA03F31A437B691A603B685B6803F01F
:1020BC008053002B00F0B1804D4B9B694C4A43F090
:1020CC00010393614A4B9B6903F00103BB60BB683E
:1020DC00484A7B6A9B08023352F82330FB607B6AC8
:1020EC0003F003039B000F2202FA03F3DB43FA68AD
:1020FC001340FB607B68404A934213D07B683F4A95
:10210C0093420DD07B683E4A934207D07B683D4A90
:10211C00934201D1032306E0042304E0022302E0EE
:10212C00012300E000237A6A02F00302920093403C
:10213C00FA681343FB602F497B6A9B080233FA68E9
:10214C0041F823203B685B6803F48033002B06D0F6
:10215C002D4B1A682C49BB6913430B6006E02A4BC4
:10216C001A68BB69DB43284913400B603B685B680A
:10217C0003F40033002B06D0234B5A682249BB6969
:10218C0013434B6006E0204B5A68BB69DB431E4986
:10219C0013404B603B685B6803F48013002B06D044
:1021AC00194B9A681849BB6913438B6006E0164BB0
:1021BC009A68BB69DB43144913408B603B685B68CE
:1021CC0003F40013002B21D00F4BDA680E49BB69C6
:1021DC001343CB6021E000BF00003210000031102F
:1021EC00000022100000211000001210000011103D
:1021FC00001002400000014000080140000C0140AA
:10220C000010014000140140000401400B4BDA683F
:10221C00BB69DB4309491340CB607B6A01337B62AA
:10222C003B681A687B6A22FA03F3002B7FF48EAEAC
:10223C0000BF00BF2C37BD4680BC70470004014076
:10224C0080B485B000AF78600B467B807B689A6861
:10225C007B881340002B02D00123FB7301E0002389
:10226C00FB73FB7B18461437BD4680BC704780B4AB
:10227C0083B000AF78600B467B8013467B707B7815
:10228C00002B03D07A887B681A6103E07B881A04E0
:10229C007B681A6100BF0C37BD4680BC70470000DC
:1022AC0080B584B000AF78607B68002B01D101232E
:1022BC002BE17B6893F83D30DBB2002B06D17B68B9
:1022CC00002283F83C207868FEF7E4FD7B6824222A
:1022DC0083F83D207B681B681A687B681B6822F0BA
:1022EC0001021A607B681B681A687B681B6842F4E1
:1022FC0000421A607B681B681A687B681B6822F4B2
:10230C0000421A6000F044FDF8607B685B68814A0B
:10231C00934207D8FB68804A934294BF0123002361
:10232C00DBB206E0FB687D4A934294BF0123002395
:10233C00DBB2002B01D00123E7E0FB68784AA2FB5B
:10234C0003239B0CBB607B681B685B6823F03F011D
:10235C007B681B68BA680A435A607B681B681B6AF7
:10236C0023F03F017B685B686A4A934202D8BB68E2
:10237C00013309E0BB684FF4967202FB03F3694A20
:10238C00A2FB03239B0901337A6812680B43136287
:10239C007B681B68DB6923F44F4222F0FF027B68E9
:1023AC005B685C498B4219D8FB68591E7B685B687B
:1023BC005B00B1FBF3F3591C40F6FC730B40002B94
:1023CC000AD0FB68591E7B685B685B00B1FBF3F3BA
:1023DC000133C3F30B0351E004234FE07B689B688C
:1023EC00002B11D1FB68581E7B6859680B465B00AB
:1023FC000B44B0FBF3F30133C3F30B03002B0CBF03
:10240C0001230023DBB212E0FB68581E7B6859687D
:10241C000B469B000B4499000B44B0FBF3F30133C8
:10242C00C3F30B03002B0CBF01230023DBB2002BE7
:10243C0001D0012322E07B689B68002B0ED1FB6846
:10244C00581E7B6859680B465B000B44B0FBF3F3DA
:10245C000133C3F30B0343F400430FE0FB68581E36
:10246C007B6859680B469B000B4499000B44B0FBEE
:10247C00F3F30133C3F30B0343F440437968096866
:10248C001343CB617B681B681B6823F0C0017B681E
:10249C00DA697B681B6A1A437B681B680A431A60FB
:1024AC007B681B689B6823F4034323F0FF037A6863
:1024BC0011697A68D26811437A6812680B43936089
:1024CC007B681B68DB6823F0FF017B685A697B68BB
:1024DC009B691A437B681B680A43DA607B681B683C
:1024EC001A687B681B6842F001021A607B68002244
:1024FC001A647B68202283F83D207B6800221A63D3
:10250C007B68002283F83E20002318461037BD4616
:10251C0080BD00BFA08601007F841E00FF083D0027
:10252C0083DE1B43D34D621080B483B000AF786060
:10253C007B681B684AF6AA221A60002318460C37DF
:10254C00BD4680BC7047000080B485B000AF786099
:10255C007B68FB60FB6893FAA3F3BB60BB68B3FAC0
:10256C0083F3DBB21A46054B13449B001A46012336
:10257C00136000BF1437BD4680BC704720808310A9
:10258C0080B485B000AF78607B68FB60FB6893FA21
:10259C00A3F3BB60BB68B3FA83F3DBB21A46054BFB
:1025AC0013449B001A460023136000BF1437BD462A
:1025BC0080BC70472080831080B400AF084B1B6830
:1025CC00074A43F002031360064B1B69054A43F0AC
:1025DC000403136130BF00BFBD4680BC704700BF11
:1025EC000070004000ED00E080B586B000AF786070
:1025FC007B68002B01D101236CE27B681B6803F024
:10260C000103002B00F08780924B5B6803F00C03F6
:10261C00042B0CD08F4B5B6803F00C03082B12D1EE
:10262C008C4B5B6803F48033B3F5803F0BD1894B43
:10263C001B6803F40033002B6CD07B685B68002BA9
:10264C0068D1012346E27B685B68B3F5803F06D115
:10265C00804B1B687F4A43F4803313602EE07B6809
:10266C005B68002B0CD17B4B1B687A4A23F48033BC
:10267C001360784B1B68774A23F4802313601DE0AA
:10268C007B685B68B3F5A02F0CD1724B1B68714A49
:10269C0043F4802313606F4B1B686E4A43F4803302
:1026AC0013600BE06B4B1B686A4A23F48033136096
:1026BC00684B1B68674A23F4802313607B685B6854
:1026CC00002B13D0FEF7D4FE386108E0FEF7D0FEE5
:1026DC0002463B69D31A642B01D90323FAE15D4B03
:1026EC001B6803F40033002BF0D014E0FEF7C0FE9F
:1026FC00386108E0FEF7BCFE02463B69D31A642B36
:10270C0001D90323E6E1534B1B6803F40033002B80
:10271C00F0D100E000BF7B681B6803F00203002BC4
:10272C0063D04C4B5B6803F00C03002B0BD0494B74
:10273C005B6803F00C03082B1CD1464B5B6803F45D
:10274C008033002B16D1434B1B6803F00203002B84
:10275C0005D07B681B69012B01D00123BAE13D4BED
:10276C001B6823F0F8027B685B69DB003949134373
:10277C000B603AE07B681B69002B20D0364B0122A2
:10278C001A60FEF775FE386108E0FEF771FE02462E
:10279C003B69D31A022B01D903239BE12D4B1B68F8
:1027AC0003F00203002BF0D02A4B1B6823F0F80235
:1027BC007B685B69DB00274913430B6015E0264BF4
:1027CC0000221A60FEF754FE386108E0FEF750FE56
:1027DC0002463B69D31A022B01D903237AE11D4B24
:1027EC001B6803F00203002BF0D17B681B6803F01D
:1027FC000803002B3AD07B689B69002B19D0174B30
:10280C0001221A60FEF734FE386108E0FEF730FE54
:10281C0002463B69D31A022B01D903235AE10D4B13
:10282C005B6A03F00203002BF0D0012000F0D8FA11
:10283C001CE00A4B00221A60FEF71AFE38610FE00A
:10284C00FEF716FE02463B69D31A022B08D9032366
:10285C0040E100BF001002400000424280044242AE
:10286C009E4B5B6A03F00203002BE9D17B681B686B
:10287C0003F00403002B00F0A6800023FB75974B9C
:10288C00DB6903F08053002B0DD1944BDB69934A29
:10289C0043F08053D361914BDB6903F08053BB60F1
:1028AC00BB680123FB758E4B1B6803F48073002BF4
:1028BC0018D18B4B1B688A4A43F480731360FEF764
:1028CC00D7FD386108E0FEF7D3FD02463B69D31A09
:1028DC00642B01D90323FDE0814B1B6803F4807347
:1028EC00002BF0D07B68DB68012B06D17B4B1B6A7D
:1028FC007A4A43F0010313622DE07B68DB68002BFE
:10290C000CD1764B1B6A754A23F001031362734B8F
:10291C001B6A724A23F0040313621CE07B68DB68B9
:10292C00052B0CD16D4B1B6A6C4A43F004031362EC
:10293C006A4B1B6A694A43F0010313620BE0674B55
:10294C001B6A664A23F001031362644B1B6A634AD9
:10295C0023F0040313627B68DB68002B15D0FEF7B1
:10296C0087FD38610AE0FEF783FD02463B69D31A06
:10297C0041F28832934201D90323ABE0574B1B6AD7
:10298C0003F00203002BEED014E0FEF771FD38616A
:10299C000AE0FEF76DFD02463B69D31A41F288321C
:1029AC00934201D9032395E04C4B1B6A03F00203BD
:1029BC00002BEED1FB7D012B05D1484BDB69474A3F
:1029CC0023F08053D3617B68DB69002B00F081809E
:1029DC00424B5B6803F00C03082B61D07B68DB690E
:1029EC00022B46D13F4B00221A60FEF741FD3861A5
:1029FC0008E0FEF73DFD02463B69D31A022B01D9D4
:102A0C00032367E0354B1B6803F00073002BF0D1F8
:102A1C007B681B6AB3F5803F08D1304B5B6823F4AD
:102A2C0000327B689B682D4913434B602B4B5B68D2
:102A3C0023F474127B68196A7B685B6A0B43274921
:102A4C0013434B60274B01221A60FEF711FD3861CE
:102A5C0008E0FEF70DFD02463B69D31A022B01D9A3
:102A6C00032337E01D4B1B6803F00073002BF0D0E1
:102A7C002FE01C4B00221A60FEF7FAFC386108E0CC
:102A8C00FEF7F6FC02463B69D31A022B01D903234D
:102A9C0020E0124B1B6803F00073002BF0D118E000
:102AAC007B68DB69012B01D1012313E00B4B5B68C5
:102ABC00FB60FB6803F480327B681B6A9A4206D188
:102ACC00FB6803F470127B685B6A9A4201D00123A5
:102ADC0000E0002318461837BD4680BD00100240A8
:102AEC00007000406000424280B584B000AF786056
:102AFC0039607B68002B01D10123D0E06A4B1B6845
:102B0C0003F007033A689A4210D9674B1B6823F00D
:102B1C00070265493B6813430B60634B1B6803F06A
:102B2C0007033A689A4201D00123B8E07B681B681E
:102B3C0003F00203002B20D07B681B6803F0040316
:102B4C00002B05D0594B5B68584A43F4E063536043
:102B5C007B681B6803F00803002B05D0534B5B68A4
:102B6C00524A43F460535360504B5B6823F0F002BD
:102B7C007B689B684D4913434B607B681B6803F073
:102B8C000103002B40D07B685B68012B07D1474BBE
:102B9C001B6803F40033002B15D101237FE07B6805
:102BAC005B68022B07D1414B1B6803F00073002BB1
:102BBC0009D1012373E03D4B1B6803F00203002B8A
:102BCC0001D101236BE0394B5B6823F003027B6876
:102BDC005B68364913434B60FEF74AFCF8600AE029
:102BEC00FEF746FC0246FB68D31A41F28832934248
:102BFC0001D9032353E02D4B5B6803F00C027B6877
:102C0C005B689B009A42EBD1274B1B6803F00703D0
:102C1C003A689A4210D2244B1B6823F007022249CF
:102C2C003B6813430B60204B1B6803F007033A68A7
:102C3C009A4201D0012332E07B681B6803F0040345
:102C4C00002B08D0194B5B6823F4E0627B68DB68CF
:102C5C00164913434B607B681B6803F00803002B79
:102C6C0009D0124B5B6823F460527B681B69DB0054
:102C7C000E4913434B6000F021F802460B4B5B6886
:102C8C001B0903F00F030A49CB5C22FA03F3094A30
:102C9C001360094B1B681846FEF7A8FB0023184667
:102CAC001037BD4680BD00BF00200240001002401E
:102CBC004C530008000000200400002090B48AB09F
:102CCC0000AF2A4B3C1D0FCB84E80F0040F20123D0
:102CDC003B800023FB610023BB6100237B6200234C
:102CEC007B6100233B62224B5B68FB61FB6903F059
:102CFC000C03042B02D0082B03D02DE01D4B3B62A0
:102D0C002DE0FB699B0C03F00F0307F12802134421
:102D1C0013F8243C7B61FB6903F48033002B13D044
:102D2C00134B5B685B0C03F0010307F1280213449F
:102D3C0013F8283CBB617B690E4A02FB03F2BB69AA
:102D4C00B2FBF3F37B6204E07B690B4A02FB03F3F7
:102D5C007B627B6A3B6202E0064B3B6200BF3B6AD4
:102D6C0018462837BD4690BC704700BF1C5300085E
:102D7C000010024000127A0000093D0080B400AF40
:102D8C00024B1B681846BD4680BC704700000020F3
:102D9C0080B500AFFFF7F2FF0246054B5B681B0ADC
:102DAC0003F007030349CB5C22FA03F3184680BDFA
:102DBC00001002405C53000880B500AFFFF7DEFF47
:102DCC000246054B5B68DB0A03F007030349CB5C47
:102DDC0022FA03F3184680BD001002405C53000831
:102DEC0080B485B000AF78600A4B1B680A4AA2FB1E
:102DFC0003235B0A7A6802FB03F3FB6000BFFB68EA
:102E0C005A1EFA60002BF9D100BF00BF1437BD4623
:102E1C0080BC704700000020D34D621080B586B096
:102E2C0000AF786000233B610023FB607B681B686C
:102E3C0003F00103002B7DD00023FB754F4BDB69A6
:102E4C0003F08053002B0DD14C4BDB694B4A43F004
:102E5C008053D361494BDB6903F08053BB60BB6883
:102E6C000123FB75464B1B6803F48073002B18D1B0
:102E7C00434B1B68424A43F480731360FEF7F8FA25
:102E8C00386108E0FEF7F4FA02463B69D31A642B6A
:102E9C0001D903236DE03A4B1B6803F48073002BBC
:102EAC00F0D0364B1B6A03F44073FB60FB68002BBD
:102EBC002ED07B685B6803F44073FA689A4227D083
:102ECC002E4B1B6A23F44073FB602E4B01221A60BD
:102EDC002C4B00221A60294AFB681362FB6803F032
:102EEC000103002B14D0FEF7C3FA38610AE0FEF799
:102EFC00BFFA02463B69D31A41F28832934201D998
:102F0C00032336E01D4B1B6A03F00203002BEED0AB
:102F1C001A4B1B6A23F440727B685B681749134396
:102F2C000B62FB7D012B05D1144BDB69134A23F09B
:102F3C008053D3617B681B6803F00203002B08D01D
:102F4C000E4B5B6823F440427B689B680B49134330
:102F5C004B607B681B6803F01003002B08D0074BF9
:102F6C005B6823F480027B68DB68044913434B6085
:102F7C00002318461837BD4680BD00BF0010024024
:102F8C00007000404004424280B582B000AF7860CF
:102F9C007B68002B01D1012341E07B6893F83D3025
:102FAC00DBB2002B06D17B68002283F83C207868CA
:102FBC00FDF7AEFF7B68022283F83D207B681A6820
:102FCC007B6804331946104600F02AFC7B6801220A
:102FDC0083F846207B68012283F83E207B6801221F
:102FEC0083F83F207B68012283F840207B68012214
:102FFC0083F841207B68012283F842207B68012200
:10300C0083F843207B68012283F844207B680122EB
:10301C0083F845207B68012283F83D200023184665
:10302C000837BD4680BD000080B485B000AF786025
:10303C007B6893F83D30DBB2012B01D0012332E0E9
:10304C007B68022283F83D207B681B68184A9342F8
:10305C000ED07B681B68B3F1804F09D07B681B686E
:10306C00144A934204D07B681B68134A934211D1D3
:10307C007B681B689B6803F00703FB60FB68062BEF
:10308C0010D07B681B681A687B681B6842F00102D1
:10309C001A6007E07B681B681A687B681B6842F043
:1030AC0001021A60002318461437BD4680BC7047D5
:1030BC00002C0140000400400008004080B582B0A4
:1030CC0000AF78607B68002B01D1012341E07B6865
:1030DC0093F83D30DBB2002B06D17B68002283F8DD
:1030EC003C20786800F039F87B68022283F83D2098
:1030FC007B681A687B6804331946104600F090FB15
:10310C007B68012283F846207B68012283F83E20ED
:10311C007B68012283F83F207B68012283F84020E2
:10312C007B68012283F841207B68012283F84220CE
:10313C007B68012283F843207B68012283F84420BA
:10314C007B68012283F845207B68012283F83D20AF
:10315C00002318460837BD4680BD80B483B000AF4D
:10316C00786000BF0C37BD4680BC704780B584B01A
:10317C0000AF786039603B68002B09D17B6893F80D
:10318C003E30DBB2012B14BF01230023DBB222E063
:10319C003B68042B09D17B6893F83F30DBB2012BE1
:1031AC0014BF01230023DBB215E03B68082B09D1C7
:1031BC007B6893F84030DBB2012B14BF0123002352
:1031CC00DBB208E07B6893F84130DBB2012B14BF13
:1031DC0001230023DBB2002B01D001235EE03B680E
:1031EC00002B04D17B68022283F83E2013E03B685D
:1031FC00042B04D17B68022283F83F200BE03B6850
:10320C00082B04D17B68022283F8402003E07B6802
:10321C00022283F841207B681B680122396818461A
:10322C0000F07EFD7B681B681E4A934207D17B68C9
:10323C001B685A6C7B681B6842F400425A647B68BA
:10324C001B68184A93420ED07B681B68B3F1804F01
:10325C0009D07B681B68144A934204D07B681B68B6
:10326C00124A934211D17B681B689B6803F00703D9
:10327C00FB60FB68062B10D07B681B681A687B68A8
:10328C001B6842F001021A6007E07B681B681A6831
:10329C007B681B6842F001021A6000231846103745
:1032AC00BD4680BD002C01400004004000080040D9
:1032BC0080B582B000AF78607B681B681B6903F037
:1032CC000203022B22D17B681B68DB6803F002032C
:1032DC00022B1BD17B681B686FF002021A617B68A2
:1032EC0001221A777B681B689B6903F00303002B90
:1032FC0003D0786800F078FA05E0786800F06BFA93
:10330C00786800F07AFA7B6800221A777B681B6871
:10331C001B6903F00403042B22D17B681B68DB6858
:10332C0003F00403042B1BD17B681B686FF00402B1
:10333C001A617B6802221A777B681B689B6903F40D
:10334C004073002B03D0786800F04EFA05E07868E3
:10335C0000F041FA786800F050FA7B6800221A7786
:10336C007B681B681B6903F00803082B22D17B6860
:10337C001B68DB6803F00803082B1BD17B681B68F8
:10338C006FF008021A617B6804221A777B681B684D
:10339C00DB6903F00303002B03D0786800F024FAF8
:1033AC0005E0786800F017FA786800F026FA7B6878
:1033BC0000221A777B681B681B6903F01003102B23
:1033CC0022D17B681B68DB6803F01003102B1BD128
:1033DC007B681B686FF010021A617B6808221A77F1
:1033EC007B681B68DB6903F44073002B03D078689F
:1033FC0000F0FAF905E0786800F0EDF9786800F073
:10340C00FCF97B6800221A777B681B681B6903F048
:10341C000103012B0ED17B681B68DB6803F00103F1
:10342C00012B07D17B681B686FF001021A61786869
:10343C0000F0C8F97B681B681B6903F08003802BC4
:10344C000ED17B681B68DB6803F08003802B07D1EF
:10345C007B681B686FF080021A61786800F0EBFCE7
:10346C007B681B681B6903F04003402B0ED17B6803
:10347C001B68DB6803F04003402B07D17B681B689B
:10348C006FF040021A61786800F0C0F97B681B6825
:10349C001B6903F02003202B0ED17B681B68DB68B3
:1034AC0003F02003202B07D17B681B686FF02002F0
:1034BC001A61786800F0B6FC00BF0837BD4680BDC5
:1034CC0080B584B000AFF860B9607A60FB6893F89F
:1034DC003C30012B01D10223ACE0FB68012283F8C4
:1034EC003C207B680C2B00F29F8001A252F823F049
:1034FC0031350008353600083536000835360008F9
:10350C0071350008353600083536000835360008A8
:10351C00B335000835360008353600083536000856
:10352C00F3350008FB681B68B968184600F0DAF937
:10353C00FB681B689A69FB681B6842F008029A6179
:10354C00FB681B689A69FB681B6822F004029A618D
:10355C00FB681B689969BB681A69FB681B680A439E
:10356C009A6162E0FB681B68B968184600F020FAA3
:10357C00FB681B689A69FB681B6842F400629A61DD
:10358C00FB681B689A69FB681B6822F480629A616D
:10359C00FB681B689969BB681B691A02FB681B688E
:1035AC000A439A6141E0FB681B68B968184600F051
:1035BC0069FAFB681B68DA69FB681B6842F0080251
:1035CC00DA61FB681B68DA69FB681B6822F004028D
:1035DC00DA61FB681B68D969BB681A69FB681B68F0
:1035EC000A43DA6121E0FB681B68B968184600F0F1
:1035FC00B3FAFB681B68DA69FB681B6842F400626B
:10360C00DA61FB681B68DA69FB681B6822F480626C
:10361C00DA61FB681B68D969BB681B691A02FB6815
:10362C001B680A43DA6100E000BFFB68002283F8E4
:10363C003C20002318461037BD4680BD80B584B0B1
:10364C0000AF786039607B6893F83C30012B01D176
:10365C000223B3E07B68012283F83C207B680222C2
:10366C0083F83D207B681B689B68FB60FB6823F03C
:10367C007703FB60FB6823F47F43FB607B681B686C
:10368C00FA689A603B681B68B3F5005F3ED0B3F5EF
:10369C00005F00F28780B3F5805F00F08580B3F5A2
:1036AC00805F7FD8702B1AD0702B7BD8602B50D0BA
:1036BC00602B77D8502B3CD0502B73D8402B58D044
:1036CC00402B6FD8302B64D0302B6BD8202B60D094
:1036DC00202B67D8002B5CD0102B5AD062E07B6873
:1036EC0018683B6899683B685A683B68DB6800F06F
:1036FC00F8FA7B681B689B68FB60FB6843F07703F8
:10370C00FB607B681B68FA689A604EE07B681868FF
:10371C003B6899683B685A683B68DB6800F0E1FAE3
:10372C007B681B689A687B681B6842F480429A60CD
:10373C003BE07B6818683B6859683B68DB681A4655
:10374C0000F058FA7B681B685021184600F0AFFA5D
:10375C002BE07B6818683B6859683B68DB681A4645
:10376C0000F076FA7B681B686021184600F09FFA1F
:10377C001BE07B6818683B6859683B68DB681A4635
:10378C0000F038FA7B681B684021184600F08FFA6D
:10379C000BE07B681A683B681B681946104600F002
:1037AC0086FA02E000BF00E000BF7B68012283F8CC
:1037BC003D207B68002283F83C20002318461037FC
:1037CC00BD4680BD80B483B000AF786000BF0C37BD
:1037DC00BD4680BC704780B483B000AF786000BF3A
:1037EC000C37BD4680BC704780B483B000AF7860A6
:1037FC0000BF0C37BD4680BC704780B483B000AFAF
:10380C00786000BF0C37BD4680BC704780B483B075
:10381C0000AF786000BF0C37BD4680BC704700001D
:10382C0080B485B000AF786039607B681B68FB6042
:10383C007B68294A93420BD07B68B3F1804F07D049
:10384C007B68264A934203D07B68254A934208D171
:10385C00FB6823F07003FB603B685B68FA681343FA
:10386C00FB607B681C4A93420BD07B68B3F1804FA2
:10387C0007D07B68194A934203D07B68184A93425D
:10388C0008D1FB6823F44073FB603B68DB68FA6883
:10389C001343FB60FB6823F080023B685B691343B6
:1038AC00FB607B68FA681A603B689A687B68DA622E
:1038BC003B681A687B689A627B68074A934203D11B
:1038CC003B681A697B681A637B6801225A6100BFE6
:1038DC001437BD4680BC7047002C014000040040EA
:1038EC000008004080B487B000AF786039607B6816
:1038FC001B6A23F001027B681A627B681B6A7B617E
:10390C007B685B683B617B689B69FB60FB6823F0B1
:10391C007003FB60FB6823F00303FB603B681B68D0
:10392C00FA681343FB607B6923F002037B613B68FD
:10393C009B687A6913437B617B681C4A93420CD168
:10394C007B6923F008037B613B68DB687A6913436E
:10395C007B617B6923F004037B617B68134A934290
:10396C0011D13B6923F480733B613B6923F40073F1
:10397C003B613B685B693A6913433B613B689B69FC
:10398C003A6913433B617B683A695A607B68FA6811
:10399C009A613B685A687B685A637B687A691A62D9
:1039AC0000BF1C37BD4680BC704700BF002C0140D7
:1039BC0080B487B000AF786039607B681B6A23F0F5
:1039CC0010027B681A627B681B6A7B617B685B6890
:1039DC003B617B689B69FB60FB6823F4E043FB6005
:1039EC00FB6823F44073FB603B681B681B02FA689E
:1039FC001343FB607B6923F020037B613B689B686E
:103A0C001B017A6913437B617B681D4A93420DD17C
:103A1C007B6923F080037B613B68DB681B017A695F
:103A2C0013437B617B6923F040037B617B68144A01
:103A3C00934213D13B6923F480633B613B6923F4CC
:103A4C0000633B613B685B699B003A6913433B61D4
:103A5C003B689B699B003A6913433B617B683A69FD
:103A6C005A607B68FA689A613B685A687B689A630B
:103A7C007B687A691A6200BF1C37BD4680BC7047F0
:103A8C00002C014080B487B000AF786039607B684F
:103A9C001B6A23F480727B681A627B681B6A7B61E9
:103AAC007B685B683B617B68DB69FB60FB6823F0D0
:103ABC007003FB60FB6823F00303FB603B681B682F
:103ACC00FA681343FB607B6923F400737B613B68EA
:103ADC009B681B027A6913437B617B681D4A934286
:103AEC000DD17B6923F400637B613B68DB681B02AF
:103AFC007A6913437B617B6923F480637B617B6808
:103B0C00144A934213D13B6923F480533B613B69C4
:103B1C0023F400533B613B685B691B013A69134317
:103B2C003B613B689B691B013A6913433B617B68B2
:103B3C003A695A607B68FA68DA613B685A687B6854
:103B4C00DA637B687A691A6200BF1C37BD4680BC99
:103B5C00704700BF002C014080B487B000AF786084
:103B6C0039607B681B6A23F480527B681A627B681D
:103B7C001B6A3B617B685B687B617B68DB69FB6014
:103B8C00FB6823F4E043FB60FB6823F44073FB60A9
:103B9C003B681B681B02FA681343FB603B6923F408
:103BAC0000533B613B689B681B033A6913433B61C1
:103BBC007B680F4A934209D17B6923F480437B6174
:103BCC003B685B699B017A6913437B617B687A690B
:103BDC005A607B68FA68DA613B685A687B681A64D9
:103BEC007B683A691A6200BF1C37BD4680BC7047BF
:103BFC00002C014080B487B000AFF860B9607A60E7
:103C0C00FB681B6A7B61FB681B6A23F00102FB6883
:103C1C001A62FB689B693B613B6923F0F0033B61D3
:103C2C007B681B013A6913433B617B6923F00A03F0
:103C3C007B617A69BB6813437B61FB683A699A6163
:103C4C00FB687A691A6200BF1C37BD4680BC70479E
:103C5C0080B487B000AFF860B9607A60FB681B6A0B
:103C6C0023F01002FB681A62FB689B697B61FB689E
:103C7C001B6A3B617B6923F470437B617B681B038C
:103C8C007A6913437B613B6923F0A0033B61BB68FA
:103C9C001B013A6913433B61FB687A699A61FB68C3
:103CAC003A691A6200BF1C37BD4680BC704780B4AD
:103CBC0085B000AF786039607B689B68FB60FB68FF
:103CCC0023F07003FB603A68FB68134343F007036F
:103CDC00FB607B68FA689A6000BF1437BD4680BCF5
:103CEC00704780B487B000AFF860B9607A603B6011
:103CFC00FB689B687B617B6923F47F437B613B683A
:103D0C001A027B681A43BB6813437A6913437B61BD
:103D1C00FB687A699A6000BF1C37BD4680BC70474F
:103D2C0080B487B000AFF860B9607A60BB6803F00C
:103D3C001F03012202FA03F37B61FB681A6A7B6999
:103D4C00DB431A40FB681A62FB681A6ABB6803F013
:103D5C001F03796801FA03F31A43FB681A6200BF68
:103D6C001C37BD4680BC704780B485B000AF78600E
:103D7C0039607B6893F83C30012B01D1022346E07B
:103D8C007B68012283F83C207B68022283F83D206B
:103D9C007B681B685B68FB607B681B689B68BB600F
:103DAC00FB6823F07003FB603B681B68FA681343E5
:103DBC00FB607B681B68FA685A607B681B68164A54
:103DCC0093420ED07B681B68B3F1804F09D07B689F
:103DDC001B68124A934204D07B681B68104A9342BA
:103DEC000CD1BB6823F08003BB603B685B68BA688E
:103DFC001343BB607B681B68BA689A607B680122BE
:103E0C0083F83D207B68002283F83C200023184671
:103E1C001437BD4680BC7047002C014000040040A4
:103E2C000008004080B483B000AF786000BF0C374E
:103E3C00BD4680BC704780B483B000AF786000BFD3
:103E4C000C37BD4680BC704780B582B000AF78603F
:103E5C007B68002B01D101233FE07B6893F83D3058
:103E6C00DBB2002B06D17B68002283F83C207868FB
:103E7C00FDF7D2F87B68242283F83D207B681B6811
:103E8C00DA687B681B6822F40052DA60786800F00C
:103E9C007DFC7B681B681A697B681B6822F4904266
:103EAC001A617B681B685A697B681B6822F02A02BE
:103EBC005A617B681B68DA687B681B6842F40052A5
:103ECC00DA607B6800221A647B68202283F83D202C
:103EDC007B68202283F83E20002318460837BD4615
:103EEC0080BD80B58AB002AFF860B9603B60134604
:103EFC00FB8000237B61FB6893F83D30DBB2202B09
:103F0C007CD1BB68002B02D0FB88002B01D1012394
:103F1C0075E0FB6893F83C30012B01D102236EE075
:103F2C00FB68012283F83C20FB6800221A64FB68C2
:103F3C00212283F83D20FDF79BFA7861FB68FA8813
:103F4C009A84FB68FA88DA84FB689B68B3F5805F17
:103F5C0008D1FB681B69002B04D10023FB61BB68F3
:103F6C00BB6103E0BB68FB610023BB61FB68002203
:103F7C0083F83C202AE03B6800937B690022802177
:103F8C00F86800F02FFA0346002B01D0032336E02B
:103F9C00FB69002B0BD1BB691B881A46FB681B689D
:103FAC00C2F308025A60BB690233BB6107E0FB69CC
:103FBC001A78FB681B685A60FB690133FB61FB686C
:103FCC00DB8C9BB2013B9AB2FB68DA84FB68DB8C1E
:103FDC009BB2002BCFD13B6800937B690022402120
:103FEC00F86800F0FFF90346002B01D0032306E02C
:103FFC00FB68202283F83D20002300E002231846B2
:10400C002037BD4680BD80B584B000AFF860B96084
:10401C001346FB80FB6893F83E30DBB2202B1DD19E
:10402C00BB68002B02D0FB88002B01D1012316E0CA
:10403C00FB6893F83C30012B01D102230FE0FB68A5
:10404C00012283F83C20FB6800221A63FB881A4685
:10405C00B968F86800F010FA034600E0022318462D
:10406C001037BD4680BD000080B58AB000AF7860C7
:10407C007B681B681B687B627B681B68DB683B6228
:10408C007B681B685B69FB610023BB6100237B6160
:10409C007B6A03F00F03BB61BB69002B0DD17B6AFC
:1040AC0003F02003002B08D03B6A03F02003002B05
:1040BC0003D0786800F0C0FA7BE1BB69002B00F0FC
:1040CC00B180FB6903F00103002B05D13B6A03F4BB
:1040DC009073002B00F0A6807B6A03F00103002B89
:1040EC000AD03B6A03F48073002B05D07B681B6CF1
:1040FC0043F001027B681A647B6A03F00403002B13
:10410C000AD0FB6903F00103002B05D07B681B6C04
:10411C0043F002027B681A647B6A03F00203002BF3
:10412C000AD0FB6903F00103002B05D07B681B6CE4
:10413C0043F004027B681A647B6A03F00803002BCB
:10414C000FD03B6A03F02003002B04D1FB6903F072
:10415C000103002B05D07B681B6C43F008027B68C5
:10416C001A647B681B6C002B00F01E817B6A03F0C9
:10417C002003002B07D03B6A03F02003002B02D056
:10418C00786800F059FA7B681B685B6903F04003A0
:10419C00002B14BF01230023DBB27B617B681B6CFB
:1041AC0003F00803002B02D17B69002B31D0786817
:1041BC0000F09BF97B681B685B6903F04003002BE4
:1041CC0023D07B681B685A697B681B6822F040020D
:1041DC005A617B689B6B002B13D07B689B6B764A78
:1041EC005A637B689B6B1846FDF72AFD0346002B30
:1041FC0016D07B689B6B5B6B7A68926B104698470A
:10420C000EE07868FCF740F90AE07868FCF73CF9B6
:10421C0006E07868FCF738F97B6800221A64C3E082
:10422C0000BFC1E07B681B6B012B40F0A1807B6A57
:10423C0003F01003002B00F09B803B6A03F010038B
:10424C00002B00F095800023FB607B681B681B68CB
:10425C00FB607B681B685B68FB60FB687B681B68AA
:10426C005B6903F04003002B4ED07B689B6B1B6893
:10427C005B683B823B8A002B00F098807B689B8DAF
:10428C003A8A9A4280F092807B683A8ADA857B6817
:10429C009B6B9B69202B2BD07B681B68DA687B6837
:1042AC001B6822F48072DA607B681B685A697B6831
:1042BC001B6822F001025A617B681B685A697B6893
:1042CC001B6822F040025A617B68202283F83E2052
:1042DC007B6800221A637B681B68DA687B681B6842
:1042EC0022F01002DA607B689B6B1846FDF76EFCBF
:1042FC007B689A8D7B68DB8D9BB2D31A9BB2194677
:10430C00786800F064F851E07B689A8D7B68DB8DEF
:10431C009BB2D31A7B827B68DB8D9BB2002B47D080
:10432C007B8A002B44D07B681B68DA687B681B682F
:10433C0022F49072DA607B681B685A697B681B6890
:10434C0022F001025A617B68202283F83E207B68B0
:10435C0000221A637B681B68DA687B681B6822F092
:10436C001002DA607B8A1946786800F030F81FE09A
:10437C007B6A03F08003002B08D03B6A03F08003B8
:10438C00002B03D0786800F0F0F812E07B6A03F0A1
:10439C004003002B0DD03B6A03F04003002B08D0E8
:1043AC00786800F031F904E000BF02E000BF00E0E3
:1043BC0000BF2837BD4680BD4F45000880B483B090
:1043CC0000AF786000BF0C37BD4680BC704780B42E
:1043DC0083B000AF78600B467B8000BF0C37BD46C6
:1043EC0080BC704780B584B000AFF860B9603B60AA
:1043FC001346FB712CE0BB69B3F1FF3F28D0BB69BE
:10440C00002B07D0FDF734F802463B68D31ABA6983
:10441C009A421DD2FB681B68DA68FB681B6822F4A1
:10442C00D072DA60FB681B685A69FB681B6822F063
:10443C0001025A61FB68202283F83D20FB68202290
:10444C0083F83E20FB68002283F83C2003230FE016
:10445C00FB681B681A68BB681340BA689A420CBFA9
:10446C0001230023DBB21A46FB799A42C3D0002306
:10447C0018461037BD4680BD80B485B000AFF860DB
:10448C00B9601346FB80FB68BA689A62FB68FA88CD
:10449C009A85FB68FA88DA85FB6800221A64FB6847
:1044AC00222283F83E20FB68002283F83C20FB6824
:1044BC001B68DA68FB681B6842F48072DA60FB6880
:1044CC001B685A69FB681B6842F001025A61FB6861
:1044DC001B68DA68FB681B6842F02002DA60002374
:1044EC0018461437BD4680BC704780B483B000AF0B
:1044FC0078607B681B68DA687B681B6822F49072B2
:10450C00DA607B681B685A697B681B6822F00102C1
:10451C005A617B681B6B012B07D17B681B68DA68BF
:10452C007B681B6822F01002DA607B68202283F81B
:10453C003E207B6800221A6300BF0C37BD4680BC4E
:10454C00704780B584B000AF78607B685B6AFB60B5
:10455C00FB680022DA85FB680022DA84F868FBF736
:10456C0093FF00BF1037BD4680BD80B485B000AF4F
:10457C0078607B6893F83D30DBB2212B3ED17B68B1
:10458C009B68B3F5805F14D17B681B69002B10D13D
:10459C007B681B6AFB60FB681B881A467B681B6880
:1045AC00C2F308025A607B681B6A9A1C7B681A6209
:1045BC0008E07B681B6A591C7A6811621A787B6860
:1045CC001B685A607B68DB8C9BB2013B9BB27A68A0
:1045DC001946D184002B0FD17B681B68DA687B6885
:1045EC001B6822F08002DA607B681B68DA687B68E3
:1045FC001B6842F04002DA60002300E002231846F8
:10460C001437BD4680BC704780B582B000AF78606F
:10461C007B681B68DA687B681B6822F04002DA60F2
:10462C007B68202283F83D207868FFF7C7FE0023C3
:10463C0018460837BD4680BD80B586B000AF78609F
:10464C007B6893F83E30DBB2222B40F099807B687C
:10465C009B68B3F5805F17D17B681B69002B13D166
:10466C0000237B617B689B6A3B617B681B685B6892
:10467C009BB2C3F308039AB23B691A807B689B6AAE
:10468C009A1C7B689A6226E07B689B6A7B6100239C
:10469C003B617B689B68B3F5805F07D07B689B6848
:1046AC00002B0AD17B681B69002B06D17B681B6829
:1046BC005B68DAB27B691A7008E07B681B685B6820
:1046CC00DBB203F07F03DAB27B691A707B689B6AFA
:1046DC005A1C7B689A627B68DB8D9BB2013B9BB258
:1046EC007A681946D185002B48D17B681B68DA683B
:1046FC007B681B6822F02002DA607B681B68DA6832
:10470C007B681B6822F48072DA607B681B685A69CC
:10471C007B681B6822F001025A617B68202283F8B7
:10472C003E207B681B6B012B23D17B6800221A6314
:10473C007B681B68DA687B681B6822F01002DA6001
:10474C007B681B681B6803F01003102B0AD1002335
:10475C00FB607B681B681B68FB607B681B685B6885
:10476C00FB60FB687B689B8D19467868FFF72FFE12
:10477C0002E07868FBF776FE002302E0002300E0FD
:10478C00022318461837BD4680BD000080B584B0A2
:10479C0000AF78607B681B681B6923F440517B6811
:1047AC00DA687B681B680A431A617B689A687B68C5
:1047BC001B691A437B685B691343BB607B681B688E
:1047CC00DB6823F4B05323F00C037A681268B968E1
:1047DC000B43D3607B681B685B6923F440717B6877
:1047EC009A697B681B680A435A617B681B682C4A70
:1047FC00934203D1FEF7E0FAF86002E0FEF7C8FA44
:10480C00F860FA6813469B0013449A001A447B68BC
:10481C005B689B00B2FBF3F3224AA2FB03235B0908
:10482C001901FA6813469B0013449A001A447B68DA
:10483C005B689B00B2FBF3F21A4BA3FB02035B0910
:10484C00642000FB03F3D31A1B013233154AA2FB7D
:10485C0003235B0903F0F0031944FA6813469B0029
:10486C0013449A001A447B685B689B00B2FBF3F21A
:10487C000C4BA3FB02035B09642000FB03F3D31A6C
:10488C001B013233074AA2FB03235B0903F00F021F
:10489C007B681B680A449A6000BF1037BD4680BD18
:1048AC00003801401F85EB51014B1868704700BF61
:1048BC000C00002070B500260C4D0D4C641BA41090
:1048CC00A64209D100F0E4FC00260A4D0A4C641BF8
:1048DC00A410A64205D170BD55F8043B984701368B
:1048EC00EEE755F8043B98470136F2E7C853000849
:1048FC00C8530008C8530008CC53000803460244B0
:10490C00934200D1704703F8011BF9E770B50E46CE
:10491C00054618B183690BB900F048FAAB69AC686D
:10492C0013B9284600F042FA2C4B9C4220D16C68FB
:10493C00636EDB0705D4A389980502D4A06D00F043
:10494C00D3FAA38919071DD52369DBB1013EA368EE
:10495C0016F8011F013BA36039BB002B38DA224645
:10496C000A21284600F048F8013011D00A2511E040
:10497C001B4B9C4201D1AC68DAE71A4B9C4208BF36
:10498C00EC68D5E72146284600F088F80028DDD0F1
:10499C004FF0FF35636EDA0705D4A3899B0502D46B
:1049AC00A06D00F0A2FA284670BD002B04DAA269B3
:1049BC009A4206DC0A2904D023685A1C226019701A
:1049CC00C5E72246284600F017F80130BFD1DFE7D3
:1049DC000A2523685A1C22601D70DBE788530008E7
:1049EC00A853000868530008024B01461868FFF7EB
:1049FC008DBF00BF0C000020F8B50E4614460546CE
:104A0C0018B183690BB900F0D1F9214B9C422BD121
:104A1C006C68A369A360A3891A072FD523696BB3AC
:104A2C0023692068F6B2C01A63693746834204DCF6
:104A3C002146284600F026F930BBA3680130013B23
:104A4C00A36023685A1C22601E706369834204D0E1
:104A5C00A389DB0706D50A2E04D12146284600F08F
:104A6C0011F988B93846F8BD0A4B9C4201D1AC68A3
:104A7C00CFE7094B9C4208BFEC68CAE721462846A1
:104A8C0000F00CF80028CBD04FF0FF37EAE700BF5E
:104A9C0088530008A853000868530008324B70B5BF
:104AAC001D6806460C4625B1AB6913B9284600F0C3
:104ABC007DF92E4B9C420FD16C68A389B4F90C2064
:104ACC0019072CD4DD0611D40923336042F04003BE
:104ADC004FF0FF30A3813EE0254B9C4201D1AC68E6
:104AEC00EBE7244B9C4208BFEC68E6E7580712D56D
:104AFC00616B41B104F14403994202D0304600F09D
:104B0C0059FA00236363A38923F02403A3810023B0
:104B1C00636023692360A38943F00803A38123699D
:104B2C004BB9A38903F42073B3F5007F03D021465E
:104B3C00304600F0FFF9A089B4F90C2010F0010305
:104B4C000AD00023A36063695B42A361236943B964
:104B5C0010F08000BAD170BD810758BF6369A360A3
:104B6C00F4E70020F7E700BF0C0000208853000892
:104B7C00A8530008685300088A892DE9F0410546BE
:104B8C0010070C4658D44B68002B05DC0B6C002B23
:104B9C0002DC0020BDE8F081E66A002EF9D000238B
:104BAC0012F480522F682B6032D0606DA3895A07A3
:104BBC0005D56368C01A636B0BB1236CC01A002354
:104BCC000246E66A2846216AB047431CA38906D1EF
:104BDC0029681D292CD82A4ACA40D60728D5002274
:104BEC0062602269D904226004D5421C01D12B6871
:104BFC0003B96065616B2F600029CAD004F14403CE
:104C0C00994202D0284600F0D5F900206063C1E734
:104C1C00216A01232846B047411CC7D12B68002BC1
:104C2C00C4D01D2B01D0162B01D12F60B1E7A38965
:104C3C0043F04003A381ADE70F69002FA9D0930780
:104C4C0018BF00230E6808BF4B69A6EB07080F605E
:104C5C008B60B8F1000F9CDD43463A462846216A2A
:104C6C00A66AB047002806DCA3894FF0FF3043F05A
:104C7C004003A3818EE70744A8EB0008E9E700BFD7
:104C8C000100402038B50B6905460C4613B90025C8
:104C9C00284638BD18B183690BB900F087F8144B5E
:104CAC009C421BD16C68B4F90C30002BEFD0626EB7
:104CBC00D00704D4990502D4A06D00F015F928464C
:104CCC002146FFF759FF636E0546DA07E0D4A38946
:104CDC009B05DDD4A06D00F008F9D9E7054B9C428B
:104CEC0001D1AC68DFE7044B9C4208BFEC68DAE703
:104CFC0088530008A853000868530008002310B517
:104D0C000446C0E90033C0E9043383608181436603
:104D1C00C2818361194608225C30FFF7EFFD054B19
:104D2C0024626362044BA362044BE362044B23636F
:104D3C0010BD00BF2D5100084F51000887510008CD
:104D4C00AB510008014900F0AFB800BF914C00080E
:104D5C0070B568254A1E55430E4605F1740100F0E6
:104D6C0075F9044640B10021C0E900160C30A06072
:104D7C0005F16802FFF7C2FD204670BD014800F046
:104D8C00B3B800BF04050020014800F0AEB800BF66
:104D9C0004050020014800F0A7B800BFFF04002064
:104DAC00014800F0A2B800BFFF04002010B5044673
:104DBC00FFF7F0FFA3691BB1BDE81040FFF7F0BF90
:104DCC00C4E912332365134B134A1B68A262A34236
:104DDC0008BF0123204608BFA36100F01FF86060E4
:104DEC00204600F01BF8A060204600F017F80022C7
:104DFC000421E0606068FFF781FF01220921A068AF
:104E0C00FFF77CFF02221221E068FFF777FF0123F6
:104E1C00A361D1E764530008514D0008F8B507466B
:104E2C00FFF7ACFF1E4B1E68B36913B93046FFF792
:104E3C00BDFF4836D6E90134013B03D533680BB3CB
:104E4C003668F7E7B4F90C50D5B9164B04F1580095
:104E5C00E360656600F047F8FFF796FF08222946E5
:104E6C00C4E90155C4E904552560A56104F15C0051
:104E7C00FFF744FDC4E90D55C4E912552046F8BDB1
:104E8C006834D9E704213846FFF762FF04463060E6
:104E9C000028D5D1FFF778FF0C233B60EEE700BF6D
:104EAC00645300080100FFFF2DE9F84306468846CD
:104EBC00002700F14804D4E90195B9F1010905D5A1
:104ECC002468002CF7D13846BDE8F883AB89012B58
:104EDC0007D9B5F90E30013303D029463046C04707
:104EEC0007436835E9E770477047704770B50E4661
:104EFC00B1F90E10144600291D4696B007DA0023AE
:104F0C002B60B3891A0610D44FF480630EE06A4606
:104F1C0000F06CF90028F2DB019A02F47042A2F561
:104F2C0000535A425A412A60EEE740230020236086
:104F3C0016B070BD8B8973B59D0706460C4607D518
:104F4C0004F14703236023610123636102B070BD48
:104F5C006A4601ABFFF7CAFF00990546304600F0E0
:104F6C0075F848B9B4F90C309A05EFD423F0030363
:104F7C0043F00203A381E3E70D4BB362A3892060E6
:104F8C0043F08003A381009B20616361019B5BB1B3
:104F9C003046B4F90E1000F03BF928B1A38923F088
:104FAC00030343F00103A381A0890543A581CDE749
:104FBC00514D000838B50546002943D051F8043C42
:104FCC000C1F002BB8BFE41800F044F91E4A1368FC
:104FDC00104633B9636014602846BDE8384000F0D1
:104FEC003FB9A3420AD921686218934201BF1A68DB
:104FFC005B685218226063600460EDE71A465B68D8
:10500C000BB1A342FAD911685018A0420BD12068F9
:10501C000144501883421160DED118685B6801446A
:10502C0011605360D8E702D90C232B60D4E72068B9
:10503C0021188B4201BF19685B68091821606360F5
:10504C005460C9E738BD00BFA4000020F8B5CD1CE2
:10505C0025F0030508350C2D38BF0C25002D064610
:10506C0001DBA94203D90C2333600020F8BD00F00A
:10507C00F1F821490A6814469CB9204F3B6823B9C2
:10508C002146304600F03CF838602946304600F0A6
:10509C0037F8431C23D10C233046336000F0E0F882
:1050AC00E3E723685B1B17D40B2B03D923601C4449
:1050BC00256004E06368A2420CBF0B60536030466D
:1050CC0000F0CEF804F10B00231D20F00700C21AEB
:1050DC00CCD01B1AA350C9E722466468CCE7C41C89
:1050EC0024F00304A042E3D0211A304600F008F863
:1050FC000130DDD1CFE700BFA4000020A8000020C4
:10510C0038B50023054D044608462B60FCF7F6F82D
:10511C00431C02D12B6803B1236038BD0805002065
:10512C0010B50C46B1F90E1000F0A0F80028ABBF7A
:10513C00636DA3891B1823F48053ACBF6365A381F3
:10514C0010BD2DE9F0411F468B890546DB050C4649
:10515C00164605D502230022B1F90E1000F068F8AE
:10516C00A389324623F48053A38128463B46B4F9E5
:10517C000E10BDE8F04100F017B810B50C46B1F9AF
:10518C000E1000F055F8431CA38915BF606523F47D
:10519C00805343F48053A38118BFA38110BDB1F990
:1051AC000E1000F013B8000038B50446084611463E
:1051BC000022054D2A601A46FBF73EF9431C02D12A
:1051CC002B6803B1236038BD0805002038B50023D7
:1051DC00054D044608462B60FCF75FF8431C02D1D2
:1051EC002B6803B1236038BD0805002038B50023B7
:1051FC00064D0446084611462B60FCF759F8431C33
:10520C0002D12B6803B1236038BD00BF0805002014
:10521C0038B50023054D044608462B60FCF757F8BB
:10522C00431C02D12B6803B1236038BD0805002054
:10523C0038B50446084611460022054D2A601A4628
:10524C00FCF74FF8431C02D12B6803B1236038BD27
:10525C00080500200148FFF747BE00BF00050020ED
:10526C000148FFF742BE00BF0005002038B50446D8
:10527C00084611460022054D2A601A46FBF7F0FF3E
:10528C00431C02D12B6803B1236038BD08050020F4
:10529C00F8B500BFF8BC08BC9E467047F8B500BF17
:0852AC00F8BC08BC9E467047E7
:1052B400506F776572204F4E0D000000536C65658A
:1052C400700D0000506F776572206F666620696EFE
:1052D4002070726F6772657373202E2E2E0D00007E
:1052E400506F776572204F46460D0000525049209A
:1052F400506F776572206F666620466565646261EB
:10530400636B0D00496E697469616C697A696E67D3
:10531400202E2E2E0D0000000203040506070809A6
:105324000A0B0C0D0E0F10100001020304050709EF
:105334000C0F12161B20262C333A434C56606C7803
:105344008694A3B4C5D8EBFF000000000000000061
:105354000102030406070809000000000102030417
:105364001000002000000000000000000000000009
:105374000000000000000000000000000000000029
:105384000000000000000000000000000000000019
:105394000000000000000000000000000000000009
:1053A40000000000000000000000000000000000F9
:1053B40000000000000000000000000000000000E9
:0453C40000000000E5
:0453C80031010008A7
:0453CC000D010008C7
:1053D0000024F40010000000010000001000002074
:1053E0000000000088530008A85300086853000814
:1053F00000000000000000000000000000000000AD
:10540000000000000000000000000000000000009C
:10541000000000000000000000000000000000008C
:10542000000000000000000000000000000000007C
:10543000000000000000000000000000000000006C
:04000005080013815B
:00000001FF
